{
    "abi": [
        {
            "inputs": [
                {
                    "components": [
                        {
                            "internalType": "uint256",
                            "name": "writeBPS",
                            "type": "uint256"
                        },
                        {
                            "internalType": "uint256",
                            "name": "transferBPS",
                            "type": "uint256"
                        },
                        {
                            "internalType": "uint256",
                            "name": "fundBPS",
                            "type": "uint256"
                        },
                        {
                            "internalType": "uint256",
                            "name": "cashBPS",
                            "type": "uint256"
                        }
                    ],
                    "internalType": "struct DataTypes.WTFCFees",
                    "name": "_fees",
                    "type": "tuple"
                }
            ],
            "stateMutability": "nonpayable",
            "type": "constructor"
        },
        {
            "anonymous": false,
            "inputs": [
                {
                    "indexed": true,
                    "internalType": "address",
                    "name": "owner",
                    "type": "address"
                },
                {
                    "indexed": true,
                    "internalType": "address",
                    "name": "approved",
                    "type": "address"
                },
                {
                    "indexed": true,
                    "internalType": "uint256",
                    "name": "tokenId",
                    "type": "uint256"
                }
            ],
            "name": "Approval",
            "type": "event"
        },
        {
            "anonymous": false,
            "inputs": [
                {
                    "indexed": true,
                    "internalType": "address",
                    "name": "owner",
                    "type": "address"
                },
                {
                    "indexed": true,
                    "internalType": "address",
                    "name": "operator",
                    "type": "address"
                },
                {
                    "indexed": false,
                    "internalType": "bool",
                    "name": "approved",
                    "type": "bool"
                }
            ],
            "name": "ApprovalForAll",
            "type": "event"
        },
        {
            "anonymous": false,
            "inputs": [
                {
                    "indexed": true,
                    "internalType": "address",
                    "name": "previousOwner",
                    "type": "address"
                },
                {
                    "indexed": true,
                    "internalType": "address",
                    "name": "newOwner",
                    "type": "address"
                }
            ],
            "name": "OwnershipTransferred",
            "type": "event"
        },
        {
            "anonymous": false,
            "inputs": [
                {
                    "indexed": true,
                    "internalType": "address",
                    "name": "from",
                    "type": "address"
                },
                {
                    "indexed": true,
                    "internalType": "address",
                    "name": "to",
                    "type": "address"
                },
                {
                    "indexed": true,
                    "internalType": "uint256",
                    "name": "tokenId",
                    "type": "uint256"
                }
            ],
            "name": "Transfer",
            "type": "event"
        },
        {
            "inputs": [
                {
                    "internalType": "address",
                    "name": "module",
                    "type": "address"
                }
            ],
            "name": "_returnCodeHash",
            "outputs": [
                {
                    "internalType": "bytes32",
                    "name": "",
                    "type": "bytes32"
                }
            ],
            "stateMutability": "view",
            "type": "function"
        },
        {
            "inputs": [],
            "name": "_writeFlatFee",
            "outputs": [
                {
                    "internalType": "uint256",
                    "name": "",
                    "type": "uint256"
                }
            ],
            "stateMutability": "view",
            "type": "function"
        },
        {
            "inputs": [
                {
                    "internalType": "address",
                    "name": "to",
                    "type": "address"
                },
                {
                    "internalType": "uint256",
                    "name": "tokenId",
                    "type": "uint256"
                }
            ],
            "name": "approve",
            "outputs": [],
            "stateMutability": "nonpayable",
            "type": "function"
        },
        {
            "inputs": [
                {
                    "internalType": "address",
                    "name": "owner",
                    "type": "address"
                }
            ],
            "name": "balanceOf",
            "outputs": [
                {
                    "internalType": "uint256",
                    "name": "",
                    "type": "uint256"
                }
            ],
            "stateMutability": "view",
            "type": "function"
        },
        {
            "inputs": [
                {
                    "internalType": "uint256",
                    "name": "cheqId",
                    "type": "uint256"
                },
                {
                    "internalType": "uint256",
                    "name": "amount",
                    "type": "uint256"
                },
                {
                    "internalType": "address",
                    "name": "to",
                    "type": "address"
                },
                {
                    "internalType": "bytes",
                    "name": "cashData",
                    "type": "bytes"
                }
            ],
            "name": "cash",
            "outputs": [],
            "stateMutability": "payable",
            "type": "function"
        },
        {
            "inputs": [
                {
                    "internalType": "uint256",
                    "name": "cheqId",
                    "type": "uint256"
                }
            ],
            "name": "cheqCurrency",
            "outputs": [
                {
                    "internalType": "address",
                    "name": "",
                    "type": "address"
                }
            ],
            "stateMutability": "view",
            "type": "function"
        },
        {
            "inputs": [
                {
                    "internalType": "uint256",
                    "name": "cheqId",
                    "type": "uint256"
                }
            ],
            "name": "cheqEscrowed",
            "outputs": [
                {
                    "internalType": "uint256",
                    "name": "",
                    "type": "uint256"
                }
            ],
            "stateMutability": "view",
            "type": "function"
        },
        {
            "inputs": [
                {
                    "internalType": "uint256",
                    "name": "cheqId",
                    "type": "uint256"
                }
            ],
            "name": "cheqInfo",
            "outputs": [
                {
                    "components": [
                        {
                            "internalType": "address",
                            "name": "currency",
                            "type": "address"
                        },
                        {
                            "internalType": "uint256",
                            "name": "escrowed",
                            "type": "uint256"
                        },
                        {
                            "internalType": "uint256",
                            "name": "createdAt",
                            "type": "uint256"
                        },
                        {
                            "internalType": "address",
                            "name": "module",
                            "type": "address"
                        }
                    ],
                    "internalType": "struct DataTypes.Cheq",
                    "name": "",
                    "type": "tuple"
                }
            ],
            "stateMutability": "view",
            "type": "function"
        },
        {
            "inputs": [
                {
                    "internalType": "uint256",
                    "name": "cheqId",
                    "type": "uint256"
                }
            ],
            "name": "cheqModule",
            "outputs": [
                {
                    "internalType": "address",
                    "name": "",
                    "type": "address"
                }
            ],
            "stateMutability": "view",
            "type": "function"
        },
        {
            "inputs": [],
            "name": "fees",
            "outputs": [
                {
                    "internalType": "uint256",
                    "name": "writeBPS",
                    "type": "uint256"
                },
                {
                    "internalType": "uint256",
                    "name": "transferBPS",
                    "type": "uint256"
                },
                {
                    "internalType": "uint256",
                    "name": "fundBPS",
                    "type": "uint256"
                },
                {
                    "internalType": "uint256",
                    "name": "cashBPS",
                    "type": "uint256"
                }
            ],
            "stateMutability": "view",
            "type": "function"
        },
        {
            "inputs": [
                {
                    "internalType": "uint256",
                    "name": "cheqId",
                    "type": "uint256"
                },
                {
                    "internalType": "uint256",
                    "name": "amount",
                    "type": "uint256"
                },
                {
                    "internalType": "uint256",
                    "name": "instant",
                    "type": "uint256"
                },
                {
                    "internalType": "bytes",
                    "name": "fundData",
                    "type": "bytes"
                }
            ],
            "name": "fund",
            "outputs": [],
            "stateMutability": "payable",
            "type": "function"
        },
        {
            "inputs": [
                {
                    "internalType": "uint256",
                    "name": "tokenId",
                    "type": "uint256"
                }
            ],
            "name": "getApproved",
            "outputs": [
                {
                    "internalType": "address",
                    "name": "",
                    "type": "address"
                }
            ],
            "stateMutability": "view",
            "type": "function"
        },
        {
            "inputs": [],
            "name": "getFees",
            "outputs": [
                {
                    "internalType": "uint256",
                    "name": "",
                    "type": "uint256"
                },
                {
                    "internalType": "uint256",
                    "name": "",
                    "type": "uint256"
                },
                {
                    "internalType": "uint256",
                    "name": "",
                    "type": "uint256"
                },
                {
                    "internalType": "uint256",
                    "name": "",
                    "type": "uint256"
                }
            ],
            "stateMutability": "view",
            "type": "function"
        },
        {
            "inputs": [
                {
                    "internalType": "uint256",
                    "name": "cheqId",
                    "type": "uint256"
                },
                {
                    "internalType": "uint8",
                    "name": "_WTFC",
                    "type": "uint8"
                }
            ],
            "name": "getTotalFees",
            "outputs": [
                {
                    "internalType": "uint256",
                    "name": "",
                    "type": "uint256"
                },
                {
                    "internalType": "uint256",
                    "name": "",
                    "type": "uint256"
                }
            ],
            "stateMutability": "view",
            "type": "function"
        },
        {
            "inputs": [
                {
                    "internalType": "address",
                    "name": "owner",
                    "type": "address"
                },
                {
                    "internalType": "address",
                    "name": "operator",
                    "type": "address"
                }
            ],
            "name": "isApprovedForAll",
            "outputs": [
                {
                    "internalType": "bool",
                    "name": "",
                    "type": "bool"
                }
            ],
            "stateMutability": "view",
            "type": "function"
        },
        {
            "inputs": [
                {
                    "internalType": "address",
                    "name": "module",
                    "type": "address"
                }
            ],
            "name": "moduleWhitelisted",
            "outputs": [
                {
                    "internalType": "bool",
                    "name": "",
                    "type": "bool"
                },
                {
                    "internalType": "bool",
                    "name": "",
                    "type": "bool"
                }
            ],
            "stateMutability": "view",
            "type": "function"
        },
        {
            "inputs": [
                {
                    "internalType": "address",
                    "name": "token",
                    "type": "address"
                },
                {
                    "internalType": "uint256",
                    "name": "amount",
                    "type": "uint256"
                },
                {
                    "internalType": "address",
                    "name": "to",
                    "type": "address"
                }
            ],
            "name": "moduleWithdraw",
            "outputs": [],
            "stateMutability": "nonpayable",
            "type": "function"
        },
        {
            "inputs": [],
            "name": "name",
            "outputs": [
                {
                    "internalType": "string",
                    "name": "",
                    "type": "string"
                }
            ],
            "stateMutability": "view",
            "type": "function"
        },
        {
            "inputs": [],
            "name": "owner",
            "outputs": [
                {
                    "internalType": "address",
                    "name": "",
                    "type": "address"
                }
            ],
            "stateMutability": "view",
            "type": "function"
        },
        {
            "inputs": [
                {
                    "internalType": "uint256",
                    "name": "tokenId",
                    "type": "uint256"
                }
            ],
            "name": "ownerOf",
            "outputs": [
                {
                    "internalType": "address",
                    "name": "",
                    "type": "address"
                }
            ],
            "stateMutability": "view",
            "type": "function"
        },
        {
            "inputs": [],
            "name": "renounceOwnership",
            "outputs": [],
            "stateMutability": "nonpayable",
            "type": "function"
        },
        {
            "inputs": [
                {
                    "internalType": "address",
                    "name": "from",
                    "type": "address"
                },
                {
                    "internalType": "address",
                    "name": "to",
                    "type": "address"
                },
                {
                    "internalType": "uint256",
                    "name": "tokenId",
                    "type": "uint256"
                }
            ],
            "name": "safeTransferFrom",
            "outputs": [],
            "stateMutability": "nonpayable",
            "type": "function"
        },
        {
            "inputs": [
                {
                    "internalType": "address",
                    "name": "from",
                    "type": "address"
                },
                {
                    "internalType": "address",
                    "name": "to",
                    "type": "address"
                },
                {
                    "internalType": "uint256",
                    "name": "tokenId",
                    "type": "uint256"
                },
                {
                    "internalType": "bytes",
                    "name": "moduleTransferData",
                    "type": "bytes"
                }
            ],
            "name": "safeTransferFrom",
            "outputs": [],
            "stateMutability": "nonpayable",
            "type": "function"
        },
        {
            "inputs": [
                {
                    "internalType": "address",
                    "name": "",
                    "type": "address"
                },
                {
                    "internalType": "bool",
                    "name": "",
                    "type": "bool"
                }
            ],
            "name": "setApprovalForAll",
            "outputs": [],
            "stateMutability": "pure",
            "type": "function"
        },
        {
            "inputs": [
                {
                    "internalType": "bytes4",
                    "name": "interfaceId",
                    "type": "bytes4"
                }
            ],
            "name": "supportsInterface",
            "outputs": [
                {
                    "internalType": "bool",
                    "name": "",
                    "type": "bool"
                }
            ],
            "stateMutability": "view",
            "type": "function"
        },
        {
            "inputs": [],
            "name": "symbol",
            "outputs": [
                {
                    "internalType": "string",
                    "name": "",
                    "type": "string"
                }
            ],
            "stateMutability": "view",
            "type": "function"
        },
        {
            "inputs": [
                {
                    "internalType": "uint256",
                    "name": "_tokenId",
                    "type": "uint256"
                }
            ],
            "name": "tokenURI",
            "outputs": [
                {
                    "internalType": "string",
                    "name": "",
                    "type": "string"
                }
            ],
            "stateMutability": "view",
            "type": "function"
        },
        {
            "inputs": [
                {
                    "internalType": "address",
                    "name": "token",
                    "type": "address"
                }
            ],
            "name": "tokenWhitelisted",
            "outputs": [
                {
                    "internalType": "bool",
                    "name": "",
                    "type": "bool"
                }
            ],
            "stateMutability": "view",
            "type": "function"
        },
        {
            "inputs": [],
            "name": "totalSupply",
            "outputs": [
                {
                    "internalType": "uint256",
                    "name": "",
                    "type": "uint256"
                }
            ],
            "stateMutability": "view",
            "type": "function"
        },
        {
            "inputs": [
                {
                    "internalType": "address",
                    "name": "from",
                    "type": "address"
                },
                {
                    "internalType": "address",
                    "name": "to",
                    "type": "address"
                },
                {
                    "internalType": "uint256",
                    "name": "tokenId",
                    "type": "uint256"
                }
            ],
            "name": "transferFrom",
            "outputs": [],
            "stateMutability": "nonpayable",
            "type": "function"
        },
        {
            "inputs": [
                {
                    "internalType": "address",
                    "name": "newOwner",
                    "type": "address"
                }
            ],
            "name": "transferOwnership",
            "outputs": [],
            "stateMutability": "nonpayable",
            "type": "function"
        },
        {
            "inputs": [
                {
                    "components": [
                        {
                            "internalType": "uint256",
                            "name": "writeBPS",
                            "type": "uint256"
                        },
                        {
                            "internalType": "uint256",
                            "name": "transferBPS",
                            "type": "uint256"
                        },
                        {
                            "internalType": "uint256",
                            "name": "fundBPS",
                            "type": "uint256"
                        },
                        {
                            "internalType": "uint256",
                            "name": "cashBPS",
                            "type": "uint256"
                        }
                    ],
                    "internalType": "struct DataTypes.WTFCFees",
                    "name": "_fees",
                    "type": "tuple"
                }
            ],
            "name": "updateFees",
            "outputs": [],
            "stateMutability": "nonpayable",
            "type": "function"
        },
        {
            "inputs": [
                {
                    "internalType": "address",
                    "name": "module",
                    "type": "address"
                },
                {
                    "internalType": "address",
                    "name": "token",
                    "type": "address"
                }
            ],
            "name": "validWrite",
            "outputs": [
                {
                    "internalType": "bool",
                    "name": "",
                    "type": "bool"
                }
            ],
            "stateMutability": "view",
            "type": "function"
        },
        {
            "inputs": [
                {
                    "internalType": "address",
                    "name": "module",
                    "type": "address"
                },
                {
                    "internalType": "bool",
                    "name": "bytecodeAccepted",
                    "type": "bool"
                },
                {
                    "internalType": "bool",
                    "name": "addressAccepted",
                    "type": "bool"
                }
            ],
            "name": "whitelistModule",
            "outputs": [],
            "stateMutability": "nonpayable",
            "type": "function"
        },
        {
            "inputs": [
                {
                    "internalType": "address",
                    "name": "_token",
                    "type": "address"
                },
                {
                    "internalType": "bool",
                    "name": "accepted",
                    "type": "bool"
                }
            ],
            "name": "whitelistToken",
            "outputs": [],
            "stateMutability": "nonpayable",
            "type": "function"
        },
        {
            "inputs": [
                {
                    "internalType": "address",
                    "name": "currency",
                    "type": "address"
                },
                {
                    "internalType": "uint256",
                    "name": "escrowed",
                    "type": "uint256"
                },
                {
                    "internalType": "uint256",
                    "name": "instant",
                    "type": "uint256"
                },
                {
                    "internalType": "address",
                    "name": "owner",
                    "type": "address"
                },
                {
                    "internalType": "address",
                    "name": "module",
                    "type": "address"
                },
                {
                    "internalType": "bytes",
                    "name": "moduleWriteData",
                    "type": "bytes"
                }
            ],
            "name": "write",
            "outputs": [
                {
                    "internalType": "uint256",
                    "name": "",
                    "type": "uint256"
                }
            ],
            "stateMutability": "payable",
            "type": "function"
        }
    ],
    "bytecode": {
        "object": "0x60806040523480156200001157600080fd5b50604051620036ef380380620036ef833981016040819052620000349162000143565b6040518060400160405280600e81526020016d19195b9bdd18541c9bdd1bd8dbdb60921b815250604051806040016040528060048152602001634e4f544160e01b81525081600090816200008991906200023b565b5060016200009882826200023b565b505050620000b5620000af620000d760201b60201c565b620000db565b8051600e556020810151600f5560408101516010556060015160115562000307565b3390565b600680546001600160a01b038381166001600160a01b0319831681179093556040519116919082907f8be0079c531659141344cd1fd0a4f28419497f9722a3daafe3b4186f6b6457e090600090a35050565b634e487b7160e01b600052604160045260246000fd5b6000608082840312156200015657600080fd5b604051608081016001600160401b03811182821017156200017b576200017b6200012d565b8060405250825181526020830151602082015260408301516040820152606083015160608201528091505092915050565b600181811c90821680620001c157607f821691505b602082108103620001e257634e487b7160e01b600052602260045260246000fd5b50919050565b601f8211156200023657600081815260208120601f850160051c81016020861015620002115750805b601f850160051c820191505b8181101562000232578281556001016200021d565b5050505b505050565b81516001600160401b038111156200025757620002576200012d565b6200026f81620002688454620001ac565b84620001e8565b602080601f831160018114620002a757600084156200028e5750858301515b600019600386901b1c1916600185901b17855562000232565b600085815260208120601f198616915b82811015620002d857888601518255948401946001909101908401620002b7565b5085821015620002f75787850151600019600388901b60f8161c191681555b5050505050600190811b01905550565b6133d880620003176000396000f3fe60806040526004361061020f5760003560e01c806395d89b4111610118578063d6a4f84c116100a0578063e985e9c51161006f578063e985e9c514610662578063f2fde38b146106ab578063f7794942146106cb578063fdd90c7014610766578063ff8507e81461079c57600080fd5b8063d6a4f84c146105cb578063db8d55f1146105eb578063dfd5d81114610609578063e0e295b71461062957600080fd5b8063b88d4fde116100e7578063b88d4fde14610535578063c298c4d214610555578063c87b56dd14610585578063d0d0bb3f146105a5578063d6122058146105b857600080fd5b806395d89b411461049d57806398a9c92b146104b25780639af1d35a146104d2578063a22cb4651461051557600080fd5b806342842e0e1161019b57806353aafb691161016a57806353aafb691461040a5780636352211e1461042a57806370a082311461044a578063715018a61461046a5780638da5cb5b1461047f57600080fd5b806342842e0e1461035c5780634c8065391461037c5780634e289c061461039257806352f37f56146103a557600080fd5b80630ffb1d8b116101e25780630ffb1d8b146102c5578063107e2f3b146102e55780631536beeb1461031257806318160ddd1461034757806323b872dd1461035c57600080fd5b806301ffc9a71461021457806306fdde0314610249578063081812fc1461026b578063095ea7b3146102a3575b600080fd5b34801561022057600080fd5b5061023461022f366004612640565b6107d5565b60405190151581526020015b60405180910390f35b34801561025557600080fd5b5061025e610827565b60405161024091906126ad565b34801561027757600080fd5b5061028b6102863660046126c0565b6108b9565b6040516001600160a01b039091168152602001610240565b3480156102af57600080fd5b506102c36102be3660046126f5565b6108e0565b005b3480156102d157600080fd5b506102c36102e036600461272d565b6109ed565b3480156102f157600080fd5b50610304610300366004612764565b3f90565b604051908152602001610240565b34801561031e57600080fd5b5061033261032d36600461277f565b610a63565b60408051928352602083019190915201610240565b34801561035357600080fd5b50600854610304565b34801561036857600080fd5b506102c36103773660046127aa565b610bc2565b34801561038857600080fd5b5061030460125481565b6102c36103a0366004612828565b610bdd565b3480156103b157600080fd5b506103f36103c0366004612764565b6001600160a01b0381166000908152600c6020908152604080832054933f8352600b90915290205460ff91821692911690565b604080519215158352901515602083015201610240565b34801561041657600080fd5b506102c3610425366004612890565b610ebc565b34801561043657600080fd5b5061028b6104453660046126c0565b610fa5565b34801561045657600080fd5b50610304610465366004612764565b611005565b34801561047657600080fd5b506102c361108b565b34801561048b57600080fd5b506006546001600160a01b031661028b565b3480156104a957600080fd5b5061025e61109f565b3480156104be57600080fd5b506102c36104cd3660046128d9565b6110ae565b3480156104de57600080fd5b50600e54600f546010546011546104f59392919084565b604080519485526020850193909352918301526060820152608001610240565b34801561052157600080fd5b506102c361053036600461272d565b6110d4565b34801561054157600080fd5b506102c3610550366004612960565b611120565b34801561056157600080fd5b506103046105703660046126c0565b60009081526007602052604090206001015490565b34801561059157600080fd5b5061025e6105a03660046126c0565b61138c565b6103046105b3366004612a0b565b61145c565b6102c36105c6366004612a94565b611687565b3480156105d757600080fd5b506102c36105e6366004612ad8565b6117d2565b3480156105f757600080fd5b50600e54600f546010546011546104f5565b34801561061557600080fd5b50610234610624366004612b14565b61186a565b34801561063557600080fd5b5061028b6106443660046126c0565b6000908152600760205260409020600301546001600160a01b031690565b34801561066e57600080fd5b5061023461067d366004612b14565b6001600160a01b03918216600090815260056020908152604080832093909416825291909152205460ff1690565b3480156106b757600080fd5b506102c36106c6366004612764565b61189d565b3480156106d757600080fd5b506107596106e63660046126c0565b60408051608081018252600080825260208201819052918101829052606081019190915250600090815260076020908152604091829020825160808101845281546001600160a01b0390811682526001830154938201939093526002820154938101939093526003015416606082015290565b6040516102409190612b47565b34801561077257600080fd5b5061028b6107813660046126c0565b6000908152600760205260409020546001600160a01b031690565b3480156107a857600080fd5b506102346107b7366004612764565b6001600160a01b03166000908152600d602052604090205460ff1690565b60006001600160e01b031982166380ac58cd60e01b148061080657506001600160e01b03198216635b5e139f60e01b145b8061082157506301ffc9a760e01b6001600160e01b03198316145b92915050565b60606000805461083690612b7f565b80601f016020809104026020016040519081016040528092919081815260200182805461086290612b7f565b80156108af5780601f10610884576101008083540402835291602001916108af565b820191906000526020600020905b81548152906001019060200180831161089257829003601f168201915b5050505050905090565b60006108c482611916565b506000908152600460205260409020546001600160a01b031690565b336001600160a01b0383160361092d5760405162461bcd60e51b815260206004820152600d60248201526c14d1531197d054141493d59053609a1b60448201526064015b60405180910390fd5b600081815260076020908152604091829020825160808101845281546001600160a01b03908116825260018301549382019390935260028201549381019390935260030154166060820181905263e41759683361098985610fa5565b8686866040518663ffffffff1660e01b81526004016109ac959493929190612bb3565b600060405180830381600087803b1580156109c657600080fd5b505af11580156109da573d6000803e3d6000fd5b505050506109e88383611975565b505050565b6109f56119e3565b6001600160a01b0382166000818152600d60205260409020805460ff1916831515908117909155907f1bf5ef6ada443138fcac941f79625fe01e92ff514fee9f160bff18363199c7a033604080516001600160a01b0390921682524260208301520160405180910390a35050565b600080600080600080610a81600e54600f5460105460115490919293565b9350935093509350610a9161260c565b6040518060800160405280868152602001858152602001848152602001838152509050600080600080600760008e815260200190815260200160002060030160009054906101000a90046001600160a01b03166001600160a01b031663db8d55f16040518163ffffffff1660e01b8152600401608060405180830381865afa158015610b21573d6000803e3d6000fd5b505050506040513d601f19601f82011682018060405250810190610b459190612c2e565b9350935093509350610b5561260c565b6040518060800160405280868152602001858152602001848152602001838152509050858d60ff1660048110610b8d57610b8d612c64565b6020020151818e60ff1660048110610ba757610ba7612c64565b60200201519b509b50505050505050505050505b9250929050565b6109e883838360405180602001604052806000815250611120565b600085815260076020526040812060038101549091906001600160a01b03166306890cd033610c0b8a610fa5565b888a8c888b8b6040518963ffffffff1660e01b8152600401610c34989796959493929190612ca3565b6020604051808303816000875af1158015610c53573d6000803e3d6000fd5b505050506040513d601f19601f82011682018060405250810190610c779190612d20565b90506000612710600e6003015488610c8f9190612d4f565b610c999190612d6e565b9050600082610ca8838a612d90565b610cb29190612d90565b90508084600101541015610cfb5760405162461bcd60e51b815260206004820152601060248201526f10d0539517d0d054d217d05353d5539560821b6044820152606401610924565b600184018054829003905583546001600160a01b0316610dae576000876001600160a01b03168960405160006040518083038185875af1925050503d8060008114610d62576040519150601f19603f3d011682016040523d82523d6000602084013e610d67565b606091505b5050905080610da85760405162461bcd60e51b815260206004820152600d60248201526c1514905394d197d19052531151609a1b6044820152606401610924565b50610dc4565b8354610dc4906001600160a01b0316888a611a3d565b60038401546001600160a01b039081166000908152600960209081526040808320885490941683529290529081208054859290610e02908490612d90565b909155505083546001600160a01b03166000908152600a602052604081208054849290610e30908490612d90565b9091555050604051610e459087908790612da3565b604051809103902089610e553390565b604080516001600160a01b038c81168252602082018e9052918101879052606081018890524260808201529116907fcc73058e75a01c33a85f65ead2935fe75310b9cb0c7980c2d1a14854db9721539060a0015b60405180910390a4505050505050505050565b610ec46119e3565b801515821515141580610edd57508180610edb5750805b155b610f1d5760405162461bcd60e51b8152602060048201526011602482015270086829c4ea8be8286868aa0a8be849ea89607b1b6044820152606401610924565b823f6000908152600b60209081526040808320805486151560ff1991821681179092556001600160a01b038816808652600c8552948390208054871515921682179055825191825292810192909252429082015233907fe82584b416ef90b398503af85e6daba1407060c9e2d2050c858719c4f1b076479060600160405180910390a3505050565b6000818152600260205260408120546001600160a01b0316806108215760405162461bcd60e51b8152602060048201526018602482015277115490cdcc8c4e881a5b9d985b1a59081d1bdad95b88125160421b6044820152606401610924565b60006001600160a01b03821661106f5760405162461bcd60e51b815260206004820152602960248201527f4552433732313a2061646472657373207a65726f206973206e6f7420612076616044820152683634b21037bbb732b960b91b6064820152608401610924565b506001600160a01b031660009081526003602052604090205490565b6110936119e3565b61109d6000611aa0565b565b60606001805461083690612b7f565b6110b66119e3565b8035600e556020810135600f55604081013560105560600135601155565b60405162461bcd60e51b815260206004820152601760248201527f4f50455241544f52535f4e4f545f535550504f525445440000000000000000006044820152606401610924565b5050565b600061112b83610fa5565b60008481526007602052604081206003810154929350916001600160a01b031663c0c9572c3361115a886108b9565b868b8b8b8960000160009054906101000a90046001600160a01b03168a600101548b600201548e6040518b63ffffffff1660e01b81526004016111a69a99989796959493929190612db3565b6020604051808303816000875af11580156111c5573d6000803e3d6000fd5b505050506040513d601f19601f820116820180604052508101906111e99190612d20565b600183015490915015611305576000612710600e6001015484600101546112109190612d4f565b61121a9190612d6e565b90508181846001015461122d9190612e28565b6112379190612e28565b600184015560038301546001600160a01b03908116600090815260096020908152604080832087549094168352929052908120805484929061127a908490612d90565b909155505082546001600160a01b03166000908152600a6020526040812080548392906112a8908490612d90565b90915550506040805182815260208101849052428183015290516001600160a01b03898116929087169189917f86426a27b67faa69ebf65a2efa816f2db865f93526c68a0be0175c4471275850919081900360600190a450611368565b856001600160a01b0316836001600160a01b0316867f86426a27b67faa69ebf65a2efa816f2db865f93526c68a0be0175c44712758506000804260405161135f939291909283526020830191909152604082015260600190565b60405180910390a45b61138387878760405180602001604052806000815250611af2565b50505050505050565b606061139782611916565b6000828152600760205260408082206003015490516327f0bf0d60e11b8152600481018590526001600160a01b0390911690634fe17e1a90602401600060405180830381865afa1580156113ef573d6000803e3d6000fd5b505050506040513d6000823e601f3d908101601f191682016040526114179190810190612e3b565b60008481526007602052604090208054600182015460028301546003909301549394506114559387936001600160a01b039384169390911686611b2b565b9392505050565b6000611468848961186a565b6114a65760405162461bcd60e51b815260206004820152600f60248201526e1393d517d5d2125511531254d51151608a1b6044820152606401610924565b600854604051635aeb80dd60e11b81526000916001600160a01b0387169163b5d701ba916114e49133918b918f908f908f908d908d90600401612eb2565b6020604051808303816000875af1158015611503573d6000803e3d6000fd5b505050506040513d601f19601f820116820180604052508101906115279190612d20565b9050600061153f89898c8a600e60000154878c611b8a565b905061154d87600854611db0565b8960076000600854815260200190815260200160002060000160006101000a8154816001600160a01b0302191690836001600160a01b03160217905550886007600060085481526020019081526020016000206001018190555042600760006008548152602001908152602001600020600201819055508560076000600854815260200190815260200160002060030160006101000a8154816001600160a01b0302191690836001600160a01b03160217905550856001600160a01b0316876001600160a01b031661161c3390565b6001600160a01b03167ff401668e35bcbb5df9af7fce75aa772196867bda49684a81eac2b47f2161665c6008548c8f8f42898b8f8f60405161166699989796959493929190612f06565b60405180910390a45050600880546001810190915598975050505050505050565b60008581526007602052604081209061169f87610fa5565b60038301549091506000906001600160a01b031663be2f3fdd33848a8a8d898c8c6040518963ffffffff1660e01b81526004016116e3989796959493929190612f5d565b6020604051808303816000875af1158015611702573d6000803e3d6000fd5b505050506040513d601f19601f820116820180604052508101906117269190612d20565b60018401548454601054600387015493945060009361175893928b926001600160a01b03918216928992899116611b8a565b9050858560405161176a929190612da3565b60405180910390208961177a3390565b604080518c8152602081018c9052908101859052606081018690524260808201526001600160a01b0391909116907fadbe4af352c54f09ed95f837f2c7d17bac02ffad06d885343c616d3cbcbccf189060a001610ea9565b3360009081526009602090815260408083206001600160a01b03871684529091529020548211156118335760405162461bcd60e51b815260206004820152600b60248201526a494e5355465f46554e445360a81b6044820152606401610924565b3360009081526009602090815260408083206001600160a01b0387168085529252909120805484900390556109e890308385611dca565b600061187583611e02565b80156114555750506001600160a01b03166000908152600d602052604090205460ff16919050565b6118a56119e3565b6001600160a01b03811661190a5760405162461bcd60e51b815260206004820152602660248201527f4f776e61626c653a206e6577206f776e657220697320746865207a65726f206160448201526564647265737360d01b6064820152608401610924565b61191381611aa0565b50565b6000818152600260205260409020546001600160a01b03166119135760405162461bcd60e51b8152602060048201526018602482015277115490cdcc8c4e881a5b9d985b1a59081d1bdad95b88125160421b6044820152606401610924565b600081815260046020526040902080546001600160a01b0319166001600160a01b03841690811790915581906119aa82610fa5565b6001600160a01b03167f8c5be1e5ebec7d5bd14f71427d1e84f3dd0314c0f7b2291e5b200ac8c7c3b92560405160405180910390a45050565b6006546001600160a01b0316331461109d5760405162461bcd60e51b815260206004820181905260248201527f4f776e61626c653a2063616c6c6572206973206e6f7420746865206f776e65726044820152606401610924565b6040516001600160a01b0383166024820152604481018290526109e890849063a9059cbb60e01b906064015b60408051601f198184030181529190526020810180516001600160e01b03166001600160e01b031990931692909217909152611e3b565b600680546001600160a01b038381166001600160a01b0319831681179093556040519116919082907f8be0079c531659141344cd1fd0a4f28419497f9722a3daafe3b4186f6b6457e090600090a35050565b611afd848484611f0d565b611b0984848484612071565b611b255760405162461bcd60e51b815260040161092490612fba565b50505050565b6060611b5f878388888888604051602001611b4b9695949392919061300c565b604051602081830303815290604052612173565b604051602001611b6f9190613245565b60405160208183030381529060405290509695505050505050565b600080611b97888a612d90565b90508015611da457612710611bac8683612d4f565b611bb69190612d6e565b9150600084611bc5848c612d90565b611bcf9190612d90565b90508015611c3a576001600160a01b038816611c2557803414611c205760405162461bcd60e51b8152602060048201526009602482015268125394d55197d5905360ba1b6044820152606401610924565b611c3a565b611c3a6001600160a01b038916333084611dca565b8815611d39576001600160a01b03881615611c6957611c646001600160a01b03891633898c611dca565b611d39565b883414611ca45760405162461bcd60e51b8152602060048201526009602482015268125394d55197d5905360ba1b6044820152606401610924565b6000876001600160a01b03163460405160006040518083038185875af1925050503d8060008114611cf1576040519150601f19603f3d011682016040523d82523d6000602084013e611cf6565b606091505b5050905080611d375760405162461bcd60e51b815260206004820152600d60248201526c1514905394d197d19052531151609a1b6044820152606401610924565b505b6001600160a01b0388166000908152600a602052604081208054859290611d61908490612d90565b90915550506001600160a01b038085166000908152600960209081526040808320938c1683529290529081208054879290611d9d908490612d90565b9091555050505b50979650505050505050565b61111c8282604051806020016040528060008152506122c6565b6040516001600160a01b0380851660248301528316604482015260648101829052611b259085906323b872dd60e01b90608401611a69565b6001600160a01b0381166000908152600c602052604081205460ff16806108215750503f6000908152600b602052604090205460ff1690565b6000611e90826040518060400160405280602081526020017f5361666545524332303a206c6f772d6c6576656c2063616c6c206661696c6564815250856001600160a01b03166122f99092919063ffffffff16565b8051909150156109e85780806020019051810190611eae919061328a565b6109e85760405162461bcd60e51b815260206004820152602a60248201527f5361666545524332303a204552433230206f7065726174696f6e20646964206e6044820152691bdd081cdd58d8d9595960b21b6064820152608401610924565b826001600160a01b0316611f2082610fa5565b6001600160a01b031614611f465760405162461bcd60e51b8152600401610924906132a7565b6001600160a01b038216611fa85760405162461bcd60e51b8152602060048201526024808201527f4552433732313a207472616e7366657220746f20746865207a65726f206164646044820152637265737360e01b6064820152608401610924565b826001600160a01b0316611fbb82610fa5565b6001600160a01b031614611fe15760405162461bcd60e51b8152600401610924906132a7565b600081815260046020908152604080832080546001600160a01b03199081169091556001600160a01b0387811680865260038552838620805460001901905590871680865283862080546001019055868652600290945282852080549092168417909155905184937fddf252ad1be2c89b69c2b068fc378daa952ba7f163c4a11628f55a4df523b3ef91a4505050565b60006001600160a01b0384163b1561216757604051630a85bd0160e11b81526001600160a01b0385169063150b7a02906120b59033908990889088906004016132ec565b6020604051808303816000875af19250505080156120f0575060408051601f3d908101601f191682019092526120ed91810190613329565b60015b61214d573d80801561211e576040519150601f19603f3d011682016040523d82523d6000602084013e612123565b606091505b5080516000036121455760405162461bcd60e51b815260040161092490612fba565b805181602001fd5b6001600160e01b031916630a85bd0160e11b14905061216b565b5060015b949350505050565b6060815160000361219257505060408051602081019091526000815290565b600060405180606001604052806040815260200161336360409139905060006003845160026121c19190612d90565b6121cb9190612d6e565b6121d6906004612d4f565b67ffffffffffffffff8111156121ee576121ee6128f1565b6040519080825280601f01601f191660200182016040528015612218576020820181803683370190505b509050600182016020820185865187015b80821015612284576003820191508151603f8160121c168501518453600184019350603f81600c1c168501518453600184019350603f8160061c168501518453600184019350603f8116850151845350600183019250612229565b50506003865106600181146122a057600281146122b3576122bb565b603d6001830353603d60028303536122bb565b603d60018303535b509195945050505050565b6122d08383612308565b6122dd6000848484612071565b6109e85760405162461bcd60e51b815260040161092490612fba565b606061216b8484600085612493565b6001600160a01b03821661235e5760405162461bcd60e51b815260206004820181905260248201527f4552433732313a206d696e7420746f20746865207a65726f20616464726573736044820152606401610924565b6000818152600260205260409020546001600160a01b0316156123c35760405162461bcd60e51b815260206004820152601c60248201527f4552433732313a20746f6b656e20616c7265616479206d696e746564000000006044820152606401610924565b6000818152600260205260409020546001600160a01b0316156124285760405162461bcd60e51b815260206004820152601c60248201527f4552433732313a20746f6b656e20616c7265616479206d696e746564000000006044820152606401610924565b6001600160a01b038216600081815260036020908152604080832080546001019055848352600290915280822080546001600160a01b0319168417905551839291907fddf252ad1be2c89b69c2b068fc378daa952ba7f163c4a11628f55a4df523b3ef908290a45050565b6060824710156124f45760405162461bcd60e51b815260206004820152602660248201527f416464726573733a20696e73756666696369656e742062616c616e636520666f6044820152651c8818d85b1b60d21b6064820152608401610924565b600080866001600160a01b031685876040516125109190613346565b60006040518083038185875af1925050503d806000811461254d576040519150601f19603f3d011682016040523d82523d6000602084013e612552565b606091505b50915091506125638783838761256e565b979650505050505050565b606083156125dd5782516000036125d6576001600160a01b0385163b6125d65760405162461bcd60e51b815260206004820152601d60248201527f416464726573733a2063616c6c20746f206e6f6e2d636f6e74726163740000006044820152606401610924565b508161216b565b61216b83838151156125f25781518083602001fd5b8060405162461bcd60e51b815260040161092491906126ad565b60405180608001604052806004906020820280368337509192915050565b6001600160e01b03198116811461191357600080fd5b60006020828403121561265257600080fd5b81356114558161262a565b60005b83811015612678578181015183820152602001612660565b50506000910152565b6000815180845261269981602086016020860161265d565b601f01601f19169290920160200192915050565b6020815260006114556020830184612681565b6000602082840312156126d257600080fd5b5035919050565b80356001600160a01b03811681146126f057600080fd5b919050565b6000806040838503121561270857600080fd5b612711836126d9565b946020939093013593505050565b801515811461191357600080fd5b6000806040838503121561274057600080fd5b612749836126d9565b915060208301356127598161271f565b809150509250929050565b60006020828403121561277657600080fd5b611455826126d9565b6000806040838503121561279257600080fd5b82359150602083013560ff8116811461275957600080fd5b6000806000606084860312156127bf57600080fd5b6127c8846126d9565b92506127d6602085016126d9565b9150604084013590509250925092565b60008083601f8401126127f857600080fd5b50813567ffffffffffffffff81111561281057600080fd5b602083019150836020828501011115610bbb57600080fd5b60008060008060006080868803121561284057600080fd5b8535945060208601359350612857604087016126d9565b9250606086013567ffffffffffffffff81111561287357600080fd5b61287f888289016127e6565b969995985093965092949392505050565b6000806000606084860312156128a557600080fd5b6128ae846126d9565b925060208401356128be8161271f565b915060408401356128ce8161271f565b809150509250925092565b6000608082840312156128eb57600080fd5b50919050565b634e487b7160e01b600052604160045260246000fd5b604051601f8201601f1916810167ffffffffffffffff81118282101715612930576129306128f1565b604052919050565b600067ffffffffffffffff821115612952576129526128f1565b50601f01601f191660200190565b6000806000806080858703121561297657600080fd5b61297f856126d9565b935061298d602086016126d9565b925060408501359150606085013567ffffffffffffffff8111156129b057600080fd5b8501601f810187136129c157600080fd5b80356129d46129cf82612938565b612907565b8181528860208385010111156129e957600080fd5b8160208401602083013760006020838301015280935050505092959194509250565b600080600080600080600060c0888a031215612a2657600080fd5b612a2f886126d9565b96506020880135955060408801359450612a4b606089016126d9565b9350612a59608089016126d9565b925060a088013567ffffffffffffffff811115612a7557600080fd5b612a818a828b016127e6565b989b979a50959850939692959293505050565b600080600080600060808688031215612aac57600080fd5b853594506020860135935060408601359250606086013567ffffffffffffffff81111561287357600080fd5b600080600060608486031215612aed57600080fd5b612af6846126d9565b925060208401359150612b0b604085016126d9565b90509250925092565b60008060408385031215612b2757600080fd5b612b30836126d9565b9150612b3e602084016126d9565b90509250929050565b60808101610821828480516001600160a01b039081168352602080830151908401526040808301519084015260609182015116910152565b600181811c90821680612b9357607f821691505b6020821081036128eb57634e487b7160e01b600052602260045260246000fd5b6001600160a01b038681168252858116602083015284166040820152606081018390526000610120612c12608084018580516001600160a01b039081168352602080830151908401526040808301519084015260609182015116910152565b6101008301819052600090830152506101400195945050505050565b60008060008060808587031215612c4457600080fd5b505082516020840151604085015160609095015191969095509092509050565b634e487b7160e01b600052603260045260246000fd5b81835281816020850137506000828201602090810191909152601f909101601f19169091010190565b6001600160a01b0389811682528881166020830152878116604083015260608201879052608082018690528454811660a0830152600185015460c0830152600285015460e083015260038501541661010082015260006101405b80610120840152612d118184018587612c7a565b9b9a5050505050505050505050565b600060208284031215612d3257600080fd5b5051919050565b634e487b7160e01b600052601160045260246000fd5b6000816000190483118215151615612d6957612d69612d39565b500290565b600082612d8b57634e487b7160e01b600052601260045260246000fd5b500490565b8082018082111561082157610821612d39565b8183823760009101908152919050565b6001600160a01b038b811682528a8116602083015289811660408301528881166060830152878116608083015260a08201879052851660c082015260e0810184905261010081018390526101406101208201819052600090612e1783820185612681565b9d9c50505050505050505050505050565b8181038181111561082157610821612d39565b600060208284031215612e4d57600080fd5b815167ffffffffffffffff811115612e6457600080fd5b8201601f81018413612e7557600080fd5b8051612e836129cf82612938565b818152856020838501011115612e9857600080fd5b612ea982602083016020860161265d565b95945050505050565b600060018060a01b03808b168352808a1660208401528860408401528088166060840152508560808301528460a083015260e060c0830152612ef860e083018486612c7a565b9a9950505050505050505050565b60006101008b83528a602084015260018060a01b038a1660408401528860608401528760808401528660a08401528560c08401528060e0840152612f4d8184018587612c7a565b9c9b505050505050505050505050565b6001600160a01b03898116825288811660208301526040820188905260608201879052608082018690528454811660a0830152600185015460c0830152600285015460e08301526003850154166101008201526000610140612cfd565b60208082526032908201527f4552433732313a207472616e7366657220746f206e6f6e20455243373231526560408201527131b2b4bb32b91034b6b83632b6b2b73a32b960711b606082015260800190565b673d913730b6b2911d60c11b815273436865712073657269616c206e756d626572202360601b6008820152601c8101879052721116101132bc3a32b93730b62fbab936111d1160691b603c820152855160009061307081604f850160208b0161265d565b6130e86130d46130ab61309e604f858801016f016101130ba3a3934b13aba32b9911d160851b815260100190565b605b60f81b815260010190565b7f7b2274726169745f74797065223a2022546f6b656e222c000000000000000000815260170190565b67113b30b63ab2911d60c11b815260080190565b9050613105818860601b6bffffffffffffffffffffffff19169052565b607d60f81b60148201527f7b2274726169745f74797065223a2022457363726f776564222c0000000000006015820152613141602f82016130d4565b868152607d60f81b60208201527f7b2274726169745f74797065223a2022447261776572222c0000000000000000602182015290506131ba6130d4613191603984015b607d60f81b815260010190565b7f7b2274726169745f74797065223a202243726561746564204174222c000000008152601c0190565b858152607d60f81b60208201527f7b2274726169745f74797065223a20224d6f64756c65222c0000000000000000602182015290506131fb603982016130d4565b9050613218818560601b6bffffffffffffffffffffffff19169052565b607d60f81b6014820152605d60f81b601582015261323860168201613184565b9998505050505050505050565b7f646174613a6170706c69636174696f6e2f6a736f6e3b6261736536342c00000081526000825161327d81601d85016020870161265d565b91909101601d0192915050565b60006020828403121561329c57600080fd5b81516114558161271f565b60208082526025908201527f4552433732313a207472616e736665722066726f6d20696e636f72726563742060408201526437bbb732b960d91b606082015260800190565b6001600160a01b038581168252841660208201526040810183905260806060820181905260009061331f90830184612681565b9695505050505050565b60006020828403121561333b57600080fd5b81516114558161262a565b6000825161335881846020870161265d565b919091019291505056fe4142434445464748494a4b4c4d4e4f505152535455565758595a6162636465666768696a6b6c6d6e6f707172737475767778797a303132333435363738392b2fa264697066735822122010540d7c0c8109750a7e088141b4984cf19cdde2438cae6c24888ef47758d70a64736f6c63430008100033",
        "linkReferences": {}
    },
    "methodIdentifiers": {
        "_returnCodeHash(address)": "107e2f3b",
        "_writeFlatFee()": "4c806539",
        "approve(address,uint256)": "095ea7b3",
        "balanceOf(address)": "70a08231",
        "cash(uint256,uint256,address,bytes)": "4e289c06",
        "cheqCurrency(uint256)": "fdd90c70",
        "cheqEscrowed(uint256)": "c298c4d2",
        "cheqInfo(uint256)": "f7794942",
        "cheqModule(uint256)": "e0e295b7",
        "fees()": "9af1d35a",
        "fund(uint256,uint256,uint256,bytes)": "d6122058",
        "getApproved(uint256)": "081812fc",
        "getFees()": "db8d55f1",
        "getTotalFees(uint256,uint8)": "1536beeb",
        "isApprovedForAll(address,address)": "e985e9c5",
        "moduleWhitelisted(address)": "52f37f56",
        "moduleWithdraw(address,uint256,address)": "d6a4f84c",
        "name()": "06fdde03",
        "owner()": "8da5cb5b",
        "ownerOf(uint256)": "6352211e",
        "renounceOwnership()": "715018a6",
        "safeTransferFrom(address,address,uint256)": "42842e0e",
        "safeTransferFrom(address,address,uint256,bytes)": "b88d4fde",
        "setApprovalForAll(address,bool)": "a22cb465",
        "supportsInterface(bytes4)": "01ffc9a7",
        "symbol()": "95d89b41",
        "tokenURI(uint256)": "c87b56dd",
        "tokenWhitelisted(address)": "ff8507e8",
        "totalSupply()": "18160ddd",
        "transferFrom(address,address,uint256)": "23b872dd",
        "transferOwnership(address)": "f2fde38b",
        "updateFees((uint256,uint256,uint256,uint256))": "98a9c92b",
        "validWrite(address,address)": "dfd5d811",
        "whitelistModule(address,bool,bool)": "53aafb69",
        "whitelistToken(address,bool)": "0ffb1d8b",
        "write(address,uint256,uint256,address,address,bytes)": "d0d0bb3f"
    },
    "id": 23
}