{
  "abi": [
    {
      "inputs": [
        {
          "internalType": "contract CheqRegistrar",
          "name": "_cheq",
          "type": "address"
        },
        {
          "internalType": "uint256",
          "name": "settlementTime",
          "type": "uint256"
        }
      ],
      "stateMutability": "nonpayable",
      "type": "constructor"
    },
    {
      "anonymous": false,
      "inputs": [
        {
          "indexed": true,
          "internalType": "address",
          "name": "previousOwner",
          "type": "address"
        },
        {
          "indexed": true,
          "internalType": "address",
          "name": "newOwner",
          "type": "address"
        }
      ],
      "name": "OwnershipTransferred",
      "type": "event"
    },
    {
      "inputs": [
        {
          "internalType": "uint256",
          "name": "cheqId",
          "type": "uint256"
        },
        {
          "internalType": "uint256",
          "name": "amount",
          "type": "uint256"
        }
      ],
      "name": "cashCheq",
      "outputs": [],
      "stateMutability": "nonpayable",
      "type": "function"
    },
    {
      "inputs": [
        {
          "internalType": "uint256",
          "name": "cheqId",
          "type": "uint256"
        },
        {
          "internalType": "address",
          "name": "caller",
          "type": "address"
        },
        {
          "internalType": "uint256",
          "name": "",
          "type": "uint256"
        }
      ],
      "name": "cashable",
      "outputs": [
        {
          "internalType": "uint256",
          "name": "",
          "type": "uint256"
        }
      ],
      "stateMutability": "view",
      "type": "function"
    },
    {
      "inputs": [],
      "name": "cheq",
      "outputs": [
        {
          "internalType": "contract CheqRegistrar",
          "name": "",
          "type": "address"
        }
      ],
      "stateMutability": "view",
      "type": "function"
    },
    {
      "inputs": [
        {
          "internalType": "uint256",
          "name": "",
          "type": "uint256"
        }
      ],
      "name": "cheqCreated",
      "outputs": [
        {
          "internalType": "uint256",
          "name": "",
          "type": "uint256"
        }
      ],
      "stateMutability": "view",
      "type": "function"
    },
    {
      "inputs": [
        {
          "internalType": "uint256",
          "name": "",
          "type": "uint256"
        }
      ],
      "name": "cheqIsPaused",
      "outputs": [
        {
          "internalType": "bool",
          "name": "",
          "type": "bool"
        }
      ],
      "stateMutability": "view",
      "type": "function"
    },
    {
      "inputs": [
        {
          "internalType": "uint256",
          "name": "",
          "type": "uint256"
        },
        {
          "internalType": "uint256",
          "name": "",
          "type": "uint256"
        }
      ],
      "name": "fundCheq",
      "outputs": [],
      "stateMutability": "pure",
      "type": "function"
    },
    {
      "inputs": [
        {
          "internalType": "uint256",
          "name": "",
          "type": "uint256"
        },
        {
          "internalType": "address",
          "name": "",
          "type": "address"
        },
        {
          "internalType": "uint256",
          "name": "",
          "type": "uint256"
        }
      ],
      "name": "fundable",
      "outputs": [
        {
          "internalType": "uint256",
          "name": "",
          "type": "uint256"
        }
      ],
      "stateMutability": "pure",
      "type": "function"
    },
    {
      "inputs": [
        {
          "internalType": "uint256",
          "name": "cheqId",
          "type": "uint256"
        },
        {
          "internalType": "address",
          "name": "caller",
          "type": "address"
        },
        {
          "internalType": "address",
          "name": "to",
          "type": "address"
        }
      ],
      "name": "isApprovable",
      "outputs": [
        {
          "internalType": "bool",
          "name": "",
          "type": "bool"
        }
      ],
      "stateMutability": "view",
      "type": "function"
    },
    {
      "inputs": [
        {
          "internalType": "uint256",
          "name": "",
          "type": "uint256"
        },
        {
          "internalType": "address",
          "name": "",
          "type": "address"
        },
        {
          "internalType": "address",
          "name": "",
          "type": "address"
        }
      ],
      "name": "isTransferable",
      "outputs": [
        {
          "internalType": "bool",
          "name": "",
          "type": "bool"
        }
      ],
      "stateMutability": "pure",
      "type": "function"
    },
    {
      "inputs": [
        {
          "internalType": "address",
          "name": "sender",
          "type": "address"
        },
        {
          "internalType": "contract IERC20",
          "name": "token",
          "type": "address"
        },
        {
          "internalType": "uint256",
          "name": "amount",
          "type": "uint256"
        },
        {
          "internalType": "uint256",
          "name": "escrowed",
          "type": "uint256"
        },
        {
          "internalType": "address",
          "name": "recipient",
          "type": "address"
        },
        {
          "internalType": "address",
          "name": "owner",
          "type": "address"
        }
      ],
      "name": "isWriteable",
      "outputs": [
        {
          "internalType": "bool",
          "name": "",
          "type": "bool"
        }
      ],
      "stateMutability": "view",
      "type": "function"
    },
    {
      "inputs": [],
      "name": "owner",
      "outputs": [
        {
          "internalType": "address",
          "name": "",
          "type": "address"
        }
      ],
      "stateMutability": "view",
      "type": "function"
    },
    {
      "inputs": [
        {
          "internalType": "uint256",
          "name": "cheqId",
          "type": "uint256"
        },
        {
          "internalType": "bool",
          "name": "isPaused",
          "type": "bool"
        }
      ],
      "name": "pauseCheq",
      "outputs": [],
      "stateMutability": "nonpayable",
      "type": "function"
    },
    {
      "inputs": [],
      "name": "renounceOwnership",
      "outputs": [],
      "stateMutability": "nonpayable",
      "type": "function"
    },
    {
      "inputs": [],
      "name": "settlementPeriod",
      "outputs": [
        {
          "internalType": "uint256",
          "name": "",
          "type": "uint256"
        }
      ],
      "stateMutability": "view",
      "type": "function"
    },
    {
      "inputs": [
        {
          "internalType": "uint256",
          "name": "tokenId",
          "type": "uint256"
        }
      ],
      "name": "tokenURI",
      "outputs": [
        {
          "internalType": "string",
          "name": "",
          "type": "string"
        }
      ],
      "stateMutability": "view",
      "type": "function"
    },
    {
      "inputs": [
        {
          "internalType": "contract IERC20",
          "name": "",
          "type": "address"
        }
      ],
      "name": "tokenWhitelist",
      "outputs": [
        {
          "internalType": "bool",
          "name": "",
          "type": "bool"
        }
      ],
      "stateMutability": "view",
      "type": "function"
    },
    {
      "inputs": [
        {
          "internalType": "uint256",
          "name": "",
          "type": "uint256"
        },
        {
          "internalType": "address",
          "name": "",
          "type": "address"
        }
      ],
      "name": "transferCheq",
      "outputs": [],
      "stateMutability": "pure",
      "type": "function"
    },
    {
      "inputs": [
        {
          "internalType": "address",
          "name": "newOwner",
          "type": "address"
        }
      ],
      "name": "transferOwnership",
      "outputs": [],
      "stateMutability": "nonpayable",
      "type": "function"
    },
    {
      "inputs": [
        {
          "internalType": "address",
          "name": "",
          "type": "address"
        }
      ],
      "name": "userWhitelist",
      "outputs": [
        {
          "internalType": "bool",
          "name": "",
          "type": "bool"
        }
      ],
      "stateMutability": "view",
      "type": "function"
    },
    {
      "inputs": [
        {
          "internalType": "contract IERC20",
          "name": "token",
          "type": "address"
        },
        {
          "internalType": "bool",
          "name": "isAccepted",
          "type": "bool"
        }
      ],
      "name": "whitelistToken",
      "outputs": [],
      "stateMutability": "nonpayable",
      "type": "function"
    },
    {
      "inputs": [
        {
          "internalType": "address",
          "name": "user",
          "type": "address"
        },
        {
          "internalType": "bool",
          "name": "isAccepted",
          "type": "bool"
        }
      ],
      "name": "whitelistUser",
      "outputs": [],
      "stateMutability": "nonpayable",
      "type": "function"
    },
    {
      "inputs": [
        {
          "internalType": "contract IERC20",
          "name": "_token",
          "type": "address"
        },
        {
          "internalType": "uint256",
          "name": "amount",
          "type": "uint256"
        },
        {
          "internalType": "uint256",
          "name": "escrow",
          "type": "uint256"
        },
        {
          "internalType": "address",
          "name": "recipient",
          "type": "address"
        }
      ],
      "name": "writeCheq",
      "outputs": [
        {
          "internalType": "uint256",
          "name": "",
          "type": "uint256"
        }
      ],
      "stateMutability": "nonpayable",
      "type": "function"
    }
  ],
  "bytecode": {
    "object": "0x608060405234801561001057600080fd5b50604051610dde380380610dde83398101604081905261002f916100b1565b61003833610061565b600180546001600160a01b0319166001600160a01b0393909316929092179091556006556100eb565b600080546001600160a01b038381166001600160a01b0319831681178455604051919092169283917f8be0079c531659141344cd1fd0a4f28419497f9722a3daafe3b4186f6b6457e09190a35050565b600080604083850312156100c457600080fd5b82516001600160a01b03811681146100db57600080fd5b6020939093015192949293505050565b610ce4806100fa6000396000f3fe608060405234801561001057600080fd5b50600436106101425760003560e01c80638da5cb5b116100b8578063c87b56dd1161007c578063c87b56dd146102b8578063d2a840e0146102d8578063d741b9c3146102eb578063dcc1e45a1461030e578063f19702631461032e578063f2fde38b1461034557600080fd5b80638da5cb5b1461026057806391a6262f14610271578063a0a0ea751461027f578063a0ca3ee114610292578063a8e62737146102a557600080fd5b806354d4310a1161010a57806354d4310a146101b1578063715018a6146101d4578063753d7563146101dc5780637ba06c11146101ff578063809d6f831461021257806389165dcf1461023d57600080fd5b8063049f26a9146101475780630f1071be1461016d5780630ffb1d8b146101765780631d3ded5f1461018b5780632ae30d0d1461019e575b600080fd5b61015a6101553660046109da565b610358565b6040519081526020015b60405180910390f35b61015a60065481565b610189610184366004610a27565b610362565b005b610189610199366004610a5c565b610395565b6101896101ac366004610a8c565b6103d2565b6101c46101bf366004610aaf565b6103fa565b6040519015158152602001610164565b61018961049d565b6101c46101ea366004610b1f565b60056020526000908152604090205460ff1681565b61018961020d366004610b3c565b6104b1565b600154610225906001600160a01b031681565b6040516001600160a01b039091168152602001610164565b6101c461024b366004610b5e565b60036020526000908152604090205460ff1681565b6000546001600160a01b0316610225565b6101c4610155366004610b77565b61015a61028d3660046109da565b6104e5565b6101896102a0366004610a27565b610624565b61015a6102b3366004610bb9565b610657565b6102cb6102c6366004610b5e565b610764565b6040516101649190610c03565b6101896102e6366004610b3c565b61078f565b6101c46102f9366004610b1f565b60046020526000908152604090205460ff1681565b61015a61031c366004610b5e565b60026020526000908152604090205481565b6101c461033c366004610b77565b60019392505050565b610189610353366004610b1f565b6108a2565b60005b9392505050565b61036a61091b565b6001600160a01b03919091166000908152600560205260409020805460ff1916911515919091179055565b60405162461bcd60e51b815260206004820152600d60248201526c21b0b73a103a3930b739b332b960991b60448201526064015b60405180910390fd5b6103da61091b565b600091825260036020526040909120805460ff1916911515919091179055565b6001600160a01b03851660009081526005602052604081205460ff16801561043a57506001600160a01b03871660009081526004602052604090205460ff165b801561045e57506001600160a01b03831660009081526004602052604090205460ff165b801561046957508385145b80156104865750826001600160a01b0316826001600160a01b0316145b80156104925750600085115b979650505050505050565b6104a561091b565b6104af6000610975565b565b60405162461bcd60e51b815260206004820152600960248201526810d85b9d08199d5b9960ba1b60448201526064016103c9565b6001546040516331a9108f60e11b8152600481018590526000916001600160a01b0385811692911690636352211e90602401602060405180830381865afa158015610534573d6000803e3d6000fd5b505050506040513d601f19601f820116820180604052508101906105589190610c51565b6001600160a01b03161480156105885750600654600085815260026020526040902054429161058691610c6e565b115b80156105a3575060008481526003602052604090205460ff16155b1561061c5760015460405163614c626960e11b8152600481018690526001600160a01b039091169063c298c4d290602401602060405180830381865afa1580156105f1573d6000803e3d6000fd5b505050506040513d601f19601f820116820180604052508101906106159190610c95565b905061035b565b50600061035b565b61062c61091b565b6001600160a01b03919091166000908152600460205260409020805460ff1916911515919091179055565b60006106673386868686876103fa565b6106a25760405162461bcd60e51b815260206004820152600c60248201526b4e6f74205772697461626c6560a01b60448201526064016103c9565b6001546000906001600160a01b031663254fe606336040516001600160e01b031960e084901b1681526001600160a01b03918216600482015281871660248201819052918a166044820152606481018990526084810188905260a481019190915260c4016020604051808303816000875af1158015610725573d6000803e3d6000fd5b505050506040513d601f19601f820116820180604052508101906107499190610c95565b60008181526002602052604090204290559695505050505050565b60608160405160200161077991815260200190565b6040516020818303038152906040529050919050565b600061079c8333846104e5565b9050600081116107dd5760405162461bcd60e51b815260206004820152600c60248201526b4e6f74206361736861626c6560a01b60448201526064016103c9565b8181146108245760405162461bcd60e51b815260206004820152601560248201527410d85b9d0818d85cda081d1a1a5cc8185b5bdd5b9d605a1b60448201526064016103c9565b6001546001600160a01b031663254388a384336040516001600160e01b031960e085901b16815260048101929092526001600160a01b0316602482015260448101859052606401600060405180830381600087803b15801561088557600080fd5b505af1158015610899573d6000803e3d6000fd5b50505050505050565b6108aa61091b565b6001600160a01b03811661090f5760405162461bcd60e51b815260206004820152602660248201527f4f776e61626c653a206e6577206f776e657220697320746865207a65726f206160448201526564647265737360d01b60648201526084016103c9565b61091881610975565b50565b6000546001600160a01b031633146104af5760405162461bcd60e51b815260206004820181905260248201527f4f776e61626c653a2063616c6c6572206973206e6f7420746865206f776e657260448201526064016103c9565b600080546001600160a01b038381166001600160a01b0319831681178455604051919092169283917f8be0079c531659141344cd1fd0a4f28419497f9722a3daafe3b4186f6b6457e09190a35050565b6001600160a01b038116811461091857600080fd5b6000806000606084860312156109ef57600080fd5b833592506020840135610a01816109c5565b929592945050506040919091013590565b80358015158114610a2257600080fd5b919050565b60008060408385031215610a3a57600080fd5b8235610a45816109c5565b9150610a5360208401610a12565b90509250929050565b60008060408385031215610a6f57600080fd5b823591506020830135610a81816109c5565b809150509250929050565b60008060408385031215610a9f57600080fd5b82359150610a5360208401610a12565b60008060008060008060c08789031215610ac857600080fd5b8635610ad3816109c5565b95506020870135610ae3816109c5565b945060408701359350606087013592506080870135610b01816109c5565b915060a0870135610b11816109c5565b809150509295509295509295565b600060208284031215610b3157600080fd5b813561035b816109c5565b60008060408385031215610b4f57600080fd5b50508035926020909101359150565b600060208284031215610b7057600080fd5b5035919050565b600080600060608486031215610b8c57600080fd5b833592506020840135610b9e816109c5565b91506040840135610bae816109c5565b809150509250925092565b60008060008060808587031215610bcf57600080fd5b8435610bda816109c5565b935060208501359250604085013591506060850135610bf8816109c5565b939692955090935050565b600060208083528351808285015260005b81811015610c3057858101830151858201604001528201610c14565b506000604082860101526040601f19601f8301168501019250505092915050565b600060208284031215610c6357600080fd5b815161035b816109c5565b80820180821115610c8f57634e487b7160e01b600052601160045260246000fd5b92915050565b600060208284031215610ca757600080fd5b505191905056fea2646970667358221220f14fe3d96b22e8f00c9b3bb76791eeee9d13311b5f0784e09c752cf998f5767464736f6c63430008100033",
    "linkReferences": {}
  },
  "methodIdentifiers": {
    "cashCheq(uint256,uint256)": "d2a840e0",
    "cashable(uint256,address,uint256)": "a0a0ea75",
    "cheq()": "809d6f83",
    "cheqCreated(uint256)": "dcc1e45a",
    "cheqIsPaused(uint256)": "89165dcf",
    "fundCheq(uint256,uint256)": "7ba06c11",
    "fundable(uint256,address,uint256)": "049f26a9",
    "isApprovable(uint256,address,address)": "f1970263",
    "isTransferable(uint256,address,address)": "91a6262f",
    "isWriteable(address,address,uint256,uint256,address,address)": "54d4310a",
    "owner()": "8da5cb5b",
    "pauseCheq(uint256,bool)": "2ae30d0d",
    "renounceOwnership()": "715018a6",
    "settlementPeriod()": "0f1071be",
    "tokenURI(uint256)": "c87b56dd",
    "tokenWhitelist(address)": "753d7563",
    "transferCheq(uint256,address)": "1d3ded5f",
    "transferOwnership(address)": "f2fde38b",
    "userWhitelist(address)": "d741b9c3",
    "whitelistToken(address,bool)": "0ffb1d8b",
    "whitelistUser(address,bool)": "a0ca3ee1",
    "writeCheq(address,uint256,uint256,address)": "a8e62737"
  },
  "id": 24
}