{
  "abi": [
    {
      "anonymous": false,
      "inputs": [
        {
          "indexed": true,
          "internalType": "address",
          "name": "previousOwner",
          "type": "address"
        },
        {
          "indexed": true,
          "internalType": "address",
          "name": "newOwner",
          "type": "address"
        }
      ],
      "name": "OwnershipTransferred",
      "type": "event"
    },
    {
      "inputs": [],
      "name": "_cashBPSFee",
      "outputs": [
        {
          "internalType": "uint256",
          "name": "",
          "type": "uint256"
        }
      ],
      "stateMutability": "view",
      "type": "function"
    },
    {
      "inputs": [],
      "name": "_cashFlatFee",
      "outputs": [
        {
          "internalType": "uint256",
          "name": "",
          "type": "uint256"
        }
      ],
      "stateMutability": "view",
      "type": "function"
    },
    {
      "inputs": [],
      "name": "_fundBPSFee",
      "outputs": [
        {
          "internalType": "uint256",
          "name": "",
          "type": "uint256"
        }
      ],
      "stateMutability": "view",
      "type": "function"
    },
    {
      "inputs": [],
      "name": "_fundFlatFee",
      "outputs": [
        {
          "internalType": "uint256",
          "name": "",
          "type": "uint256"
        }
      ],
      "stateMutability": "view",
      "type": "function"
    },
    {
      "inputs": [],
      "name": "_transferBPSFee",
      "outputs": [
        {
          "internalType": "uint256",
          "name": "",
          "type": "uint256"
        }
      ],
      "stateMutability": "view",
      "type": "function"
    },
    {
      "inputs": [],
      "name": "_writeBPSFee",
      "outputs": [
        {
          "internalType": "uint256",
          "name": "",
          "type": "uint256"
        }
      ],
      "stateMutability": "view",
      "type": "function"
    },
    {
      "inputs": [],
      "name": "_writeFlatFee",
      "outputs": [
        {
          "internalType": "uint256",
          "name": "",
          "type": "uint256"
        }
      ],
      "stateMutability": "view",
      "type": "function"
    },
    {
      "inputs": [
        {
          "internalType": "address",
          "name": "token",
          "type": "address"
        },
        {
          "internalType": "uint256",
          "name": "amount",
          "type": "uint256"
        },
        {
          "internalType": "address",
          "name": "payoutAccount",
          "type": "address"
        }
      ],
      "name": "moduleWithdraw",
      "outputs": [],
      "stateMutability": "nonpayable",
      "type": "function"
    },
    {
      "inputs": [],
      "name": "owner",
      "outputs": [
        {
          "internalType": "address",
          "name": "",
          "type": "address"
        }
      ],
      "stateMutability": "view",
      "type": "function"
    },
    {
      "inputs": [],
      "name": "renounceOwnership",
      "outputs": [],
      "stateMutability": "nonpayable",
      "type": "function"
    },
    {
      "inputs": [
        {
          "internalType": "address",
          "name": "newOwner",
          "type": "address"
        }
      ],
      "name": "transferOwnership",
      "outputs": [],
      "stateMutability": "nonpayable",
      "type": "function"
    },
    {
      "inputs": [
        {
          "internalType": "uint256",
          "name": "writeFlatFee_",
          "type": "uint256"
        },
        {
          "internalType": "uint256",
          "name": "transferBPSFee_",
          "type": "uint256"
        },
        {
          "internalType": "uint256",
          "name": "fundFlatFee_",
          "type": "uint256"
        },
        {
          "internalType": "uint256",
          "name": "cashFlatFee_",
          "type": "uint256"
        }
      ],
      "name": "updateFees",
      "outputs": [],
      "stateMutability": "nonpayable",
      "type": "function"
    }
  ],
  "bytecode": {
    "object": "0x608060405234801561001057600080fd5b5061001a3361001f565b61006f565b600080546001600160a01b038381166001600160a01b0319831681178455604051919092169283917f8be0079c531659141344cd1fd0a4f28419497f9722a3daafe3b4186f6b6457e09190a35050565b6107978061007e6000396000f3fe608060405234801561001057600080fd5b50600436106100b45760003560e01c80638da5cb5b116100715780638da5cb5b14610103578063c6616ba11461011e578063d6a4f84c14610131578063dd358c1514610144578063e88217c41461014d578063f2fde38b1461015657600080fd5b80632516440f146100b95780633c4205fb146100d55780634c806539146100de57806357b6a29b146100e757806369eeae92146100f0578063715018a6146100f9575b600080fd5b6100c260045481565b6040519081526020015b60405180910390f35b6100c260085481565b6100c260035481565b6100c260095481565b6100c260055481565b610101610169565b005b6000546040516001600160a01b0390911681526020016100cc565b61010161012c366004610620565b61017d565b61010161013f36600461066e565b610199565b6100c260075481565b6100c260065481565b6101016101643660046106aa565b61023b565b6101716102b4565b61017b600061030e565b565b6101856102b4565b600393909355600591909155600655600855565b3360009081526001602090815260408083206001600160a01b03871684529091529020548211156101ff5760405162461bcd60e51b815260206004820152600b60248201526a494e5355465f46554e445360a81b60448201526064015b60405180910390fd5b3360009081526001602090815260408083206001600160a01b0387168085529252909120805484900390556102369030838561035e565b505050565b6102436102b4565b6001600160a01b0381166102a85760405162461bcd60e51b815260206004820152602660248201527f4f776e61626c653a206e6577206f776e657220697320746865207a65726f206160448201526564647265737360d01b60648201526084016101f6565b6102b18161030e565b50565b6000546001600160a01b0316331461017b5760405162461bcd60e51b815260206004820181905260248201527f4f776e61626c653a2063616c6c6572206973206e6f7420746865206f776e657260448201526064016101f6565b600080546001600160a01b038381166001600160a01b0319831681178455604051919092169283917f8be0079c531659141344cd1fd0a4f28419497f9722a3daafe3b4186f6b6457e09190a35050565b604080516001600160a01b0385811660248301528416604482015260648082018490528251808303909101815260849091019091526020810180516001600160e01b03166323b872dd60e01b1790526103b89085906103be565b50505050565b6000610413826040518060400160405280602081526020017f5361666545524332303a206c6f772d6c6576656c2063616c6c206661696c6564815250856001600160a01b03166104909092919063ffffffff16565b805190915015610236578080602001905181019061043191906106cc565b6102365760405162461bcd60e51b815260206004820152602a60248201527f5361666545524332303a204552433230206f7065726174696f6e20646964206e6044820152691bdd081cdd58d8d9595960b21b60648201526084016101f6565b606061049f84846000856104a7565b949350505050565b6060824710156105085760405162461bcd60e51b815260206004820152602660248201527f416464726573733a20696e73756666696369656e742062616c616e636520666f6044820152651c8818d85b1b60d21b60648201526084016101f6565b600080866001600160a01b031685876040516105249190610712565b60006040518083038185875af1925050503d8060008114610561576040519150601f19603f3d011682016040523d82523d6000602084013e610566565b606091505b509150915061057787838387610582565b979650505050505050565b606083156105f15782516000036105ea576001600160a01b0385163b6105ea5760405162461bcd60e51b815260206004820152601d60248201527f416464726573733a2063616c6c20746f206e6f6e2d636f6e747261637400000060448201526064016101f6565b508161049f565b61049f83838151156106065781518083602001fd5b8060405162461bcd60e51b81526004016101f6919061072e565b6000806000806080858703121561063657600080fd5b5050823594602084013594506040840135936060013592509050565b80356001600160a01b038116811461066957600080fd5b919050565b60008060006060848603121561068357600080fd5b61068c84610652565b9250602084013591506106a160408501610652565b90509250925092565b6000602082840312156106bc57600080fd5b6106c582610652565b9392505050565b6000602082840312156106de57600080fd5b815180151581146106c557600080fd5b60005b838110156107095781810151838201526020016106f1565b50506000910152565b600082516107248184602087016106ee565b9190910192915050565b602081526000825180602084015261074d8160408501602087016106ee565b601f01601f1916919091016040019291505056fea26469706673582212201e7fca1f340f3fdb3d0b47208c03fcb47eaa42c42c82756fa7bfc741cf9fc6ec64736f6c63430008100033",
    "linkReferences": {}
  },
  "methodIdentifiers": {
    "_cashBPSFee()": "57b6a29b",
    "_cashFlatFee()": "3c4205fb",
    "_fundBPSFee()": "dd358c15",
    "_fundFlatFee()": "e88217c4",
    "_transferBPSFee()": "69eeae92",
    "_writeBPSFee()": "2516440f",
    "_writeFlatFee()": "4c806539",
    "moduleWithdraw(address,uint256,address)": "d6a4f84c",
    "owner()": "8da5cb5b",
    "renounceOwnership()": "715018a6",
    "transferOwnership(address)": "f2fde38b",
    "updateFees(uint256,uint256,uint256,uint256)": "c6616ba1"
  },
  "id": 34
}