{
  "abi": [
    {
      "inputs": [
        {
          "internalType": "address",
          "name": "registrar",
          "type": "address"
        },
        {
          "internalType": "address",
          "name": "_writeRule",
          "type": "address"
        },
        {
          "internalType": "address",
          "name": "_transferRule",
          "type": "address"
        },
        {
          "internalType": "address",
          "name": "_fundRule",
          "type": "address"
        },
        {
          "internalType": "address",
          "name": "_cashRule",
          "type": "address"
        },
        {
          "internalType": "address",
          "name": "_approveRule",
          "type": "address"
        },
        {
          "components": [
            {
              "internalType": "uint256",
              "name": "writeBPS",
              "type": "uint256"
            },
            {
              "internalType": "uint256",
              "name": "transferBPS",
              "type": "uint256"
            },
            {
              "internalType": "uint256",
              "name": "fundBPS",
              "type": "uint256"
            },
            {
              "internalType": "uint256",
              "name": "cashBPS",
              "type": "uint256"
            }
          ],
          "internalType": "struct DataTypes.WTFCFees",
          "name": "_fees",
          "type": "tuple"
        },
        {
          "internalType": "string",
          "name": "__baseURI",
          "type": "string"
        }
      ],
      "stateMutability": "nonpayable",
      "type": "constructor"
    },
    {
      "inputs": [],
      "name": "InitParamsInvalid",
      "type": "error"
    },
    {
      "inputs": [],
      "name": "NotRegistrar",
      "type": "error"
    },
    {
      "anonymous": false,
      "inputs": [
        {
          "indexed": true,
          "internalType": "uint256",
          "name": "cheqId",
          "type": "uint256"
        },
        {
          "indexed": false,
          "internalType": "bytes32",
          "name": "memoHash",
          "type": "bytes32"
        }
      ],
      "name": "MemoWritten",
      "type": "event"
    },
    {
      "anonymous": false,
      "inputs": [
        {
          "indexed": true,
          "internalType": "address",
          "name": "previousOwner",
          "type": "address"
        },
        {
          "indexed": true,
          "internalType": "address",
          "name": "newOwner",
          "type": "address"
        }
      ],
      "name": "OwnershipTransferred",
      "type": "event"
    },
    {
      "inputs": [],
      "name": "REGISTRAR",
      "outputs": [
        {
          "internalType": "address",
          "name": "",
          "type": "address"
        }
      ],
      "stateMutability": "view",
      "type": "function"
    },
    {
      "inputs": [],
      "name": "_baseURI",
      "outputs": [
        {
          "internalType": "string",
          "name": "",
          "type": "string"
        }
      ],
      "stateMutability": "view",
      "type": "function"
    },
    {
      "inputs": [],
      "name": "approveRule",
      "outputs": [
        {
          "internalType": "address",
          "name": "",
          "type": "address"
        }
      ],
      "stateMutability": "view",
      "type": "function"
    },
    {
      "inputs": [],
      "name": "cashRule",
      "outputs": [
        {
          "internalType": "address",
          "name": "",
          "type": "address"
        }
      ],
      "stateMutability": "view",
      "type": "function"
    },
    {
      "inputs": [],
      "name": "fees",
      "outputs": [
        {
          "internalType": "uint256",
          "name": "writeBPS",
          "type": "uint256"
        },
        {
          "internalType": "uint256",
          "name": "transferBPS",
          "type": "uint256"
        },
        {
          "internalType": "uint256",
          "name": "fundBPS",
          "type": "uint256"
        },
        {
          "internalType": "uint256",
          "name": "cashBPS",
          "type": "uint256"
        }
      ],
      "stateMutability": "view",
      "type": "function"
    },
    {
      "inputs": [],
      "name": "fundRule",
      "outputs": [
        {
          "internalType": "address",
          "name": "",
          "type": "address"
        }
      ],
      "stateMutability": "view",
      "type": "function"
    },
    {
      "inputs": [],
      "name": "getFees",
      "outputs": [
        {
          "internalType": "uint256",
          "name": "",
          "type": "uint256"
        },
        {
          "internalType": "uint256",
          "name": "",
          "type": "uint256"
        },
        {
          "internalType": "uint256",
          "name": "",
          "type": "uint256"
        },
        {
          "internalType": "uint256",
          "name": "",
          "type": "uint256"
        }
      ],
      "stateMutability": "view",
      "type": "function"
    },
    {
      "inputs": [
        {
          "internalType": "uint256",
          "name": "",
          "type": "uint256"
        }
      ],
      "name": "isCashed",
      "outputs": [
        {
          "internalType": "bool",
          "name": "",
          "type": "bool"
        }
      ],
      "stateMutability": "view",
      "type": "function"
    },
    {
      "inputs": [
        {
          "internalType": "uint256",
          "name": "",
          "type": "uint256"
        }
      ],
      "name": "memo",
      "outputs": [
        {
          "internalType": "bytes32",
          "name": "",
          "type": "bytes32"
        }
      ],
      "stateMutability": "view",
      "type": "function"
    },
    {
      "inputs": [],
      "name": "owner",
      "outputs": [
        {
          "internalType": "address",
          "name": "",
          "type": "address"
        }
      ],
      "stateMutability": "view",
      "type": "function"
    },
    {
      "inputs": [
        {
          "internalType": "address",
          "name": "caller",
          "type": "address"
        },
        {
          "internalType": "address",
          "name": "owner",
          "type": "address"
        },
        {
          "internalType": "address",
          "name": "to",
          "type": "address"
        },
        {
          "internalType": "uint256",
          "name": "cheqId",
          "type": "uint256"
        },
        {
          "components": [
            {
              "internalType": "address",
              "name": "currency",
              "type": "address"
            },
            {
              "internalType": "uint256",
              "name": "amount",
              "type": "uint256"
            },
            {
              "internalType": "uint256",
              "name": "escrowed",
              "type": "uint256"
            },
            {
              "internalType": "address",
              "name": "drawer",
              "type": "address"
            },
            {
              "internalType": "address",
              "name": "recipient",
              "type": "address"
            },
            {
              "internalType": "address",
              "name": "module",
              "type": "address"
            },
            {
              "internalType": "uint256",
              "name": "mintTimestamp",
              "type": "uint256"
            }
          ],
          "internalType": "struct DataTypes.Cheq",
          "name": "cheq",
          "type": "tuple"
        },
        {
          "internalType": "bytes",
          "name": "initData",
          "type": "bytes"
        }
      ],
      "name": "processApproval",
      "outputs": [],
      "stateMutability": "nonpayable",
      "type": "function"
    },
    {
      "inputs": [
        {
          "internalType": "address",
          "name": "caller",
          "type": "address"
        },
        {
          "internalType": "address",
          "name": "owner",
          "type": "address"
        },
        {
          "internalType": "address",
          "name": "to",
          "type": "address"
        },
        {
          "internalType": "uint256",
          "name": "amount",
          "type": "uint256"
        },
        {
          "internalType": "uint256",
          "name": "cheqId",
          "type": "uint256"
        },
        {
          "components": [
            {
              "internalType": "address",
              "name": "currency",
              "type": "address"
            },
            {
              "internalType": "uint256",
              "name": "amount",
              "type": "uint256"
            },
            {
              "internalType": "uint256",
              "name": "escrowed",
              "type": "uint256"
            },
            {
              "internalType": "address",
              "name": "drawer",
              "type": "address"
            },
            {
              "internalType": "address",
              "name": "recipient",
              "type": "address"
            },
            {
              "internalType": "address",
              "name": "module",
              "type": "address"
            },
            {
              "internalType": "uint256",
              "name": "mintTimestamp",
              "type": "uint256"
            }
          ],
          "internalType": "struct DataTypes.Cheq",
          "name": "cheq",
          "type": "tuple"
        },
        {
          "internalType": "bytes",
          "name": "initData",
          "type": "bytes"
        }
      ],
      "name": "processCash",
      "outputs": [
        {
          "internalType": "uint256",
          "name": "",
          "type": "uint256"
        }
      ],
      "stateMutability": "nonpayable",
      "type": "function"
    },
    {
      "inputs": [
        {
          "internalType": "address",
          "name": "caller",
          "type": "address"
        },
        {
          "internalType": "address",
          "name": "owner",
          "type": "address"
        },
        {
          "internalType": "uint256",
          "name": "amount",
          "type": "uint256"
        },
        {
          "internalType": "bool",
          "name": "isDirectPay",
          "type": "bool"
        },
        {
          "internalType": "uint256",
          "name": "cheqId",
          "type": "uint256"
        },
        {
          "components": [
            {
              "internalType": "address",
              "name": "currency",
              "type": "address"
            },
            {
              "internalType": "uint256",
              "name": "amount",
              "type": "uint256"
            },
            {
              "internalType": "uint256",
              "name": "escrowed",
              "type": "uint256"
            },
            {
              "internalType": "address",
              "name": "drawer",
              "type": "address"
            },
            {
              "internalType": "address",
              "name": "recipient",
              "type": "address"
            },
            {
              "internalType": "address",
              "name": "module",
              "type": "address"
            },
            {
              "internalType": "uint256",
              "name": "mintTimestamp",
              "type": "uint256"
            }
          ],
          "internalType": "struct DataTypes.Cheq",
          "name": "cheq",
          "type": "tuple"
        },
        {
          "internalType": "bytes",
          "name": "initData",
          "type": "bytes"
        }
      ],
      "name": "processFund",
      "outputs": [
        {
          "internalType": "uint256",
          "name": "",
          "type": "uint256"
        }
      ],
      "stateMutability": "nonpayable",
      "type": "function"
    },
    {
      "inputs": [
        {
          "internalType": "uint256",
          "name": "tokenId",
          "type": "uint256"
        }
      ],
      "name": "processTokenURI",
      "outputs": [
        {
          "internalType": "string",
          "name": "",
          "type": "string"
        }
      ],
      "stateMutability": "view",
      "type": "function"
    },
    {
      "inputs": [
        {
          "internalType": "address",
          "name": "caller",
          "type": "address"
        },
        {
          "internalType": "bool",
          "name": "isApproved",
          "type": "bool"
        },
        {
          "internalType": "address",
          "name": "owner",
          "type": "address"
        },
        {
          "internalType": "address",
          "name": "from",
          "type": "address"
        },
        {
          "internalType": "address",
          "name": "to",
          "type": "address"
        },
        {
          "internalType": "uint256",
          "name": "cheqId",
          "type": "uint256"
        },
        {
          "components": [
            {
              "internalType": "address",
              "name": "currency",
              "type": "address"
            },
            {
              "internalType": "uint256",
              "name": "amount",
              "type": "uint256"
            },
            {
              "internalType": "uint256",
              "name": "escrowed",
              "type": "uint256"
            },
            {
              "internalType": "address",
              "name": "drawer",
              "type": "address"
            },
            {
              "internalType": "address",
              "name": "recipient",
              "type": "address"
            },
            {
              "internalType": "address",
              "name": "module",
              "type": "address"
            },
            {
              "internalType": "uint256",
              "name": "mintTimestamp",
              "type": "uint256"
            }
          ],
          "internalType": "struct DataTypes.Cheq",
          "name": "cheq",
          "type": "tuple"
        },
        {
          "internalType": "bytes",
          "name": "data",
          "type": "bytes"
        }
      ],
      "name": "processTransfer",
      "outputs": [
        {
          "internalType": "uint256",
          "name": "",
          "type": "uint256"
        }
      ],
      "stateMutability": "nonpayable",
      "type": "function"
    },
    {
      "inputs": [
        {
          "internalType": "address",
          "name": "caller",
          "type": "address"
        },
        {
          "internalType": "address",
          "name": "owner",
          "type": "address"
        },
        {
          "internalType": "uint256",
          "name": "cheqId",
          "type": "uint256"
        },
        {
          "components": [
            {
              "internalType": "address",
              "name": "currency",
              "type": "address"
            },
            {
              "internalType": "uint256",
              "name": "amount",
              "type": "uint256"
            },
            {
              "internalType": "uint256",
              "name": "escrowed",
              "type": "uint256"
            },
            {
              "internalType": "address",
              "name": "drawer",
              "type": "address"
            },
            {
              "internalType": "address",
              "name": "recipient",
              "type": "address"
            },
            {
              "internalType": "address",
              "name": "module",
              "type": "address"
            },
            {
              "internalType": "uint256",
              "name": "mintTimestamp",
              "type": "uint256"
            }
          ],
          "internalType": "struct DataTypes.Cheq",
          "name": "cheq",
          "type": "tuple"
        },
        {
          "internalType": "bool",
          "name": "isDirectPay",
          "type": "bool"
        },
        {
          "internalType": "bytes",
          "name": "initData",
          "type": "bytes"
        }
      ],
      "name": "processWrite",
      "outputs": [
        {
          "internalType": "uint256",
          "name": "",
          "type": "uint256"
        }
      ],
      "stateMutability": "nonpayable",
      "type": "function"
    },
    {
      "inputs": [],
      "name": "renounceOwnership",
      "outputs": [],
      "stateMutability": "nonpayable",
      "type": "function"
    },
    {
      "inputs": [
        {
          "internalType": "address",
          "name": "newOwner",
          "type": "address"
        }
      ],
      "name": "transferOwnership",
      "outputs": [],
      "stateMutability": "nonpayable",
      "type": "function"
    },
    {
      "inputs": [],
      "name": "transferRule",
      "outputs": [
        {
          "internalType": "address",
          "name": "",
          "type": "address"
        }
      ],
      "stateMutability": "view",
      "type": "function"
    },
    {
      "inputs": [
        {
          "internalType": "address",
          "name": "token",
          "type": "address"
        }
      ],
      "name": "withdrawFees",
      "outputs": [],
      "stateMutability": "nonpayable",
      "type": "function"
    },
    {
      "inputs": [],
      "name": "writeRule",
      "outputs": [
        {
          "internalType": "address",
          "name": "",
          "type": "address"
        }
      ],
      "stateMutability": "view",
      "type": "function"
    }
  ],
  "bytecode": {
    "object": "0x60a06040523480156200001157600080fd5b5060405162001a9038038062001a908339810160408190526200003491620003db565b8787878787878762000046336200026d565b6001600160a01b0387166200006e576040516348be0eb360e01b815260040160405180910390fd5b6001600160a01b038781166080819052604051631fa5b09760e11b81528883166004820152878316602482015286831660448201528583166064820152918416608483015290633f4b612e9060a401602060405180830381865afa158015620000db573d6000803e3d6000fd5b505050506040513d601f19601f82011682018060405250810190620001019190620004d8565b620001435760405162461bcd60e51b815260206004820152600d60248201526c1495531154d7d2539590531251609a1b60448201526064015b60405180910390fd5b600280546001600160a01b03199081166001600160a01b038981169190911790925560038054821688841617905560048054821687841617905560058054821686841617905560068054909116918416919091179055805161271011620001ed5760405162461bcd60e51b815260206004820152601460248201527f4d6f64756c653a2046656520746f6f206869676800000000000000000000000060448201526064016200013a565b80516007556020808201516008556040808301516009556060830151600a55514281526001600160a01b038916917ff1a1fa6b64aa95186f5a1285e76198d0da80d9c5a88062641d447f1d7c54e56c910160405180910390a25050505050505080600d90816200025e919062000592565b5050505050505050506200065e565b600080546001600160a01b038381166001600160a01b0319831681178455604051919092169283917f8be0079c531659141344cd1fd0a4f28419497f9722a3daafe3b4186f6b6457e09190a35050565b80516001600160a01b0381168114620002d557600080fd5b919050565b634e487b7160e01b600052604160045260246000fd5b604051608081016001600160401b0381118282101715620003155762000315620002da565b60405290565b604051601f8201601f191681016001600160401b0381118282101715620003465762000346620002da565b604052919050565b600082601f8301126200036057600080fd5b81516001600160401b038111156200037c576200037c620002da565b602062000392601f8301601f191682016200031b565b8281528582848701011115620003a757600080fd5b60005b83811015620003c7578581018301518282018401528201620003aa565b506000928101909101919091529392505050565b600080600080600080600080888a03610160811215620003fa57600080fd5b620004058a620002bd565b98506200041560208b01620002bd565b97506200042560408b01620002bd565b96506200043560608b01620002bd565b95506200044560808b01620002bd565b94506200045560a08b01620002bd565b9350608060bf19820112156200046a57600080fd5b5062000475620002f0565b60c08a0151815260e08a015160208201526101008a015160408201526101208a015160608201526101408a01519092506001600160401b03811115620004ba57600080fd5b620004c88b828c016200034e565b9150509295985092959890939650565b600060208284031215620004eb57600080fd5b81518015158114620004fc57600080fd5b9392505050565b600181811c908216806200051857607f821691505b6020821081036200053957634e487b7160e01b600052602260045260246000fd5b50919050565b601f8211156200058d57600081815260208120601f850160051c81016020861015620005685750805b601f850160051c820191505b81811015620005895782815560010162000574565b5050505b505050565b81516001600160401b03811115620005ae57620005ae620002da565b620005c681620005bf845462000503565b846200053f565b602080601f831160018114620005fe5760008415620005e55750858301515b600019600386901b1c1916600185901b17855562000589565b600085815260208120601f198616915b828110156200062f578886015182559484019460019091019084016200060e565b50858210156200064e5787850151600019600388901b60f8161c191681555b5050505050600190811b01905550565b6080516113ec620006a4600039600081816102aa015281816103e8015281816104d701528181610699015281816107ad015281816108e10152610a1601526113ec6000f3fe608060405234801561001057600080fd5b50600436106101375760003560e01c80639af1d35a116100b8578063d4c301da1161007c578063d4c301da146102df578063db8d55f1146102f2578063df1cdb4614610303578063f09b3d9a14610316578063f2fde38b14610329578063f3ea001e1461033c57600080fd5b80639af1d35a14610229578063a0663d1b1461025f578063aee40bb914610272578063cb609077146102a5578063ccd16568146102cc57600080fd5b8063715018a6116100ff578063715018a6146101d5578063743976a0146101dd57806384314347146101e55780638da5cb5b146101f857806396eb58f81461020957600080fd5b80630d02cde71461013c578063164e68de1461016c578063433d3a77146101815780634fe17e1a1461019457806353f7b842146101b4575b600080fd5b60035461014f906001600160a01b031681565b6040516001600160a01b0390911681526020015b60405180910390f35b61017f61017a366004610c13565b61034f565b005b60065461014f906001600160a01b031681565b6101a76101a2366004610c35565b61048b565b6040516101639190610c94565b6101c76101c2366004610d18565b6104ca565b604051908152602001610163565b61017f6105ec565b6101a7610600565b61017f6101f3366004610e57565b61068e565b6000546001600160a01b031661014f565b6101c7610217366004610c35565b600b6020526000908152604090205481565b600754600854600954600a5461023f9392919084565b604080519485526020850193909352918301526060820152608001610163565b6101c761026d366004610ee2565b6107a0565b610295610280366004610c35565b600c6020526000908152604090205460ff1681565b6040519015158152602001610163565b61014f7f000000000000000000000000000000000000000000000000000000000000000081565b6101c76102da366004610f41565b6108d4565b60045461014f906001600160a01b031681565b600754600854600954600a5461023f565b60025461014f906001600160a01b031681565b6101c7610324366004610fd5565b610a09565b61017f610337366004610c13565b610ad4565b60055461014f906001600160a01b031681565b3360009081526001602081815260408084206001600160a01b0386168552909152909120549081116103bf5760405162461bcd60e51b8152602060048201526014602482015273496e73756666696369656e7420726576656e756560601b60448201526064015b60405180910390fd5b3360009081526001602081815260408084206001600160a01b03878116865292529092208190557f00000000000000000000000000000000000000000000000000000000000000009091169063d6a4f84c90849061041d9085611082565b3360405160e085901b6001600160e01b03191681526001600160a01b03938416600482015260248101929092529091166044820152606401600060405180830381600087803b15801561046f57600080fd5b505af1158015610483573d6000803e3d6000fd5b505050505050565b6000818152600b6020908152604091829020549151606092916104b391600d918491016110dd565b604051602081830303815290604052915050919050565b6000336001600160a01b037f0000000000000000000000000000000000000000000000000000000000000000161461051557604051632ad9535160e01b815260040160405180910390fd5b6000858152600c602052604090205460ff161561056d5760405162461bcd60e51b8152602060048201526016602482015275135bd91d5b194e88105b1c9958591e4818d85cda195960521b60448201526064016103b6565b6004805460405163da1e1b8760e01b81526001600160a01b039091169163da1e1b87916105aa918d918d918d918d918d918d918d918d9101611216565b600060405180830381600087803b1580156105c457600080fd5b505af11580156105d8573d6000803e3d6000fd5b50506009549b9a5050505050505050505050565b6105f4610b4d565b6105fe6000610ba7565b565b600d805461060d906110a9565b80601f0160208091040260200160405190810160405280929190818152602001828054610639906110a9565b80156106865780601f1061065b57610100808354040283529160200191610686565b820191906000526020600020905b81548152906001019060200180831161066957829003601f168201915b505050505081565b336001600160a01b037f000000000000000000000000000000000000000000000000000000000000000016146106d757604051632ad9535160e01b815260040160405180910390fd5b6000838152600c602052604090205460ff1661072c5760405162461bcd60e51b8152602060048201526014602482015273135d5cdd0818994818d85cda195908199a5c9cdd60621b60448201526064016103b6565b60065460405163275ecee160e01b81526001600160a01b039091169063275ecee19061076690899089908990899089908990600401611275565b600060405180830381600087803b15801561078057600080fd5b505af1158015610794573d6000803e3d6000fd5b50505050505050505050565b6000336001600160a01b037f000000000000000000000000000000000000000000000000000000000000000016146107eb57604051632ad9535160e01b815260040160405180910390fd5b6000858152600c602052604090205460ff161561083b5760405162461bcd60e51b815260206004820152600e60248201526d105b1c9958591e4818d85cda195960921b60448201526064016103b6565b6005546040516353ba2df360e01b81526001600160a01b03909116906353ba2df390610879908c908c908c908c908c908c908c908c906004016112ca565b600060405180830381600087803b15801561089357600080fd5b505af11580156108a7573d6000803e3d6000fd5b5050506000868152600c60205260409020805460ff191660011790555050600a5498975050505050505050565b6000336001600160a01b037f0000000000000000000000000000000000000000000000000000000000000000161461091f57604051632ad9535160e01b815260040160405180910390fd5b6002546040516302d46e8f60e31b81526001600160a01b03909116906316a374789061095b908b908b908b908b908b908b908b90600401611306565b600060405180830381600087803b15801561097557600080fd5b505af1158015610989573d6000803e3d6000fd5b506000925061099d91505083850185610c35565b6000888152600b60209081526040808320849055600c825291829020805460ff19166001179055905182815291925088917f07c7861582baf574daa482e764ab9bc4954b9525ee7bd155bcc5a97f739e6df9910160405180910390a25050600754979650505050505050565b6000336001600160a01b037f00000000000000000000000000000000000000000000000000000000000000001614610a5457604051632ad9535160e01b815260040160405180910390fd5b6003546040516309b1079760e21b81526001600160a01b03909116906326c41e5c90610a92908c908c908c908c908c908c908c908c9060040161135e565b600060405180830381600087803b158015610aac57600080fd5b505af1158015610ac0573d6000803e3d6000fd5b50506008549b9a5050505050505050505050565b610adc610b4d565b6001600160a01b038116610b415760405162461bcd60e51b815260206004820152602660248201527f4f776e61626c653a206e6577206f776e657220697320746865207a65726f206160448201526564647265737360d01b60648201526084016103b6565b610b4a81610ba7565b50565b6000546001600160a01b031633146105fe5760405162461bcd60e51b815260206004820181905260248201527f4f776e61626c653a2063616c6c6572206973206e6f7420746865206f776e657260448201526064016103b6565b600080546001600160a01b038381166001600160a01b0319831681178455604051919092169283917f8be0079c531659141344cd1fd0a4f28419497f9722a3daafe3b4186f6b6457e09190a35050565b80356001600160a01b0381168114610c0e57600080fd5b919050565b600060208284031215610c2557600080fd5b610c2e82610bf7565b9392505050565b600060208284031215610c4757600080fd5b5035919050565b6000815180845260005b81811015610c7457602081850181015186830182015201610c58565b506000602082860101526020601f19601f83011685010191505092915050565b602081526000610c2e6020830184610c4e565b80358015158114610c0e57600080fd5b600060e08284031215610cc957600080fd5b50919050565b60008083601f840112610ce157600080fd5b50813567ffffffffffffffff811115610cf957600080fd5b602083019150836020828501011115610d1157600080fd5b9250929050565b6000806000806000806000806101a0898b031215610d3557600080fd5b610d3e89610bf7565b9750610d4c60208a01610bf7565b965060408901359550610d6160608a01610ca7565b945060808901359350610d778a60a08b01610cb7565b925061018089013567ffffffffffffffff811115610d9457600080fd5b610da08b828c01610ccf565b999c989b5096995094979396929594505050565b634e487b7160e01b600052604160045260246000fd5b600082601f830112610ddb57600080fd5b813567ffffffffffffffff80821115610df657610df6610db4565b604051601f8301601f19908116603f01168101908282118183101715610e1e57610e1e610db4565b81604052838152866020858801011115610e3757600080fd5b836020870160208301376000602085830101528094505050505092915050565b6000806000806000806101808789031215610e7157600080fd5b610e7a87610bf7565b9550610e8860208801610bf7565b9450610e9660408801610bf7565b935060608701359250610eac8860808901610cb7565b915061016087013567ffffffffffffffff811115610ec957600080fd5b610ed589828a01610dca565b9150509295509295509295565b6000806000806000806000806101a0898b031215610eff57600080fd5b610f0889610bf7565b9750610f1660208a01610bf7565b9650610f2460408a01610bf7565b95506060890135945060808901359350610d778a60a08b01610cb7565b6000806000806000806000610180888a031215610f5d57600080fd5b610f6688610bf7565b9650610f7460208901610bf7565b955060408801359450610f8a8960608a01610cb7565b9350610f996101408901610ca7565b925061016088013567ffffffffffffffff811115610fb657600080fd5b610fc28a828b01610ccf565b989b979a50959850939692959293505050565b6000806000806000806000806101c0898b031215610ff257600080fd5b610ffb89610bf7565b975061100960208a01610ca7565b965061101760408a01610bf7565b955061102560608a01610bf7565b945061103360808a01610bf7565b935060a089013592506110498a60c08b01610cb7565b91506101a089013567ffffffffffffffff81111561106657600080fd5b6110728b828c01610dca565b9150509295985092959890939650565b818103818111156110a357634e487b7160e01b600052601160045260246000fd5b92915050565b600181811c908216806110bd57607f821691505b602082108103610cc957634e487b7160e01b600052602260045260246000fd5b600080845481600182811c9150808316806110f957607f831692505b6020808410820361111857634e487b7160e01b86526022600452602486fd5b81801561112c57600181146111415761116e565b60ff198616895284151585028901965061116e565b60008b81526020902060005b868110156111665781548b82015290850190830161114d565b505084890196505b509785525050509301949350505050565b6001600160a01b038061119183610bf7565b1683526020820135602084015260408201356040840152806111b560608401610bf7565b166060840152806111c860808401610bf7565b166080840152806111db60a08401610bf7565b1660a08401525060c090810135910152565b81835281816020850137506000828201602090810191909152601f909101601f19169091010190565b6001600160a01b038981168252881660208201526040810187905285151560608201526080810185905260006101a061125260a084018761117f565b8061018084015261126681840185876111ed565b9b9a5050505050505050505050565b6001600160a01b0387811682528681166020830152851660408201526060810184905260006101806112aa608084018661117f565b806101608401526112bd81840185610c4e565b9998505050505050505050565b6001600160a01b038981168252888116602083015287166040820152606081018690526080810185905260006101a061125260a084018761117f565b6001600160a01b03888116825287166020820152604081018690526000610180611333606084018861117f565b8515156101408401528061016084015261135081840185876111ed565b9a9950505050505050505050565b6001600160a01b0389811682528815156020830152878116604083015286811660608301528516608082015260a0810184905260006101c06113a360c084018661117f565b806101a084015261126681840185610c4e56fea26469706673582212205b8b729bd66ab9ab901804111990bb9baabac5975504bd2f32c010d93cf9a54964736f6c63430008100033",
    "linkReferences": {}
  },
  "methodIdentifiers": {
    "REGISTRAR()": "cb609077",
    "_baseURI()": "743976a0",
    "approveRule()": "433d3a77",
    "cashRule()": "f3ea001e",
    "fees()": "9af1d35a",
    "fundRule()": "d4c301da",
    "getFees()": "db8d55f1",
    "isCashed(uint256)": "aee40bb9",
    "memo(uint256)": "96eb58f8",
    "owner()": "8da5cb5b",
    "processApproval(address,address,address,uint256,(address,uint256,uint256,address,address,address,uint256),bytes)": "84314347",
    "processCash(address,address,address,uint256,uint256,(address,uint256,uint256,address,address,address,uint256),bytes)": "a0663d1b",
    "processFund(address,address,uint256,bool,uint256,(address,uint256,uint256,address,address,address,uint256),bytes)": "53f7b842",
    "processTokenURI(uint256)": "4fe17e1a",
    "processTransfer(address,bool,address,address,address,uint256,(address,uint256,uint256,address,address,address,uint256),bytes)": "f09b3d9a",
    "processWrite(address,address,uint256,(address,uint256,uint256,address,address,address,uint256),bool,bytes)": "ccd16568",
    "renounceOwnership()": "715018a6",
    "transferOwnership(address)": "f2fde38b",
    "transferRule()": "0d02cde7",
    "withdrawFees(address)": "164e68de",
    "writeRule()": "df1cdb46"
  },
  "id": 47
}