{
  "abi": [
    {
      "inputs": [
        {
          "internalType": "contract CheqRegistrar",
          "name": "_cheq",
          "type": "address"
        }
      ],
      "stateMutability": "nonpayable",
      "type": "constructor"
    },
    {
      "anonymous": false,
      "inputs": [
        {
          "indexed": true,
          "internalType": "address",
          "name": "previousOwner",
          "type": "address"
        },
        {
          "indexed": true,
          "internalType": "address",
          "name": "newOwner",
          "type": "address"
        }
      ],
      "name": "OwnershipTransferred",
      "type": "event"
    },
    {
      "inputs": [
        {
          "internalType": "uint256",
          "name": "",
          "type": "uint256"
        }
      ],
      "name": "blockCashTime",
      "outputs": [
        {
          "internalType": "uint256",
          "name": "",
          "type": "uint256"
        }
      ],
      "stateMutability": "view",
      "type": "function"
    },
    {
      "inputs": [
        {
          "internalType": "uint256",
          "name": "cheqId",
          "type": "uint256"
        },
        {
          "internalType": "uint256",
          "name": "amount",
          "type": "uint256"
        }
      ],
      "name": "cashCheq",
      "outputs": [],
      "stateMutability": "nonpayable",
      "type": "function"
    },
    {
      "inputs": [
        {
          "internalType": "uint256",
          "name": "cheqId",
          "type": "uint256"
        },
        {
          "internalType": "address",
          "name": "",
          "type": "address"
        },
        {
          "internalType": "uint256",
          "name": "",
          "type": "uint256"
        }
      ],
      "name": "cashable",
      "outputs": [
        {
          "internalType": "uint256",
          "name": "",
          "type": "uint256"
        }
      ],
      "stateMutability": "view",
      "type": "function"
    },
    {
      "inputs": [],
      "name": "cheq",
      "outputs": [
        {
          "internalType": "contract CheqRegistrar",
          "name": "",
          "type": "address"
        }
      ],
      "stateMutability": "view",
      "type": "function"
    },
    {
      "inputs": [
        {
          "internalType": "uint256",
          "name": "cheqId",
          "type": "uint256"
        },
        {
          "internalType": "uint256",
          "name": "amount",
          "type": "uint256"
        }
      ],
      "name": "fundCheq",
      "outputs": [],
      "stateMutability": "nonpayable",
      "type": "function"
    },
    {
      "inputs": [
        {
          "internalType": "uint256",
          "name": "",
          "type": "uint256"
        },
        {
          "internalType": "address",
          "name": "",
          "type": "address"
        },
        {
          "internalType": "uint256",
          "name": "",
          "type": "uint256"
        }
      ],
      "name": "fundable",
      "outputs": [
        {
          "internalType": "uint256",
          "name": "",
          "type": "uint256"
        }
      ],
      "stateMutability": "pure",
      "type": "function"
    },
    {
      "inputs": [
        {
          "internalType": "uint256",
          "name": "",
          "type": "uint256"
        },
        {
          "internalType": "address",
          "name": "",
          "type": "address"
        },
        {
          "internalType": "address",
          "name": "",
          "type": "address"
        }
      ],
      "name": "isApprovable",
      "outputs": [
        {
          "internalType": "bool",
          "name": "",
          "type": "bool"
        }
      ],
      "stateMutability": "pure",
      "type": "function"
    },
    {
      "inputs": [
        {
          "internalType": "uint256",
          "name": "",
          "type": "uint256"
        },
        {
          "internalType": "address",
          "name": "",
          "type": "address"
        },
        {
          "internalType": "address",
          "name": "",
          "type": "address"
        }
      ],
      "name": "isTransferable",
      "outputs": [
        {
          "internalType": "bool",
          "name": "",
          "type": "bool"
        }
      ],
      "stateMutability": "pure",
      "type": "function"
    },
    {
      "inputs": [
        {
          "internalType": "address",
          "name": "",
          "type": "address"
        },
        {
          "internalType": "contract IERC20",
          "name": "",
          "type": "address"
        },
        {
          "internalType": "uint256",
          "name": "",
          "type": "uint256"
        },
        {
          "internalType": "uint256",
          "name": "",
          "type": "uint256"
        },
        {
          "internalType": "address",
          "name": "",
          "type": "address"
        },
        {
          "internalType": "address",
          "name": "",
          "type": "address"
        }
      ],
      "name": "isWriteable",
      "outputs": [
        {
          "internalType": "bool",
          "name": "",
          "type": "bool"
        }
      ],
      "stateMutability": "pure",
      "type": "function"
    },
    {
      "inputs": [],
      "name": "owner",
      "outputs": [
        {
          "internalType": "address",
          "name": "",
          "type": "address"
        }
      ],
      "stateMutability": "view",
      "type": "function"
    },
    {
      "inputs": [],
      "name": "renounceOwnership",
      "outputs": [],
      "stateMutability": "nonpayable",
      "type": "function"
    },
    {
      "inputs": [
        {
          "internalType": "uint256",
          "name": "tokenId",
          "type": "uint256"
        }
      ],
      "name": "tokenURI",
      "outputs": [
        {
          "internalType": "string",
          "name": "",
          "type": "string"
        }
      ],
      "stateMutability": "pure",
      "type": "function"
    },
    {
      "inputs": [
        {
          "internalType": "uint256",
          "name": "cheqId",
          "type": "uint256"
        },
        {
          "internalType": "address",
          "name": "to",
          "type": "address"
        }
      ],
      "name": "transferCheq",
      "outputs": [],
      "stateMutability": "nonpayable",
      "type": "function"
    },
    {
      "inputs": [
        {
          "internalType": "address",
          "name": "newOwner",
          "type": "address"
        }
      ],
      "name": "transferOwnership",
      "outputs": [],
      "stateMutability": "nonpayable",
      "type": "function"
    },
    {
      "inputs": [
        {
          "internalType": "contract IERC20",
          "name": "_token",
          "type": "address"
        },
        {
          "internalType": "uint256",
          "name": "amount",
          "type": "uint256"
        },
        {
          "internalType": "uint256",
          "name": "",
          "type": "uint256"
        },
        {
          "internalType": "address",
          "name": "",
          "type": "address"
        }
      ],
      "name": "writeCheq",
      "outputs": [
        {
          "internalType": "uint256",
          "name": "",
          "type": "uint256"
        }
      ],
      "stateMutability": "nonpayable",
      "type": "function"
    }
  ],
  "bytecode": {
    "object": "0x608060405234801561001057600080fd5b50604051610a98380380610a9883398101604081905261002f916100d9565b61003833610089565b600180546001600160a01b0319166001600160a01b0392909216919091179055600080526002602052427fac33ff75c19e70fe83507db0d683fd3465c996598dc972688b7ace676c89077b55610109565b600080546001600160a01b038381166001600160a01b0319831681178455604051919092169283917f8be0079c531659141344cd1fd0a4f28419497f9722a3daafe3b4186f6b6457e09190a35050565b6000602082840312156100eb57600080fd5b81516001600160a01b038116811461010257600080fd5b9392505050565b610980806101186000396000f3fe608060405234801561001057600080fd5b50600436106100f55760003560e01c80638da5cb5b11610097578063c87b56dd11610066578063c87b56dd1461020a578063d2a840e01461022a578063f19702631461023d578063f2fde38b1461025457600080fd5b80638da5cb5b146101c557806391a6262f146101d6578063a0a0ea75146101e4578063a8e62737146101f757600080fd5b8063715018a6116100d3578063715018a61461015f5780637ba06c1114610167578063803c65511461017a578063809d6f831461019a57600080fd5b8063049f26a9146100fa5780631d3ded5f1461012057806354d4310a14610135575b600080fd5b61010d6101083660046106e5565b610267565b6040519081526020015b60405180910390f35b61013361012e36600461071d565b610271565b005b61014f61014336600461074d565b60019695505050505050565b6040519015158152602001610117565b610133610337565b6101336101753660046107bd565b61034b565b61010d6101883660046107df565b60026020526000908152604090205481565b6001546101ad906001600160a01b031681565b6040516001600160a01b039091168152602001610117565b6000546001600160a01b03166101ad565b61014f6101083660046107f8565b61010d6101f23660046106e5565b610420565b61010d61020536600461083a565b610427565b61021d6102183660046107df565b610514565b6040516101179190610884565b6101336102383660046107bd565b61053f565b61014f61024b3660046107f8565b60019392505050565b6101336102623660046108d2565b6105ad565b60005b9392505050565b61027c823383610267565b6102b95760405162461bcd60e51b81526020600482015260096024820152682737ba1037bbb732b960b91b60448201526064015b60405180910390fd5b6001546001600160a01b03166323b872dd336040516001600160e01b031960e084901b1681526001600160a01b039182166004820152908416602482015260448101859052606401600060405180830381600087803b15801561031b57600080fd5b505af115801561032f573d6000803e3d6000fd5b505050505050565b61033f610626565b6103496000610680565b565b6000610358833384610267565b90508181146103a15760405162461bcd60e51b815260206004820152601560248201527410d85b9d08199d5b99081d1a1a5cc8185b5bdd5b9d605a1b60448201526064016102b0565b6001546001600160a01b03166395d140a184335b6040516001600160e01b031960e085901b16815260048101929092526001600160a01b0316602482015260448101859052606401600060405180830381600087803b15801561040357600080fd5b505af1158015610417573d6000803e3d6000fd5b50505050505050565b600061026a565b60015460009081906001600160a01b031663254fe606336040516001600160e01b031960e084901b1681526001600160a01b0391821660048201523060248201819052918a166044820152606481018990526084810189905260a481019190915260c4016020604051808303816000875af11580156104aa573d6000803e3d6000fd5b505050506040513d601f19601f820116820180604052508101906104ce91906108ef565b9050600260006104df60018461091e565b815260200190815260200160002054620151806104fc9190610937565b60008281526002602052604090205595945050505050565b60608160405160200161052991815260200190565b6040516020818303038152906040529050919050565b600061054c833384610420565b90508181146105955760405162461bcd60e51b815260206004820152601560248201527410d85b9d0818d85cda081d1a1a5cc8185b5bdd5b9d605a1b60448201526064016102b0565b6001546001600160a01b031663254388a384336103b5565b6105b5610626565b6001600160a01b03811661061a5760405162461bcd60e51b815260206004820152602660248201527f4f776e61626c653a206e6577206f776e657220697320746865207a65726f206160448201526564647265737360d01b60648201526084016102b0565b61062381610680565b50565b6000546001600160a01b031633146103495760405162461bcd60e51b815260206004820181905260248201527f4f776e61626c653a2063616c6c6572206973206e6f7420746865206f776e657260448201526064016102b0565b600080546001600160a01b038381166001600160a01b0319831681178455604051919092169283917f8be0079c531659141344cd1fd0a4f28419497f9722a3daafe3b4186f6b6457e09190a35050565b6001600160a01b038116811461062357600080fd5b6000806000606084860312156106fa57600080fd5b83359250602084013561070c816106d0565b929592945050506040919091013590565b6000806040838503121561073057600080fd5b823591506020830135610742816106d0565b809150509250929050565b60008060008060008060c0878903121561076657600080fd5b8635610771816106d0565b95506020870135610781816106d0565b94506040870135935060608701359250608087013561079f816106d0565b915060a08701356107af816106d0565b809150509295509295509295565b600080604083850312156107d057600080fd5b50508035926020909101359150565b6000602082840312156107f157600080fd5b5035919050565b60008060006060848603121561080d57600080fd5b83359250602084013561081f816106d0565b9150604084013561082f816106d0565b809150509250925092565b6000806000806080858703121561085057600080fd5b843561085b816106d0565b935060208501359250604085013591506060850135610879816106d0565b939692955090935050565b600060208083528351808285015260005b818110156108b157858101830151858201604001528201610895565b506000604082860101526040601f19601f8301168501019250505092915050565b6000602082840312156108e457600080fd5b813561026a816106d0565b60006020828403121561090157600080fd5b5051919050565b634e487b7160e01b600052601160045260246000fd5b8181038181111561093157610931610908565b92915050565b808201808211156109315761093161090856fea26469706673582212201e898a28bf9cd47d851dacbfdd3c805bb594b72ae2093e75855e19c9270a056b64736f6c63430008100033",
    "linkReferences": {}
  },
  "methodIdentifiers": {
    "blockCashTime(uint256)": "803c6551",
    "cashCheq(uint256,uint256)": "d2a840e0",
    "cashable(uint256,address,uint256)": "a0a0ea75",
    "cheq()": "809d6f83",
    "fundCheq(uint256,uint256)": "7ba06c11",
    "fundable(uint256,address,uint256)": "049f26a9",
    "isApprovable(uint256,address,address)": "f1970263",
    "isTransferable(uint256,address,address)": "91a6262f",
    "isWriteable(address,address,uint256,uint256,address,address)": "54d4310a",
    "owner()": "8da5cb5b",
    "renounceOwnership()": "715018a6",
    "tokenURI(uint256)": "c87b56dd",
    "transferCheq(uint256,address)": "1d3ded5f",
    "transferOwnership(address)": "f2fde38b",
    "writeCheq(address,uint256,uint256,address)": "a8e62737"
  },
  "id": 22
}