{
  "abi": [
    {
      "inputs": [
        {
          "internalType": "address",
          "name": "registrar",
          "type": "address"
        },
        {
          "internalType": "address",
          "name": "_writeRule",
          "type": "address"
        },
        {
          "internalType": "address",
          "name": "_transferRule",
          "type": "address"
        },
        {
          "internalType": "address",
          "name": "_fundRule",
          "type": "address"
        },
        {
          "internalType": "address",
          "name": "_cashRule",
          "type": "address"
        },
        {
          "internalType": "address",
          "name": "_approveRule",
          "type": "address"
        },
        {
          "components": [
            {
              "internalType": "uint256",
              "name": "writeBPS",
              "type": "uint256"
            },
            {
              "internalType": "uint256",
              "name": "transferBPS",
              "type": "uint256"
            },
            {
              "internalType": "uint256",
              "name": "fundBPS",
              "type": "uint256"
            },
            {
              "internalType": "uint256",
              "name": "cashBPS",
              "type": "uint256"
            }
          ],
          "internalType": "struct DataTypes.WTFCFees",
          "name": "_fees",
          "type": "tuple"
        },
        {
          "internalType": "string",
          "name": "__baseURI",
          "type": "string"
        }
      ],
      "stateMutability": "nonpayable",
      "type": "constructor"
    },
    {
      "inputs": [],
      "name": "InitParamsInvalid",
      "type": "error"
    },
    {
      "inputs": [],
      "name": "NotRegistrar",
      "type": "error"
    },
    {
      "anonymous": false,
      "inputs": [
        {
          "indexed": true,
          "internalType": "uint256",
          "name": "cheqId",
          "type": "uint256"
        },
        {
          "indexed": false,
          "internalType": "bytes32",
          "name": "memoHash",
          "type": "bytes32"
        }
      ],
      "name": "MemoWritten",
      "type": "event"
    },
    {
      "inputs": [],
      "name": "REGISTRAR",
      "outputs": [
        {
          "internalType": "address",
          "name": "",
          "type": "address"
        }
      ],
      "stateMutability": "view",
      "type": "function"
    },
    {
      "inputs": [],
      "name": "_URI",
      "outputs": [
        {
          "internalType": "string",
          "name": "",
          "type": "string"
        }
      ],
      "stateMutability": "view",
      "type": "function"
    },
    {
      "inputs": [],
      "name": "approveRule",
      "outputs": [
        {
          "internalType": "address",
          "name": "",
          "type": "address"
        }
      ],
      "stateMutability": "view",
      "type": "function"
    },
    {
      "inputs": [],
      "name": "cashRule",
      "outputs": [
        {
          "internalType": "address",
          "name": "",
          "type": "address"
        }
      ],
      "stateMutability": "view",
      "type": "function"
    },
    {
      "inputs": [],
      "name": "fees",
      "outputs": [
        {
          "internalType": "uint256",
          "name": "writeBPS",
          "type": "uint256"
        },
        {
          "internalType": "uint256",
          "name": "transferBPS",
          "type": "uint256"
        },
        {
          "internalType": "uint256",
          "name": "fundBPS",
          "type": "uint256"
        },
        {
          "internalType": "uint256",
          "name": "cashBPS",
          "type": "uint256"
        }
      ],
      "stateMutability": "view",
      "type": "function"
    },
    {
      "inputs": [],
      "name": "fundRule",
      "outputs": [
        {
          "internalType": "address",
          "name": "",
          "type": "address"
        }
      ],
      "stateMutability": "view",
      "type": "function"
    },
    {
      "inputs": [],
      "name": "getFees",
      "outputs": [
        {
          "internalType": "uint256",
          "name": "",
          "type": "uint256"
        },
        {
          "internalType": "uint256",
          "name": "",
          "type": "uint256"
        },
        {
          "internalType": "uint256",
          "name": "",
          "type": "uint256"
        },
        {
          "internalType": "uint256",
          "name": "",
          "type": "uint256"
        }
      ],
      "stateMutability": "view",
      "type": "function"
    },
    {
      "inputs": [
        {
          "internalType": "uint256",
          "name": "",
          "type": "uint256"
        }
      ],
      "name": "memo",
      "outputs": [
        {
          "internalType": "bytes32",
          "name": "",
          "type": "bytes32"
        }
      ],
      "stateMutability": "view",
      "type": "function"
    },
    {
      "inputs": [
        {
          "internalType": "address",
          "name": "caller",
          "type": "address"
        },
        {
          "internalType": "address",
          "name": "owner",
          "type": "address"
        },
        {
          "internalType": "address",
          "name": "to",
          "type": "address"
        },
        {
          "internalType": "uint256",
          "name": "cheqId",
          "type": "uint256"
        },
        {
          "components": [
            {
              "internalType": "address",
              "name": "currency",
              "type": "address"
            },
            {
              "internalType": "uint256",
              "name": "amount",
              "type": "uint256"
            },
            {
              "internalType": "uint256",
              "name": "escrowed",
              "type": "uint256"
            },
            {
              "internalType": "address",
              "name": "drawer",
              "type": "address"
            },
            {
              "internalType": "address",
              "name": "recipient",
              "type": "address"
            },
            {
              "internalType": "address",
              "name": "module",
              "type": "address"
            },
            {
              "internalType": "uint256",
              "name": "mintTimestamp",
              "type": "uint256"
            }
          ],
          "internalType": "struct DataTypes.Cheq",
          "name": "cheq",
          "type": "tuple"
        },
        {
          "internalType": "bytes",
          "name": "initData",
          "type": "bytes"
        }
      ],
      "name": "processApproval",
      "outputs": [],
      "stateMutability": "nonpayable",
      "type": "function"
    },
    {
      "inputs": [
        {
          "internalType": "address",
          "name": "caller",
          "type": "address"
        },
        {
          "internalType": "address",
          "name": "owner",
          "type": "address"
        },
        {
          "internalType": "address",
          "name": "to",
          "type": "address"
        },
        {
          "internalType": "uint256",
          "name": "amount",
          "type": "uint256"
        },
        {
          "internalType": "uint256",
          "name": "cheqId",
          "type": "uint256"
        },
        {
          "components": [
            {
              "internalType": "address",
              "name": "currency",
              "type": "address"
            },
            {
              "internalType": "uint256",
              "name": "amount",
              "type": "uint256"
            },
            {
              "internalType": "uint256",
              "name": "escrowed",
              "type": "uint256"
            },
            {
              "internalType": "address",
              "name": "drawer",
              "type": "address"
            },
            {
              "internalType": "address",
              "name": "recipient",
              "type": "address"
            },
            {
              "internalType": "address",
              "name": "module",
              "type": "address"
            },
            {
              "internalType": "uint256",
              "name": "mintTimestamp",
              "type": "uint256"
            }
          ],
          "internalType": "struct DataTypes.Cheq",
          "name": "cheq",
          "type": "tuple"
        },
        {
          "internalType": "bytes",
          "name": "initData",
          "type": "bytes"
        }
      ],
      "name": "processCash",
      "outputs": [
        {
          "internalType": "uint256",
          "name": "",
          "type": "uint256"
        }
      ],
      "stateMutability": "nonpayable",
      "type": "function"
    },
    {
      "inputs": [
        {
          "internalType": "address",
          "name": "caller",
          "type": "address"
        },
        {
          "internalType": "address",
          "name": "owner",
          "type": "address"
        },
        {
          "internalType": "uint256",
          "name": "amount",
          "type": "uint256"
        },
        {
          "internalType": "uint256",
          "name": "directAmount",
          "type": "uint256"
        },
        {
          "internalType": "uint256",
          "name": "cheqId",
          "type": "uint256"
        },
        {
          "components": [
            {
              "internalType": "address",
              "name": "currency",
              "type": "address"
            },
            {
              "internalType": "uint256",
              "name": "amount",
              "type": "uint256"
            },
            {
              "internalType": "uint256",
              "name": "escrowed",
              "type": "uint256"
            },
            {
              "internalType": "address",
              "name": "drawer",
              "type": "address"
            },
            {
              "internalType": "address",
              "name": "recipient",
              "type": "address"
            },
            {
              "internalType": "address",
              "name": "module",
              "type": "address"
            },
            {
              "internalType": "uint256",
              "name": "mintTimestamp",
              "type": "uint256"
            }
          ],
          "internalType": "struct DataTypes.Cheq",
          "name": "cheq",
          "type": "tuple"
        },
        {
          "internalType": "bytes",
          "name": "initData",
          "type": "bytes"
        }
      ],
      "name": "processFund",
      "outputs": [
        {
          "internalType": "uint256",
          "name": "",
          "type": "uint256"
        }
      ],
      "stateMutability": "nonpayable",
      "type": "function"
    },
    {
      "inputs": [
        {
          "internalType": "uint256",
          "name": "tokenId",
          "type": "uint256"
        }
      ],
      "name": "processTokenURI",
      "outputs": [
        {
          "internalType": "string",
          "name": "",
          "type": "string"
        }
      ],
      "stateMutability": "view",
      "type": "function"
    },
    {
      "inputs": [
        {
          "internalType": "address",
          "name": "caller",
          "type": "address"
        },
        {
          "internalType": "bool",
          "name": "isApproved",
          "type": "bool"
        },
        {
          "internalType": "address",
          "name": "owner",
          "type": "address"
        },
        {
          "internalType": "address",
          "name": "from",
          "type": "address"
        },
        {
          "internalType": "address",
          "name": "to",
          "type": "address"
        },
        {
          "internalType": "uint256",
          "name": "cheqId",
          "type": "uint256"
        },
        {
          "components": [
            {
              "internalType": "address",
              "name": "currency",
              "type": "address"
            },
            {
              "internalType": "uint256",
              "name": "amount",
              "type": "uint256"
            },
            {
              "internalType": "uint256",
              "name": "escrowed",
              "type": "uint256"
            },
            {
              "internalType": "address",
              "name": "drawer",
              "type": "address"
            },
            {
              "internalType": "address",
              "name": "recipient",
              "type": "address"
            },
            {
              "internalType": "address",
              "name": "module",
              "type": "address"
            },
            {
              "internalType": "uint256",
              "name": "mintTimestamp",
              "type": "uint256"
            }
          ],
          "internalType": "struct DataTypes.Cheq",
          "name": "cheq",
          "type": "tuple"
        },
        {
          "internalType": "bytes",
          "name": "data",
          "type": "bytes"
        }
      ],
      "name": "processTransfer",
      "outputs": [
        {
          "internalType": "uint256",
          "name": "",
          "type": "uint256"
        }
      ],
      "stateMutability": "nonpayable",
      "type": "function"
    },
    {
      "inputs": [
        {
          "internalType": "address",
          "name": "caller",
          "type": "address"
        },
        {
          "internalType": "address",
          "name": "owner",
          "type": "address"
        },
        {
          "internalType": "uint256",
          "name": "cheqId",
          "type": "uint256"
        },
        {
          "components": [
            {
              "internalType": "address",
              "name": "currency",
              "type": "address"
            },
            {
              "internalType": "uint256",
              "name": "amount",
              "type": "uint256"
            },
            {
              "internalType": "uint256",
              "name": "escrowed",
              "type": "uint256"
            },
            {
              "internalType": "address",
              "name": "drawer",
              "type": "address"
            },
            {
              "internalType": "address",
              "name": "recipient",
              "type": "address"
            },
            {
              "internalType": "address",
              "name": "module",
              "type": "address"
            },
            {
              "internalType": "uint256",
              "name": "mintTimestamp",
              "type": "uint256"
            }
          ],
          "internalType": "struct DataTypes.Cheq",
          "name": "cheq",
          "type": "tuple"
        },
        {
          "internalType": "uint256",
          "name": "directAmount",
          "type": "uint256"
        },
        {
          "internalType": "bytes",
          "name": "initData",
          "type": "bytes"
        }
      ],
      "name": "processWrite",
      "outputs": [
        {
          "internalType": "uint256",
          "name": "",
          "type": "uint256"
        }
      ],
      "stateMutability": "nonpayable",
      "type": "function"
    },
    {
      "inputs": [],
      "name": "transferRule",
      "outputs": [
        {
          "internalType": "address",
          "name": "",
          "type": "address"
        }
      ],
      "stateMutability": "view",
      "type": "function"
    },
    {
      "inputs": [
        {
          "internalType": "address",
          "name": "token",
          "type": "address"
        }
      ],
      "name": "withdrawFees",
      "outputs": [],
      "stateMutability": "nonpayable",
      "type": "function"
    },
    {
      "inputs": [],
      "name": "writeRule",
      "outputs": [
        {
          "internalType": "address",
          "name": "",
          "type": "address"
        }
      ],
      "stateMutability": "view",
      "type": "function"
    }
  ],
  "bytecode": {
    "object": "0x60a06040523480156200001157600080fd5b506040516200181638038062001816833981016040819052620000349162000441565b878787878787876001600160a01b03871662000063576040516348be0eb360e01b815260040160405180910390fd5b6001600160a01b038781166080819052604051631fa5b09760e11b81528883166004820152878316602482015286831660448201528583166064820152918416608483015290633f4b612e9060a401602060405180830381865afa158015620000d0573d6000803e3d6000fd5b505050506040513d601f19601f82011682018060405250810190620000f691906200053e565b620001385760405162461bcd60e51b815260206004820152600d60248201526c1495531154d7d2539590531251609a1b60448201526064015b60405180910390fd5b600380546001600160a01b03199081166001600160a01b038981169190911790925560048054821688841617905560058054821687841617905560068054821686841617905560078054909116918416919091179055805161271011620001d15760405162461bcd60e51b81526020600482015260146024820152600080516020620017f683398151915260448201526064016200012f565b612710816020015110620002175760405162461bcd60e51b81526020600482015260146024820152600080516020620017f683398151915260448201526064016200012f565b6127108160400151106200025d5760405162461bcd60e51b81526020600482015260146024820152600080516020620017f683398151915260448201526064016200012f565b612710816060015110620002a35760405162461bcd60e51b81526020600482015260146024820152600080516020620017f683398151915260448201526064016200012f565b8051600855602080820151600955604080830151600a556060830151600b55514281526001600160a01b038916917ff1a1fa6b64aa95186f5a1285e76198d0da80d9c5a88062641d447f1d7c54e56c910160405180910390a2505050505050508060009081620003149190620005f8565b505050505050505050620006c4565b80516001600160a01b03811681146200033b57600080fd5b919050565b634e487b7160e01b600052604160045260246000fd5b604051608081016001600160401b03811182821017156200037b576200037b62000340565b60405290565b604051601f8201601f191681016001600160401b0381118282101715620003ac57620003ac62000340565b604052919050565b600082601f830112620003c657600080fd5b81516001600160401b03811115620003e257620003e262000340565b6020620003f8601f8301601f1916820162000381565b82815285828487010111156200040d57600080fd5b60005b838110156200042d57858101830151828201840152820162000410565b506000928101909101919091529392505050565b600080600080600080600080888a036101608112156200046057600080fd5b6200046b8a62000323565b98506200047b60208b0162000323565b97506200048b60408b0162000323565b96506200049b60608b0162000323565b9550620004ab60808b0162000323565b9450620004bb60a08b0162000323565b9350608060bf1982011215620004d057600080fd5b50620004db62000356565b60c08a0151815260e08a015160208201526101008a015160408201526101208a015160608201526101408a01519092506001600160401b038111156200052057600080fd5b6200052e8b828c01620003b4565b9150509295985092959890939650565b6000602082840312156200055157600080fd5b815180151581146200056257600080fd5b9392505050565b600181811c908216806200057e57607f821691505b6020821081036200059f57634e487b7160e01b600052602260045260246000fd5b50919050565b601f821115620005f357600081815260208120601f850160051c81016020861015620005ce5750805b601f850160051c820191505b81811015620005ef57828155600101620005da565b5050505b505050565b81516001600160401b0381111562000614576200061462000340565b6200062c8162000625845462000569565b84620005a5565b602080601f8311600181146200066457600084156200064b5750858301515b600019600386901b1c1916600185901b178555620005ef565b600085815260208120601f198616915b82811015620006955788860151825594840194600190910190840162000674565b5085821015620006b45787850151600019600388901b60f8161c191681555b5050505050600190811b01905550565b6080516110ec6200070a600039600081816102320152818161035f015281816104090152818161056d0152818161062c01528181610785015261085001526110ec6000f3fe608060405234801561001057600080fd5b506004361061010b5760003560e01c8063a0663d1b116100a2578063d647e1e511610071578063d647e1e514610267578063db8d55f11461027a578063df1cdb461461028b578063f09b3d9a1461029e578063f3ea001e146102b157600080fd5b8063a0663d1b14610212578063b4e87e8f14610225578063cb6090771461022d578063d4c301da1461025457600080fd5b80634fe17e1a116100de5780634fe17e1a1461018957806384314347146101a957806396eb58f8146101bc5780639af1d35a146101dc57600080fd5b80630d02cde714610110578063164e68de146101405780634238a63a14610155578063433d3a7714610176575b600080fd5b600454610123906001600160a01b031681565b6040516001600160a01b0390911681526020015b60405180910390f35b61015361014e36600461092c565b6102c4565b005b6101686101633660046109af565b6103fc565b604051908152602001610137565b600754610123906001600160a01b031681565b61019c610197366004610a3c565b610525565b6040516101379190610a9b565b6101536101b7366004610ac4565b610562565b6101686101ca366004610a3c565b60016020526000908152604090205481565b600854600954600a54600b546101f29392919084565b604080519485526020850193909352918301526060820152608001610137565b610168610220366004610bc3565b61061f565b61019c6106ea565b6101237f000000000000000000000000000000000000000000000000000000000000000081565b600554610123906001600160a01b031681565b610168610275366004610c5f565b610778565b600854600954600a54600b546101f2565b600354610123906001600160a01b031681565b6101686102ac366004610cb7565b610843565b600654610123906001600160a01b031681565b3360009081526002602090815260408083206001600160a01b0385168452909152902054600181116103335760405162461bcd60e51b8152602060048201526014602482015273496e73756666696369656e7420726576656e756560601b604482015260640160405180910390fd5b3360009081526002602090815260408083206001600160a01b03868116855292529091206001908190557f00000000000000000000000000000000000000000000000000000000000000009091169063d6a4f84c9084906103949085610d74565b6040516001600160e01b031960e085901b1681526001600160a01b0390921660048301526024820152336044820152606401600060405180830381600087803b1580156103e057600080fd5b505af11580156103f4573d6000803e3d6000fd5b505050505050565b6000336001600160a01b037f0000000000000000000000000000000000000000000000000000000000000000161461044757604051632ad9535160e01b815260040160405180910390fd5b600354604051638893ae9d60e01b81526001600160a01b0390911690638893ae9d90610483908b908b908b908b908b908b908b90600401610e32565b600060405180830381600087803b15801561049d57600080fd5b505af11580156104b1573d6000803e3d6000fd5b50600092506104c591505083850185610a3c565b600088815260016020526040908190208290555190915087907f07c7861582baf574daa482e764ab9bc4954b9525ee7bd155bcc5a97f739e6df99061050d9084815260200190565b60405180910390a25050600854979650505050505050565b6000818152600160209081526040808320549051606093919261054b9291849101610ebc565b604051602081830303815290604052915050919050565b336001600160a01b037f000000000000000000000000000000000000000000000000000000000000000016146105ab57604051632ad9535160e01b815260040160405180910390fd5b60075460405163275ecee160e01b81526001600160a01b039091169063275ecee1906105e590899089908990899089908990600401610f5e565b600060405180830381600087803b1580156105ff57600080fd5b505af1158015610613573d6000803e3d6000fd5b50505050505050505050565b6000336001600160a01b037f0000000000000000000000000000000000000000000000000000000000000000161461066a57604051632ad9535160e01b815260040160405180910390fd5b6006546040516353ba2df360e01b81526001600160a01b03909116906353ba2df3906106a8908c908c908c908c908c908c908c908c90600401610fb3565b600060405180830381600087803b1580156106c257600080fd5b505af11580156106d6573d6000803e3d6000fd5b5050600b549b9a5050505050505050505050565b600080546106f790610e88565b80601f016020809104026020016040519081016040528092919081815260200182805461072390610e88565b80156107705780601f1061074557610100808354040283529160200191610770565b820191906000526020600020905b81548152906001019060200180831161075357829003601f168201915b505050505081565b6000336001600160a01b037f000000000000000000000000000000000000000000000000000000000000000016146107c357604051632ad9535160e01b815260040160405180910390fd5b6005546040516329cc185f60e21b81526001600160a01b039091169063a730617c90610801908c908c908c908c908c908c908c908c90600401611012565b600060405180830381600087803b15801561081b57600080fd5b505af115801561082f573d6000803e3d6000fd5b5050600a549b9a5050505050505050505050565b6000336001600160a01b037f0000000000000000000000000000000000000000000000000000000000000000161461088e57604051632ad9535160e01b815260040160405180910390fd5b600480546040516309b1079760e21b81526001600160a01b03909116916326c41e5c916108cd918e918e918e918e918e918e918e918e918e910161104d565b600060405180830381600087803b1580156108e757600080fd5b505af11580156108fb573d6000803e3d6000fd5b50506009549c9b505050505050505050505050565b80356001600160a01b038116811461092757600080fd5b919050565b60006020828403121561093e57600080fd5b61094782610910565b9392505050565b600060e0828403121561096057600080fd5b50919050565b60008083601f84011261097857600080fd5b50813567ffffffffffffffff81111561099057600080fd5b6020830191508360208285010111156109a857600080fd5b9250929050565b6000806000806000806000610180888a0312156109cb57600080fd5b6109d488610910565b96506109e260208901610910565b9550604088013594506109f88960608a0161094e565b9350610140880135925061016088013567ffffffffffffffff811115610a1d57600080fd5b610a298a828b01610966565b989b979a50959850939692959293505050565b600060208284031215610a4e57600080fd5b5035919050565b6000815180845260005b81811015610a7b57602081850181015186830182015201610a5f565b506000602082860101526020601f19601f83011685010191505092915050565b6020815260006109476020830184610a55565b634e487b7160e01b600052604160045260246000fd5b6000806000806000806101808789031215610ade57600080fd5b610ae787610910565b9550610af560208801610910565b9450610b0360408801610910565b935060608701359250610b19886080890161094e565b915061016087013567ffffffffffffffff80821115610b3757600080fd5b818901915089601f830112610b4b57600080fd5b813581811115610b5d57610b5d610aae565b604051601f8201601f19908116603f01168101908382118183101715610b8557610b85610aae565b816040528281528c6020848701011115610b9e57600080fd5b8260208601602083013760006020848301015280955050505050509295509295509295565b6000806000806000806000806101a0898b031215610be057600080fd5b610be989610910565b9750610bf760208a01610910565b9650610c0560408a01610910565b95506060890135945060808901359350610c228a60a08b0161094e565b925061018089013567ffffffffffffffff811115610c3f57600080fd5b610c4b8b828c01610966565b999c989b5096995094979396929594505050565b6000806000806000806000806101a0898b031215610c7c57600080fd5b610c8589610910565b9750610c9360208a01610910565b9650604089013595506060890135945060808901359350610c228a60a08b0161094e565b60008060008060008060008060006101c08a8c031215610cd657600080fd5b610cdf8a610910565b985060208a01358015158114610cf457600080fd5b9750610d0260408b01610910565b9650610d1060608b01610910565b9550610d1e60808b01610910565b945060a08a01359350610d348b60c08c0161094e565b92506101a08a013567ffffffffffffffff811115610d5157600080fd5b610d5d8c828d01610966565b915080935050809150509295985092959850929598565b81810381811115610d9557634e487b7160e01b600052601160045260246000fd5b92915050565b6001600160a01b0380610dad83610910565b168352602082013560208401526040820135604084015280610dd160608401610910565b16606084015280610de460808401610910565b16608084015280610df760a08401610910565b1660a08401525060c090810135910152565b81835281816020850137506000828201602090810191909152601f909101601f19169091010190565b6001600160a01b03888116825287166020820152604081018690526000610180610e5f6060840188610d9b565b8561014084015280610160840152610e7a8184018587610e09565b9a9950505050505050505050565b600181811c90821680610e9c57607f821691505b60208210810361096057634e487b7160e01b600052602260045260246000fd5b600080845481600182811c915080831680610ed857607f831692505b60208084108203610ef757634e487b7160e01b86526022600452602486fd5b818015610f0b5760018114610f2057610f4d565b60ff1986168952841515850289019650610f4d565b60008b81526020902060005b86811015610f455781548b820152908501908301610f2c565b505084890196505b509785525050509301949350505050565b6001600160a01b038781168252868116602083015285166040820152606081018490526000610180610f936080840186610d9b565b80610160840152610fa681840185610a55565b9998505050505050505050565b6001600160a01b038981168252888116602083015287166040820152606081018690526080810185905260006101a0610fef60a0840187610d9b565b806101808401526110038184018587610e09565b9b9a5050505050505050505050565b6001600160a01b0389811682528816602082015260408101879052606081018690526080810185905260006101a0610fef60a0840187610d9b565b6001600160a01b038a811682528915156020830152888116604083015287811660608301528616608082015260a0810185905260006101c061109260c0840187610d9b565b806101a08401526110a68184018587610e09565b9c9b50505050505050505050505056fea2646970667358221220d1542e325ecf8f4361c84986bbfc9c433de6e1f8981c8a3f43b75019bbcaf50b64736f6c634300081000334d6f64756c653a2046656520746f6f2068696768000000000000000000000000",
    "linkReferences": {}
  },
  "methodIdentifiers": {
    "REGISTRAR()": "cb609077",
    "_URI()": "b4e87e8f",
    "approveRule()": "433d3a77",
    "cashRule()": "f3ea001e",
    "fees()": "9af1d35a",
    "fundRule()": "d4c301da",
    "getFees()": "db8d55f1",
    "memo(uint256)": "96eb58f8",
    "processApproval(address,address,address,uint256,(address,uint256,uint256,address,address,address,uint256),bytes)": "84314347",
    "processCash(address,address,address,uint256,uint256,(address,uint256,uint256,address,address,address,uint256),bytes)": "a0663d1b",
    "processFund(address,address,uint256,uint256,uint256,(address,uint256,uint256,address,address,address,uint256),bytes)": "d647e1e5",
    "processTokenURI(uint256)": "4fe17e1a",
    "processTransfer(address,bool,address,address,address,uint256,(address,uint256,uint256,address,address,address,uint256),bytes)": "f09b3d9a",
    "processWrite(address,address,uint256,(address,uint256,uint256,address,address,address,uint256),uint256,bytes)": "4238a63a",
    "transferRule()": "0d02cde7",
    "withdrawFees(address)": "164e68de",
    "writeRule()": "df1cdb46"
  },
  "id": 37
}