{
  "abi": [
    {
      "inputs": [
        {
          "internalType": "address",
          "name": "",
          "type": "address"
        },
        {
          "internalType": "address",
          "name": "",
          "type": "address"
        },
        {
          "internalType": "address",
          "name": "",
          "type": "address"
        },
        {
          "internalType": "uint256",
          "name": "",
          "type": "uint256"
        },
        {
          "components": [
            {
              "internalType": "address",
              "name": "currency",
              "type": "address"
            },
            {
              "internalType": "uint256",
              "name": "amount",
              "type": "uint256"
            },
            {
              "internalType": "uint256",
              "name": "escrowed",
              "type": "uint256"
            },
            {
              "internalType": "address",
              "name": "drawer",
              "type": "address"
            },
            {
              "internalType": "address",
              "name": "recipient",
              "type": "address"
            },
            {
              "internalType": "address",
              "name": "module",
              "type": "address"
            },
            {
              "internalType": "uint256",
              "name": "mintTimestamp",
              "type": "uint256"
            }
          ],
          "internalType": "struct DataTypes.Cheq",
          "name": "",
          "type": "tuple"
        },
        {
          "internalType": "bytes",
          "name": "",
          "type": "bytes"
        }
      ],
      "name": "canApprove",
      "outputs": [],
      "stateMutability": "pure",
      "type": "function"
    },
    {
      "inputs": [
        {
          "internalType": "address",
          "name": "",
          "type": "address"
        },
        {
          "internalType": "address",
          "name": "",
          "type": "address"
        },
        {
          "internalType": "address",
          "name": "",
          "type": "address"
        },
        {
          "internalType": "uint256",
          "name": "",
          "type": "uint256"
        },
        {
          "internalType": "uint256",
          "name": "",
          "type": "uint256"
        },
        {
          "components": [
            {
              "internalType": "address",
              "name": "currency",
              "type": "address"
            },
            {
              "internalType": "uint256",
              "name": "amount",
              "type": "uint256"
            },
            {
              "internalType": "uint256",
              "name": "escrowed",
              "type": "uint256"
            },
            {
              "internalType": "address",
              "name": "drawer",
              "type": "address"
            },
            {
              "internalType": "address",
              "name": "recipient",
              "type": "address"
            },
            {
              "internalType": "address",
              "name": "module",
              "type": "address"
            },
            {
              "internalType": "uint256",
              "name": "mintTimestamp",
              "type": "uint256"
            }
          ],
          "internalType": "struct DataTypes.Cheq",
          "name": "",
          "type": "tuple"
        },
        {
          "internalType": "bytes",
          "name": "",
          "type": "bytes"
        }
      ],
      "name": "canCash",
      "outputs": [],
      "stateMutability": "pure",
      "type": "function"
    },
    {
      "inputs": [
        {
          "internalType": "address",
          "name": "",
          "type": "address"
        },
        {
          "internalType": "address",
          "name": "",
          "type": "address"
        },
        {
          "internalType": "uint256",
          "name": "",
          "type": "uint256"
        },
        {
          "internalType": "uint256",
          "name": "",
          "type": "uint256"
        },
        {
          "internalType": "uint256",
          "name": "",
          "type": "uint256"
        },
        {
          "components": [
            {
              "internalType": "address",
              "name": "currency",
              "type": "address"
            },
            {
              "internalType": "uint256",
              "name": "amount",
              "type": "uint256"
            },
            {
              "internalType": "uint256",
              "name": "escrowed",
              "type": "uint256"
            },
            {
              "internalType": "address",
              "name": "drawer",
              "type": "address"
            },
            {
              "internalType": "address",
              "name": "recipient",
              "type": "address"
            },
            {
              "internalType": "address",
              "name": "module",
              "type": "address"
            },
            {
              "internalType": "uint256",
              "name": "mintTimestamp",
              "type": "uint256"
            }
          ],
          "internalType": "struct DataTypes.Cheq",
          "name": "",
          "type": "tuple"
        },
        {
          "internalType": "bytes",
          "name": "",
          "type": "bytes"
        }
      ],
      "name": "canFund",
      "outputs": [],
      "stateMutability": "pure",
      "type": "function"
    },
    {
      "inputs": [
        {
          "internalType": "address",
          "name": "",
          "type": "address"
        },
        {
          "internalType": "bool",
          "name": "",
          "type": "bool"
        },
        {
          "internalType": "address",
          "name": "",
          "type": "address"
        },
        {
          "internalType": "address",
          "name": "",
          "type": "address"
        },
        {
          "internalType": "address",
          "name": "",
          "type": "address"
        },
        {
          "internalType": "uint256",
          "name": "",
          "type": "uint256"
        },
        {
          "components": [
            {
              "internalType": "address",
              "name": "currency",
              "type": "address"
            },
            {
              "internalType": "uint256",
              "name": "amount",
              "type": "uint256"
            },
            {
              "internalType": "uint256",
              "name": "escrowed",
              "type": "uint256"
            },
            {
              "internalType": "address",
              "name": "drawer",
              "type": "address"
            },
            {
              "internalType": "address",
              "name": "recipient",
              "type": "address"
            },
            {
              "internalType": "address",
              "name": "module",
              "type": "address"
            },
            {
              "internalType": "uint256",
              "name": "mintTimestamp",
              "type": "uint256"
            }
          ],
          "internalType": "struct DataTypes.Cheq",
          "name": "",
          "type": "tuple"
        },
        {
          "internalType": "bytes",
          "name": "",
          "type": "bytes"
        }
      ],
      "name": "canTransfer",
      "outputs": [],
      "stateMutability": "pure",
      "type": "function"
    },
    {
      "inputs": [
        {
          "internalType": "address",
          "name": "",
          "type": "address"
        },
        {
          "internalType": "address",
          "name": "",
          "type": "address"
        },
        {
          "internalType": "uint256",
          "name": "",
          "type": "uint256"
        },
        {
          "components": [
            {
              "internalType": "address",
              "name": "currency",
              "type": "address"
            },
            {
              "internalType": "uint256",
              "name": "amount",
              "type": "uint256"
            },
            {
              "internalType": "uint256",
              "name": "escrowed",
              "type": "uint256"
            },
            {
              "internalType": "address",
              "name": "drawer",
              "type": "address"
            },
            {
              "internalType": "address",
              "name": "recipient",
              "type": "address"
            },
            {
              "internalType": "address",
              "name": "module",
              "type": "address"
            },
            {
              "internalType": "uint256",
              "name": "mintTimestamp",
              "type": "uint256"
            }
          ],
          "internalType": "struct DataTypes.Cheq",
          "name": "",
          "type": "tuple"
        },
        {
          "internalType": "uint256",
          "name": "",
          "type": "uint256"
        },
        {
          "internalType": "bytes",
          "name": "",
          "type": "bytes"
        }
      ],
      "name": "canWrite",
      "outputs": [],
      "stateMutability": "pure",
      "type": "function"
    }
  ],
  "bytecode": {
    "object": "0x608060405234801561001057600080fd5b5061049d806100206000396000f3fe608060405234801561001057600080fd5b50600436106100575760003560e01c806326c41e5c1461005c578063275ecee11461007657806353ba2df31461008d5780638893ae9d1461009b578063a730617c146100a9575b600080fd5b61007461006a366004610101565b5050505050505050565b005b610074610084366004610272565b50505050505050565b61007461006a366004610305565b6100746100843660046103a1565b61007461006a36600461040f565b80356001600160a01b03811681146100ce57600080fd5b919050565b600060e082840312156100e557600080fd5b50919050565b634e487b7160e01b600052604160045260246000fd5b6000806000806000806000806101c0898b03121561011e57600080fd5b610127896100b7565b97506020890135801515811461013c57600080fd5b965061014a60408a016100b7565b955061015860608a016100b7565b945061016660808a016100b7565b935060a0890135925061017c8a60c08b016100d3565b91506101a089013567ffffffffffffffff8082111561019a57600080fd5b818b0191508b601f8301126101ae57600080fd5b8135818111156101c0576101c06100eb565b604051601f8201601f19908116603f011681019083821181831017156101e8576101e86100eb565b816040528281528e602084870101111561020157600080fd5b8260208601602083013760006020848301015280955050505050509295985092959890939650565b60008083601f84011261023b57600080fd5b50813567ffffffffffffffff81111561025357600080fd5b60208301915083602082850101111561026b57600080fd5b9250929050565b6000806000806000806000610180888a03121561028e57600080fd5b610297886100b7565b96506102a5602089016100b7565b95506102b3604089016100b7565b9450606088013593506102c98960808a016100d3565b925061016088013567ffffffffffffffff8111156102e657600080fd5b6102f28a828b01610229565b989b979a50959850939692959293505050565b6000806000806000806000806101a0898b03121561032257600080fd5b61032b896100b7565b975061033960208a016100b7565b965061034760408a016100b7565b955060608901359450608089013593506103648a60a08b016100d3565b925061018089013567ffffffffffffffff81111561038157600080fd5b61038d8b828c01610229565b999c989b5096995094979396929594505050565b6000806000806000806000610180888a0312156103bd57600080fd5b6103c6886100b7565b96506103d4602089016100b7565b9550604088013594506103ea8960608a016100d3565b9350610140880135925061016088013567ffffffffffffffff8111156102e657600080fd5b6000806000806000806000806101a0898b03121561042c57600080fd5b610435896100b7565b975061044360208a016100b7565b96506040890135955060608901359450608089013593506103648a60a08b016100d356fea2646970667358221220b79e4dd1300db2083fc2fd758052e303d19f6451c1a16b71235797f6cb8a664b64736f6c63430008100033",
    "linkReferences": {}
  },
  "methodIdentifiers": {
    "canApprove(address,address,address,uint256,(address,uint256,uint256,address,address,address,uint256),bytes)": "275ecee1",
    "canCash(address,address,address,uint256,uint256,(address,uint256,uint256,address,address,address,uint256),bytes)": "53ba2df3",
    "canFund(address,address,uint256,uint256,uint256,(address,uint256,uint256,address,address,address,uint256),bytes)": "a730617c",
    "canTransfer(address,bool,address,address,address,uint256,(address,uint256,uint256,address,address,address,uint256),bytes)": "26c41e5c",
    "canWrite(address,address,uint256,(address,uint256,uint256,address,address,address,uint256),uint256,bytes)": "8893ae9d"
  },
  "id": 63
}