{
  "abi": [
    {
      "inputs": [
        {
          "internalType": "address",
          "name": "registrar",
          "type": "address"
        }
      ],
      "stateMutability": "nonpayable",
      "type": "constructor"
    },
    {
      "inputs": [],
      "name": "Disallowed",
      "type": "error"
    },
    {
      "inputs": [],
      "name": "EscrowUnsupported",
      "type": "error"
    },
    {
      "inputs": [],
      "name": "InitParamsInvalid",
      "type": "error"
    },
    {
      "inputs": [],
      "name": "NotRegistrar",
      "type": "error"
    },
    {
      "anonymous": false,
      "inputs": [
        {
          "indexed": true,
          "internalType": "address",
          "name": "registrar",
          "type": "address"
        },
        {
          "indexed": false,
          "internalType": "uint256",
          "name": "timestamp",
          "type": "uint256"
        }
      ],
      "name": "ModuleBaseConstructed",
      "type": "event"
    },
    {
      "anonymous": false,
      "inputs": [
        {
          "indexed": true,
          "internalType": "uint256",
          "name": "notaId",
          "type": "uint256"
        },
        {
          "indexed": false,
          "internalType": "uint256",
          "name": "amount",
          "type": "uint256"
        },
        {
          "indexed": false,
          "internalType": "string",
          "name": "memoHash",
          "type": "string"
        },
        {
          "indexed": false,
          "internalType": "string",
          "name": "imageURI",
          "type": "string"
        }
      ],
      "name": "PaymentCreated",
      "type": "event"
    },
    {
      "inputs": [],
      "name": "REGISTRAR",
      "outputs": [
        {
          "internalType": "address",
          "name": "",
          "type": "address"
        }
      ],
      "stateMutability": "view",
      "type": "function"
    },
    {
      "inputs": [
        {
          "internalType": "uint256",
          "name": "",
          "type": "uint256"
        }
      ],
      "name": "payInfo",
      "outputs": [
        {
          "internalType": "uint256",
          "name": "amount",
          "type": "uint256"
        },
        {
          "internalType": "string",
          "name": "external_url",
          "type": "string"
        },
        {
          "internalType": "string",
          "name": "imageURI",
          "type": "string"
        }
      ],
      "stateMutability": "view",
      "type": "function"
    },
    {
      "inputs": [
        {
          "internalType": "address",
          "name": "caller",
          "type": "address"
        },
        {
          "internalType": "address",
          "name": "owner",
          "type": "address"
        },
        {
          "internalType": "address",
          "name": "to",
          "type": "address"
        },
        {
          "internalType": "uint256",
          "name": "notaId",
          "type": "uint256"
        },
        {
          "components": [
            {
              "internalType": "uint256",
              "name": "escrowed",
              "type": "uint256"
            },
            {
              "internalType": "address",
              "name": "currency",
              "type": "address"
            },
            {
              "internalType": "contract INotaModule",
              "name": "module",
              "type": "address"
            }
          ],
          "internalType": "struct Nota",
          "name": "nota",
          "type": "tuple"
        }
      ],
      "name": "processApproval",
      "outputs": [],
      "stateMutability": "nonpayable",
      "type": "function"
    },
    {
      "inputs": [
        {
          "internalType": "address",
          "name": "",
          "type": "address"
        },
        {
          "internalType": "address",
          "name": "",
          "type": "address"
        },
        {
          "internalType": "address",
          "name": "",
          "type": "address"
        },
        {
          "internalType": "uint256",
          "name": "",
          "type": "uint256"
        },
        {
          "internalType": "uint256",
          "name": "",
          "type": "uint256"
        },
        {
          "components": [
            {
              "internalType": "uint256",
              "name": "escrowed",
              "type": "uint256"
            },
            {
              "internalType": "address",
              "name": "currency",
              "type": "address"
            },
            {
              "internalType": "contract INotaModule",
              "name": "module",
              "type": "address"
            }
          ],
          "internalType": "struct Nota",
          "name": "",
          "type": "tuple"
        },
        {
          "internalType": "bytes",
          "name": "",
          "type": "bytes"
        }
      ],
      "name": "processCash",
      "outputs": [
        {
          "internalType": "uint256",
          "name": "",
          "type": "uint256"
        }
      ],
      "stateMutability": "view",
      "type": "function"
    },
    {
      "inputs": [
        {
          "internalType": "address",
          "name": "",
          "type": "address"
        },
        {
          "internalType": "address",
          "name": "",
          "type": "address"
        },
        {
          "internalType": "uint256",
          "name": "",
          "type": "uint256"
        },
        {
          "internalType": "uint256",
          "name": "",
          "type": "uint256"
        },
        {
          "internalType": "uint256",
          "name": "",
          "type": "uint256"
        },
        {
          "components": [
            {
              "internalType": "uint256",
              "name": "escrowed",
              "type": "uint256"
            },
            {
              "internalType": "address",
              "name": "currency",
              "type": "address"
            },
            {
              "internalType": "contract INotaModule",
              "name": "module",
              "type": "address"
            }
          ],
          "internalType": "struct Nota",
          "name": "",
          "type": "tuple"
        },
        {
          "internalType": "bytes",
          "name": "",
          "type": "bytes"
        }
      ],
      "name": "processFund",
      "outputs": [
        {
          "internalType": "uint256",
          "name": "",
          "type": "uint256"
        }
      ],
      "stateMutability": "nonpayable",
      "type": "function"
    },
    {
      "inputs": [
        {
          "internalType": "uint256",
          "name": "tokenId",
          "type": "uint256"
        }
      ],
      "name": "processTokenURI",
      "outputs": [
        {
          "internalType": "string",
          "name": "",
          "type": "string"
        },
        {
          "internalType": "string",
          "name": "",
          "type": "string"
        }
      ],
      "stateMutability": "view",
      "type": "function"
    },
    {
      "inputs": [
        {
          "internalType": "address",
          "name": "",
          "type": "address"
        },
        {
          "internalType": "address",
          "name": "",
          "type": "address"
        },
        {
          "internalType": "address",
          "name": "",
          "type": "address"
        },
        {
          "internalType": "address",
          "name": "",
          "type": "address"
        },
        {
          "internalType": "address",
          "name": "",
          "type": "address"
        },
        {
          "internalType": "uint256",
          "name": "",
          "type": "uint256"
        },
        {
          "components": [
            {
              "internalType": "uint256",
              "name": "escrowed",
              "type": "uint256"
            },
            {
              "internalType": "address",
              "name": "currency",
              "type": "address"
            },
            {
              "internalType": "contract INotaModule",
              "name": "module",
              "type": "address"
            }
          ],
          "internalType": "struct Nota",
          "name": "",
          "type": "tuple"
        },
        {
          "internalType": "bytes",
          "name": "",
          "type": "bytes"
        }
      ],
      "name": "processTransfer",
      "outputs": [
        {
          "internalType": "uint256",
          "name": "",
          "type": "uint256"
        }
      ],
      "stateMutability": "nonpayable",
      "type": "function"
    },
    {
      "inputs": [
        {
          "internalType": "address",
          "name": "",
          "type": "address"
        },
        {
          "internalType": "address",
          "name": "",
          "type": "address"
        },
        {
          "internalType": "uint256",
          "name": "notaId",
          "type": "uint256"
        },
        {
          "internalType": "address",
          "name": "",
          "type": "address"
        },
        {
          "internalType": "uint256",
          "name": "escrowed",
          "type": "uint256"
        },
        {
          "internalType": "uint256",
          "name": "instant",
          "type": "uint256"
        },
        {
          "internalType": "bytes",
          "name": "initData",
          "type": "bytes"
        }
      ],
      "name": "processWrite",
      "outputs": [
        {
          "internalType": "uint256",
          "name": "",
          "type": "uint256"
        }
      ],
      "stateMutability": "nonpayable",
      "type": "function"
    }
  ],
  "bytecode": {
    "object": "0x60a0346100c957601f610f8738819003918201601f19168301916001600160401b038311848410176100ce578084926020946040528339810103126100c957516001600160a01b038116908181036100c95781156100b7576080527ff1a1fa6b64aa95186f5a1285e76198d0da80d9c5a88062641d447f1d7c54e56c6020604051428152a2604051610ea290816100e58239608051818181608d0152818161010f0152818161051d01528181610b6e0152610e2c0152f35b6040516348be0eb360e01b8152600490fd5b600080fd5b634e487b7160e01b600052604160045260246000fdfe608080604052600436101561001357600080fd5b60003560e01c908163300826d614610b34575080634fe17e1a1461062057806367f9f4f5146105fd57806370530dac146105af578063747729d11461054e578063aca2caf3146104a3578063b5d701ba146100c15763cb6090771461007757600080fd5b346100bc5760003660031901126100bc576040517f00000000000000000000000000000000000000000000000000000000000000006001600160a01b03168152602090f35b600080fd5b346100bc5760e03660031901126100bc576100da610bad565b506100e3610bc3565b506100ec610bef565b5060c43567ffffffffffffffff81116100bc5761010d903690600401610c4d565b7f00000000000000000000000000000000000000000000000000000000000000006001600160a01b03163303610491578101906040818303126100bc57803567ffffffffffffffff81116100bc5782610167918301610de3565b91602082013567ffffffffffffffff81116100bc576101869201610de3565b9060843561047f576040519161019b83610cb5565b60a4358352602083018281528160408501526044356000526000602052604060002090845182555180519067ffffffffffffffff82116103a4576101e26001840154610c7b565b601f8111610438575b50602090601f83116001146103c5579180604094926002946000926103ba575b50508160011b916000199060031b1c19161760018201555b0193015192835167ffffffffffffffff81116103a4576102438254610c7b565b601f811161035c575b506020601f82116001146102ce5790806102b59493927f08d2614659c42e6484d0354b7fe105bf2881ae40c22ad06c4dcfb81c86fa983296976000926102c3575b50508160011b916000199060031b1c19161790555b6040519182916044359560a43584610d99565b0390a2602060405160008152f35b01519050878061028d565b601f198216958360005260206000209660005b81811061034457509660019284926102b59796957f08d2614659c42e6484d0354b7fe105bf2881ae40c22ad06c4dcfb81c86fa9832999a1061032b575b505050811b0190556102a2565b015160001960f88460031b161c1916905587808061031e565b838301518955600190980197602093840193016102e1565b826000526020600020601f830160051c8101916020841061039a575b601f0160051c01905b81811061038e575061024c565b60008155600101610381565b9091508190610378565b634e487b7160e01b600052604160045260246000fd5b01519050888061020b565b90601f198316916001850160005260206000209260005b81811061042057509260019285926002966040989610610407575b505050811b016001820155610223565b015160001960f88460031b161c191690558880806103f7565b929360206001819287860151815501950193016103dc565b600184016000526020600020601f840160051c810160208510610478575b601f830160051c8201811061046c5750506101eb565b60008155600101610456565b5080610456565b604051632301b87f60e01b8152600490fd5b604051632ad9535160e01b8152600490fd5b346100bc576101403660031901126100bc576104bd610bad565b506104c6610bc3565b506104cf610bd9565b506104d8610bef565b506001600160a01b03608435818116036100bc5760603660c31901126100bc576101243567ffffffffffffffff81116100bc57610519903690600401610c4d565b50507f000000000000000000000000000000000000000000000000000000000000000016330361049157602060405160008152f35b346100bc576101203660031901126100bc57610568610bad565b50610571610bc3565b5061057a610bd9565b5060603660a31901126100bc576101043567ffffffffffffffff81116100bc576105a8903690600401610c4d565b5050610e2a565b346100bc5760203660031901126100bc576004356000526000602052604060002080546105f96105ed60026105e660018601610cf3565b9401610cf3565b60405193849384610d99565b0390f35b346100bc576101203660031901126100bc57610617610bad565b5061057a610bc3565b346100bc576020806003193601126100bc5760043580600052600082526040600020906040519061065082610cb5565b825482526001916106746002610667858701610cf3565b9587840196875201610cf3565b9060408101918252519081946000957a184f03e93ff9f4daa797ed6e38ed64bf6a1f01000000000000000080851015610b26575b50876d04ee2d6d415b85acef810000000080831015610b1a575b5050662386f26fc1000080821015610b0d575b506305f5e10080821015610b00575b5061271080821015610af3575b506064811015610ae5575b600a80911015610adc575b8587019061072d61071783610dc7565b926107256040519485610cd1565b808452610dc7565b948760218b85019a601f19809901368d37850101905b610aa8575b50505060436107b29161079798604051998a927f2c7b2274726169745f74797065223a22416d6f756e74222c2276616c7565223a8d850152601160f91b60408501525180926041850190610c05565b810161227d60f01b6041820152036023810189520187610cd1565b5193839060008560801c80610a9c575b508260401c80610a91575b5082891c80610a86575b5081908160109480861c80610a79575b5060081c610a72575b500180821b9592906001600160ff1b03811603610a46576002860195868111610a465761083561081f88610dc7565b9761082d604051998a610cd1565b808952610dc7565b878b019601368737865115610a5c57603086538651831015610a5c5760786021880153828101809111610a465791905b8183116109fd575050506109ba5760b06105f9946109ad97946108f09461099994519160405196879470161132bc3a32b93730b62fbab936111d1160791b8a8701526108ba815180928c60318a019101610c05565b8501917f222c226e616d65223a2244697265637420506179204e6f7461202300000000006031840152518093604c840190610c05565b016a11161134b6b0b3b2911d1160a91b604c8201526109188251809389605785019101610c05565b017f222c226465736372697074696f6e223a2253656e647320616e20696d6167652060578201527f616e64206120646f63756d656e7420616c6f6e6720776974682061207265636f60778201527f7264206f6620686f77206d7563682077617320706169642e22000000000000006097820152036090810184520182610cd1565b604051948594604086526040860190610c28565b9184830390850152610c28565b6064866040519062461bcd60e51b825280600483015260248201527f537472696e67733a20686578206c656e67746820696e73756666696369656e746044820152fd5b909192600f811682811015610a5c578751851015610a5c576f181899199a1a9b1b9c1cb0b131b232b360811b901a8785018b015360041c928015610a4657600019019190610865565b634e487b7160e01b600052601160045260246000fd5b634e487b7160e01b600052603260045260246000fd5b01816107f0565b600291509201918c6107e7565b9250600401816107d7565b9250600801896107cd565b925060109050896107c2565b600019019082906f181899199a1a9b1b9c1cb0b131b232b360811b8282061a835304908115610ad75788610743565b610748565b95850195610707565b6064600291049601956106fc565b60049104960195886106f1565b60089104960195886106e4565b60109104960195886106d5565b970196900487896106c2565b6040975084049050886106a8565b346100bc5760e03660031901126100bc57610b4d610bad565b50610b56610bc3565b50610b5f610bd9565b5060603660831901126100bc577f00000000000000000000000000000000000000000000000000000000000000006001600160a01b03163303610b9e57005b632ad9535160e01b8152600490fd5b600435906001600160a01b03821682036100bc57565b602435906001600160a01b03821682036100bc57565b604435906001600160a01b03821682036100bc57565b606435906001600160a01b03821682036100bc57565b60005b838110610c185750506000910152565b8181015183820152602001610c08565b90602091610c4181518092818552858086019101610c05565b601f01601f1916010190565b9181601f840112156100bc5782359167ffffffffffffffff83116100bc57602083818601950101116100bc57565b90600182811c92168015610cab575b6020831014610c9557565b634e487b7160e01b600052602260045260246000fd5b91607f1691610c8a565b6060810190811067ffffffffffffffff8211176103a457604052565b90601f8019910116810190811067ffffffffffffffff8211176103a457604052565b9060405191826000825492610d0784610c7b565b908184526001948581169081600014610d765750600114610d33575b5050610d3192500383610cd1565b565b9093915060005260209081600020936000915b818310610d5e575050610d3193508201013880610d23565b85548884018501529485019487945091830191610d46565b915050610d3194506020925060ff191682840152151560051b8201013880610d23565b91610db690610dc494928452606060208501526060840190610c28565b916040818403910152610c28565b90565b67ffffffffffffffff81116103a457601f01601f191660200190565b81601f820112156100bc57803590610dfa82610dc7565b92610e086040519485610cd1565b828452602083830101116100bc57816000926020809301838601378301015290565b7f00000000000000000000000000000000000000000000000000000000000000006001600160a01b0316330361049157604051635a89288760e01b8152600490fdfea26469706673582212204a6755e646af79333fd23804ee0e61b018110fc16e9b89a1985c1e5c4949951164736f6c63430008140033",
    "linkReferences": {}
  },
  "methodIdentifiers": {
    "REGISTRAR()": "cb609077",
    "payInfo(uint256)": "70530dac",
    "processApproval(address,address,address,uint256,(uint256,address,address))": "300826d6",
    "processCash(address,address,address,uint256,uint256,(uint256,address,address),bytes)": "747729d1",
    "processFund(address,address,uint256,uint256,uint256,(uint256,address,address),bytes)": "67f9f4f5",
    "processTokenURI(uint256)": "4fe17e1a",
    "processTransfer(address,address,address,address,address,uint256,(uint256,address,address),bytes)": "aca2caf3",
    "processWrite(address,address,uint256,address,uint256,uint256,bytes)": "b5d701ba"
  },
  "id": 55
}