{
  "abi": [
    {
      "inputs": [
        {
          "internalType": "address",
          "name": "caller",
          "type": "address"
        },
        {
          "internalType": "address",
          "name": "",
          "type": "address"
        },
        {
          "internalType": "address",
          "name": "",
          "type": "address"
        },
        {
          "internalType": "uint256",
          "name": "",
          "type": "uint256"
        },
        {
          "components": [
            {
              "internalType": "address",
              "name": "currency",
              "type": "address"
            },
            {
              "internalType": "uint256",
              "name": "amount",
              "type": "uint256"
            },
            {
              "internalType": "uint256",
              "name": "escrowed",
              "type": "uint256"
            },
            {
              "internalType": "address",
              "name": "drawer",
              "type": "address"
            },
            {
              "internalType": "address",
              "name": "recipient",
              "type": "address"
            },
            {
              "internalType": "address",
              "name": "module",
              "type": "address"
            },
            {
              "internalType": "uint256",
              "name": "mintTimestamp",
              "type": "uint256"
            }
          ],
          "internalType": "struct DataTypes.Cheq",
          "name": "",
          "type": "tuple"
        },
        {
          "internalType": "bytes",
          "name": "initData",
          "type": "bytes"
        }
      ],
      "name": "canApprove",
      "outputs": [],
      "stateMutability": "view",
      "type": "function"
    },
    {
      "inputs": [
        {
          "internalType": "address",
          "name": "caller",
          "type": "address"
        },
        {
          "internalType": "address",
          "name": "",
          "type": "address"
        },
        {
          "internalType": "address",
          "name": "",
          "type": "address"
        },
        {
          "internalType": "uint256",
          "name": "",
          "type": "uint256"
        },
        {
          "internalType": "uint256",
          "name": "",
          "type": "uint256"
        },
        {
          "components": [
            {
              "internalType": "address",
              "name": "currency",
              "type": "address"
            },
            {
              "internalType": "uint256",
              "name": "amount",
              "type": "uint256"
            },
            {
              "internalType": "uint256",
              "name": "escrowed",
              "type": "uint256"
            },
            {
              "internalType": "address",
              "name": "drawer",
              "type": "address"
            },
            {
              "internalType": "address",
              "name": "recipient",
              "type": "address"
            },
            {
              "internalType": "address",
              "name": "module",
              "type": "address"
            },
            {
              "internalType": "uint256",
              "name": "mintTimestamp",
              "type": "uint256"
            }
          ],
          "internalType": "struct DataTypes.Cheq",
          "name": "",
          "type": "tuple"
        },
        {
          "internalType": "bytes",
          "name": "initData",
          "type": "bytes"
        }
      ],
      "name": "canCash",
      "outputs": [],
      "stateMutability": "view",
      "type": "function"
    },
    {
      "inputs": [
        {
          "internalType": "address",
          "name": "caller",
          "type": "address"
        },
        {
          "internalType": "address",
          "name": "",
          "type": "address"
        },
        {
          "internalType": "uint256",
          "name": "",
          "type": "uint256"
        },
        {
          "internalType": "uint256",
          "name": "",
          "type": "uint256"
        },
        {
          "internalType": "uint256",
          "name": "",
          "type": "uint256"
        },
        {
          "components": [
            {
              "internalType": "address",
              "name": "currency",
              "type": "address"
            },
            {
              "internalType": "uint256",
              "name": "amount",
              "type": "uint256"
            },
            {
              "internalType": "uint256",
              "name": "escrowed",
              "type": "uint256"
            },
            {
              "internalType": "address",
              "name": "drawer",
              "type": "address"
            },
            {
              "internalType": "address",
              "name": "recipient",
              "type": "address"
            },
            {
              "internalType": "address",
              "name": "module",
              "type": "address"
            },
            {
              "internalType": "uint256",
              "name": "mintTimestamp",
              "type": "uint256"
            }
          ],
          "internalType": "struct DataTypes.Cheq",
          "name": "",
          "type": "tuple"
        },
        {
          "internalType": "bytes",
          "name": "initData",
          "type": "bytes"
        }
      ],
      "name": "canFund",
      "outputs": [],
      "stateMutability": "view",
      "type": "function"
    },
    {
      "inputs": [
        {
          "internalType": "address",
          "name": "caller",
          "type": "address"
        },
        {
          "internalType": "bool",
          "name": "isApproved",
          "type": "bool"
        },
        {
          "internalType": "address",
          "name": "",
          "type": "address"
        },
        {
          "internalType": "address",
          "name": "",
          "type": "address"
        },
        {
          "internalType": "address",
          "name": "",
          "type": "address"
        },
        {
          "internalType": "uint256",
          "name": "",
          "type": "uint256"
        },
        {
          "components": [
            {
              "internalType": "address",
              "name": "currency",
              "type": "address"
            },
            {
              "internalType": "uint256",
              "name": "amount",
              "type": "uint256"
            },
            {
              "internalType": "uint256",
              "name": "escrowed",
              "type": "uint256"
            },
            {
              "internalType": "address",
              "name": "drawer",
              "type": "address"
            },
            {
              "internalType": "address",
              "name": "recipient",
              "type": "address"
            },
            {
              "internalType": "address",
              "name": "module",
              "type": "address"
            },
            {
              "internalType": "uint256",
              "name": "mintTimestamp",
              "type": "uint256"
            }
          ],
          "internalType": "struct DataTypes.Cheq",
          "name": "",
          "type": "tuple"
        },
        {
          "internalType": "bytes",
          "name": "initData",
          "type": "bytes"
        }
      ],
      "name": "canTransfer",
      "outputs": [],
      "stateMutability": "view",
      "type": "function"
    },
    {
      "inputs": [
        {
          "internalType": "address",
          "name": "caller",
          "type": "address"
        },
        {
          "internalType": "address",
          "name": "",
          "type": "address"
        },
        {
          "internalType": "uint256",
          "name": "",
          "type": "uint256"
        },
        {
          "components": [
            {
              "internalType": "address",
              "name": "currency",
              "type": "address"
            },
            {
              "internalType": "uint256",
              "name": "amount",
              "type": "uint256"
            },
            {
              "internalType": "uint256",
              "name": "escrowed",
              "type": "uint256"
            },
            {
              "internalType": "address",
              "name": "drawer",
              "type": "address"
            },
            {
              "internalType": "address",
              "name": "recipient",
              "type": "address"
            },
            {
              "internalType": "address",
              "name": "module",
              "type": "address"
            },
            {
              "internalType": "uint256",
              "name": "mintTimestamp",
              "type": "uint256"
            }
          ],
          "internalType": "struct DataTypes.Cheq",
          "name": "",
          "type": "tuple"
        },
        {
          "internalType": "uint256",
          "name": "",
          "type": "uint256"
        },
        {
          "internalType": "bytes",
          "name": "initData",
          "type": "bytes"
        }
      ],
      "name": "canWrite",
      "outputs": [],
      "stateMutability": "view",
      "type": "function"
    }
  ],
  "bytecode": {
    "object": "0x608060405234801561001057600080fd5b506106d1806100206000396000f3fe608060405234801561001057600080fd5b50600436106100575760003560e01c806326c41e5c1461005c578063275ecee11461007157806353ba2df3146100845780638893ae9d14610097578063a730617c146100a5575b600080fd5b61006f61006a366004610350565b6100b3565b005b61006f61007f366004610455565b610118565b61006f6100923660046104ee565b6101ad565b61006f61007f366004610590565b61006f610092366004610602565b6100bd88826101ed565b61010e5760405162461bcd60e51b815260206004820152601a60248201527f577269746552756c653a204e6f7420746f6b656e206f776e657200000000000060448201526064015b60405180910390fd5b5050505050505050565b6101588783838080601f0160208091040260200160405190810160405280939291908181526020018383808284376000920191909152506101ed92505050565b6101a45760405162461bcd60e51b815260206004820152601a60248201527f577269746552756c653a204e6f7420746f6b656e206f776e65720000000000006044820152606401610105565b50505050505050565b6100bd8883838080601f0160208091040260200160405190810160405280939291908181526020018383808284376000920191909152506101ed92505050565b60008082806020019051810190610204919061065e565b6040516370a0823160e01b81526001600160a01b0386811660048301529192506000918316906370a0823190602401602060405180830381865afa158015610250573d6000803e3d6000fd5b505050506040513d601f19601f820116820180604052508101906102749190610682565b11949350505050565b6001600160a01b038116811461029257600080fd5b50565b600060e082840312156102a757600080fd5b50919050565b634e487b7160e01b600052604160045260246000fd5b600082601f8301126102d457600080fd5b813567ffffffffffffffff808211156102ef576102ef6102ad565b604051601f8301601f19908116603f01168101908282118183101715610317576103176102ad565b8160405283815286602085880101111561033057600080fd5b836020870160208301376000602085830101528094505050505092915050565b6000806000806000806000806101c0898b03121561036d57600080fd5b88356103788161027d565b97506020890135801515811461038d57600080fd5b9650604089013561039d8161027d565b955060608901356103ad8161027d565b945060808901356103bd8161027d565b935060a089013592506103d38a60c08b01610295565b91506101a089013567ffffffffffffffff8111156103f057600080fd5b6103fc8b828c016102c3565b9150509295985092959890939650565b60008083601f84011261041e57600080fd5b50813567ffffffffffffffff81111561043657600080fd5b60208301915083602082850101111561044e57600080fd5b9250929050565b6000806000806000806000610180888a03121561047157600080fd5b873561047c8161027d565b9650602088013561048c8161027d565b9550604088013561049c8161027d565b9450606088013593506104b28960808a01610295565b925061016088013567ffffffffffffffff8111156104cf57600080fd5b6104db8a828b0161040c565b989b979a50959850939692959293505050565b6000806000806000806000806101a0898b03121561050b57600080fd5b88356105168161027d565b975060208901356105268161027d565b965060408901356105368161027d565b955060608901359450608089013593506105538a60a08b01610295565b925061018089013567ffffffffffffffff81111561057057600080fd5b61057c8b828c0161040c565b999c989b5096995094979396929594505050565b6000806000806000806000610180888a0312156105ac57600080fd5b87356105b78161027d565b965060208801356105c78161027d565b9550604088013594506105dd8960608a01610295565b9350610140880135925061016088013567ffffffffffffffff8111156104cf57600080fd5b6000806000806000806000806101a0898b03121561061f57600080fd5b883561062a8161027d565b9750602089013561063a8161027d565b96506040890135955060608901359450608089013593506105538a60a08b01610295565b60006020828403121561067057600080fd5b815161067b8161027d565b9392505050565b60006020828403121561069457600080fd5b505191905056fea2646970667358221220b0990589eb27d4342bb4452d71486b490284dec61e44afb04469840371922f6164736f6c63430008100033",
    "linkReferences": {}
  },
  "methodIdentifiers": {
    "canApprove(address,address,address,uint256,(address,uint256,uint256,address,address,address,uint256),bytes)": "275ecee1",
    "canCash(address,address,address,uint256,uint256,(address,uint256,uint256,address,address,address,uint256),bytes)": "53ba2df3",
    "canFund(address,address,uint256,uint256,uint256,(address,uint256,uint256,address,address,address,uint256),bytes)": "a730617c",
    "canTransfer(address,bool,address,address,address,uint256,(address,uint256,uint256,address,address,address,uint256),bytes)": "26c41e5c",
    "canWrite(address,address,uint256,(address,uint256,uint256,address,address,address,uint256),uint256,bytes)": "8893ae9d"
  },
  "id": 65
}