{
  "abi": [
    {
      "inputs": [
        {
          "internalType": "address",
          "name": "registrar",
          "type": "address"
        },
        {
          "internalType": "address",
          "name": "_writeRule",
          "type": "address"
        },
        {
          "internalType": "address",
          "name": "_transferRule",
          "type": "address"
        },
        {
          "internalType": "address",
          "name": "_fundRule",
          "type": "address"
        },
        {
          "internalType": "address",
          "name": "_cashRule",
          "type": "address"
        },
        {
          "internalType": "address",
          "name": "_approveRule",
          "type": "address"
        },
        {
          "components": [
            {
              "internalType": "uint256",
              "name": "writeBPS",
              "type": "uint256"
            },
            {
              "internalType": "uint256",
              "name": "transferBPS",
              "type": "uint256"
            },
            {
              "internalType": "uint256",
              "name": "fundBPS",
              "type": "uint256"
            },
            {
              "internalType": "uint256",
              "name": "cashBPS",
              "type": "uint256"
            }
          ],
          "internalType": "struct DataTypes.WTFCFees",
          "name": "_fees",
          "type": "tuple"
        },
        {
          "internalType": "string",
          "name": "__baseURI",
          "type": "string"
        }
      ],
      "stateMutability": "nonpayable",
      "type": "constructor"
    },
    {
      "inputs": [],
      "name": "InitParamsInvalid",
      "type": "error"
    },
    {
      "inputs": [],
      "name": "NotRegistrar",
      "type": "error"
    },
    {
      "anonymous": false,
      "inputs": [
        {
          "indexed": true,
          "internalType": "uint256",
          "name": "cheqId",
          "type": "uint256"
        },
        {
          "indexed": false,
          "internalType": "bytes32",
          "name": "memoHash",
          "type": "bytes32"
        }
      ],
      "name": "MemoWritten",
      "type": "event"
    },
    {
      "inputs": [],
      "name": "REGISTRAR",
      "outputs": [
        {
          "internalType": "address",
          "name": "",
          "type": "address"
        }
      ],
      "stateMutability": "view",
      "type": "function"
    },
    {
      "inputs": [],
      "name": "_URI",
      "outputs": [
        {
          "internalType": "string",
          "name": "",
          "type": "string"
        }
      ],
      "stateMutability": "view",
      "type": "function"
    },
    {
      "inputs": [],
      "name": "approveRule",
      "outputs": [
        {
          "internalType": "address",
          "name": "",
          "type": "address"
        }
      ],
      "stateMutability": "view",
      "type": "function"
    },
    {
      "inputs": [],
      "name": "cashRule",
      "outputs": [
        {
          "internalType": "address",
          "name": "",
          "type": "address"
        }
      ],
      "stateMutability": "view",
      "type": "function"
    },
    {
      "inputs": [],
      "name": "fees",
      "outputs": [
        {
          "internalType": "uint256",
          "name": "writeBPS",
          "type": "uint256"
        },
        {
          "internalType": "uint256",
          "name": "transferBPS",
          "type": "uint256"
        },
        {
          "internalType": "uint256",
          "name": "fundBPS",
          "type": "uint256"
        },
        {
          "internalType": "uint256",
          "name": "cashBPS",
          "type": "uint256"
        }
      ],
      "stateMutability": "view",
      "type": "function"
    },
    {
      "inputs": [],
      "name": "fundRule",
      "outputs": [
        {
          "internalType": "address",
          "name": "",
          "type": "address"
        }
      ],
      "stateMutability": "view",
      "type": "function"
    },
    {
      "inputs": [],
      "name": "getFees",
      "outputs": [
        {
          "internalType": "uint256",
          "name": "",
          "type": "uint256"
        },
        {
          "internalType": "uint256",
          "name": "",
          "type": "uint256"
        },
        {
          "internalType": "uint256",
          "name": "",
          "type": "uint256"
        },
        {
          "internalType": "uint256",
          "name": "",
          "type": "uint256"
        }
      ],
      "stateMutability": "view",
      "type": "function"
    },
    {
      "inputs": [
        {
          "internalType": "uint256",
          "name": "",
          "type": "uint256"
        }
      ],
      "name": "isCashed",
      "outputs": [
        {
          "internalType": "bool",
          "name": "",
          "type": "bool"
        }
      ],
      "stateMutability": "view",
      "type": "function"
    },
    {
      "inputs": [
        {
          "internalType": "uint256",
          "name": "",
          "type": "uint256"
        }
      ],
      "name": "memo",
      "outputs": [
        {
          "internalType": "bytes32",
          "name": "",
          "type": "bytes32"
        }
      ],
      "stateMutability": "view",
      "type": "function"
    },
    {
      "inputs": [
        {
          "internalType": "address",
          "name": "caller",
          "type": "address"
        },
        {
          "internalType": "address",
          "name": "owner",
          "type": "address"
        },
        {
          "internalType": "address",
          "name": "to",
          "type": "address"
        },
        {
          "internalType": "uint256",
          "name": "cheqId",
          "type": "uint256"
        },
        {
          "components": [
            {
              "internalType": "address",
              "name": "currency",
              "type": "address"
            },
            {
              "internalType": "uint256",
              "name": "amount",
              "type": "uint256"
            },
            {
              "internalType": "uint256",
              "name": "escrowed",
              "type": "uint256"
            },
            {
              "internalType": "address",
              "name": "drawer",
              "type": "address"
            },
            {
              "internalType": "address",
              "name": "recipient",
              "type": "address"
            },
            {
              "internalType": "address",
              "name": "module",
              "type": "address"
            },
            {
              "internalType": "uint256",
              "name": "mintTimestamp",
              "type": "uint256"
            }
          ],
          "internalType": "struct DataTypes.Cheq",
          "name": "cheq",
          "type": "tuple"
        },
        {
          "internalType": "bytes",
          "name": "initData",
          "type": "bytes"
        }
      ],
      "name": "processApproval",
      "outputs": [],
      "stateMutability": "nonpayable",
      "type": "function"
    },
    {
      "inputs": [
        {
          "internalType": "address",
          "name": "caller",
          "type": "address"
        },
        {
          "internalType": "address",
          "name": "owner",
          "type": "address"
        },
        {
          "internalType": "address",
          "name": "to",
          "type": "address"
        },
        {
          "internalType": "uint256",
          "name": "amount",
          "type": "uint256"
        },
        {
          "internalType": "uint256",
          "name": "cheqId",
          "type": "uint256"
        },
        {
          "components": [
            {
              "internalType": "address",
              "name": "currency",
              "type": "address"
            },
            {
              "internalType": "uint256",
              "name": "amount",
              "type": "uint256"
            },
            {
              "internalType": "uint256",
              "name": "escrowed",
              "type": "uint256"
            },
            {
              "internalType": "address",
              "name": "drawer",
              "type": "address"
            },
            {
              "internalType": "address",
              "name": "recipient",
              "type": "address"
            },
            {
              "internalType": "address",
              "name": "module",
              "type": "address"
            },
            {
              "internalType": "uint256",
              "name": "mintTimestamp",
              "type": "uint256"
            }
          ],
          "internalType": "struct DataTypes.Cheq",
          "name": "cheq",
          "type": "tuple"
        },
        {
          "internalType": "bytes",
          "name": "initData",
          "type": "bytes"
        }
      ],
      "name": "processCash",
      "outputs": [
        {
          "internalType": "uint256",
          "name": "",
          "type": "uint256"
        }
      ],
      "stateMutability": "nonpayable",
      "type": "function"
    },
    {
      "inputs": [
        {
          "internalType": "address",
          "name": "caller",
          "type": "address"
        },
        {
          "internalType": "address",
          "name": "owner",
          "type": "address"
        },
        {
          "internalType": "uint256",
          "name": "amount",
          "type": "uint256"
        },
        {
          "internalType": "uint256",
          "name": "directAmount",
          "type": "uint256"
        },
        {
          "internalType": "uint256",
          "name": "cheqId",
          "type": "uint256"
        },
        {
          "components": [
            {
              "internalType": "address",
              "name": "currency",
              "type": "address"
            },
            {
              "internalType": "uint256",
              "name": "amount",
              "type": "uint256"
            },
            {
              "internalType": "uint256",
              "name": "escrowed",
              "type": "uint256"
            },
            {
              "internalType": "address",
              "name": "drawer",
              "type": "address"
            },
            {
              "internalType": "address",
              "name": "recipient",
              "type": "address"
            },
            {
              "internalType": "address",
              "name": "module",
              "type": "address"
            },
            {
              "internalType": "uint256",
              "name": "mintTimestamp",
              "type": "uint256"
            }
          ],
          "internalType": "struct DataTypes.Cheq",
          "name": "cheq",
          "type": "tuple"
        },
        {
          "internalType": "bytes",
          "name": "initData",
          "type": "bytes"
        }
      ],
      "name": "processFund",
      "outputs": [
        {
          "internalType": "uint256",
          "name": "",
          "type": "uint256"
        }
      ],
      "stateMutability": "nonpayable",
      "type": "function"
    },
    {
      "inputs": [
        {
          "internalType": "uint256",
          "name": "tokenId",
          "type": "uint256"
        }
      ],
      "name": "processTokenURI",
      "outputs": [
        {
          "internalType": "string",
          "name": "",
          "type": "string"
        }
      ],
      "stateMutability": "view",
      "type": "function"
    },
    {
      "inputs": [
        {
          "internalType": "address",
          "name": "caller",
          "type": "address"
        },
        {
          "internalType": "bool",
          "name": "isApproved",
          "type": "bool"
        },
        {
          "internalType": "address",
          "name": "owner",
          "type": "address"
        },
        {
          "internalType": "address",
          "name": "from",
          "type": "address"
        },
        {
          "internalType": "address",
          "name": "to",
          "type": "address"
        },
        {
          "internalType": "uint256",
          "name": "cheqId",
          "type": "uint256"
        },
        {
          "components": [
            {
              "internalType": "address",
              "name": "currency",
              "type": "address"
            },
            {
              "internalType": "uint256",
              "name": "amount",
              "type": "uint256"
            },
            {
              "internalType": "uint256",
              "name": "escrowed",
              "type": "uint256"
            },
            {
              "internalType": "address",
              "name": "drawer",
              "type": "address"
            },
            {
              "internalType": "address",
              "name": "recipient",
              "type": "address"
            },
            {
              "internalType": "address",
              "name": "module",
              "type": "address"
            },
            {
              "internalType": "uint256",
              "name": "mintTimestamp",
              "type": "uint256"
            }
          ],
          "internalType": "struct DataTypes.Cheq",
          "name": "cheq",
          "type": "tuple"
        },
        {
          "internalType": "bytes",
          "name": "data",
          "type": "bytes"
        }
      ],
      "name": "processTransfer",
      "outputs": [
        {
          "internalType": "uint256",
          "name": "",
          "type": "uint256"
        }
      ],
      "stateMutability": "nonpayable",
      "type": "function"
    },
    {
      "inputs": [
        {
          "internalType": "address",
          "name": "caller",
          "type": "address"
        },
        {
          "internalType": "address",
          "name": "owner",
          "type": "address"
        },
        {
          "internalType": "uint256",
          "name": "cheqId",
          "type": "uint256"
        },
        {
          "components": [
            {
              "internalType": "address",
              "name": "currency",
              "type": "address"
            },
            {
              "internalType": "uint256",
              "name": "amount",
              "type": "uint256"
            },
            {
              "internalType": "uint256",
              "name": "escrowed",
              "type": "uint256"
            },
            {
              "internalType": "address",
              "name": "drawer",
              "type": "address"
            },
            {
              "internalType": "address",
              "name": "recipient",
              "type": "address"
            },
            {
              "internalType": "address",
              "name": "module",
              "type": "address"
            },
            {
              "internalType": "uint256",
              "name": "mintTimestamp",
              "type": "uint256"
            }
          ],
          "internalType": "struct DataTypes.Cheq",
          "name": "cheq",
          "type": "tuple"
        },
        {
          "internalType": "uint256",
          "name": "directAmount",
          "type": "uint256"
        },
        {
          "internalType": "bytes",
          "name": "initData",
          "type": "bytes"
        }
      ],
      "name": "processWrite",
      "outputs": [
        {
          "internalType": "uint256",
          "name": "",
          "type": "uint256"
        }
      ],
      "stateMutability": "nonpayable",
      "type": "function"
    },
    {
      "inputs": [
        {
          "internalType": "uint256",
          "name": "",
          "type": "uint256"
        }
      ],
      "name": "releaseDate",
      "outputs": [
        {
          "internalType": "uint256",
          "name": "",
          "type": "uint256"
        }
      ],
      "stateMutability": "view",
      "type": "function"
    },
    {
      "inputs": [],
      "name": "transferRule",
      "outputs": [
        {
          "internalType": "address",
          "name": "",
          "type": "address"
        }
      ],
      "stateMutability": "view",
      "type": "function"
    },
    {
      "inputs": [
        {
          "internalType": "address",
          "name": "token",
          "type": "address"
        }
      ],
      "name": "withdrawFees",
      "outputs": [],
      "stateMutability": "nonpayable",
      "type": "function"
    },
    {
      "inputs": [],
      "name": "writeRule",
      "outputs": [
        {
          "internalType": "address",
          "name": "",
          "type": "address"
        }
      ],
      "stateMutability": "view",
      "type": "function"
    }
  ],
  "bytecode": {
    "object": "0x60a06040523480156200001157600080fd5b506040516200199c3803806200199c833981016040819052620000349162000441565b878787878787876001600160a01b03871662000063576040516348be0eb360e01b815260040160405180910390fd5b6001600160a01b038781166080819052604051631fa5b09760e11b81528883166004820152878316602482015286831660448201528583166064820152918416608483015290633f4b612e9060a401602060405180830381865afa158015620000d0573d6000803e3d6000fd5b505050506040513d601f19601f82011682018060405250810190620000f691906200053e565b620001385760405162461bcd60e51b815260206004820152600d60248201526c1495531154d7d2539590531251609a1b60448201526064015b60405180910390fd5b600380546001600160a01b03199081166001600160a01b038981169190911790925560048054821688841617905560058054821687841617905560068054821686841617905560078054909116918416919091179055805161271011620001d15760405162461bcd60e51b815260206004820152601460248201526000805160206200197c83398151915260448201526064016200012f565b612710816020015110620002175760405162461bcd60e51b815260206004820152601460248201526000805160206200197c83398151915260448201526064016200012f565b6127108160400151106200025d5760405162461bcd60e51b815260206004820152601460248201526000805160206200197c83398151915260448201526064016200012f565b612710816060015110620002a35760405162461bcd60e51b815260206004820152601460248201526000805160206200197c83398151915260448201526064016200012f565b8051600855602080820151600955604080830151600a556060830151600b55514281526001600160a01b038916917ff1a1fa6b64aa95186f5a1285e76198d0da80d9c5a88062641d447f1d7c54e56c910160405180910390a2505050505050508060009081620003149190620005f8565b505050505050505050620006c4565b80516001600160a01b03811681146200033b57600080fd5b919050565b634e487b7160e01b600052604160045260246000fd5b604051608081016001600160401b03811182821017156200037b576200037b62000340565b60405290565b604051601f8201601f191681016001600160401b0381118282101715620003ac57620003ac62000340565b604052919050565b600082601f830112620003c657600080fd5b81516001600160401b03811115620003e257620003e262000340565b6020620003f8601f8301601f1916820162000381565b82815285828487010111156200040d57600080fd5b60005b838110156200042d57858101830151828201840152820162000410565b506000928101909101919091529392505050565b600080600080600080600080888a036101608112156200046057600080fd5b6200046b8a62000323565b98506200047b60208b0162000323565b97506200048b60408b0162000323565b96506200049b60608b0162000323565b9550620004ab60808b0162000323565b9450620004bb60a08b0162000323565b9350608060bf1982011215620004d057600080fd5b50620004db62000356565b60c08a0151815260e08a015160208201526101008a015160408201526101208a015160608201526101408a01519092506001600160401b038111156200052057600080fd5b6200052e8b828c01620003b4565b9150509295985092959890939650565b6000602082840312156200055157600080fd5b815180151581146200056257600080fd5b9392505050565b600181811c908216806200057e57607f821691505b6020821081036200059f57634e487b7160e01b600052602260045260246000fd5b50919050565b601f821115620005f357600081815260208120601f850160051c81016020861015620005ce5750805b601f850160051c820191505b81811015620005ef57828155600101620005da565b5050505b505050565b81516001600160401b0381111562000614576200061462000340565b6200062c8162000625845462000569565b84620005a5565b602080601f8311600181146200066457600084156200064b5750858301515b600019600386901b1c1916600185901b178555620005ef565b600085815260208120601f198616915b82811015620006955788860151825594840194600190910190840162000674565b5085821015620006b45787850151600019600388901b60f8161c191681555b5050505050600190811b01905550565b6080516112726200070a6000396000818161029b015281816103c90152818161047301528181610596015281816106aa0152818161086c015261098701526112726000f3fe608060405234801561001057600080fd5b50600436106101215760003560e01c8063a0663d1b116100ad578063d647e1e511610071578063d647e1e5146102d0578063db8d55f1146102e3578063df1cdb46146102f4578063f09b3d9a14610307578063f3ea001e1461031a57600080fd5b8063a0663d1b14610248578063aee40bb91461025b578063b4e87e8f1461028e578063cb60907714610296578063d4c301da146102bd57600080fd5b80634eaad1ee116100f45780634eaad1ee1461019f5780634fe17e1a146101bf57806384314347146101df57806396eb58f8146101f25780639af1d35a1461021257600080fd5b80630d02cde714610126578063164e68de146101565780634238a63a1461016b578063433d3a771461018c575b600080fd5b600454610139906001600160a01b031681565b6040516001600160a01b0390911681526020015b60405180910390f35b610169610164366004610ab3565b61032d565b005b61017e610179366004610b36565b610466565b60405190815260200161014d565b600754610139906001600160a01b031681565b61017e6101ad366004610bc3565b600d6020526000908152604090205481565b6101d26101cd366004610bc3565b61054e565b60405161014d9190610c22565b6101696101ed366004610cd8565b61058b565b61017e610200366004610bc3565b60016020526000908152604090205481565b600854600954600a54600b546102289392919084565b60408051948552602085019390935291830152606082015260800161014d565b61017e610256366004610d63565b61069d565b61027e610269366004610bc3565b600c6020526000908152604090205460ff1681565b604051901515815260200161014d565b6101d26107d1565b6101397f000000000000000000000000000000000000000000000000000000000000000081565b600554610139906001600160a01b031681565b61017e6102de366004610dff565b61085f565b600854600954600a54600b54610228565b600354610139906001600160a01b031681565b61017e610315366004610e57565b61097a565b600654610139906001600160a01b031681565b3360009081526002602090815260408083206001600160a01b03851684529091529020546001811161039d5760405162461bcd60e51b8152602060048201526014602482015273496e73756666696369656e7420726576656e756560601b60448201526064015b60405180910390fd5b3360009081526002602090815260408083206001600160a01b03868116855292529091206001908190557f00000000000000000000000000000000000000000000000000000000000000009091169063d6a4f84c9084906103fe9085610f0b565b6040516001600160e01b031960e085901b1681526001600160a01b0390921660048301526024820152336044820152606401600060405180830381600087803b15801561044a57600080fd5b505af115801561045e573d6000803e3d6000fd5b505050505050565b6000336001600160a01b037f000000000000000000000000000000000000000000000000000000000000000016146104b157604051632ad9535160e01b815260040160405180910390fd5b600354604051638893ae9d60e01b81526001600160a01b0390911690638893ae9d906104ed908b908b908b908b908b908b908b90600401610fc9565b600060405180830381600087803b15801561050757600080fd5b505af115801561051b573d6000803e3d6000fd5b506000925061052f91505083850185610bc3565b6000888152600d60205260409020555050600854979650505050505050565b6000818152600d6020908152604080832054905160609391926105749291849101611053565b604051602081830303815290604052915050919050565b336001600160a01b037f000000000000000000000000000000000000000000000000000000000000000016146105d457604051632ad9535160e01b815260040160405180910390fd5b6000838152600c602052604090205460ff166106295760405162461bcd60e51b8152602060048201526014602482015273135d5cdd0818994818d85cda195908199a5c9cdd60621b6044820152606401610394565b60075460405163275ecee160e01b81526001600160a01b039091169063275ecee190610663908990899089908990899089906004016110f5565b600060405180830381600087803b15801561067d57600080fd5b505af1158015610691573d6000803e3d6000fd5b50505050505050505050565b6000336001600160a01b037f000000000000000000000000000000000000000000000000000000000000000016146106e857604051632ad9535160e01b815260040160405180910390fd5b6000858152600c602052604090205460ff16156107385760405162461bcd60e51b815260206004820152600e60248201526d105b1c9958591e4818d85cda195960921b6044820152606401610394565b6006546040516353ba2df360e01b81526001600160a01b03909116906353ba2df390610776908c908c908c908c908c908c908c908c9060040161114a565b600060405180830381600087803b15801561079057600080fd5b505af11580156107a4573d6000803e3d6000fd5b5050506000868152600c60205260409020805460ff191660011790555050600b5498975050505050505050565b600080546107de9061101f565b80601f016020809104026020016040519081016040528092919081815260200182805461080a9061101f565b80156108575780601f1061082c57610100808354040283529160200191610857565b820191906000526020600020905b81548152906001019060200180831161083a57829003601f168201915b505050505081565b6000336001600160a01b037f000000000000000000000000000000000000000000000000000000000000000016146108aa57604051632ad9535160e01b815260040160405180910390fd5b6000858152600c602052604090205460ff16156108fa5760405162461bcd60e51b815260206004820152600e60248201526d105b1c9958591e4818d85cda195960921b6044820152606401610394565b6005546040516329cc185f60e21b81526001600160a01b039091169063a730617c90610938908c908c908c908c908c908c908c908c906004016111a9565b600060405180830381600087803b15801561095257600080fd5b505af1158015610966573d6000803e3d6000fd5b5050600a549b9a5050505050505050505050565b6000336001600160a01b037f000000000000000000000000000000000000000000000000000000000000000016146109c557604051632ad9535160e01b815260040160405180910390fd5b6000848152600c602052604090205460ff16610a185760405162461bcd60e51b81526020600482015260126024820152714e656564732066756c6c2066756e64696e6760701b6044820152606401610394565b600480546040516309b1079760e21b81526001600160a01b03909116916326c41e5c91610a55918d918d918d918d918d918d918d918d91016111e4565b600060405180830381600087803b158015610a6f57600080fd5b505af1158015610a83573d6000803e3d6000fd5b50506009549b9a5050505050505050505050565b80356001600160a01b0381168114610aae57600080fd5b919050565b600060208284031215610ac557600080fd5b610ace82610a97565b9392505050565b600060e08284031215610ae757600080fd5b50919050565b60008083601f840112610aff57600080fd5b50813567ffffffffffffffff811115610b1757600080fd5b602083019150836020828501011115610b2f57600080fd5b9250929050565b6000806000806000806000610180888a031215610b5257600080fd5b610b5b88610a97565b9650610b6960208901610a97565b955060408801359450610b7f8960608a01610ad5565b9350610140880135925061016088013567ffffffffffffffff811115610ba457600080fd5b610bb08a828b01610aed565b989b979a50959850939692959293505050565b600060208284031215610bd557600080fd5b5035919050565b6000815180845260005b81811015610c0257602081850181015186830182015201610be6565b506000602082860101526020601f19601f83011685010191505092915050565b602081526000610ace6020830184610bdc565b634e487b7160e01b600052604160045260246000fd5b600082601f830112610c5c57600080fd5b813567ffffffffffffffff80821115610c7757610c77610c35565b604051601f8301601f19908116603f01168101908282118183101715610c9f57610c9f610c35565b81604052838152866020858801011115610cb857600080fd5b836020870160208301376000602085830101528094505050505092915050565b6000806000806000806101808789031215610cf257600080fd5b610cfb87610a97565b9550610d0960208801610a97565b9450610d1760408801610a97565b935060608701359250610d2d8860808901610ad5565b915061016087013567ffffffffffffffff811115610d4a57600080fd5b610d5689828a01610c4b565b9150509295509295509295565b6000806000806000806000806101a0898b031215610d8057600080fd5b610d8989610a97565b9750610d9760208a01610a97565b9650610da560408a01610a97565b95506060890135945060808901359350610dc28a60a08b01610ad5565b925061018089013567ffffffffffffffff811115610ddf57600080fd5b610deb8b828c01610aed565b999c989b5096995094979396929594505050565b6000806000806000806000806101a0898b031215610e1c57600080fd5b610e2589610a97565b9750610e3360208a01610a97565b9650604089013595506060890135945060808901359350610dc28a60a08b01610ad5565b6000806000806000806000806101c0898b031215610e7457600080fd5b610e7d89610a97565b975060208901358015158114610e9257600080fd5b9650610ea060408a01610a97565b9550610eae60608a01610a97565b9450610ebc60808a01610a97565b935060a08901359250610ed28a60c08b01610ad5565b91506101a089013567ffffffffffffffff811115610eef57600080fd5b610efb8b828c01610c4b565b9150509295985092959890939650565b81810381811115610f2c57634e487b7160e01b600052601160045260246000fd5b92915050565b6001600160a01b0380610f4483610a97565b168352602082013560208401526040820135604084015280610f6860608401610a97565b16606084015280610f7b60808401610a97565b16608084015280610f8e60a08401610a97565b1660a08401525060c090810135910152565b81835281816020850137506000828201602090810191909152601f909101601f19169091010190565b6001600160a01b03888116825287166020820152604081018690526000610180610ff66060840188610f32565b85610140840152806101608401526110118184018587610fa0565b9a9950505050505050505050565b600181811c9082168061103357607f821691505b602082108103610ae757634e487b7160e01b600052602260045260246000fd5b600080845481600182811c91508083168061106f57607f831692505b6020808410820361108e57634e487b7160e01b86526022600452602486fd5b8180156110a257600181146110b7576110e4565b60ff19861689528415158502890196506110e4565b60008b81526020902060005b868110156110dc5781548b8201529085019083016110c3565b505084890196505b509785525050509301949350505050565b6001600160a01b03878116825286811660208301528516604082015260608101849052600061018061112a6080840186610f32565b8061016084015261113d81840185610bdc565b9998505050505050505050565b6001600160a01b038981168252888116602083015287166040820152606081018690526080810185905260006101a061118660a0840187610f32565b8061018084015261119a8184018587610fa0565b9b9a5050505050505050505050565b6001600160a01b0389811682528816602082015260408101879052606081018690526080810185905260006101a061118660a0840187610f32565b6001600160a01b0389811682528815156020830152878116604083015286811660608301528516608082015260a0810184905260006101c061122960c0840186610f32565b806101a084015261119a81840185610bdc56fea2646970667358221220d8bac36144c7dba49b68b39df77828a545379b1d421d086c23efb5416e5732a864736f6c634300081000334d6f64756c653a2046656520746f6f2068696768000000000000000000000000",
    "linkReferences": {}
  },
  "methodIdentifiers": {
    "REGISTRAR()": "cb609077",
    "_URI()": "b4e87e8f",
    "approveRule()": "433d3a77",
    "cashRule()": "f3ea001e",
    "fees()": "9af1d35a",
    "fundRule()": "d4c301da",
    "getFees()": "db8d55f1",
    "isCashed(uint256)": "aee40bb9",
    "memo(uint256)": "96eb58f8",
    "processApproval(address,address,address,uint256,(address,uint256,uint256,address,address,address,uint256),bytes)": "84314347",
    "processCash(address,address,address,uint256,uint256,(address,uint256,uint256,address,address,address,uint256),bytes)": "a0663d1b",
    "processFund(address,address,uint256,uint256,uint256,(address,uint256,uint256,address,address,address,uint256),bytes)": "d647e1e5",
    "processTokenURI(uint256)": "4fe17e1a",
    "processTransfer(address,bool,address,address,address,uint256,(address,uint256,uint256,address,address,address,uint256),bytes)": "f09b3d9a",
    "processWrite(address,address,uint256,(address,uint256,uint256,address,address,address,uint256),uint256,bytes)": "4238a63a",
    "releaseDate(uint256)": "4eaad1ee",
    "transferRule()": "0d02cde7",
    "withdrawFees(address)": "164e68de",
    "writeRule()": "df1cdb46"
  },
  "id": 46
}