{
  "abi": [
    {
      "anonymous": false,
      "inputs": [
        {
          "indexed": true,
          "internalType": "address",
          "name": "previousOwner",
          "type": "address"
        },
        {
          "indexed": true,
          "internalType": "address",
          "name": "newOwner",
          "type": "address"
        }
      ],
      "name": "OwnershipTransferred",
      "type": "event"
    },
    {
      "inputs": [
        {
          "internalType": "address",
          "name": "module",
          "type": "address"
        }
      ],
      "name": "_returnCodeHash",
      "outputs": [
        {
          "internalType": "bytes32",
          "name": "",
          "type": "bytes32"
        }
      ],
      "stateMutability": "view",
      "type": "function"
    },
    {
      "inputs": [
        {
          "internalType": "address",
          "name": "module",
          "type": "address"
        }
      ],
      "name": "moduleWhitelisted",
      "outputs": [
        {
          "internalType": "bool",
          "name": "",
          "type": "bool"
        },
        {
          "internalType": "bool",
          "name": "",
          "type": "bool"
        }
      ],
      "stateMutability": "view",
      "type": "function"
    },
    {
      "inputs": [],
      "name": "owner",
      "outputs": [
        {
          "internalType": "address",
          "name": "",
          "type": "address"
        }
      ],
      "stateMutability": "view",
      "type": "function"
    },
    {
      "inputs": [],
      "name": "renounceOwnership",
      "outputs": [],
      "stateMutability": "nonpayable",
      "type": "function"
    },
    {
      "inputs": [
        {
          "internalType": "address",
          "name": "rule",
          "type": "address"
        }
      ],
      "name": "ruleWhitelisted",
      "outputs": [
        {
          "internalType": "bool",
          "name": "",
          "type": "bool"
        }
      ],
      "stateMutability": "view",
      "type": "function"
    },
    {
      "inputs": [
        {
          "internalType": "address",
          "name": "writeRule",
          "type": "address"
        },
        {
          "internalType": "address",
          "name": "transferRule",
          "type": "address"
        },
        {
          "internalType": "address",
          "name": "fundRule",
          "type": "address"
        },
        {
          "internalType": "address",
          "name": "cashRule",
          "type": "address"
        },
        {
          "internalType": "address",
          "name": "approveRule",
          "type": "address"
        }
      ],
      "name": "rulesWhitelisted",
      "outputs": [
        {
          "internalType": "bool",
          "name": "",
          "type": "bool"
        }
      ],
      "stateMutability": "view",
      "type": "function"
    },
    {
      "inputs": [
        {
          "internalType": "address",
          "name": "token",
          "type": "address"
        }
      ],
      "name": "tokenWhitelisted",
      "outputs": [
        {
          "internalType": "bool",
          "name": "",
          "type": "bool"
        }
      ],
      "stateMutability": "view",
      "type": "function"
    },
    {
      "inputs": [
        {
          "internalType": "address",
          "name": "newOwner",
          "type": "address"
        }
      ],
      "name": "transferOwnership",
      "outputs": [],
      "stateMutability": "nonpayable",
      "type": "function"
    },
    {
      "inputs": [
        {
          "internalType": "address",
          "name": "rule",
          "type": "address"
        },
        {
          "internalType": "bool",
          "name": "accepted",
          "type": "bool"
        }
      ],
      "name": "whitelistRule",
      "outputs": [],
      "stateMutability": "nonpayable",
      "type": "function"
    },
    {
      "inputs": [
        {
          "internalType": "address",
          "name": "_token",
          "type": "address"
        },
        {
          "internalType": "bool",
          "name": "accepted",
          "type": "bool"
        }
      ],
      "name": "whitelistToken",
      "outputs": [],
      "stateMutability": "nonpayable",
      "type": "function"
    }
  ],
  "bytecode": {
    "object": "0x608060405234801561001057600080fd5b5061001a3361001f565b61006f565b600080546001600160a01b038381166001600160a01b0319831681178455604051919092169283917f8be0079c531659141344cd1fd0a4f28419497f9722a3daafe3b4186f6b6457e09190a35050565b6105ce8061007e6000396000f3fe608060405234801561001057600080fd5b506004361061009e5760003560e01c80638da5cb5b116100665780638da5cb5b14610160578063c4a73fe31461017b578063f2fde38b146101a7578063f6adc25c146101ba578063ff8507e8146101cd57600080fd5b80630ffb1d8b146100a3578063107e2f3b146100b85780633f4b612e146100dd57806352f37f5614610100578063715018a614610158575b600080fd5b6100b66100b13660046104d5565b6101f9565b005b6100ca6100c6366004610511565b3f90565b6040519081526020015b60405180910390f35b6100f06100eb366004610533565b610270565b60405190151581526020016100d4565b61014161010e366004610511565b6001600160a01b038116600090815260026020908152604080832054933f8352600190915290205460ff91821692911690565b6040805192151583529015156020830152016100d4565b6100b6610326565b6000546040516001600160a01b0390911681526020016100d4565b6100f0610189366004610511565b6001600160a01b031660009081526003602052604090205460ff1690565b6100b66101b5366004610511565b61033a565b6100b66101c83660046104d5565b6103b8565b6100f06101db366004610511565b6001600160a01b031660009081526004602052604090205460ff1690565b61020161040f565b6001600160a01b0382166000818152600460205260409020805460ff1916831515908117909155907f1bf5ef6ada443138fcac941f79625fe01e92ff514fee9f160bff18363199c7a0335b604080516001600160a01b0390921682524260208301520160405180910390a35050565b6001600160a01b03851660009081526003602052604081205460ff1680156102b057506001600160a01b03851660009081526003602052604090205460ff165b80156102d457506001600160a01b03841660009081526003602052604090205460ff165b80156102f857506001600160a01b03831660009081526003602052604090205460ff165b801561031c57506001600160a01b03821660009081526003602052604090205460ff165b9695505050505050565b61032e61040f565b6103386000610469565b565b61034261040f565b6001600160a01b0381166103ac5760405162461bcd60e51b815260206004820152602660248201527f4f776e61626c653a206e6577206f776e657220697320746865207a65726f206160448201526564647265737360d01b60648201526084015b60405180910390fd5b6103b581610469565b50565b6103c061040f565b6001600160a01b0382166000818152600360205260409020805460ff1916831515908117909155907fdf6d9301f0ffa7c1f3db8033b4eb8b3b8b76b4c792622e86da0ed9fbdca070143361024c565b6000546001600160a01b031633146103385760405162461bcd60e51b815260206004820181905260248201527f4f776e61626c653a2063616c6c6572206973206e6f7420746865206f776e657260448201526064016103a3565b600080546001600160a01b038381166001600160a01b0319831681178455604051919092169283917f8be0079c531659141344cd1fd0a4f28419497f9722a3daafe3b4186f6b6457e09190a35050565b80356001600160a01b03811681146104d057600080fd5b919050565b600080604083850312156104e857600080fd5b6104f1836104b9565b91506020830135801515811461050657600080fd5b809150509250929050565b60006020828403121561052357600080fd5b61052c826104b9565b9392505050565b600080600080600060a0868803121561054b57600080fd5b610554866104b9565b9450610562602087016104b9565b9350610570604087016104b9565b925061057e606087016104b9565b915061058c608087016104b9565b9050929550929590935056fea2646970667358221220cbb0ca3e5d5aa2235505412a500e4620ea98858e7fb670dfd8d1cd0e61990c7064736f6c63430008100033",
    "linkReferences": {}
  },
  "methodIdentifiers": {
    "_returnCodeHash(address)": "107e2f3b",
    "moduleWhitelisted(address)": "52f37f56",
    "owner()": "8da5cb5b",
    "renounceOwnership()": "715018a6",
    "ruleWhitelisted(address)": "c4a73fe3",
    "rulesWhitelisted(address,address,address,address,address)": "3f4b612e",
    "tokenWhitelisted(address)": "ff8507e8",
    "transferOwnership(address)": "f2fde38b",
    "whitelistRule(address,bool)": "f6adc25c",
    "whitelistToken(address,bool)": "0ffb1d8b"
  },
  "id": 26
}