{
  "abi": [
    {
      "inputs": [
        {
          "internalType": "address",
          "name": "registrar",
          "type": "address"
        },
        {
          "components": [
            {
              "internalType": "uint256",
              "name": "writeBPS",
              "type": "uint256"
            },
            {
              "internalType": "uint256",
              "name": "transferBPS",
              "type": "uint256"
            },
            {
              "internalType": "uint256",
              "name": "fundBPS",
              "type": "uint256"
            },
            {
              "internalType": "uint256",
              "name": "cashBPS",
              "type": "uint256"
            }
          ],
          "internalType": "struct DataTypes.WTFCFees",
          "name": "_fees",
          "type": "tuple"
        },
        {
          "internalType": "string",
          "name": "__baseURI",
          "type": "string"
        }
      ],
      "stateMutability": "nonpayable",
      "type": "constructor"
    },
    {
      "inputs": [],
      "name": "AddressZero",
      "type": "error"
    },
    {
      "inputs": [],
      "name": "AmountZero",
      "type": "error"
    },
    {
      "inputs": [],
      "name": "Disallowed",
      "type": "error"
    },
    {
      "inputs": [],
      "name": "EscrowUnsupported",
      "type": "error"
    },
    {
      "inputs": [],
      "name": "InitParamsInvalid",
      "type": "error"
    },
    {
      "inputs": [],
      "name": "InsufficientPayment",
      "type": "error"
    },
    {
      "inputs": [],
      "name": "InvoiceWithPay",
      "type": "error"
    },
    {
      "inputs": [],
      "name": "NotRegistrar",
      "type": "error"
    },
    {
      "inputs": [],
      "name": "OnlyOwner",
      "type": "error"
    },
    {
      "inputs": [],
      "name": "OnlyOwnerOrApproved",
      "type": "error"
    },
    {
      "anonymous": false,
      "inputs": [
        {
          "indexed": false,
          "internalType": "uint256",
          "name": "cheqId",
          "type": "uint256"
        },
        {
          "indexed": false,
          "internalType": "string",
          "name": "memoHash",
          "type": "string"
        },
        {
          "indexed": false,
          "internalType": "uint256",
          "name": "amount",
          "type": "uint256"
        },
        {
          "indexed": false,
          "internalType": "uint256",
          "name": "timestamp",
          "type": "uint256"
        },
        {
          "indexed": false,
          "internalType": "address",
          "name": "referer",
          "type": "address"
        },
        {
          "indexed": false,
          "internalType": "address",
          "name": "creditor",
          "type": "address"
        },
        {
          "indexed": false,
          "internalType": "address",
          "name": "debtor",
          "type": "address"
        }
      ],
      "name": "PaymentCreated",
      "type": "event"
    },
    {
      "inputs": [],
      "name": "REGISTRAR",
      "outputs": [
        {
          "internalType": "address",
          "name": "",
          "type": "address"
        }
      ],
      "stateMutability": "view",
      "type": "function"
    },
    {
      "inputs": [],
      "name": "_URI",
      "outputs": [
        {
          "internalType": "string",
          "name": "",
          "type": "string"
        }
      ],
      "stateMutability": "view",
      "type": "function"
    },
    {
      "inputs": [],
      "name": "fees",
      "outputs": [
        {
          "internalType": "uint256",
          "name": "writeBPS",
          "type": "uint256"
        },
        {
          "internalType": "uint256",
          "name": "transferBPS",
          "type": "uint256"
        },
        {
          "internalType": "uint256",
          "name": "fundBPS",
          "type": "uint256"
        },
        {
          "internalType": "uint256",
          "name": "cashBPS",
          "type": "uint256"
        }
      ],
      "stateMutability": "view",
      "type": "function"
    },
    {
      "inputs": [],
      "name": "getFees",
      "outputs": [
        {
          "internalType": "uint256",
          "name": "",
          "type": "uint256"
        },
        {
          "internalType": "uint256",
          "name": "",
          "type": "uint256"
        },
        {
          "internalType": "uint256",
          "name": "",
          "type": "uint256"
        },
        {
          "internalType": "uint256",
          "name": "",
          "type": "uint256"
        }
      ],
      "stateMutability": "view",
      "type": "function"
    },
    {
      "inputs": [
        {
          "internalType": "uint256",
          "name": "",
          "type": "uint256"
        }
      ],
      "name": "payInfo",
      "outputs": [
        {
          "internalType": "address",
          "name": "creditor",
          "type": "address"
        },
        {
          "internalType": "address",
          "name": "debtor",
          "type": "address"
        },
        {
          "internalType": "uint256",
          "name": "amount",
          "type": "uint256"
        },
        {
          "internalType": "uint256",
          "name": "timestamp",
          "type": "uint256"
        },
        {
          "internalType": "string",
          "name": "memoHash",
          "type": "string"
        },
        {
          "internalType": "bool",
          "name": "wasPaid",
          "type": "bool"
        }
      ],
      "stateMutability": "view",
      "type": "function"
    },
    {
      "inputs": [
        {
          "internalType": "address",
          "name": "caller",
          "type": "address"
        },
        {
          "internalType": "address",
          "name": "owner",
          "type": "address"
        },
        {
          "internalType": "address",
          "name": "",
          "type": "address"
        },
        {
          "internalType": "uint256",
          "name": "",
          "type": "uint256"
        },
        {
          "components": [
            {
              "internalType": "address",
              "name": "currency",
              "type": "address"
            },
            {
              "internalType": "uint256",
              "name": "escrowed",
              "type": "uint256"
            },
            {
              "internalType": "uint256",
              "name": "createdAt",
              "type": "uint256"
            },
            {
              "internalType": "address",
              "name": "module",
              "type": "address"
            }
          ],
          "internalType": "struct DataTypes.Cheq",
          "name": "",
          "type": "tuple"
        },
        {
          "internalType": "bytes",
          "name": "",
          "type": "bytes"
        }
      ],
      "name": "processApproval",
      "outputs": [],
      "stateMutability": "view",
      "type": "function"
    },
    {
      "inputs": [
        {
          "internalType": "address",
          "name": "",
          "type": "address"
        },
        {
          "internalType": "address",
          "name": "",
          "type": "address"
        },
        {
          "internalType": "address",
          "name": "",
          "type": "address"
        },
        {
          "internalType": "uint256",
          "name": "",
          "type": "uint256"
        },
        {
          "internalType": "uint256",
          "name": "",
          "type": "uint256"
        },
        {
          "components": [
            {
              "internalType": "address",
              "name": "currency",
              "type": "address"
            },
            {
              "internalType": "uint256",
              "name": "escrowed",
              "type": "uint256"
            },
            {
              "internalType": "uint256",
              "name": "createdAt",
              "type": "uint256"
            },
            {
              "internalType": "address",
              "name": "module",
              "type": "address"
            }
          ],
          "internalType": "struct DataTypes.Cheq",
          "name": "",
          "type": "tuple"
        },
        {
          "internalType": "bytes",
          "name": "",
          "type": "bytes"
        }
      ],
      "name": "processCash",
      "outputs": [
        {
          "internalType": "uint256",
          "name": "",
          "type": "uint256"
        }
      ],
      "stateMutability": "view",
      "type": "function"
    },
    {
      "inputs": [
        {
          "internalType": "address",
          "name": "",
          "type": "address"
        },
        {
          "internalType": "address",
          "name": "",
          "type": "address"
        },
        {
          "internalType": "uint256",
          "name": "amount",
          "type": "uint256"
        },
        {
          "internalType": "uint256",
          "name": "instant",
          "type": "uint256"
        },
        {
          "internalType": "uint256",
          "name": "cheqId",
          "type": "uint256"
        },
        {
          "components": [
            {
              "internalType": "address",
              "name": "currency",
              "type": "address"
            },
            {
              "internalType": "uint256",
              "name": "escrowed",
              "type": "uint256"
            },
            {
              "internalType": "uint256",
              "name": "createdAt",
              "type": "uint256"
            },
            {
              "internalType": "address",
              "name": "module",
              "type": "address"
            }
          ],
          "internalType": "struct DataTypes.Cheq",
          "name": "cheq",
          "type": "tuple"
        },
        {
          "internalType": "bytes",
          "name": "initData",
          "type": "bytes"
        }
      ],
      "name": "processFund",
      "outputs": [
        {
          "internalType": "uint256",
          "name": "",
          "type": "uint256"
        }
      ],
      "stateMutability": "nonpayable",
      "type": "function"
    },
    {
      "inputs": [
        {
          "internalType": "uint256",
          "name": "tokenId",
          "type": "uint256"
        }
      ],
      "name": "processTokenURI",
      "outputs": [
        {
          "internalType": "string",
          "name": "",
          "type": "string"
        }
      ],
      "stateMutability": "view",
      "type": "function"
    },
    {
      "inputs": [
        {
          "internalType": "address",
          "name": "caller",
          "type": "address"
        },
        {
          "internalType": "address",
          "name": "approved",
          "type": "address"
        },
        {
          "internalType": "address",
          "name": "owner",
          "type": "address"
        },
        {
          "internalType": "address",
          "name": "",
          "type": "address"
        },
        {
          "internalType": "address",
          "name": "",
          "type": "address"
        },
        {
          "internalType": "uint256",
          "name": "",
          "type": "uint256"
        },
        {
          "internalType": "address",
          "name": "currency",
          "type": "address"
        },
        {
          "internalType": "uint256",
          "name": "escrowed",
          "type": "uint256"
        },
        {
          "internalType": "uint256",
          "name": "",
          "type": "uint256"
        },
        {
          "internalType": "bytes",
          "name": "data",
          "type": "bytes"
        }
      ],
      "name": "processTransfer",
      "outputs": [
        {
          "internalType": "uint256",
          "name": "",
          "type": "uint256"
        }
      ],
      "stateMutability": "nonpayable",
      "type": "function"
    },
    {
      "inputs": [
        {
          "internalType": "address",
          "name": "caller",
          "type": "address"
        },
        {
          "internalType": "address",
          "name": "owner",
          "type": "address"
        },
        {
          "internalType": "uint256",
          "name": "cheqId",
          "type": "uint256"
        },
        {
          "internalType": "address",
          "name": "currency",
          "type": "address"
        },
        {
          "internalType": "uint256",
          "name": "escrowed",
          "type": "uint256"
        },
        {
          "internalType": "uint256",
          "name": "instant",
          "type": "uint256"
        },
        {
          "internalType": "bytes",
          "name": "initData",
          "type": "bytes"
        }
      ],
      "name": "processWrite",
      "outputs": [
        {
          "internalType": "uint256",
          "name": "",
          "type": "uint256"
        }
      ],
      "stateMutability": "nonpayable",
      "type": "function"
    },
    {
      "inputs": [
        {
          "internalType": "address",
          "name": "",
          "type": "address"
        },
        {
          "internalType": "address",
          "name": "",
          "type": "address"
        }
      ],
      "name": "revenue",
      "outputs": [
        {
          "internalType": "uint256",
          "name": "",
          "type": "uint256"
        }
      ],
      "stateMutability": "view",
      "type": "function"
    },
    {
      "inputs": [
        {
          "internalType": "address",
          "name": "token",
          "type": "address"
        }
      ],
      "name": "withdrawFees",
      "outputs": [],
      "stateMutability": "nonpayable",
      "type": "function"
    }
  ],
  "bytecode": {
    "object": "0x60a06040523480156200001157600080fd5b5060405162001a7638038062001a768339810160408190526200003491620002f9565b82826001600160a01b0382166200005e576040516348be0eb360e01b815260040160405180910390fd5b6001600160a01b038216608052805161271011620000b25760405162461bcd60e51b8152602060048201526014602482015260008051602062001a5683398151915260448201526064015b60405180910390fd5b612710816020015110620000f85760405162461bcd60e51b8152602060048201526014602482015260008051602062001a568339815191526044820152606401620000a9565b6127108160400151106200013e5760405162461bcd60e51b8152602060048201526014602482015260008051602062001a568339815191526044820152606401620000a9565b612710816060015110620001845760405162461bcd60e51b8152602060048201526014602482015260008051602062001a568339815191526044820152606401620000a9565b80516001556020808201516002556040808301516003556060830151600455514281526001600160a01b038416917ff1a1fa6b64aa95186f5a1285e76198d0da80d9c5a88062641d447f1d7c54e56c910160405180910390a25060059050620001ee828262000431565b50505050620004fd565b634e487b7160e01b600052604160045260246000fd5b604051608081016001600160401b0381118282101715620002335762000233620001f8565b60405290565b604051601f8201601f191681016001600160401b0381118282101715620002645762000264620001f8565b604052919050565b600082601f8301126200027e57600080fd5b81516001600160401b038111156200029a576200029a620001f8565b6020620002b0601f8301601f1916820162000239565b8281528582848701011115620002c557600080fd5b60005b83811015620002e5578581018301518282018401528201620002c8565b506000928101909101919091529392505050565b600080600083850360c08112156200031057600080fd5b84516001600160a01b03811681146200032857600080fd5b93506080601f19820112156200033d57600080fd5b50620003486200020e565b602085015181526040850151602082015260608501516040820152608085015160608201528092505060a084015160018060401b038111156200038a57600080fd5b62000398868287016200026c565b9150509250925092565b600181811c90821680620003b757607f821691505b602082108103620003d857634e487b7160e01b600052602260045260246000fd5b50919050565b601f8211156200042c57600081815260208120601f850160051c81016020861015620004075750805b601f850160051c820191505b81811015620004285782815560010162000413565b5050505b505050565b81516001600160401b038111156200044d576200044d620001f8565b62000465816200045e8454620003a2565b84620003de565b602080601f8311600181146200049d5760008415620004845750858301515b600019600386901b1c1916600185901b17855562000428565b600085815260208120601f198616915b82811015620004ce57888601518255948401946001909101908401620004ad565b5085821015620004ed5787850151600019600388901b60f8161c191681555b5050505050600190811b01905550565b60805161151362000543600039600081816101f8015281816102630152818161035101528181610599015281816108cf01528181610a5b0152610b9501526115136000f3fe608060405234801561001057600080fd5b50600436106100cf5760003560e01c8063b4e87e8f1161008c578063c0c9572c11610066578063c0c9572c146101e0578063cb609077146101f3578063db8d55f114610232578063e41759681461024357600080fd5b8063b4e87e8f146101b2578063b5d701ba146101ba578063be2f3fdd146101cd57600080fd5b806306890cd0146100d4578063164e68de146100fa5780634fe17e1a1461010f57806370530dac1461012f5780639a0ea37a146101545780639af1d35a1461017c575b600080fd5b6100e76100e2366004610cfa565b610256565b6040519081526020015b60405180910390f35b61010d610108366004610d9c565b6102ba565b005b61012261011d366004610dc0565b6103ee565b6040516100f19190610e1f565b61014261013d366004610dc0565b61042f565b6040516100f196959493929190610e32565b6100e7610162366004610e81565b600060208181529281526040808220909352908152205481565b6001546002546003546004546101929392919084565b6040805194855260208501939093529183015260608201526080016100f1565b6101226104fe565b6100e76101c8366004610eba565b61058c565b6100e76101db366004610f32565b6108c2565b6100e76101ee36600461103a565b610a4e565b61021a7f000000000000000000000000000000000000000000000000000000000000000081565b6040516001600160a01b0390911681526020016100f1565b600154600254600354600454610192565b61010d610251366004611104565b610b8a565b6000336001600160a01b037f000000000000000000000000000000000000000000000000000000000000000016146102a157604051632ad9535160e01b815260040160405180910390fd5b604051635a89288760e01b815260040160405180910390fd5b336000908152602081815260408083206001600160a01b0385168452909152902054600181116103275760405162461bcd60e51b8152602060048201526014602482015273496e73756666696369656e7420726576656e756560601b604482015260640160405180910390fd5b336000908152602081815260408083206001600160a01b03868116855292529091206001908190557f00000000000000000000000000000000000000000000000000000000000000009091169063d6a4f84c90849061038690856111ab565b6040516001600160e01b031960e085901b1681526001600160a01b0390921660048301526024820152336044820152606401600060405180830381600087803b1580156103d257600080fd5b505af11580156103e6573d6000803e3d6000fd5b505050505050565b606060056006600084815260200190815260200160002060040160405160200161041992919061126b565b6040516020818303038152906040529050919050565b600660205260009081526040902080546001820154600283015460038401546004850180546001600160a01b0395861696949095169492939192610472906111c4565b80601f016020809104026020016040519081016040528092919081815260200182805461049e906111c4565b80156104eb5780601f106104c0576101008083540402835291602001916104eb565b820191906000526020600020905b8154815290600101906020018083116104ce57829003601f168201915b5050506005909301549192505060ff1686565b6005805461050b906111c4565b80601f0160208091040260200160405190810160405280929190818152602001828054610537906111c4565b80156105845780601f1061055957610100808354040283529160200191610584565b820191906000526020600020905b81548152906001019060200180831161056757829003601f168201915b505050505081565b6000336001600160a01b037f000000000000000000000000000000000000000000000000000000000000000016146105d757604051632ad9535160e01b815260040160405180910390fd5b6000808080806105e987890189611288565b945094509450945094508960001461061457604051632301b87f60e01b815260040160405180910390fd5b83600003610635576040516365e52d5160e11b815260040160405180910390fd5b8c6001600160a01b03168e6001600160a01b0316036106e857881561066d576040516371c2848560e01b815260040160405180910390fd5b8d600660008e815260200190815260200160002060000160006101000a8154816001600160a01b0302191690836001600160a01b0316021790555084600660008e815260200190815260200160002060010160006101000a8154816001600160a01b0302191690836001600160a01b031602179055506107ee565b846001600160a01b03168d6001600160a01b0316036102a1578389146107215760405163cd1c886760e01b815260040160405180910390fd5b6001600160a01b038d1661074857604051639fabe1c160e01b815260040160405180910390fd5b84600660008e815260200190815260200160002060000160006101000a8154816001600160a01b0302191690836001600160a01b031602179055508d600660008e815260200190815260200160002060010160006101000a8154816001600160a01b0302191690836001600160a01b031602179055506001600660008e815260200190815260200160002060050160006101000a81548160ff0219169083151502179055505b60008c81526006602052604090206002810185905560038101849055600401610817828261135d565b506000806108258b8d61141d565b600154909150612710906108399083611430565b610843919061144f565b91505080600080856001600160a01b03166001600160a01b0316815260200190815260200160002060008e6001600160a01b03166001600160a01b03168152602001908152602001600020600082825461089d919061141d565b909155506108b090508d83878787610c05565b9e9d5050505050505050505050505050565b6000336001600160a01b037f0000000000000000000000000000000000000000000000000000000000000000161461090d57604051632ad9535160e01b815260040160405180910390fd5b861561092c57604051632301b87f60e01b815260040160405180910390fd5b600085815260066020526040902060020154861461095d5760405163cd1c886760e01b815260040160405180910390fd5b60008581526006602052604090206005015460ff161561099057604051635a89288760e01b815260040160405180910390fd5b6000858152600660205260408120600501805460ff19166001179055600354612710906109bd898b61141d565b6109c79190611430565b6109d1919061144f565b9050806000806109e386880188610d9c565b6001600160a01b03168152602080820192909252604001600090812091610a0c90890189610d9c565b6001600160a01b03166001600160a01b031681526020019081526020016000206000828254610a3b919061141d565b90915550909a9950505050505050505050565b6000336001600160a01b037f00000000000000000000000000000000000000000000000000000000000000001614610a9957604051632ad9535160e01b815260040160405180910390fd5b886001600160a01b03168b6001600160a01b031614158015610acd5750896001600160a01b03168b6001600160a01b031614155b15610aeb57604051632bce376360e21b815260040160405180910390fd5b60025460009061271090610aff9087611430565b610b09919061144f565b90508060008085806020019051810190610b239190611471565b6001600160a01b03166001600160a01b031681526020019081526020016000206000886001600160a01b03166001600160a01b031681526020019081526020016000206000828254610b75919061141d565b90915550909c9b505050505050505050505050565b336001600160a01b037f00000000000000000000000000000000000000000000000000000000000000001614610bd357604051632ad9535160e01b815260040160405180910390fd5b846001600160a01b0316866001600160a01b0316146103e657604051635fc483c560e01b815260040160405180910390fd5b60008581526006602052604090819020805460019091015491517f7dc6d96ef10b63a754466bb72f4846658f9011546c743fafff61e439da1be1b292610c6292899289928992899289926001600160a01b0392831692169061148e565b60405180910390a15050505050565b6001600160a01b0381168114610c8657600080fd5b50565b8035610c9481610c71565b919050565b600060808284031215610cab57600080fd5b50919050565b60008083601f840112610cc357600080fd5b50813567ffffffffffffffff811115610cdb57600080fd5b602083019150836020828501011115610cf357600080fd5b9250929050565b600080600080600080600080610140898b031215610d1757600080fd5b8835610d2281610c71565b97506020890135610d3281610c71565b96506040890135610d4281610c71565b95506060890135945060808901359350610d5f8a60a08b01610c99565b925061012089013567ffffffffffffffff811115610d7c57600080fd5b610d888b828c01610cb1565b999c989b5096995094979396929594505050565b600060208284031215610dae57600080fd5b8135610db981610c71565b9392505050565b600060208284031215610dd257600080fd5b5035919050565b6000815180845260005b81811015610dff57602081850181015186830182015201610de3565b506000602082860101526020601f19601f83011685010191505092915050565b602081526000610db96020830184610dd9565b6001600160a01b03878116825286166020820152604081018590526060810184905260c060808201819052600090610e6c90830185610dd9565b905082151560a0830152979650505050505050565b60008060408385031215610e9457600080fd5b8235610e9f81610c71565b91506020830135610eaf81610c71565b809150509250929050565b60008060008060008060008060e0898b031215610ed657600080fd5b8835610ee181610c71565b97506020890135610ef181610c71565b9650604089013595506060890135610f0881610c71565b94506080890135935060a0890135925060c089013567ffffffffffffffff811115610d7c57600080fd5b600080600080600080600080610140898b031215610f4f57600080fd5b8835610f5a81610c71565b97506020890135610f6a81610c71565b9650604089013595506060890135945060808901359350610d5f8a60a08b01610c99565b634e487b7160e01b600052604160045260246000fd5b600067ffffffffffffffff80841115610fbf57610fbf610f8e565b604051601f8501601f19908116603f01168101908282118183101715610fe757610fe7610f8e565b8160405280935085815286868601111561100057600080fd5b858560208301376000602087830101525050509392505050565b600082601f83011261102b57600080fd5b610db983833560208501610fa4565b6000806000806000806000806000806101408b8d03121561105a57600080fd5b8a3561106581610c71565b995060208b013561107581610c71565b985060408b013561108581610c71565b975060608b013561109581610c71565b965060808b01356110a581610c71565b955060a08b013594506110ba60c08c01610c89565b935060e08b013592506101008b013591506101208b013567ffffffffffffffff8111156110e657600080fd5b6110f28d828e0161101a565b9150509295989b9194979a5092959850565b600080600080600080610120878903121561111e57600080fd5b863561112981610c71565b9550602087013561113981610c71565b9450604087013561114981610c71565b93506060870135925061115f8860808901610c99565b915061010087013567ffffffffffffffff81111561117c57600080fd5b61118889828a0161101a565b9150509295509295509295565b634e487b7160e01b600052601160045260246000fd5b818103818111156111be576111be611195565b92915050565b600181811c908216806111d857607f821691505b602082108103610cab57634e487b7160e01b600052602260045260246000fd5b60008154611205816111c4565b6001828116801561121d576001811461123257611261565b60ff1984168752821515830287019450611261565b8560005260208060002060005b858110156112585781548a82015290840190820161123f565b50505082870194505b5050505092915050565b600061128061127a83866111f8565b846111f8565b949350505050565b600080600080600060a086880312156112a057600080fd5b85356112ab81610c71565b9450602086013593506040860135925060608601356112c981610c71565b9150608086013567ffffffffffffffff8111156112e557600080fd5b8601601f810188136112f657600080fd5b61130588823560208401610fa4565b9150509295509295909350565b601f82111561135857600081815260208120601f850160051c810160208610156113395750805b601f850160051c820191505b818110156103e657828155600101611345565b505050565b815167ffffffffffffffff81111561137757611377610f8e565b61138b8161138584546111c4565b84611312565b602080601f8311600181146113c057600084156113a85750858301515b600019600386901b1c1916600185901b1785556103e6565b600085815260208120601f198616915b828110156113ef578886015182559484019460019091019084016113d0565b508582101561140d5787850151600019600388901b60f8161c191681555b5050505050600190811b01905550565b808201808211156111be576111be611195565b600081600019048311821515161561144a5761144a611195565b500290565b60008261146c57634e487b7160e01b600052601260045260246000fd5b500490565b60006020828403121561148357600080fd5b8151610db981610c71565b87815260e0602082015260006114a760e0830189610dd9565b60408301979097525060608101949094526001600160a01b03928316608085015290821660a08401521660c0909101529291505056fea26469706673582212203f59c36438f49abfe5e9d797ef9b4ea5319aac93f3d5da65b9bbf64140e6e23464736f6c634300081000334d6f64756c653a2046656520746f6f2068696768000000000000000000000000",
    "linkReferences": {}
  },
  "methodIdentifiers": {
    "REGISTRAR()": "cb609077",
    "_URI()": "b4e87e8f",
    "fees()": "9af1d35a",
    "getFees()": "db8d55f1",
    "payInfo(uint256)": "70530dac",
    "processApproval(address,address,address,uint256,(address,uint256,uint256,address),bytes)": "e4175968",
    "processCash(address,address,address,uint256,uint256,(address,uint256,uint256,address),bytes)": "06890cd0",
    "processFund(address,address,uint256,uint256,uint256,(address,uint256,uint256,address),bytes)": "be2f3fdd",
    "processTokenURI(uint256)": "4fe17e1a",
    "processTransfer(address,address,address,address,address,uint256,address,uint256,uint256,bytes)": "c0c9572c",
    "processWrite(address,address,uint256,address,uint256,uint256,bytes)": "b5d701ba",
    "revenue(address,address)": "9a0ea37a",
    "withdrawFees(address)": "164e68de"
  },
  "id": 30
}