{
  "abi": [
    {
      "inputs": [
        {
          "internalType": "address",
          "name": "",
          "type": "address"
        },
        {
          "internalType": "address",
          "name": "",
          "type": "address"
        },
        {
          "internalType": "address",
          "name": "",
          "type": "address"
        },
        {
          "internalType": "uint256",
          "name": "",
          "type": "uint256"
        },
        {
          "components": [
            {
              "internalType": "address",
              "name": "currency",
              "type": "address"
            },
            {
              "internalType": "uint256",
              "name": "amount",
              "type": "uint256"
            },
            {
              "internalType": "uint256",
              "name": "escrowed",
              "type": "uint256"
            },
            {
              "internalType": "address",
              "name": "drawer",
              "type": "address"
            },
            {
              "internalType": "address",
              "name": "recipient",
              "type": "address"
            },
            {
              "internalType": "address",
              "name": "module",
              "type": "address"
            },
            {
              "internalType": "uint256",
              "name": "mintTimestamp",
              "type": "uint256"
            }
          ],
          "internalType": "struct DataTypes.Cheq",
          "name": "",
          "type": "tuple"
        },
        {
          "internalType": "bytes",
          "name": "",
          "type": "bytes"
        }
      ],
      "name": "canApprove",
      "outputs": [
        {
          "internalType": "bool",
          "name": "",
          "type": "bool"
        }
      ],
      "stateMutability": "pure",
      "type": "function"
    },
    {
      "inputs": [
        {
          "internalType": "address",
          "name": "caller",
          "type": "address"
        },
        {
          "internalType": "address",
          "name": "owner",
          "type": "address"
        },
        {
          "internalType": "address",
          "name": "",
          "type": "address"
        },
        {
          "internalType": "uint256",
          "name": "amount",
          "type": "uint256"
        },
        {
          "internalType": "uint256",
          "name": "",
          "type": "uint256"
        },
        {
          "components": [
            {
              "internalType": "address",
              "name": "currency",
              "type": "address"
            },
            {
              "internalType": "uint256",
              "name": "amount",
              "type": "uint256"
            },
            {
              "internalType": "uint256",
              "name": "escrowed",
              "type": "uint256"
            },
            {
              "internalType": "address",
              "name": "drawer",
              "type": "address"
            },
            {
              "internalType": "address",
              "name": "recipient",
              "type": "address"
            },
            {
              "internalType": "address",
              "name": "module",
              "type": "address"
            },
            {
              "internalType": "uint256",
              "name": "mintTimestamp",
              "type": "uint256"
            }
          ],
          "internalType": "struct DataTypes.Cheq",
          "name": "cheq",
          "type": "tuple"
        },
        {
          "internalType": "bytes",
          "name": "",
          "type": "bytes"
        }
      ],
      "name": "canCash",
      "outputs": [
        {
          "internalType": "bool",
          "name": "",
          "type": "bool"
        }
      ],
      "stateMutability": "pure",
      "type": "function"
    },
    {
      "inputs": [
        {
          "internalType": "address",
          "name": "caller",
          "type": "address"
        },
        {
          "internalType": "address",
          "name": "owner",
          "type": "address"
        },
        {
          "internalType": "uint256",
          "name": "amount",
          "type": "uint256"
        },
        {
          "internalType": "uint256",
          "name": "",
          "type": "uint256"
        },
        {
          "components": [
            {
              "internalType": "address",
              "name": "currency",
              "type": "address"
            },
            {
              "internalType": "uint256",
              "name": "amount",
              "type": "uint256"
            },
            {
              "internalType": "uint256",
              "name": "escrowed",
              "type": "uint256"
            },
            {
              "internalType": "address",
              "name": "drawer",
              "type": "address"
            },
            {
              "internalType": "address",
              "name": "recipient",
              "type": "address"
            },
            {
              "internalType": "address",
              "name": "module",
              "type": "address"
            },
            {
              "internalType": "uint256",
              "name": "mintTimestamp",
              "type": "uint256"
            }
          ],
          "internalType": "struct DataTypes.Cheq",
          "name": "cheq",
          "type": "tuple"
        },
        {
          "internalType": "bytes",
          "name": "",
          "type": "bytes"
        }
      ],
      "name": "canFund",
      "outputs": [
        {
          "internalType": "bool",
          "name": "",
          "type": "bool"
        }
      ],
      "stateMutability": "pure",
      "type": "function"
    },
    {
      "inputs": [
        {
          "internalType": "address",
          "name": "caller",
          "type": "address"
        },
        {
          "internalType": "address",
          "name": "owner",
          "type": "address"
        },
        {
          "internalType": "address",
          "name": "",
          "type": "address"
        },
        {
          "internalType": "address",
          "name": "to",
          "type": "address"
        },
        {
          "internalType": "uint256",
          "name": "",
          "type": "uint256"
        },
        {
          "components": [
            {
              "internalType": "address",
              "name": "currency",
              "type": "address"
            },
            {
              "internalType": "uint256",
              "name": "amount",
              "type": "uint256"
            },
            {
              "internalType": "uint256",
              "name": "escrowed",
              "type": "uint256"
            },
            {
              "internalType": "address",
              "name": "drawer",
              "type": "address"
            },
            {
              "internalType": "address",
              "name": "recipient",
              "type": "address"
            },
            {
              "internalType": "address",
              "name": "module",
              "type": "address"
            },
            {
              "internalType": "uint256",
              "name": "mintTimestamp",
              "type": "uint256"
            }
          ],
          "internalType": "struct DataTypes.Cheq",
          "name": "cheq",
          "type": "tuple"
        },
        {
          "internalType": "bytes",
          "name": "",
          "type": "bytes"
        }
      ],
      "name": "canTransfer",
      "outputs": [
        {
          "internalType": "bool",
          "name": "",
          "type": "bool"
        }
      ],
      "stateMutability": "pure",
      "type": "function"
    },
    {
      "inputs": [
        {
          "internalType": "address",
          "name": "caller",
          "type": "address"
        },
        {
          "internalType": "address",
          "name": "owner",
          "type": "address"
        },
        {
          "internalType": "uint256",
          "name": "",
          "type": "uint256"
        },
        {
          "components": [
            {
              "internalType": "address",
              "name": "currency",
              "type": "address"
            },
            {
              "internalType": "uint256",
              "name": "amount",
              "type": "uint256"
            },
            {
              "internalType": "uint256",
              "name": "escrowed",
              "type": "uint256"
            },
            {
              "internalType": "address",
              "name": "drawer",
              "type": "address"
            },
            {
              "internalType": "address",
              "name": "recipient",
              "type": "address"
            },
            {
              "internalType": "address",
              "name": "module",
              "type": "address"
            },
            {
              "internalType": "uint256",
              "name": "mintTimestamp",
              "type": "uint256"
            }
          ],
          "internalType": "struct DataTypes.Cheq",
          "name": "cheq",
          "type": "tuple"
        },
        {
          "internalType": "bytes",
          "name": "",
          "type": "bytes"
        }
      ],
      "name": "canWrite",
      "outputs": [
        {
          "internalType": "bool",
          "name": "",
          "type": "bool"
        }
      ],
      "stateMutability": "pure",
      "type": "function"
    }
  ],
  "bytecode": {
    "object": "0x608060405234801561001057600080fd5b506107ad806100206000396000f3fe608060405234801561001057600080fd5b50600436106100575760003560e01c8063275ecee11461005c5780634405dbb01461008357806353ba2df3146100965780638a114975146100a9578063bd7dbde8146100bc575b600080fd5b61006f61006a36600461042d565b6100cf565b604051901515815260200160405180910390f35b61006f6100913660046104c0565b6100dd565b61006f6100a4366004610542565b610226565b61006f6100b73660046105de565b610283565b61006f6100ca366004610644565b610338565b60015b979650505050505050565b600083602001356000036100f35750600061021c565b61010360a0850160808601610755565b6001600160a01b031661011c6080860160608701610755565b6001600160a01b0316036101325750600061021c565b6101426080850160608601610755565b6001600160a01b0316866001600160a01b031614158015610184575061016e60a0850160808601610755565b6001600160a01b0316866001600160a01b031614155b156101915750600061021c565b6101a16080850160608601610755565b6001600160a01b0316876001600160a01b0316141580156101e357506101cd60a0850160808601610755565b6001600160a01b0316876001600160a01b031614155b156101f05750600061021c565b60408401351580159061020b57508360200135846040013514155b156102185750600061021c565b5060015b9695505050505050565b6000876001600160a01b0316896001600160a01b03161461024957506000610277565b8360400135861461025c57506000610277565b836020013584604001351461027357506000610277565b5060015b98975050505050505050565b6000866001600160a01b0316886001600160a01b0316036102a6575060006100d2565b6040840135156102b8575060006100d2565b836020013586146102cb575060006100d2565b6102db6080850160608601610755565b6001600160a01b0316886001600160a01b03161415801561031d575061030760a0850160808601610755565b6001600160a01b0316886001600160a01b031614155b1561032a575060006100d2565b506001979650505050505050565b6000866001600160a01b0316886001600160a01b0316148015610277575061036660a0840160808501610755565b6001600160a01b0316856001600160a01b0316148061027757506103906080840160608501610755565b6001600160a01b0316856001600160a01b03161498975050505050505050565b80356001600160a01b03811681146103c757600080fd5b919050565b600060e082840312156103de57600080fd5b50919050565b60008083601f8401126103f657600080fd5b50813567ffffffffffffffff81111561040e57600080fd5b60208301915083602082850101111561042657600080fd5b9250929050565b6000806000806000806000610180888a03121561044957600080fd5b610452886103b0565b9650610460602089016103b0565b955061046e604089016103b0565b9450606088013593506104848960808a016103cc565b925061016088013567ffffffffffffffff8111156104a157600080fd5b6104ad8a828b016103e4565b989b979a50959850939692959293505050565b60008060008060008061016087890312156104da57600080fd5b6104e3876103b0565b95506104f1602088016103b0565b94506040870135935061050788606089016103cc565b925061014087013567ffffffffffffffff81111561052457600080fd5b61053089828a016103e4565b979a9699509497509295939492505050565b6000806000806000806000806101a0898b03121561055f57600080fd5b610568896103b0565b975061057660208a016103b0565b965061058460408a016103b0565b955060608901359450608089013593506105a18a60a08b016103cc565b925061018089013567ffffffffffffffff8111156105be57600080fd5b6105ca8b828c016103e4565b999c989b5096995094979396929594505050565b6000806000806000806000610180888a0312156105fa57600080fd5b610603886103b0565b9650610611602089016103b0565b955060408801359450606088013593506104848960808a016103cc565b634e487b7160e01b600052604160045260246000fd5b60008060008060008060006101a0888a03121561066057600080fd5b610669886103b0565b9650610677602089016103b0565b9550610685604089016103b0565b9450610693606089016103b0565b9350608088013592506106a98960a08a016103cc565b915061018088013567ffffffffffffffff808211156106c757600080fd5b818a0191508a601f8301126106db57600080fd5b8135818111156106ed576106ed61062e565b604051601f8201601f19908116603f011681019083821181831017156107155761071561062e565b816040528281528d602084870101111561072e57600080fd5b82602086016020830137600060208483010152809550505050505092959891949750929550565b60006020828403121561076757600080fd5b610770826103b0565b939250505056fea26469706673582212200673ff94c449f86b694d2b29428074467b51d4f8e7ec255138693dcf3429498564736f6c63430008100033",
    "linkReferences": {}
  },
  "methodIdentifiers": {
    "canApprove(address,address,address,uint256,(address,uint256,uint256,address,address,address,uint256),bytes)": "275ecee1",
    "canCash(address,address,address,uint256,uint256,(address,uint256,uint256,address,address,address,uint256),bytes)": "53ba2df3",
    "canFund(address,address,uint256,uint256,(address,uint256,uint256,address,address,address,uint256),bytes)": "8a114975",
    "canTransfer(address,address,address,address,uint256,(address,uint256,uint256,address,address,address,uint256),bytes)": "bd7dbde8",
    "canWrite(address,address,uint256,(address,uint256,uint256,address,address,address,uint256),bytes)": "4405dbb0"
  },
  "id": 49
}