{
  "abi": [
    {
      "inputs": [
        {
          "internalType": "contract CheqRegistrar",
          "name": "_cheq",
          "type": "address"
        }
      ],
      "stateMutability": "nonpayable",
      "type": "constructor"
    },
    {
      "anonymous": false,
      "inputs": [
        {
          "indexed": true,
          "internalType": "address",
          "name": "previousOwner",
          "type": "address"
        },
        {
          "indexed": true,
          "internalType": "address",
          "name": "newOwner",
          "type": "address"
        }
      ],
      "name": "OwnershipTransferred",
      "type": "event"
    },
    {
      "anonymous": false,
      "inputs": [
        {
          "indexed": true,
          "internalType": "uint256",
          "name": "cheqId",
          "type": "uint256"
        }
      ],
      "name": "SelfSignedCheqReleased",
      "type": "event"
    },
    {
      "anonymous": false,
      "inputs": [
        {
          "indexed": true,
          "internalType": "uint256",
          "name": "cheqId",
          "type": "uint256"
        },
        {
          "indexed": false,
          "internalType": "uint256",
          "name": "inspectionPeriod",
          "type": "uint256"
        },
        {
          "indexed": false,
          "internalType": "address",
          "name": "funder",
          "type": "address"
        }
      ],
      "name": "SelfSignedCheqWritten",
      "type": "event"
    },
    {
      "inputs": [
        {
          "internalType": "address",
          "name": "to",
          "type": "address"
        },
        {
          "internalType": "uint256",
          "name": "cheqId",
          "type": "uint256"
        }
      ],
      "name": "approveCheq",
      "outputs": [],
      "stateMutability": "nonpayable",
      "type": "function"
    },
    {
      "inputs": [],
      "name": "baseURI",
      "outputs": [
        {
          "internalType": "string",
          "name": "",
          "type": "string"
        }
      ],
      "stateMutability": "view",
      "type": "function"
    },
    {
      "inputs": [
        {
          "internalType": "uint256",
          "name": "cheqId",
          "type": "uint256"
        }
      ],
      "name": "cashCheq",
      "outputs": [],
      "stateMutability": "nonpayable",
      "type": "function"
    },
    {
      "inputs": [
        {
          "internalType": "uint256",
          "name": "cheqId",
          "type": "uint256"
        },
        {
          "internalType": "uint256",
          "name": "amount",
          "type": "uint256"
        }
      ],
      "name": "cashCheq",
      "outputs": [],
      "stateMutability": "nonpayable",
      "type": "function"
    },
    {
      "inputs": [
        {
          "internalType": "uint256",
          "name": "cheqId",
          "type": "uint256"
        },
        {
          "internalType": "address",
          "name": "caller",
          "type": "address"
        },
        {
          "internalType": "uint256",
          "name": "",
          "type": "uint256"
        }
      ],
      "name": "cashable",
      "outputs": [
        {
          "internalType": "uint256",
          "name": "",
          "type": "uint256"
        }
      ],
      "stateMutability": "view",
      "type": "function"
    },
    {
      "inputs": [],
      "name": "cheq",
      "outputs": [
        {
          "internalType": "contract CheqRegistrar",
          "name": "",
          "type": "address"
        }
      ],
      "stateMutability": "view",
      "type": "function"
    },
    {
      "inputs": [
        {
          "internalType": "uint256",
          "name": "",
          "type": "uint256"
        }
      ],
      "name": "cheqCreated",
      "outputs": [
        {
          "internalType": "uint256",
          "name": "",
          "type": "uint256"
        }
      ],
      "stateMutability": "view",
      "type": "function"
    },
    {
      "inputs": [
        {
          "internalType": "uint256",
          "name": "",
          "type": "uint256"
        }
      ],
      "name": "cheqFunder",
      "outputs": [
        {
          "internalType": "address",
          "name": "",
          "type": "address"
        }
      ],
      "stateMutability": "view",
      "type": "function"
    },
    {
      "inputs": [
        {
          "internalType": "uint256",
          "name": "",
          "type": "uint256"
        }
      ],
      "name": "cheqInspectionPeriod",
      "outputs": [
        {
          "internalType": "uint256",
          "name": "",
          "type": "uint256"
        }
      ],
      "stateMutability": "view",
      "type": "function"
    },
    {
      "inputs": [
        {
          "internalType": "uint256",
          "name": "",
          "type": "uint256"
        }
      ],
      "name": "cheqReceiver",
      "outputs": [
        {
          "internalType": "address",
          "name": "",
          "type": "address"
        }
      ],
      "stateMutability": "view",
      "type": "function"
    },
    {
      "inputs": [
        {
          "internalType": "uint256",
          "name": "cheqId",
          "type": "uint256"
        },
        {
          "internalType": "bool",
          "name": "isReleased",
          "type": "bool"
        }
      ],
      "name": "earlyRelease",
      "outputs": [],
      "stateMutability": "nonpayable",
      "type": "function"
    },
    {
      "inputs": [
        {
          "internalType": "uint256",
          "name": "cheqId",
          "type": "uint256"
        },
        {
          "internalType": "uint256",
          "name": "amount",
          "type": "uint256"
        }
      ],
      "name": "fundCheq",
      "outputs": [],
      "stateMutability": "nonpayable",
      "type": "function"
    },
    {
      "inputs": [
        {
          "internalType": "uint256",
          "name": "cheqId",
          "type": "uint256"
        },
        {
          "internalType": "address",
          "name": "",
          "type": "address"
        },
        {
          "internalType": "uint256",
          "name": "",
          "type": "uint256"
        }
      ],
      "name": "fundable",
      "outputs": [
        {
          "internalType": "uint256",
          "name": "",
          "type": "uint256"
        }
      ],
      "stateMutability": "view",
      "type": "function"
    },
    {
      "inputs": [
        {
          "internalType": "uint256",
          "name": "cheqId",
          "type": "uint256"
        },
        {
          "internalType": "address",
          "name": "caller",
          "type": "address"
        },
        {
          "internalType": "address",
          "name": "",
          "type": "address"
        }
      ],
      "name": "isApprovable",
      "outputs": [
        {
          "internalType": "bool",
          "name": "",
          "type": "bool"
        }
      ],
      "stateMutability": "view",
      "type": "function"
    },
    {
      "inputs": [
        {
          "internalType": "uint256",
          "name": "",
          "type": "uint256"
        }
      ],
      "name": "isEarlyReleased",
      "outputs": [
        {
          "internalType": "bool",
          "name": "",
          "type": "bool"
        }
      ],
      "stateMutability": "view",
      "type": "function"
    },
    {
      "inputs": [
        {
          "internalType": "uint256",
          "name": "cheqId",
          "type": "uint256"
        },
        {
          "internalType": "address",
          "name": "caller",
          "type": "address"
        },
        {
          "internalType": "address",
          "name": "",
          "type": "address"
        }
      ],
      "name": "isTransferable",
      "outputs": [
        {
          "internalType": "bool",
          "name": "",
          "type": "bool"
        }
      ],
      "stateMutability": "view",
      "type": "function"
    },
    {
      "inputs": [
        {
          "internalType": "address",
          "name": "",
          "type": "address"
        },
        {
          "internalType": "contract IERC20",
          "name": "",
          "type": "address"
        },
        {
          "internalType": "uint256",
          "name": "",
          "type": "uint256"
        },
        {
          "internalType": "uint256",
          "name": "",
          "type": "uint256"
        },
        {
          "internalType": "address",
          "name": "",
          "type": "address"
        },
        {
          "internalType": "address",
          "name": "",
          "type": "address"
        }
      ],
      "name": "isWriteable",
      "outputs": [
        {
          "internalType": "bool",
          "name": "",
          "type": "bool"
        }
      ],
      "stateMutability": "pure",
      "type": "function"
    },
    {
      "inputs": [],
      "name": "owner",
      "outputs": [
        {
          "internalType": "address",
          "name": "",
          "type": "address"
        }
      ],
      "stateMutability": "view",
      "type": "function"
    },
    {
      "inputs": [],
      "name": "renounceOwnership",
      "outputs": [],
      "stateMutability": "nonpayable",
      "type": "function"
    },
    {
      "inputs": [
        {
          "internalType": "string",
          "name": "baseURI_",
          "type": "string"
        }
      ],
      "name": "setBaseURI",
      "outputs": [],
      "stateMutability": "nonpayable",
      "type": "function"
    },
    {
      "inputs": [
        {
          "internalType": "uint256",
          "name": "tokenId",
          "type": "uint256"
        }
      ],
      "name": "tokenURI",
      "outputs": [
        {
          "internalType": "string",
          "name": "",
          "type": "string"
        }
      ],
      "stateMutability": "view",
      "type": "function"
    },
    {
      "inputs": [
        {
          "internalType": "contract IERC20",
          "name": "",
          "type": "address"
        }
      ],
      "name": "tokenWhitelist",
      "outputs": [
        {
          "internalType": "bool",
          "name": "",
          "type": "bool"
        }
      ],
      "stateMutability": "view",
      "type": "function"
    },
    {
      "inputs": [
        {
          "internalType": "uint256",
          "name": "cheqId",
          "type": "uint256"
        },
        {
          "internalType": "address",
          "name": "to",
          "type": "address"
        }
      ],
      "name": "transferCheq",
      "outputs": [],
      "stateMutability": "nonpayable",
      "type": "function"
    },
    {
      "inputs": [
        {
          "internalType": "address",
          "name": "newOwner",
          "type": "address"
        }
      ],
      "name": "transferOwnership",
      "outputs": [],
      "stateMutability": "nonpayable",
      "type": "function"
    },
    {
      "inputs": [
        {
          "internalType": "contract IERC20",
          "name": "token",
          "type": "address"
        },
        {
          "internalType": "bool",
          "name": "isAccepted",
          "type": "bool"
        }
      ],
      "name": "whitelistToken",
      "outputs": [],
      "stateMutability": "nonpayable",
      "type": "function"
    },
    {
      "inputs": [
        {
          "internalType": "contract IERC20",
          "name": "_token",
          "type": "address"
        },
        {
          "internalType": "uint256",
          "name": "amount",
          "type": "uint256"
        },
        {
          "internalType": "uint256",
          "name": "escrow",
          "type": "uint256"
        },
        {
          "internalType": "address",
          "name": "recipient",
          "type": "address"
        },
        {
          "internalType": "uint256",
          "name": "inspectionPeriod",
          "type": "uint256"
        }
      ],
      "name": "writeCheq",
      "outputs": [
        {
          "internalType": "uint256",
          "name": "",
          "type": "uint256"
        }
      ],
      "stateMutability": "nonpayable",
      "type": "function"
    }
  ],
  "bytecode": {
    "object": "0x608060405234801561001057600080fd5b5060405162001afb38038062001afb833981016040819052610031916100af565b61003a3361005f565b600180546001600160a01b0319166001600160a01b03929092169190911790556100df565b600080546001600160a01b038381166001600160a01b0319831681178455604051919092169283917f8be0079c531659141344cd1fd0a4f28419497f9722a3daafe3b4186f6b6457e09190a35050565b6000602082840312156100c157600080fd5b81516001600160a01b03811681146100d857600080fd5b9392505050565b611a0c80620000ef6000396000f3fe608060405234801561001057600080fd5b506004361061018e5760003560e01c80638da5cb5b116100de578063d2a840e011610097578063e7dbe88411610071578063e7dbe884146103b1578063f1970263146102fc578063f2fde38b146103da578063f5159cb6146103ed57600080fd5b8063d2a840e01461036b578063d47fa2d81461037e578063dcc1e45a1461039157600080fd5b80638da5cb5b146102eb57806391a6262f146102fc578063966025cf1461030f578063a0a0ea7514610332578063ab43e02f14610345578063c87b56dd1461035857600080fd5b80636c0360eb1161014b578063753d756311610125578063753d75631461028f5780637ba06c11146102b25780637cf8db6a146102c5578063809d6f83146102d857600080fd5b80636c0360eb1461025f578063715018a614610274578063727d96f91461027c57600080fd5b8063049f26a9146101935780630ffb1d8b146101b95780631d3ded5f146101ce57806338e85f00146101e157806354d4310a1461022257806355f804b31461024c575b600080fd5b6101a66101a1366004611426565b61040d565b6040519081526020015b60405180910390f35b6101cc6101c736600461146c565b610502565b005b6101cc6101dc3660046114a5565b610535565b61020a6101ef3660046114ca565b6002602052600090815260409020546001600160a01b031681565b6040516001600160a01b0390911681526020016101b0565b61023c6102303660046114e3565b60019695505050505050565b60405190151581526020016101b0565b6101cc61025a366004611553565b6105ee565b610267610608565b6040516101b091906115c5565b6101cc61069a565b6101cc61028a366004611613565b6106ae565b61023c61029d36600461163f565b60076020526000908152604090205460ff1681565b6101cc6102c036600461165c565b610718565b6101cc6102d336600461167e565b610a93565b60015461020a906001600160a01b031681565b6000546001600160a01b031661020a565b61023c61030a3660046116a3565b610b3e565b61023c61031d3660046114ca565b60066020526000908152604090205460ff1681565b6101a6610340366004611426565b610bc3565b6101cc6103533660046114ca565b610d6c565b6102676103663660046114ca565b610d8a565b6101cc61037936600461165c565b610db6565b6101a661038c3660046116e5565b610e8a565b6101a661039f3660046114ca565b60046020526000908152604090205481565b61020a6103bf3660046114ca565b6003602052600090815260409020546001600160a01b031681565b6101cc6103e836600461163f565b6112ee565b6101a66103fb3660046114ca565b60056020526000908152604090205481565b60015460405163614c626960e11b8152600481018590526000916001600160a01b03169063c298c4d290602401602060405180830381865afa158015610457573d6000803e3d6000fd5b505050506040513d601f19601f8201168201806040525081019061047b9190611737565b6000036104f7576001546040516398e05fcf60e01b8152600481018690526001600160a01b03909116906398e05fcf906024015b602060405180830381865afa1580156104cc573d6000803e3d6000fd5b505050506040513d601f19601f820116820180604052508101906104f09190611737565b90506104fb565b5060005b9392505050565b61050a611367565b6001600160a01b03919091166000908152600760205260409020805460ff1916911515919091179055565b610540823383610b3e565b61057d5760405162461bcd60e51b81526020600482015260096024820152682737ba1037bbb732b960b91b60448201526064015b60405180910390fd5b6001546040516323b872dd60e01b81523360048201526001600160a01b03838116602483015260448201859052909116906323b872dd906064015b600060405180830381600087803b1580156105d257600080fd5b505af11580156105e6573d6000803e3d6000fd5b505050505050565b6105f6611367565b60086106038284836117e6565b505050565b60606008805461061790611766565b80601f016020809104026020016040519081016040528092919081815260200182805461064390611766565b80156106905780601f1061066557610100808354040283529160200191610690565b820191906000526020600020905b81548152906001019060200180831161067357829003601f168201915b5050505050905090565b6106a2611367565b6106ac60006113c1565b565b6106b9813384610b3e565b6106df5760405162461bcd60e51b81526020600482015260006024820152604401610574565b60015460405163095ea7b360e01b81526001600160a01b038481166004830152602482018490529091169063095ea7b3906044016105b8565b600061072583338461040d565b9050600081116107665760405162461bcd60e51b815260206004820152600c60248201526b4e6f742066756e6461626c6560a01b6044820152606401610574565b8181146107ad5760405162461bcd60e51b815260206004820152601560248201527410d85b9d08199d5b99081d1a1a5cc8185b5bdd5b9d605a1b6044820152606401610574565b600154604051630591bdbd60e11b8152600481018590526000916001600160a01b031690630b237b7a90602401602060405180830381865afa1580156107f7573d6000803e3d6000fd5b505050506040513d601f19601f8201168201806040525081019061081b91906118a7565b60015490915083906001600160a01b0316638f601f66336040516001600160e01b031960e084901b1681526001600160a01b0391821660048201529085166024820152604401602060405180830381865afa15801561087e573d6000803e3d6000fd5b505050506040513d601f19601f820116820180604052508101906108a29190611737565b1015610a04576001546000906001600160a01b0316638f601f66336040516001600160e01b031960e084901b1681526001600160a01b0391821660048201529085166024820152604401602060405180830381865afa158015610909573d6000803e3d6000fd5b505050506040513d601f19601f8201168201806040525081019061092d9190611737565b61093790856118da565b6001549091506001600160a01b0316638340f549336040516001600160e01b031960e084901b1681526001600160a01b0391821660048201529085166024820152604481018490526064016020604051808303816000875af11580156109a1573d6000803e3d6000fd5b505050506040513d601f19601f820116820180604052508101906109c591906118f3565b610a025760405162461bcd60e51b815260206004820152600e60248201526d11195c1bdcda5d0819985a5b195960921b6044820152606401610574565b505b6001546001600160a01b03166395d140a185336040516001600160e01b031960e085901b16815260048101929092526001600160a01b0316602482015260448101869052606401600060405180830381600087803b158015610a6557600080fd5b505af1158015610a79573d6000803e3d6000fd5b505050600094855250506004602052505060409020429055565b6000828152600260205260409020546001600160a01b03163314610af95760405162461bcd60e51b815260206004820152601d60248201527f6f6e6c792066756e6465722063616e2072656c65617365206561726c790000006044820152606401610574565b600082815260066020526040808220805460ff19168415151790555183917f2703d9dbd88d1d709cd832d75a22adfcad31420de789dd2a40948b5f8a6d5ff491a25050565b6001546040516331a9108f60e11b8152600481018590526000916001600160a01b0385811692911690636352211e90602401602060405180830381865afa158015610b8d573d6000803e3d6000fd5b505050506040513d601f19601f82011682018060405250810190610bb191906118a7565b6001600160a01b031614949350505050565b6000838152600260205260408120546001600160a01b038481169116148015610c0f5750600084815260056020908152604080832054600490925290912054610c0c9190611910565b42105b15610c455760015460405163614c626960e11b8152600481018690526001600160a01b039091169063c298c4d2906024016104af565b6001546040516331a9108f60e11b8152600481018690526001600160a01b03858116921690636352211e90602401602060405180830381865afa158015610c90573d6000803e3d6000fd5b505050506040513d601f19601f82011682018060405250810190610cb491906118a7565b6001600160a01b0316148015610cee5750600084815260056020908152604080832054600490925290912054610cea9190611910565b4210155b15610d245760015460405163614c626960e11b8152600481018690526001600160a01b039091169063c298c4d2906024016104af565b60008481526006602052604090205460ff16156104f75760015460405163614c626960e11b8152600481018690526001600160a01b039091169063c298c4d2906024016104af565b6000610d7a82336000610bc3565b9050610d868282610db6565b5050565b6060600882604051602001610da0929190611923565b6040516020818303038152906040529050919050565b6000610dc3833384610bc3565b9050818114610e0c5760405162461bcd60e51b815260206004820152601560248201527410d85b9d0818d85cda081d1a1a5cc8185b5bdd5b9d605a1b6044820152606401610574565b6001546001600160a01b031663254388a384336040516001600160e01b031960e085901b16815260048101929092526001600160a01b0316602482015260448101859052606401600060405180830381600087803b158015610e6d57600080fd5b505af1158015610e81573d6000803e3d6000fd5b50505050505050565b6000336001600160a01b03841603610ed65760405162461bcd60e51b815260206004820152600f60248201526e10d85b89dd081cd95b19881cd95b99608a1b6044820152606401610574565b83600003610ff4576001546040516312a7f30360e11b81526000916001600160a01b03169063254fe60690610f1990339088908c908c908c90859060040161199e565b6020604051808303816000875af1158015610f38573d6000803e3d6000fd5b505050506040513d601f19601f82011682018060405250810190610f5c9190611737565b6000818152600460209081526040808320429055600582528083208790556002825280832080546001600160a01b038a166001600160a01b0319918216811790925560038452938290208054909416331790935580518781529182019290925291925082917fbc47ebef61c572234a7810cf373b67fd27c2056c8609df3012a2e8450ea805c091015b60405180910390a290506112e5565b60015484906001600160a01b0316638f601f66336040516001600160e01b031960e084901b1681526001600160a01b039182166004820152908a166024820152604401602060405180830381865afa158015611054573d6000803e3d6000fd5b505050506040513d601f19601f820116820180604052508101906110789190611737565b10156111da576001546000906001600160a01b0316638f601f66336040516001600160e01b031960e084901b1681526001600160a01b039182166004820152908a166024820152604401602060405180830381865afa1580156110df573d6000803e3d6000fd5b505050506040513d601f19601f820116820180604052508101906111039190611737565b61110d90866118da565b6001549091506001600160a01b0316638340f549336040516001600160e01b031960e084901b1681526001600160a01b039182166004820152908a166024820152604481018490526064016020604051808303816000875af1158015611177573d6000803e3d6000fd5b505050506040513d601f19601f8201168201806040525081019061119b91906118f3565b6111d85760405162461bcd60e51b815260206004820152600e60248201526d11195c1bdcda5d0819985a5b195960921b6044820152606401610574565b505b6001546040516312a7f30360e11b81526000916001600160a01b03169063254fe6069061121590339088908c908c908c90849060040161199e565b6020604051808303816000875af1158015611234573d6000803e3d6000fd5b505050506040513d601f19601f820116820180604052508101906112589190611737565b600081815260046020908152604080832042905560058252808320879055600282528083208054336001600160a01b03199182168117909255600384529382902080549094166001600160a01b038a161790935580518781529182019290925291925082917fbc47ebef61c572234a7810cf373b67fd27c2056c8609df3012a2e8450ea805c09101610fe5565b95945050505050565b6112f6611367565b6001600160a01b03811661135b5760405162461bcd60e51b815260206004820152602660248201527f4f776e61626c653a206e6577206f776e657220697320746865207a65726f206160448201526564647265737360d01b6064820152608401610574565b611364816113c1565b50565b6000546001600160a01b031633146106ac5760405162461bcd60e51b815260206004820181905260248201527f4f776e61626c653a2063616c6c6572206973206e6f7420746865206f776e65726044820152606401610574565b600080546001600160a01b038381166001600160a01b0319831681178455604051919092169283917f8be0079c531659141344cd1fd0a4f28419497f9722a3daafe3b4186f6b6457e09190a35050565b6001600160a01b038116811461136457600080fd5b60008060006060848603121561143b57600080fd5b83359250602084013561144d81611411565b929592945050506040919091013590565b801515811461136457600080fd5b6000806040838503121561147f57600080fd5b823561148a81611411565b9150602083013561149a8161145e565b809150509250929050565b600080604083850312156114b857600080fd5b82359150602083013561149a81611411565b6000602082840312156114dc57600080fd5b5035919050565b60008060008060008060c087890312156114fc57600080fd5b863561150781611411565b9550602087013561151781611411565b94506040870135935060608701359250608087013561153581611411565b915060a087013561154581611411565b809150509295509295509295565b6000806020838503121561156657600080fd5b823567ffffffffffffffff8082111561157e57600080fd5b818501915085601f83011261159257600080fd5b8135818111156115a157600080fd5b8660208285010111156115b357600080fd5b60209290920196919550909350505050565b600060208083528351808285015260005b818110156115f2578581018301518582016040015282016115d6565b506000604082860101526040601f19601f8301168501019250505092915050565b6000806040838503121561162657600080fd5b823561163181611411565b946020939093013593505050565b60006020828403121561165157600080fd5b81356104fb81611411565b6000806040838503121561166f57600080fd5b50508035926020909101359150565b6000806040838503121561169157600080fd5b82359150602083013561149a8161145e565b6000806000606084860312156116b857600080fd5b8335925060208401356116ca81611411565b915060408401356116da81611411565b809150509250925092565b600080600080600060a086880312156116fd57600080fd5b853561170881611411565b94506020860135935060408601359250606086013561172681611411565b949793965091946080013592915050565b60006020828403121561174957600080fd5b5051919050565b634e487b7160e01b600052604160045260246000fd5b600181811c9082168061177a57607f821691505b60208210810361179a57634e487b7160e01b600052602260045260246000fd5b50919050565b601f82111561060357600081815260208120601f850160051c810160208610156117c75750805b601f850160051c820191505b818110156105e6578281556001016117d3565b67ffffffffffffffff8311156117fe576117fe611750565b6118128361180c8354611766565b836117a0565b6000601f841160018114611846576000851561182e5750838201355b600019600387901b1c1916600186901b1783556118a0565b600083815260209020601f19861690835b828110156118775786850135825560209485019460019092019101611857565b50868210156118945760001960f88860031b161c19848701351681555b505060018560011b0183555b5050505050565b6000602082840312156118b957600080fd5b81516104fb81611411565b634e487b7160e01b600052601160045260246000fd5b818103818111156118ed576118ed6118c4565b92915050565b60006020828403121561190557600080fd5b81516104fb8161145e565b808201808211156118ed576118ed6118c4565b600080845461193181611766565b60018281168015611949576001811461195e5761198d565b60ff198416875282151583028701945061198d565b8860005260208060002060005b858110156119845781548a82015290840190820161196b565b50505082870194505b505050938152602001949350505050565b6001600160a01b039687168152948616602086015292851660408501526060840191909152608083015290911660a082015260c0019056fea2646970667358221220c893c5cb49ac37253c76acf063aca32b7cc5babc92170d29c908bcf92c0b04fc64736f6c63430008100033",
    "linkReferences": {}
  },
  "methodIdentifiers": {
    "approveCheq(address,uint256)": "727d96f9",
    "baseURI()": "6c0360eb",
    "cashCheq(uint256)": "ab43e02f",
    "cashCheq(uint256,uint256)": "d2a840e0",
    "cashable(uint256,address,uint256)": "a0a0ea75",
    "cheq()": "809d6f83",
    "cheqCreated(uint256)": "dcc1e45a",
    "cheqFunder(uint256)": "38e85f00",
    "cheqInspectionPeriod(uint256)": "f5159cb6",
    "cheqReceiver(uint256)": "e7dbe884",
    "earlyRelease(uint256,bool)": "7cf8db6a",
    "fundCheq(uint256,uint256)": "7ba06c11",
    "fundable(uint256,address,uint256)": "049f26a9",
    "isApprovable(uint256,address,address)": "f1970263",
    "isEarlyReleased(uint256)": "966025cf",
    "isTransferable(uint256,address,address)": "91a6262f",
    "isWriteable(address,address,uint256,uint256,address,address)": "54d4310a",
    "owner()": "8da5cb5b",
    "renounceOwnership()": "715018a6",
    "setBaseURI(string)": "55f804b3",
    "tokenURI(uint256)": "c87b56dd",
    "tokenWhitelist(address)": "753d7563",
    "transferCheq(uint256,address)": "1d3ded5f",
    "transferOwnership(address)": "f2fde38b",
    "whitelistToken(address,bool)": "0ffb1d8b",
    "writeCheq(address,uint256,uint256,address,uint256)": "d47fa2d8"
  },
  "id": 23
}