{
  "abi": [
    {
      "inputs": [
        {
          "internalType": "address",
          "name": "registrar",
          "type": "address"
        },
        {
          "internalType": "address",
          "name": "_writeRule",
          "type": "address"
        },
        {
          "internalType": "address",
          "name": "_transferRule",
          "type": "address"
        },
        {
          "internalType": "address",
          "name": "_fundRule",
          "type": "address"
        },
        {
          "internalType": "address",
          "name": "_cashRule",
          "type": "address"
        },
        {
          "internalType": "address",
          "name": "_approveRule",
          "type": "address"
        },
        {
          "components": [
            {
              "internalType": "uint256",
              "name": "writeBPS",
              "type": "uint256"
            },
            {
              "internalType": "uint256",
              "name": "transferBPS",
              "type": "uint256"
            },
            {
              "internalType": "uint256",
              "name": "fundBPS",
              "type": "uint256"
            },
            {
              "internalType": "uint256",
              "name": "cashBPS",
              "type": "uint256"
            }
          ],
          "internalType": "struct DataTypes.WTFCFees",
          "name": "_fees",
          "type": "tuple"
        },
        {
          "internalType": "string",
          "name": "__baseURI",
          "type": "string"
        }
      ],
      "stateMutability": "nonpayable",
      "type": "constructor"
    },
    {
      "inputs": [],
      "name": "InitParamsInvalid",
      "type": "error"
    },
    {
      "inputs": [],
      "name": "NotRegistrar",
      "type": "error"
    },
    {
      "anonymous": false,
      "inputs": [
        {
          "indexed": true,
          "internalType": "uint256",
          "name": "cheqId",
          "type": "uint256"
        },
        {
          "indexed": false,
          "internalType": "bytes32",
          "name": "memoHash",
          "type": "bytes32"
        }
      ],
      "name": "MemoWritten",
      "type": "event"
    },
    {
      "anonymous": false,
      "inputs": [
        {
          "indexed": true,
          "internalType": "address",
          "name": "previousOwner",
          "type": "address"
        },
        {
          "indexed": true,
          "internalType": "address",
          "name": "newOwner",
          "type": "address"
        }
      ],
      "name": "OwnershipTransferred",
      "type": "event"
    },
    {
      "inputs": [],
      "name": "REGISTRAR",
      "outputs": [
        {
          "internalType": "address",
          "name": "",
          "type": "address"
        }
      ],
      "stateMutability": "view",
      "type": "function"
    },
    {
      "inputs": [],
      "name": "_URI",
      "outputs": [
        {
          "internalType": "string",
          "name": "",
          "type": "string"
        }
      ],
      "stateMutability": "view",
      "type": "function"
    },
    {
      "inputs": [],
      "name": "approveRule",
      "outputs": [
        {
          "internalType": "address",
          "name": "",
          "type": "address"
        }
      ],
      "stateMutability": "view",
      "type": "function"
    },
    {
      "inputs": [],
      "name": "cashRule",
      "outputs": [
        {
          "internalType": "address",
          "name": "",
          "type": "address"
        }
      ],
      "stateMutability": "view",
      "type": "function"
    },
    {
      "inputs": [],
      "name": "fees",
      "outputs": [
        {
          "internalType": "uint256",
          "name": "writeBPS",
          "type": "uint256"
        },
        {
          "internalType": "uint256",
          "name": "transferBPS",
          "type": "uint256"
        },
        {
          "internalType": "uint256",
          "name": "fundBPS",
          "type": "uint256"
        },
        {
          "internalType": "uint256",
          "name": "cashBPS",
          "type": "uint256"
        }
      ],
      "stateMutability": "view",
      "type": "function"
    },
    {
      "inputs": [],
      "name": "fundRule",
      "outputs": [
        {
          "internalType": "address",
          "name": "",
          "type": "address"
        }
      ],
      "stateMutability": "view",
      "type": "function"
    },
    {
      "inputs": [],
      "name": "getFees",
      "outputs": [
        {
          "internalType": "uint256",
          "name": "",
          "type": "uint256"
        },
        {
          "internalType": "uint256",
          "name": "",
          "type": "uint256"
        },
        {
          "internalType": "uint256",
          "name": "",
          "type": "uint256"
        },
        {
          "internalType": "uint256",
          "name": "",
          "type": "uint256"
        }
      ],
      "stateMutability": "view",
      "type": "function"
    },
    {
      "inputs": [
        {
          "internalType": "uint256",
          "name": "cheqId",
          "type": "uint256"
        }
      ],
      "name": "getMilestones",
      "outputs": [
        {
          "components": [
            {
              "internalType": "uint256",
              "name": "price",
              "type": "uint256"
            },
            {
              "internalType": "bool",
              "name": "workerFinished",
              "type": "bool"
            },
            {
              "internalType": "bool",
              "name": "clientReleased",
              "type": "bool"
            },
            {
              "internalType": "bool",
              "name": "workerCashed",
              "type": "bool"
            }
          ],
          "internalType": "struct Marketplace.Milestone[]",
          "name": "",
          "type": "tuple[]"
        }
      ],
      "stateMutability": "view",
      "type": "function"
    },
    {
      "inputs": [
        {
          "internalType": "uint256",
          "name": "",
          "type": "uint256"
        }
      ],
      "name": "invoices",
      "outputs": [
        {
          "internalType": "uint256",
          "name": "startTime",
          "type": "uint256"
        },
        {
          "internalType": "uint256",
          "name": "currentMilestone",
          "type": "uint256"
        },
        {
          "internalType": "uint256",
          "name": "totalMilestones",
          "type": "uint256"
        },
        {
          "internalType": "enum Marketplace.Status",
          "name": "workerStatus",
          "type": "uint8"
        },
        {
          "internalType": "enum Marketplace.Status",
          "name": "clientStatus",
          "type": "uint8"
        },
        {
          "internalType": "bytes32",
          "name": "documentHash",
          "type": "bytes32"
        }
      ],
      "stateMutability": "view",
      "type": "function"
    },
    {
      "inputs": [
        {
          "internalType": "uint256",
          "name": "",
          "type": "uint256"
        }
      ],
      "name": "memo",
      "outputs": [
        {
          "internalType": "bytes32",
          "name": "",
          "type": "bytes32"
        }
      ],
      "stateMutability": "view",
      "type": "function"
    },
    {
      "inputs": [
        {
          "internalType": "uint256",
          "name": "",
          "type": "uint256"
        },
        {
          "internalType": "uint256",
          "name": "",
          "type": "uint256"
        }
      ],
      "name": "milestones",
      "outputs": [
        {
          "internalType": "uint256",
          "name": "price",
          "type": "uint256"
        },
        {
          "internalType": "bool",
          "name": "workerFinished",
          "type": "bool"
        },
        {
          "internalType": "bool",
          "name": "clientReleased",
          "type": "bool"
        },
        {
          "internalType": "bool",
          "name": "workerCashed",
          "type": "bool"
        }
      ],
      "stateMutability": "view",
      "type": "function"
    },
    {
      "inputs": [],
      "name": "owner",
      "outputs": [
        {
          "internalType": "address",
          "name": "",
          "type": "address"
        }
      ],
      "stateMutability": "view",
      "type": "function"
    },
    {
      "inputs": [
        {
          "internalType": "address",
          "name": "caller",
          "type": "address"
        },
        {
          "internalType": "address",
          "name": "owner",
          "type": "address"
        },
        {
          "internalType": "address",
          "name": "to",
          "type": "address"
        },
        {
          "internalType": "uint256",
          "name": "cheqId",
          "type": "uint256"
        },
        {
          "components": [
            {
              "internalType": "address",
              "name": "currency",
              "type": "address"
            },
            {
              "internalType": "uint256",
              "name": "amount",
              "type": "uint256"
            },
            {
              "internalType": "uint256",
              "name": "escrowed",
              "type": "uint256"
            },
            {
              "internalType": "address",
              "name": "drawer",
              "type": "address"
            },
            {
              "internalType": "address",
              "name": "recipient",
              "type": "address"
            },
            {
              "internalType": "address",
              "name": "module",
              "type": "address"
            },
            {
              "internalType": "uint256",
              "name": "mintTimestamp",
              "type": "uint256"
            }
          ],
          "internalType": "struct DataTypes.Cheq",
          "name": "cheq",
          "type": "tuple"
        },
        {
          "internalType": "bytes",
          "name": "initData",
          "type": "bytes"
        }
      ],
      "name": "processApproval",
      "outputs": [],
      "stateMutability": "nonpayable",
      "type": "function"
    },
    {
      "inputs": [
        {
          "internalType": "address",
          "name": "caller",
          "type": "address"
        },
        {
          "internalType": "address",
          "name": "owner",
          "type": "address"
        },
        {
          "internalType": "address",
          "name": "to",
          "type": "address"
        },
        {
          "internalType": "uint256",
          "name": "amount",
          "type": "uint256"
        },
        {
          "internalType": "uint256",
          "name": "cheqId",
          "type": "uint256"
        },
        {
          "components": [
            {
              "internalType": "address",
              "name": "currency",
              "type": "address"
            },
            {
              "internalType": "uint256",
              "name": "amount",
              "type": "uint256"
            },
            {
              "internalType": "uint256",
              "name": "escrowed",
              "type": "uint256"
            },
            {
              "internalType": "address",
              "name": "drawer",
              "type": "address"
            },
            {
              "internalType": "address",
              "name": "recipient",
              "type": "address"
            },
            {
              "internalType": "address",
              "name": "module",
              "type": "address"
            },
            {
              "internalType": "uint256",
              "name": "mintTimestamp",
              "type": "uint256"
            }
          ],
          "internalType": "struct DataTypes.Cheq",
          "name": "cheq",
          "type": "tuple"
        },
        {
          "internalType": "bytes",
          "name": "initData",
          "type": "bytes"
        }
      ],
      "name": "processCash",
      "outputs": [
        {
          "internalType": "uint256",
          "name": "",
          "type": "uint256"
        }
      ],
      "stateMutability": "nonpayable",
      "type": "function"
    },
    {
      "inputs": [
        {
          "internalType": "address",
          "name": "caller",
          "type": "address"
        },
        {
          "internalType": "address",
          "name": "owner",
          "type": "address"
        },
        {
          "internalType": "uint256",
          "name": "amount",
          "type": "uint256"
        },
        {
          "internalType": "uint256",
          "name": "directAmount",
          "type": "uint256"
        },
        {
          "internalType": "uint256",
          "name": "cheqId",
          "type": "uint256"
        },
        {
          "components": [
            {
              "internalType": "address",
              "name": "currency",
              "type": "address"
            },
            {
              "internalType": "uint256",
              "name": "amount",
              "type": "uint256"
            },
            {
              "internalType": "uint256",
              "name": "escrowed",
              "type": "uint256"
            },
            {
              "internalType": "address",
              "name": "drawer",
              "type": "address"
            },
            {
              "internalType": "address",
              "name": "recipient",
              "type": "address"
            },
            {
              "internalType": "address",
              "name": "module",
              "type": "address"
            },
            {
              "internalType": "uint256",
              "name": "mintTimestamp",
              "type": "uint256"
            }
          ],
          "internalType": "struct DataTypes.Cheq",
          "name": "cheq",
          "type": "tuple"
        },
        {
          "internalType": "bytes",
          "name": "initData",
          "type": "bytes"
        }
      ],
      "name": "processFund",
      "outputs": [
        {
          "internalType": "uint256",
          "name": "",
          "type": "uint256"
        }
      ],
      "stateMutability": "nonpayable",
      "type": "function"
    },
    {
      "inputs": [
        {
          "internalType": "uint256",
          "name": "tokenId",
          "type": "uint256"
        }
      ],
      "name": "processTokenURI",
      "outputs": [
        {
          "internalType": "string",
          "name": "",
          "type": "string"
        }
      ],
      "stateMutability": "view",
      "type": "function"
    },
    {
      "inputs": [
        {
          "internalType": "address",
          "name": "caller",
          "type": "address"
        },
        {
          "internalType": "bool",
          "name": "isApproved",
          "type": "bool"
        },
        {
          "internalType": "address",
          "name": "owner",
          "type": "address"
        },
        {
          "internalType": "address",
          "name": "from",
          "type": "address"
        },
        {
          "internalType": "address",
          "name": "to",
          "type": "address"
        },
        {
          "internalType": "uint256",
          "name": "cheqId",
          "type": "uint256"
        },
        {
          "components": [
            {
              "internalType": "address",
              "name": "currency",
              "type": "address"
            },
            {
              "internalType": "uint256",
              "name": "amount",
              "type": "uint256"
            },
            {
              "internalType": "uint256",
              "name": "escrowed",
              "type": "uint256"
            },
            {
              "internalType": "address",
              "name": "drawer",
              "type": "address"
            },
            {
              "internalType": "address",
              "name": "recipient",
              "type": "address"
            },
            {
              "internalType": "address",
              "name": "module",
              "type": "address"
            },
            {
              "internalType": "uint256",
              "name": "mintTimestamp",
              "type": "uint256"
            }
          ],
          "internalType": "struct DataTypes.Cheq",
          "name": "cheq",
          "type": "tuple"
        },
        {
          "internalType": "bytes",
          "name": "initData",
          "type": "bytes"
        }
      ],
      "name": "processTransfer",
      "outputs": [
        {
          "internalType": "uint256",
          "name": "",
          "type": "uint256"
        }
      ],
      "stateMutability": "nonpayable",
      "type": "function"
    },
    {
      "inputs": [
        {
          "internalType": "address",
          "name": "caller",
          "type": "address"
        },
        {
          "internalType": "address",
          "name": "owner",
          "type": "address"
        },
        {
          "internalType": "uint256",
          "name": "cheqId",
          "type": "uint256"
        },
        {
          "components": [
            {
              "internalType": "address",
              "name": "currency",
              "type": "address"
            },
            {
              "internalType": "uint256",
              "name": "amount",
              "type": "uint256"
            },
            {
              "internalType": "uint256",
              "name": "escrowed",
              "type": "uint256"
            },
            {
              "internalType": "address",
              "name": "drawer",
              "type": "address"
            },
            {
              "internalType": "address",
              "name": "recipient",
              "type": "address"
            },
            {
              "internalType": "address",
              "name": "module",
              "type": "address"
            },
            {
              "internalType": "uint256",
              "name": "mintTimestamp",
              "type": "uint256"
            }
          ],
          "internalType": "struct DataTypes.Cheq",
          "name": "cheq",
          "type": "tuple"
        },
        {
          "internalType": "uint256",
          "name": "directAmount",
          "type": "uint256"
        },
        {
          "internalType": "bytes",
          "name": "initData",
          "type": "bytes"
        }
      ],
      "name": "processWrite",
      "outputs": [
        {
          "internalType": "uint256",
          "name": "",
          "type": "uint256"
        }
      ],
      "stateMutability": "nonpayable",
      "type": "function"
    },
    {
      "inputs": [],
      "name": "renounceOwnership",
      "outputs": [],
      "stateMutability": "nonpayable",
      "type": "function"
    },
    {
      "inputs": [
        {
          "internalType": "string",
          "name": "__baseURI",
          "type": "string"
        }
      ],
      "name": "setBaseURI",
      "outputs": [],
      "stateMutability": "nonpayable",
      "type": "function"
    },
    {
      "inputs": [
        {
          "internalType": "uint256",
          "name": "cheqId",
          "type": "uint256"
        },
        {
          "internalType": "enum Marketplace.Status",
          "name": "newStatus",
          "type": "uint8"
        }
      ],
      "name": "setStatus",
      "outputs": [],
      "stateMutability": "nonpayable",
      "type": "function"
    },
    {
      "inputs": [
        {
          "internalType": "address",
          "name": "",
          "type": "address"
        }
      ],
      "name": "tokenWhitelist",
      "outputs": [
        {
          "internalType": "bool",
          "name": "",
          "type": "bool"
        }
      ],
      "stateMutability": "view",
      "type": "function"
    },
    {
      "inputs": [
        {
          "internalType": "address",
          "name": "newOwner",
          "type": "address"
        }
      ],
      "name": "transferOwnership",
      "outputs": [],
      "stateMutability": "nonpayable",
      "type": "function"
    },
    {
      "inputs": [],
      "name": "transferRule",
      "outputs": [
        {
          "internalType": "address",
          "name": "",
          "type": "address"
        }
      ],
      "stateMutability": "view",
      "type": "function"
    },
    {
      "inputs": [
        {
          "internalType": "address",
          "name": "token",
          "type": "address"
        },
        {
          "internalType": "bool",
          "name": "whitelist",
          "type": "bool"
        }
      ],
      "name": "whitelistToken",
      "outputs": [],
      "stateMutability": "nonpayable",
      "type": "function"
    },
    {
      "inputs": [
        {
          "internalType": "address",
          "name": "token",
          "type": "address"
        }
      ],
      "name": "withdrawFees",
      "outputs": [],
      "stateMutability": "nonpayable",
      "type": "function"
    },
    {
      "inputs": [],
      "name": "writeRule",
      "outputs": [
        {
          "internalType": "address",
          "name": "",
          "type": "address"
        }
      ],
      "stateMutability": "view",
      "type": "function"
    }
  ],
  "bytecode": {
    "object": "0x60a06040523480156200001157600080fd5b5060405162002989380380620029898339810160408190526200003491620004ae565b878787878787876001600160a01b03871662000063576040516348be0eb360e01b815260040160405180910390fd5b6001600160a01b038781166080819052604051631fa5b09760e11b81528883166004820152878316602482015286831660448201528583166064820152918416608483015290633f4b612e9060a401602060405180830381865afa158015620000d0573d6000803e3d6000fd5b505050506040513d601f19601f82011682018060405250810190620000f69190620005ab565b620001385760405162461bcd60e51b815260206004820152600d60248201526c1495531154d7d2539590531251609a1b60448201526064015b60405180910390fd5b600380546001600160a01b03199081166001600160a01b038981169190911790925560048054821688841617905560058054821687841617905560068054821686841617905560078054909116918416919091179055805161271011620001d15760405162461bcd60e51b815260206004820152601460248201526000805160206200296983398151915260448201526064016200012f565b612710816020015110620002175760405162461bcd60e51b815260206004820152601460248201526000805160206200296983398151915260448201526064016200012f565b6127108160400151106200025d5760405162461bcd60e51b815260206004820152601460248201526000805160206200296983398151915260448201526064016200012f565b612710816060015110620002a35760405162461bcd60e51b815260206004820152601460248201526000805160206200296983398151915260448201526064016200012f565b8051600855602080820151600955604080830151600a556060830151600b55514281526001600160a01b038916917ff1a1fa6b64aa95186f5a1285e76198d0da80d9c5a88062641d447f1d7c54e56c910160405180910390a2505050505050506200031d620003176200033a60201b60201c565b6200033e565b60006200032b828262000665565b50505050505050505062000731565b3390565b600c80546001600160a01b038381166001600160a01b0319831681179093556040519116919082907f8be0079c531659141344cd1fd0a4f28419497f9722a3daafe3b4186f6b6457e090600090a35050565b80516001600160a01b0381168114620003a857600080fd5b919050565b634e487b7160e01b600052604160045260246000fd5b604051608081016001600160401b0381118282101715620003e857620003e8620003ad565b60405290565b604051601f8201601f191681016001600160401b0381118282101715620004195762000419620003ad565b604052919050565b600082601f8301126200043357600080fd5b81516001600160401b038111156200044f576200044f620003ad565b602062000465601f8301601f19168201620003ee565b82815285828487010111156200047a57600080fd5b60005b838110156200049a5785810183015182820184015282016200047d565b506000928101909101919091529392505050565b600080600080600080600080888a03610160811215620004cd57600080fd5b620004d88a62000390565b9850620004e860208b0162000390565b9750620004f860408b0162000390565b96506200050860608b0162000390565b95506200051860808b0162000390565b94506200052860a08b0162000390565b9350608060bf19820112156200053d57600080fd5b5062000548620003c3565b60c08a0151815260e08a015160208201526101008a015160408201526101208a015160608201526101408a01519092506001600160401b038111156200058d57600080fd5b6200059b8b828c0162000421565b9150509295985092959890939650565b600060208284031215620005be57600080fd5b81518015158114620005cf57600080fd5b9392505050565b600181811c90821680620005eb57607f821691505b6020821081036200060c57634e487b7160e01b600052602260045260246000fd5b50919050565b601f8211156200066057600081815260208120601f850160051c810160208610156200063b5750805b601f850160051c820191505b818110156200065c5782815560010162000647565b5050505b505050565b81516001600160401b03811115620006815762000681620003ad565b6200069981620006928454620005d6565b8462000612565b602080601f831160018114620006d15760008415620006b85750858301515b600019600386901b1c1916600185901b1785556200065c565b600085815260208120601f198616915b828110156200070257888601518255948401946001909101908401620006e1565b5085821015620007215787850151600019600388901b60f8161c191681555b5050505050600190811b01905550565b6080516121e462000785600039600081816103f9015281816105800152818161067a015281816109c001528181610a9601528181610b5501528181610d7801528181610fef015261121f01526121e46000f3fe608060405234801561001057600080fd5b50600436106101a95760003560e01c80638da5cb5b116100f9578063d647e1e511610097578063df1cdb4611610071578063df1cdb4614610465578063f09b3d9a14610478578063f2fde38b1461048b578063f3ea001e1461049e57600080fd5b8063d647e1e51461042e578063d896dd6414610441578063db8d55f11461045457600080fd5b8063a0663d1b116100d3578063a0663d1b146103d9578063b4e87e8f146103ec578063cb609077146103f4578063d4c301da1461041b57600080fd5b80638da5cb5b1461037257806396eb58f8146103835780639af1d35a146103a357600080fd5b8063433d3a771161016657806355f804b31161014057806355f804b314610311578063715018a614610324578063753d75631461032c578063843143471461035f57600080fd5b8063433d3a77146102825780634e6d1405146102955780634fe17e1a146102f157600080fd5b80630d02cde7146101ae5780630ffb1d8b146101de578063164e68de146101f35780631c376c63146102065780634238a63a1461024157806342c549c014610262575b600080fd5b6004546101c1906001600160a01b031681565b6040516001600160a01b0390911681526020015b60405180910390f35b6101f16101ec36600461161e565b6104b1565b005b6101f1610201366004611653565b6104e4565b610219610214366004611677565b61061d565b60408051948552921515602085015290151591830191909152151560608201526080016101d5565b61025461024f3660046116fa565b61066d565b6040519081526020016101d5565b61027561027036600461178b565b61090d565b6040516101d591906117a4565b6007546101c1906001600160a01b031681565b6102df6102a336600461178b565b600d602052600090815260409020805460018201546002830154600384015460049094015492939192909160ff80821692610100909204169086565b6040516101d596959493929190611846565b6103046102ff36600461178b565b6109b3565b6040516101d591906118d6565b6101f161031f3660046118e9565b610a5d565b6101f1610a77565b61034f61033a366004611653565b600f6020526000908152604090205460ff1681565b60405190151581526020016101d5565b6101f161036d3660046119e2565b610a8b565b600c546001600160a01b03166101c1565b61025461039136600461178b565b60016020526000908152604090205481565b600854600954600a54600b546103b99392919084565b6040805194855260208501939093529183015260608201526080016101d5565b6102546103e7366004611a73565b610b48565b610304610cdd565b6101c17f000000000000000000000000000000000000000000000000000000000000000081565b6005546101c1906001600160a01b031681565b61025461043c366004611b15565b610d6b565b6101f161044f366004611b71565b610fc6565b600854600954600a54600b546103b9565b6003546101c1906001600160a01b031681565b610254610486366004611ba5565b611212565b6101f1610499366004611653565b6112dc565b6006546101c1906001600160a01b031681565b6104b9611355565b6001600160a01b03919091166000908152600f60205260409020805460ff1916911515919091179055565b3360009081526002602090815260408083206001600160a01b0385168452909152902054600181116105545760405162461bcd60e51b8152602060048201526014602482015273496e73756666696369656e7420726576656e756560601b60448201526064015b60405180910390fd5b3360009081526002602090815260408083206001600160a01b03868116855292529091206001908190557f00000000000000000000000000000000000000000000000000000000000000009091169063d6a4f84c9084906105b59085611c70565b6040516001600160e01b031960e085901b1681526001600160a01b0390921660048301526024820152336044820152606401600060405180830381600087803b15801561060157600080fd5b505af1158015610615573d6000803e3d6000fd5b505050505050565b600e602052816000526040600020818154811061063957600080fd5b60009182526020909120600290910201805460019091015490925060ff808216925061010082048116916201000090041684565b6000336001600160a01b037f000000000000000000000000000000000000000000000000000000000000000016146106b857604051632ad9535160e01b815260040160405180910390fd5b600f60006106c96020880188611653565b6001600160a01b0316815260208101919091526040016000205460ff166107325760405162461bcd60e51b815260206004820152601d60248201527f4d6f64756c653a20546f6b656e206e6f742077686974656c6973746564000000604482015260640161054b565b600354604051638893ae9d60e01b81526001600160a01b0390911690638893ae9d9061076e908b908b908b908b908b908b908b90600401611d2c565b600060405180830381600087803b15801561078857600080fd5b505af115801561079c573d6000803e3d6000fd5b5050505060008084848101906107b29190611d82565b80519193509150600181116108095760405162461bcd60e51b815260206004820152601f60248201527f4d6f64756c653a20496e73756666696369656e74206d696c6573746f6e657300604482015260640161054b565b60005b818110156108df57600e60008b8152602001908152602001600020604051806080016040528085848151811061084457610844611e34565b602090810291909101810151825260008282018190526040808401829052606093840182905285546001818101885596835291839020855160029093020191825591840151940180549184015193909201511515620100000262ff0000199315156101000261ff00199515159590951661ffff19909216919091179390931791909116919091179055806108d781611e4a565b91505061080c565b506000988952600d602052604090982060048101929092555060020195909555505060085495945050505050565b6060600e6000838152602001908152602001600020805480602002602001604051908101604052809291908181526020016000905b828210156109a857600084815260209081902060408051608081018252600286029092018054835260019081015460ff80821615158587015261010082048116151593850193909352620100009004909116151560608301529083529092019101610942565b505050509050919050565b6060336001600160a01b037f000000000000000000000000000000000000000000000000000000000000000016146109fe57604051632ad9535160e01b815260040160405180910390fd5b6000610a086113af565b90506000815111610a285760405180602001604052806000815250610a54565b6000610a3384611441565b604051602001610a44929190611e97565b6040516020818303038152906040525b9150505b919050565b610a65611355565b6000610a72828483611f64565b505050565b610a7f611355565b610a8960006115a7565b565b336001600160a01b037f00000000000000000000000000000000000000000000000000000000000000001614610ad457604051632ad9535160e01b815260040160405180910390fd5b60075460405163275ecee160e01b81526001600160a01b039091169063275ecee190610b0e90899089908990899089908990600401612025565b600060405180830381600087803b158015610b2857600080fd5b505af1158015610b3c573d6000803e3d6000fd5b50505050505050505050565b6000336001600160a01b037f00000000000000000000000000000000000000000000000000000000000000001614610b9357604051632ad9535160e01b815260040160405180910390fd5b6006546040516353ba2df360e01b81526001600160a01b03909116906353ba2df390610bd1908c908c908c908c908c908c908c908c9060040161207a565b600060405180830381600087803b158015610beb57600080fd5b505af1158015610bff573d6000803e3d6000fd5b5050506000868152600d602052604090206001015415159050610c5d5760405162461bcd60e51b8152602060048201526016602482015275135bd91d5b194e8810d85b89dd0818d85cda081e595d60521b604482015260640161054b565b6000858152600d60205260408120600190810154610c7b9190611c70565b6000878152600e60205260409020805491925060019183908110610ca157610ca1611e34565b600091825260209091206001600290920201018054911515620100000262ff0000199092169190911790555050600b5498975050505050505050565b60008054610cea90611e63565b80601f0160208091040260200160405190810160405280929190818152602001828054610d1690611e63565b8015610d635780601f10610d3857610100808354040283529160200191610d63565b820191906000526020600020905b815481529060010190602001808311610d4657829003601f168201915b505050505081565b6000336001600160a01b037f00000000000000000000000000000000000000000000000000000000000000001614610db657604051632ad9535160e01b815260040160405180910390fd5b6005546040516329cc185f60e21b81526001600160a01b039091169063a730617c90610df4908c908c908c908c908c908c908c908c906004016120d9565b600060405180830381600087803b158015610e0e57600080fd5b505af1158015610e22573d6000803e3d6000fd5b5050506000868152600d602052604081205490039050610e4e576000858152600d602052604090204290555b6000858152600d6020908152604080832060038101805461ff00191661010017905560010154600e909252909120805482908110610e8e57610e8e611e34565b9060005260206000209060020201600001548814610ef95760405162461bcd60e51b815260206004820152602260248201527f4d6f64756c653a20496e636f7272656374206d696c6573746f6e6520616d6f756044820152611b9d60f21b606482015260840161054b565b6000868152600e6020526040902080546001919083908110610f1d57610f1d611e34565b6000918252602080832060016002909302018201805494151560ff1990951694909417909355888252600e90925260409020805483908110610f6157610f61611e34565b906000526020600020906002020160010160016101000a81548160ff0219169083151502179055506001600d60008881526020019081526020016000206001016000828254610fb09190612114565b9091555050600a549a9950505050505050505050565b6000828152600d60205260408082209051631a3a481560e31b81526004810185905290919081907f00000000000000000000000000000000000000000000000000000000000000006001600160a01b03169063d1d240a8906024016040805180830381865afa15801561103d573d6000803e3d6000fd5b505050506040513d601f19601f820116820180604052508101906110619190612127565b91509150816001600160a01b03166110763390565b6001600160a01b031614806110935750336001600160a01b038216145b6110d65760405162461bcd60e51b8152602060048201526014602482015273135bd91d5b194e88155b985d5d1a1bdc9a5e995960621b604482015260640161054b565b336001600160a01b038316146000816110fb576003850154610100900460ff16611104565b600385015460ff165b90508560058111156111185761111861180e565b81600581111561112a5761112a61180e565b1080611163575060048160058111156111455761114561180e565b148015611163575060038660058111156111615761116161180e565b145b6111af5760405162461bcd60e51b815260206004820152601a60248201527f4d6f64756c653a20537461747573206e6f7420616c6c6f776564000000000000604482015260640161054b565b81156111e05760038501805487919060ff191660018360058111156111d6576111d661180e565b0217905550611209565b60038501805487919061ff0019166101008360058111156112035761120361180e565b02179055505b50505050505050565b6000336001600160a01b037f0000000000000000000000000000000000000000000000000000000000000000161461125d57604051632ad9535160e01b815260040160405180910390fd5b600480546040516309b1079760e21b81526001600160a01b03909116916326c41e5c9161129a918d918d918d918d918d918d918d918d9101612156565b600060405180830381600087803b1580156112b457600080fd5b505af11580156112c8573d6000803e3d6000fd5b50506009549b9a5050505050505050505050565b6112e4611355565b6001600160a01b0381166113495760405162461bcd60e51b815260206004820152602660248201527f4f776e61626c653a206e6577206f776e657220697320746865207a65726f206160448201526564647265737360d01b606482015260840161054b565b611352816115a7565b50565b600c546001600160a01b03163314610a895760405162461bcd60e51b815260206004820181905260248201527f4f776e61626c653a2063616c6c6572206973206e6f7420746865206f776e6572604482015260640161054b565b6060600080546113be90611e63565b80601f01602080910402602001604051908101604052809291908181526020018280546113ea90611e63565b80156114375780601f1061140c57610100808354040283529160200191611437565b820191906000526020600020905b81548152906001019060200180831161141a57829003601f168201915b5050505050905090565b606060018272184f03e93ff9f4daa797ed6e38ed64bf6a1f0160401b8110611484576040919091019072184f03e93ff9f4daa797ed6e38ed64bf6a1f0160401b90045b6d04ee2d6d415b85acef810000000081106114b257602091909101906d04ee2d6d415b85acef810000000090045b662386f26fc1000081106114d25760109190910190662386f26fc1000090045b6305f5e10081106114ec57600891909101906305f5e10090045b6127108110611502576004919091019061271090045b606481106115165760029190910190606490045b600a8110611525576001820191505b60008267ffffffffffffffff8111156115405761154061192b565b6040519080825280601f01601f19166020018201604052801561156a576020820181803683370190505b5090508281016020015b600019016f181899199a1a9b1b9c1cb0b131b232b360811b600a87061a8153600a86049550856115745750949350505050565b600c80546001600160a01b038381166001600160a01b0319831681179093556040519116919082907f8be0079c531659141344cd1fd0a4f28419497f9722a3daafe3b4186f6b6457e090600090a35050565b6001600160a01b038116811461135257600080fd5b80358015158114610a5857600080fd5b6000806040838503121561163157600080fd5b823561163c816115f9565b915061164a6020840161160e565b90509250929050565b60006020828403121561166557600080fd5b8135611670816115f9565b9392505050565b6000806040838503121561168a57600080fd5b50508035926020909101359150565b600060e082840312156116ab57600080fd5b50919050565b60008083601f8401126116c357600080fd5b50813567ffffffffffffffff8111156116db57600080fd5b6020830191508360208285010111156116f357600080fd5b9250929050565b6000806000806000806000610180888a03121561171657600080fd5b8735611721816115f9565b96506020880135611731816115f9565b9550604088013594506117478960608a01611699565b9350610140880135925061016088013567ffffffffffffffff81111561176c57600080fd5b6117788a828b016116b1565b989b979a50959850939692959293505050565b60006020828403121561179d57600080fd5b5035919050565b602080825282518282018190526000919060409081850190868401855b82811015611801578151805185528681015115158786015285810151151586860152606090810151151590850152608090930192908501906001016117c1565b5091979650505050505050565b634e487b7160e01b600052602160045260246000fd5b6006811061184257634e487b7160e01b600052602160045260246000fd5b9052565b868152602081018690526040810185905260c081016118686060830186611824565b6118756080830185611824565b8260a0830152979650505050505050565b60005b838110156118a1578181015183820152602001611889565b50506000910152565b600081518084526118c2816020860160208601611886565b601f01601f19169290920160200192915050565b60208152600061167060208301846118aa565b600080602083850312156118fc57600080fd5b823567ffffffffffffffff81111561191357600080fd5b61191f858286016116b1565b90969095509350505050565b634e487b7160e01b600052604160045260246000fd5b604051601f8201601f1916810167ffffffffffffffff8111828210171561196a5761196a61192b565b604052919050565b600082601f83011261198357600080fd5b813567ffffffffffffffff81111561199d5761199d61192b565b6119b0601f8201601f1916602001611941565b8181528460208386010111156119c557600080fd5b816020850160208301376000918101602001919091529392505050565b60008060008060008061018087890312156119fc57600080fd5b8635611a07816115f9565b95506020870135611a17816115f9565b94506040870135611a27816115f9565b935060608701359250611a3d8860808901611699565b915061016087013567ffffffffffffffff811115611a5a57600080fd5b611a6689828a01611972565b9150509295509295509295565b6000806000806000806000806101a0898b031215611a9057600080fd5b8835611a9b816115f9565b97506020890135611aab816115f9565b96506040890135611abb816115f9565b95506060890135945060808901359350611ad88a60a08b01611699565b925061018089013567ffffffffffffffff811115611af557600080fd5b611b018b828c016116b1565b999c989b5096995094979396929594505050565b6000806000806000806000806101a0898b031215611b3257600080fd5b8835611b3d816115f9565b97506020890135611b4d816115f9565b9650604089013595506060890135945060808901359350611ad88a60a08b01611699565b60008060408385031215611b8457600080fd5b82359150602083013560068110611b9a57600080fd5b809150509250929050565b6000806000806000806000806101c0898b031215611bc257600080fd5b8835611bcd816115f9565b9750611bdb60208a0161160e565b96506040890135611beb816115f9565b95506060890135611bfb816115f9565b94506080890135611c0b816115f9565b935060a08901359250611c218a60c08b01611699565b91506101a089013567ffffffffffffffff811115611c3e57600080fd5b611c4a8b828c01611972565b9150509295985092959890939650565b634e487b7160e01b600052601160045260246000fd5b81810381811115611c8357611c83611c5a565b92915050565b8035611c94816115f9565b6001600160a01b0390811683526020828101359084015260408083013590840152606082013590611cc4826115f9565b9081166060840152608082013590611cdb826115f9565b908116608084015260a082013590611cf2826115f9565b1660a083015260c090810135910152565b81835281816020850137506000828201602090810191909152601f909101601f19169091010190565b6001600160a01b03888116825287166020820152604081018690526000610180611d596060840188611c89565b8561014084015280610160840152611d748184018587611d03565b9a9950505050505050505050565b60008060408385031215611d9557600080fd5b8235915060208084013567ffffffffffffffff80821115611db557600080fd5b818601915086601f830112611dc957600080fd5b813581811115611ddb57611ddb61192b565b8060051b9150611dec848301611941565b8181529183018401918481019089841115611e0657600080fd5b938501935b83851015611e2457843582529385019390850190611e0b565b8096505050505050509250929050565b634e487b7160e01b600052603260045260246000fd5b600060018201611e5c57611e5c611c5a565b5060010190565b600181811c90821680611e7757607f821691505b6020821081036116ab57634e487b7160e01b600052602260045260246000fd5b6000808454611ea581611e63565b60018281168015611ebd5760018114611ed257611f01565b60ff1984168752821515830287019450611f01565b8860005260208060002060005b85811015611ef85781548a820152908401908201611edf565b50505082870194505b505050508351611f15818360208801611886565b01949350505050565b601f821115610a7257600081815260208120601f850160051c81016020861015611f455750805b601f850160051c820191505b8181101561061557828155600101611f51565b67ffffffffffffffff831115611f7c57611f7c61192b565b611f9083611f8a8354611e63565b83611f1e565b6000601f841160018114611fc45760008515611fac5750838201355b600019600387901b1c1916600186901b17835561201e565b600083815260209020601f19861690835b82811015611ff55786850135825560209485019460019092019101611fd5565b50868210156120125760001960f88860031b161c19848701351681555b505060018560011b0183555b5050505050565b6001600160a01b03878116825286811660208301528516604082015260608101849052600061018061205a6080840186611c89565b8061016084015261206d818401856118aa565b9998505050505050505050565b6001600160a01b038981168252888116602083015287166040820152606081018690526080810185905260006101a06120b660a0840187611c89565b806101808401526120ca8184018587611d03565b9b9a5050505050505050505050565b6001600160a01b0389811682528816602082015260408101879052606081018690526080810185905260006101a06120b660a0840187611c89565b80820180821115611c8357611c83611c5a565b6000806040838503121561213a57600080fd5b8251612145816115f9565b6020840151909250611b9a816115f9565b6001600160a01b0389811682528815156020830152878116604083015286811660608301528516608082015260a0810184905260006101c061219b60c0840186611c89565b806101a08401526120ca818401856118aa56fea2646970667358221220c951e0e2b6908be5d886e9947559a488ecc8a97f74f2ddd4e0c60eef6e6eda4864736f6c634300081000334d6f64756c653a2046656520746f6f2068696768000000000000000000000000",
    "linkReferences": {}
  },
  "methodIdentifiers": {
    "REGISTRAR()": "cb609077",
    "_URI()": "b4e87e8f",
    "approveRule()": "433d3a77",
    "cashRule()": "f3ea001e",
    "fees()": "9af1d35a",
    "fundRule()": "d4c301da",
    "getFees()": "db8d55f1",
    "getMilestones(uint256)": "42c549c0",
    "invoices(uint256)": "4e6d1405",
    "memo(uint256)": "96eb58f8",
    "milestones(uint256,uint256)": "1c376c63",
    "owner()": "8da5cb5b",
    "processApproval(address,address,address,uint256,(address,uint256,uint256,address,address,address,uint256),bytes)": "84314347",
    "processCash(address,address,address,uint256,uint256,(address,uint256,uint256,address,address,address,uint256),bytes)": "a0663d1b",
    "processFund(address,address,uint256,uint256,uint256,(address,uint256,uint256,address,address,address,uint256),bytes)": "d647e1e5",
    "processTokenURI(uint256)": "4fe17e1a",
    "processTransfer(address,bool,address,address,address,uint256,(address,uint256,uint256,address,address,address,uint256),bytes)": "f09b3d9a",
    "processWrite(address,address,uint256,(address,uint256,uint256,address,address,address,uint256),uint256,bytes)": "4238a63a",
    "renounceOwnership()": "715018a6",
    "setBaseURI(string)": "55f804b3",
    "setStatus(uint256,uint8)": "d896dd64",
    "tokenWhitelist(address)": "753d7563",
    "transferOwnership(address)": "f2fde38b",
    "transferRule()": "0d02cde7",
    "whitelistToken(address,bool)": "0ffb1d8b",
    "withdrawFees(address)": "164e68de",
    "writeRule()": "df1cdb46"
  },
  "id": 38
}