{
  "abi": [
    {
      "inputs": [
        {
          "internalType": "address",
          "name": "newOwner",
          "type": "address"
        }
      ],
      "stateMutability": "nonpayable",
      "type": "constructor"
    },
    {
      "inputs": [
        {
          "internalType": "uint256",
          "name": "",
          "type": "uint256"
        },
        {
          "internalType": "uint256",
          "name": "",
          "type": "uint256"
        }
      ],
      "name": "InsufficientEscrow",
      "type": "error"
    },
    {
      "inputs": [
        {
          "internalType": "uint256",
          "name": "",
          "type": "uint256"
        },
        {
          "internalType": "uint256",
          "name": "",
          "type": "uint256"
        }
      ],
      "name": "InsufficientValue",
      "type": "error"
    },
    {
      "inputs": [
        {
          "internalType": "contract INotaModule",
          "name": "",
          "type": "address"
        },
        {
          "internalType": "address",
          "name": "",
          "type": "address"
        }
      ],
      "name": "InvalidWrite",
      "type": "error"
    },
    {
      "inputs": [],
      "name": "NonExistent",
      "type": "error"
    },
    {
      "inputs": [],
      "name": "SelfApproval",
      "type": "error"
    },
    {
      "inputs": [],
      "name": "SendFailed",
      "type": "error"
    },
    {
      "anonymous": false,
      "inputs": [
        {
          "indexed": true,
          "internalType": "address",
          "name": "owner",
          "type": "address"
        },
        {
          "indexed": true,
          "internalType": "address",
          "name": "approved",
          "type": "address"
        },
        {
          "indexed": true,
          "internalType": "uint256",
          "name": "tokenId",
          "type": "uint256"
        }
      ],
      "name": "Approval",
      "type": "event"
    },
    {
      "anonymous": false,
      "inputs": [
        {
          "indexed": true,
          "internalType": "address",
          "name": "owner",
          "type": "address"
        },
        {
          "indexed": true,
          "internalType": "address",
          "name": "operator",
          "type": "address"
        },
        {
          "indexed": false,
          "internalType": "bool",
          "name": "approved",
          "type": "bool"
        }
      ],
      "name": "ApprovalForAll",
      "type": "event"
    },
    {
      "anonymous": false,
      "inputs": [
        {
          "indexed": false,
          "internalType": "uint256",
          "name": "_fromTokenId",
          "type": "uint256"
        },
        {
          "indexed": false,
          "internalType": "uint256",
          "name": "_toTokenId",
          "type": "uint256"
        }
      ],
      "name": "BatchMetadataUpdate",
      "type": "event"
    },
    {
      "anonymous": false,
      "inputs": [
        {
          "indexed": true,
          "internalType": "address",
          "name": "casher",
          "type": "address"
        },
        {
          "indexed": true,
          "internalType": "uint256",
          "name": "notaId",
          "type": "uint256"
        },
        {
          "indexed": false,
          "internalType": "address",
          "name": "to",
          "type": "address"
        },
        {
          "indexed": false,
          "internalType": "uint256",
          "name": "amount",
          "type": "uint256"
        },
        {
          "indexed": true,
          "internalType": "bytes",
          "name": "cashData",
          "type": "bytes"
        },
        {
          "indexed": false,
          "internalType": "uint256",
          "name": "moduleFee",
          "type": "uint256"
        },
        {
          "indexed": false,
          "internalType": "uint256",
          "name": "timestamp",
          "type": "uint256"
        }
      ],
      "name": "Cashed",
      "type": "event"
    },
    {
      "anonymous": false,
      "inputs": [],
      "name": "ContractURIUpdated",
      "type": "event"
    },
    {
      "anonymous": false,
      "inputs": [
        {
          "indexed": true,
          "internalType": "address",
          "name": "funder",
          "type": "address"
        },
        {
          "indexed": true,
          "internalType": "uint256",
          "name": "notaId",
          "type": "uint256"
        },
        {
          "indexed": false,
          "internalType": "uint256",
          "name": "amount",
          "type": "uint256"
        },
        {
          "indexed": false,
          "internalType": "uint256",
          "name": "instant",
          "type": "uint256"
        },
        {
          "indexed": true,
          "internalType": "bytes",
          "name": "fundData",
          "type": "bytes"
        },
        {
          "indexed": false,
          "internalType": "uint256",
          "name": "moduleFee",
          "type": "uint256"
        },
        {
          "indexed": false,
          "internalType": "uint256",
          "name": "timestamp",
          "type": "uint256"
        }
      ],
      "name": "Funded",
      "type": "event"
    },
    {
      "anonymous": false,
      "inputs": [
        {
          "indexed": false,
          "internalType": "uint256",
          "name": "_tokenId",
          "type": "uint256"
        }
      ],
      "name": "MetadataUpdate",
      "type": "event"
    },
    {
      "anonymous": false,
      "inputs": [
        {
          "indexed": true,
          "internalType": "address",
          "name": "user",
          "type": "address"
        },
        {
          "indexed": true,
          "internalType": "contract INotaModule",
          "name": "module",
          "type": "address"
        },
        {
          "indexed": false,
          "internalType": "bool",
          "name": "isAccepted",
          "type": "bool"
        },
        {
          "indexed": false,
          "internalType": "uint256",
          "name": "timestamp",
          "type": "uint256"
        }
      ],
      "name": "ModuleWhitelisted",
      "type": "event"
    },
    {
      "anonymous": false,
      "inputs": [
        {
          "indexed": true,
          "internalType": "address",
          "name": "previousOwner",
          "type": "address"
        },
        {
          "indexed": true,
          "internalType": "address",
          "name": "newOwner",
          "type": "address"
        }
      ],
      "name": "OwnershipTransferred",
      "type": "event"
    },
    {
      "anonymous": false,
      "inputs": [
        {
          "indexed": false,
          "internalType": "address",
          "name": "caller",
          "type": "address"
        },
        {
          "indexed": true,
          "internalType": "address",
          "name": "token",
          "type": "address"
        },
        {
          "indexed": true,
          "internalType": "bool",
          "name": "accepted",
          "type": "bool"
        },
        {
          "indexed": false,
          "internalType": "uint256",
          "name": "timestamp",
          "type": "uint256"
        }
      ],
      "name": "TokenWhitelisted",
      "type": "event"
    },
    {
      "anonymous": false,
      "inputs": [
        {
          "indexed": true,
          "internalType": "address",
          "name": "from",
          "type": "address"
        },
        {
          "indexed": true,
          "internalType": "address",
          "name": "to",
          "type": "address"
        },
        {
          "indexed": true,
          "internalType": "uint256",
          "name": "tokenId",
          "type": "uint256"
        }
      ],
      "name": "Transfer",
      "type": "event"
    },
    {
      "anonymous": false,
      "inputs": [
        {
          "indexed": true,
          "internalType": "uint256",
          "name": "tokenId",
          "type": "uint256"
        },
        {
          "indexed": true,
          "internalType": "address",
          "name": "from",
          "type": "address"
        },
        {
          "indexed": true,
          "internalType": "address",
          "name": "to",
          "type": "address"
        },
        {
          "indexed": false,
          "internalType": "uint256",
          "name": "moduleFee",
          "type": "uint256"
        },
        {
          "indexed": false,
          "internalType": "bytes",
          "name": "fundData",
          "type": "bytes"
        },
        {
          "indexed": false,
          "internalType": "uint256",
          "name": "timestamp",
          "type": "uint256"
        }
      ],
      "name": "Transferred",
      "type": "event"
    },
    {
      "anonymous": false,
      "inputs": [
        {
          "indexed": true,
          "internalType": "address",
          "name": "caller",
          "type": "address"
        },
        {
          "indexed": false,
          "internalType": "uint256",
          "name": "notaId",
          "type": "uint256"
        },
        {
          "indexed": true,
          "internalType": "address",
          "name": "owner",
          "type": "address"
        },
        {
          "indexed": false,
          "internalType": "uint256",
          "name": "instant",
          "type": "uint256"
        },
        {
          "indexed": true,
          "internalType": "address",
          "name": "currency",
          "type": "address"
        },
        {
          "indexed": false,
          "internalType": "uint256",
          "name": "escrowed",
          "type": "uint256"
        },
        {
          "indexed": false,
          "internalType": "uint256",
          "name": "timestamp",
          "type": "uint256"
        },
        {
          "indexed": false,
          "internalType": "uint256",
          "name": "moduleFee",
          "type": "uint256"
        },
        {
          "indexed": false,
          "internalType": "contract INotaModule",
          "name": "module",
          "type": "address"
        },
        {
          "indexed": false,
          "internalType": "bytes",
          "name": "moduleData",
          "type": "bytes"
        }
      ],
      "name": "Written",
      "type": "event"
    },
    {
      "inputs": [
        {
          "internalType": "address",
          "name": "to",
          "type": "address"
        },
        {
          "internalType": "uint256",
          "name": "notaId",
          "type": "uint256"
        }
      ],
      "name": "approve",
      "outputs": [],
      "stateMutability": "nonpayable",
      "type": "function"
    },
    {
      "inputs": [
        {
          "internalType": "address",
          "name": "owner",
          "type": "address"
        }
      ],
      "name": "balanceOf",
      "outputs": [
        {
          "internalType": "uint256",
          "name": "",
          "type": "uint256"
        }
      ],
      "stateMutability": "view",
      "type": "function"
    },
    {
      "inputs": [
        {
          "internalType": "uint256",
          "name": "notaId",
          "type": "uint256"
        },
        {
          "internalType": "uint256",
          "name": "amount",
          "type": "uint256"
        },
        {
          "internalType": "address",
          "name": "to",
          "type": "address"
        },
        {
          "internalType": "bytes",
          "name": "moduleBytes",
          "type": "bytes"
        }
      ],
      "name": "cash",
      "outputs": [],
      "stateMutability": "payable",
      "type": "function"
    },
    {
      "inputs": [],
      "name": "contractURI",
      "outputs": [
        {
          "internalType": "string",
          "name": "",
          "type": "string"
        }
      ],
      "stateMutability": "view",
      "type": "function"
    },
    {
      "inputs": [
        {
          "internalType": "uint256",
          "name": "notaId",
          "type": "uint256"
        },
        {
          "internalType": "uint256",
          "name": "amount",
          "type": "uint256"
        },
        {
          "internalType": "uint256",
          "name": "instant",
          "type": "uint256"
        },
        {
          "internalType": "bytes",
          "name": "moduleBytes",
          "type": "bytes"
        }
      ],
      "name": "fund",
      "outputs": [],
      "stateMutability": "payable",
      "type": "function"
    },
    {
      "inputs": [
        {
          "internalType": "uint256",
          "name": "tokenId",
          "type": "uint256"
        }
      ],
      "name": "getApproved",
      "outputs": [
        {
          "internalType": "address",
          "name": "",
          "type": "address"
        }
      ],
      "stateMutability": "view",
      "type": "function"
    },
    {
      "inputs": [
        {
          "internalType": "address",
          "name": "owner",
          "type": "address"
        },
        {
          "internalType": "address",
          "name": "operator",
          "type": "address"
        }
      ],
      "name": "isApprovedForAll",
      "outputs": [
        {
          "internalType": "bool",
          "name": "",
          "type": "bool"
        }
      ],
      "stateMutability": "view",
      "type": "function"
    },
    {
      "inputs": [
        {
          "internalType": "uint256",
          "name": "notaId",
          "type": "uint256"
        }
      ],
      "name": "metadataUpdate",
      "outputs": [],
      "stateMutability": "nonpayable",
      "type": "function"
    },
    {
      "inputs": [
        {
          "internalType": "contract INotaModule",
          "name": "module",
          "type": "address"
        },
        {
          "internalType": "address",
          "name": "currency",
          "type": "address"
        }
      ],
      "name": "moduleRevenue",
      "outputs": [
        {
          "internalType": "uint256",
          "name": "",
          "type": "uint256"
        }
      ],
      "stateMutability": "view",
      "type": "function"
    },
    {
      "inputs": [
        {
          "internalType": "contract INotaModule",
          "name": "module",
          "type": "address"
        }
      ],
      "name": "moduleWhitelisted",
      "outputs": [
        {
          "internalType": "bool",
          "name": "",
          "type": "bool"
        }
      ],
      "stateMutability": "view",
      "type": "function"
    },
    {
      "inputs": [
        {
          "internalType": "address",
          "name": "token",
          "type": "address"
        },
        {
          "internalType": "uint256",
          "name": "amount",
          "type": "uint256"
        },
        {
          "internalType": "address",
          "name": "to",
          "type": "address"
        }
      ],
      "name": "moduleWithdraw",
      "outputs": [],
      "stateMutability": "nonpayable",
      "type": "function"
    },
    {
      "inputs": [],
      "name": "name",
      "outputs": [
        {
          "internalType": "string",
          "name": "",
          "type": "string"
        }
      ],
      "stateMutability": "view",
      "type": "function"
    },
    {
      "inputs": [
        {
          "internalType": "uint256",
          "name": "notaId",
          "type": "uint256"
        }
      ],
      "name": "notaCurrency",
      "outputs": [
        {
          "internalType": "address",
          "name": "",
          "type": "address"
        }
      ],
      "stateMutability": "view",
      "type": "function"
    },
    {
      "inputs": [
        {
          "internalType": "uint256",
          "name": "notaId",
          "type": "uint256"
        }
      ],
      "name": "notaEscrowed",
      "outputs": [
        {
          "internalType": "uint256",
          "name": "",
          "type": "uint256"
        }
      ],
      "stateMutability": "view",
      "type": "function"
    },
    {
      "inputs": [
        {
          "internalType": "uint256",
          "name": "notaId",
          "type": "uint256"
        }
      ],
      "name": "notaInfo",
      "outputs": [
        {
          "components": [
            {
              "internalType": "uint256",
              "name": "escrowed",
              "type": "uint256"
            },
            {
              "internalType": "address",
              "name": "currency",
              "type": "address"
            },
            {
              "internalType": "contract INotaModule",
              "name": "module",
              "type": "address"
            }
          ],
          "internalType": "struct Nota",
          "name": "",
          "type": "tuple"
        }
      ],
      "stateMutability": "view",
      "type": "function"
    },
    {
      "inputs": [
        {
          "internalType": "uint256",
          "name": "notaId",
          "type": "uint256"
        }
      ],
      "name": "notaModule",
      "outputs": [
        {
          "internalType": "contract INotaModule",
          "name": "",
          "type": "address"
        }
      ],
      "stateMutability": "view",
      "type": "function"
    },
    {
      "inputs": [],
      "name": "owner",
      "outputs": [
        {
          "internalType": "address",
          "name": "",
          "type": "address"
        }
      ],
      "stateMutability": "view",
      "type": "function"
    },
    {
      "inputs": [
        {
          "internalType": "uint256",
          "name": "tokenId",
          "type": "uint256"
        }
      ],
      "name": "ownerOf",
      "outputs": [
        {
          "internalType": "address",
          "name": "",
          "type": "address"
        }
      ],
      "stateMutability": "view",
      "type": "function"
    },
    {
      "inputs": [],
      "name": "renounceOwnership",
      "outputs": [],
      "stateMutability": "nonpayable",
      "type": "function"
    },
    {
      "inputs": [
        {
          "internalType": "address",
          "name": "from",
          "type": "address"
        },
        {
          "internalType": "address",
          "name": "to",
          "type": "address"
        },
        {
          "internalType": "uint256",
          "name": "tokenId",
          "type": "uint256"
        }
      ],
      "name": "safeTransferFrom",
      "outputs": [],
      "stateMutability": "nonpayable",
      "type": "function"
    },
    {
      "inputs": [
        {
          "internalType": "address",
          "name": "from",
          "type": "address"
        },
        {
          "internalType": "address",
          "name": "to",
          "type": "address"
        },
        {
          "internalType": "uint256",
          "name": "notaId",
          "type": "uint256"
        },
        {
          "internalType": "bytes",
          "name": "moduleBytes",
          "type": "bytes"
        }
      ],
      "name": "safeTransferFrom",
      "outputs": [],
      "stateMutability": "nonpayable",
      "type": "function"
    },
    {
      "inputs": [
        {
          "internalType": "address",
          "name": "operator",
          "type": "address"
        },
        {
          "internalType": "bool",
          "name": "approved",
          "type": "bool"
        }
      ],
      "name": "setApprovalForAll",
      "outputs": [],
      "stateMutability": "nonpayable",
      "type": "function"
    },
    {
      "inputs": [
        {
          "internalType": "string",
          "name": "uri",
          "type": "string"
        }
      ],
      "name": "setContractURI",
      "outputs": [],
      "stateMutability": "nonpayable",
      "type": "function"
    },
    {
      "inputs": [
        {
          "internalType": "bytes4",
          "name": "interfaceId",
          "type": "bytes4"
        }
      ],
      "name": "supportsInterface",
      "outputs": [
        {
          "internalType": "bool",
          "name": "",
          "type": "bool"
        }
      ],
      "stateMutability": "view",
      "type": "function"
    },
    {
      "inputs": [],
      "name": "symbol",
      "outputs": [
        {
          "internalType": "string",
          "name": "",
          "type": "string"
        }
      ],
      "stateMutability": "view",
      "type": "function"
    },
    {
      "inputs": [
        {
          "internalType": "uint256",
          "name": "notaId",
          "type": "uint256"
        }
      ],
      "name": "tokenURI",
      "outputs": [
        {
          "internalType": "string",
          "name": "",
          "type": "string"
        }
      ],
      "stateMutability": "view",
      "type": "function"
    },
    {
      "inputs": [
        {
          "internalType": "address",
          "name": "token",
          "type": "address"
        }
      ],
      "name": "tokenWhitelisted",
      "outputs": [
        {
          "internalType": "bool",
          "name": "",
          "type": "bool"
        }
      ],
      "stateMutability": "view",
      "type": "function"
    },
    {
      "inputs": [],
      "name": "totalSupply",
      "outputs": [
        {
          "internalType": "uint256",
          "name": "",
          "type": "uint256"
        }
      ],
      "stateMutability": "view",
      "type": "function"
    },
    {
      "inputs": [
        {
          "internalType": "address",
          "name": "from",
          "type": "address"
        },
        {
          "internalType": "address",
          "name": "to",
          "type": "address"
        },
        {
          "internalType": "uint256",
          "name": "notaId",
          "type": "uint256"
        }
      ],
      "name": "transferFrom",
      "outputs": [],
      "stateMutability": "nonpayable",
      "type": "function"
    },
    {
      "inputs": [
        {
          "internalType": "address",
          "name": "newOwner",
          "type": "address"
        }
      ],
      "name": "transferOwnership",
      "outputs": [],
      "stateMutability": "nonpayable",
      "type": "function"
    },
    {
      "inputs": [
        {
          "internalType": "contract INotaModule",
          "name": "module",
          "type": "address"
        },
        {
          "internalType": "address",
          "name": "token",
          "type": "address"
        }
      ],
      "name": "validWrite",
      "outputs": [
        {
          "internalType": "bool",
          "name": "",
          "type": "bool"
        }
      ],
      "stateMutability": "view",
      "type": "function"
    },
    {
      "inputs": [
        {
          "internalType": "contract INotaModule",
          "name": "module",
          "type": "address"
        },
        {
          "internalType": "bool",
          "name": "isWhitelisted",
          "type": "bool"
        }
      ],
      "name": "whitelistModule",
      "outputs": [],
      "stateMutability": "nonpayable",
      "type": "function"
    },
    {
      "inputs": [
        {
          "internalType": "address",
          "name": "token",
          "type": "address"
        },
        {
          "internalType": "bool",
          "name": "isWhitelisted",
          "type": "bool"
        }
      ],
      "name": "whitelistToken",
      "outputs": [],
      "stateMutability": "nonpayable",
      "type": "function"
    },
    {
      "inputs": [
        {
          "internalType": "address",
          "name": "currency",
          "type": "address"
        },
        {
          "internalType": "uint256",
          "name": "escrowed",
          "type": "uint256"
        },
        {
          "internalType": "uint256",
          "name": "instant",
          "type": "uint256"
        },
        {
          "internalType": "address",
          "name": "owner",
          "type": "address"
        },
        {
          "internalType": "contract INotaModule",
          "name": "module",
          "type": "address"
        },
        {
          "internalType": "bytes",
          "name": "moduleBytes",
          "type": "bytes"
        }
      ],
      "name": "write",
      "outputs": [
        {
          "internalType": "uint256",
          "name": "",
          "type": "uint256"
        }
      ],
      "stateMutability": "payable",
      "type": "function"
    }
  ],
  "bytecode": {
    "object": "0x6080346200042a57601f90601f19906001600160401b036200346c3881900385810185168401838111858210176200042f578492829160405283396020938491810103126200042a5751936001600160a01b03808616929091908387036200042a576200006b62000445565b91601683527f44656e6f74612050726f746f636f6c2028626574612900000000000000000000868401526200009f62000445565b600497888252634e4f544160e01b8883015284519084821162000415576000918254966001978881811c911680156200040a575b8c821014620003f757908b8288859411620003a1575b50508b908783116001146200033e57859262000332575b5050600019600383901b1c191690871b1782555b82519485116200031f5785548681811c9116801562000314575b8a8210146200030157908185879695949311620002a8575b5089938511600114620002475750926200023b575b5050600019600383901b1c191690821b1790555b6200017a3362000465565b33906006541603620001f95715620001a757620001978362000465565b604051612fbd9081620004af8239f35b60405162461bcd60e51b815291820152602660248201527f4f776e61626c653a206e6577206f776e657220697320746865207a65726f206160448201526564647265737360d01b606482015260849150fd5b60648383806040519262461bcd60e51b845283015260248201527f4f776e61626c653a2063616c6c6572206973206e6f7420746865206f776e65726044820152fd5b0151905038806200015b565b86959392919316858452898420935b8a82821062000291575050841162000277575b505050811b0190556200016f565b015160001960f88460031b161c1916905538808062000269565b838501518655889790950194938401930162000256565b9091929394508683528983208580880160051c8201928c8910620002f7575b9188978a9297969594930160051c01915b828110620002e857505062000146565b848155889750899101620002d8565b92508192620002c7565b634e487b7160e01b835260228b52602483fd5b90607f16906200012e565b634e487b7160e01b825260418a52602482fd5b01519050388062000100565b908c91858b95168780528388209388905b8282106200038957505084116200036f575b505050811b01825562000114565b015160001960f88460031b161c1916905538808062000361565b8385015186558d979095019493840193018f6200034f565b90919250858052878287209181860160051c8301938610620003ed575b918b91869594930160051c01915b828110620003de57508d9150620000e9565b8781558594508b9101620003cc565b92508192620003be565b634e487b7160e01b855260228d52602485fd5b90607f1690620000d3565b60418a634e487b7160e01b6000525260246000fd5b600080fd5b634e487b7160e01b600052604160045260246000fd5b60408051919082016001600160401b038111838210176200042f57604052565b600680546001600160a01b039283166001600160a01b0319821681179092559091167f8be0079c531659141344cd1fd0a4f28419497f9722a3daafe3b4186f6b6457e0600080a356fe608080604052600436101561001357600080fd5b600090813560e01c90816301ffc9a714611f115750806306fdde0314611e6d578063081812fc14611e4e578063095ea7b314611b9f5780630ffb1d8b14611b0b57806313e94a2314611abd57806318160ddd14611a9f57806323b872dd14611a2557806342842e0e146119fd5780634e289c061461176457806352f37f56146117455780636352211e146117145780636a1c34fb1461169257806370a08231146115fc578063715018a61461159e57806378f513e8146114fb5780638da5cb5b146114d2578063938e3d7b1461132357806395d89b41146112545780639ba853ef14611206578063a22cb4651461112e578063b1d70e42146110df578063b88d4fde14611052578063c3f8450b14610fa5578063c73553da14610f5f578063c87b56dd14610ae6578063d0d0bb3f14610735578063d61220581461048d578063d6a4f84c1461042e578063dfd5d81114610401578063e8a3d485146102f1578063e985e9c51461029d578063f2fde38b146101d75763ff8507e81461019757600080fd5b346101d45760203660031901126101d45760206101ca6101b5611fe0565b3f600052600760205260ff6040600020541690565b6040519015158152f35b80fd5b50346101d45760203660031901126101d4576101f1611fe0565b6101f961211b565b6001600160a01b0390811690811561024957600654826001600160601b0360a01b821617600655167f8be0079c531659141344cd1fd0a4f28419497f9722a3daafe3b4186f6b6457e0600080a380f35b60405162461bcd60e51b815260206004820152602660248201527f4f776e61626c653a206e6577206f776e657220697320746865207a65726f206160448201526564647265737360d01b6064820152608490fd5b50346101d45760403660031901126101d4576102b7611fe0565b60406102c161200c565b9260018060a01b0380931681526005602052209116600052602052602060ff604060002054166040519015158152f35b50346101d457806003193601126101d457604051906020907f646174613a6170706c69636174696f6e2f6a736f6e3b757466382c00000000008284015282816008549261033d846121e5565b936001908181169081156103de5750600114610381575b5050610369925003601f1981018452836120df565b61037d604051928284938452830190611fbb565b0390f35b90915060088252847ff3f7a9fe364faab93b216da50a3214154f22a0a2b415b23a84c8169e8b636ee35b8584106103c65750505050603b610369928201013880610354565b8054888501603b0152879450920191859082016103ab565b915050603b925061036994915060ff191682840152801515028201013880610354565b50346101d45760403660031901126101d45760206101ca610420611fe0565b61042861200c565b90612f39565b50346101d45760603660031901126101d45761048a61044b611fe0565b60243590610457611ff6565b9033855260096020526040852060018060a01b0382166000526020526040600020610483848254612654565b9055612c46565b80f35b5060803660031901126101d4576064356001600160401b038111610731576104b9903690600401612066565b6004358352600260205260408320546001600160a01b03161561071f576104de612ed8565b506004356000908152600260205260409020546001600160a01b03161561071f57600435600052600a6020526040600020916040519261051d84612093565b8054845260018101546001600160a01b03908116602086015260029091015416604084015261054d6004356121bf565b6040808501805191516367f9f4f560e01b8152336004808301919091526001600160a01b038086166024808501919091523560448085019190915235606484015290356084830152875160a4830152602080890151821660c48401529251811660e4830152909693928791166101206101048301528189816105d461012482018b8b61225d565b03925af19485156107145786956106d9575b50602082015161060891869160443591602435916001600160a01b0316612e35565b6004358552600a60205260408520610623602435825461227e565b905560018060a01b03604082015116855260096020526040852090602060018060a01b0391015116600052602052604060002061066184825461227e565b90558160405192839283378101600081520390209060405190602435825260443560208301526040820152426060820152600435907f7f98326a87b2d74aaf7e1400dd387fab5570936bacf98cb672c19ddfbb061a4460803392a4600080516020612f6883398151915260206040516004358152a180f35b9094506020813d60201161070c575b816106f5602093836120df565b810103126107075751936106086105e6565b600080fd5b3d91506106e8565b6040513d88823e3d90fd5b604051632f9d01c560e01b8152600490fd5b5080fd5b5060c03660031901126101d45761074a611fe0565b906064356044356001600160a01b038216820361070757608435926001600160a01b03841684036107075760a4356001600160401b03811161073157610794903690600401612066565b9190926107a18787612f39565b15610ab157600b54604051635aeb80dd60e11b81523360048201526001600160a01b038781166024808401919091526044830193909352891660648201529035608482015260a4810182905260e060c4820152906020828061080760e48201888a61225d565b0381866001600160a01b038c165af1918215610aa6578392610a72575b506108348282602435898c612e35565b600b54926001600160a01b03871615610a2e576020986040610a1c928a8761089b6108957f991ba5df3fcbd98c4683aa26b630563680205eed21cda3b688c3b885dd969c819a600052600260205260018060a01b0360406000205416151590565b156122a1565b6000818152600260205260409020546108be906001600160a01b03161515610895565b60018060a01b038c16835260038e528383206001815401905580835260028e5260028c858520926001600160601b0360a01b9360018060a01b0383168582541617905586519160018060a01b0316867fddf252ad1be2c89b69c2b068fc378daa952ba7f163c4a11628f55a4df523b3ef8180a461093a81612093565b60243581528f810160018060a01b03881681528682019460018060a01b03168552600b5486526020600a905286862091518255600182019060018060a01b0390511684825416179055019160018060a01b039051169082541617905560018060a01b038b16815260098c522060018060a01b0382166000528a5260406000206109c485825461227e565b9055600b54986040519485948b86528c8601526024356040860152426060860152608085015260018060a01b031660a084015260e060c084015260018060a01b03169660018060a01b031695339560e084019161225d565b0390a460018101600b55604051908152f35b606460405162461bcd60e51b815260206004820152602060248201527f4552433732313a206d696e7420746f20746865207a65726f20616464726573736044820152fd5b9091506020813d602011610a9e575b81610a8e602093836120df565b8101031261070757519038610824565b3d9150610a81565b6040513d85823e3d90fd5b60405162461bcd60e51b815260206004820152600d60248201526c494e56414c49445f575249544560981b6044820152606490fd5b50346101d45760203660031901126101d457600435808252600260205260408220549091906001600160a01b03161561071f57610b21612ed8565b506000828152600260205260409020546001600160a01b03161561071f5781600052600a602052604060002060405192610b5a84612093565b815484526001808301546001600160a01b0390811660208701908152600290940154166040808701829052516327f0bf0d60e11b815260048101939093529094908490839060249082905afa928315610f545784928594610eec575b5051610bca906001600160a01b031661281b565b8151909560218682847a184f03e93ff9f4daa797ed6e38ed64bf6a1f01000000000000000080821015610eda575b50600a906d04ee2d6d415b85acef810000000080821015610ecd575b50662386f26fc1000080821015610ec0575b506305f5e10080821015610eb3575b5061271080821015610ea6575b506064811015610e98575b1015610e91575b93929190610c638382016126a3565b9850880101905b610e5a575b61037d610df388610dee60b38c8b8b610c948c604060018060a01b039101511661281b565b6040519687947f7b2261747472696275746573223a5b7b2274726169745f74797065223a224375602087015270393932b731bc9116113b30b63ab2911d1160791b6040870152610cee81518092602060518a019101611f98565b85017f227d2c7b2274726169745f74797065223a22457363726f776564222c2264697360518201527f706c61795f74797065223a226e756d626572222c2276616c7565223a000000006071820152610d50825180936020608d85019101611f98565b017f7d2c7b2274726169745f74797065223a224d6f64756c65222c2276616c756522608d820152611d1160f11b60ad820152610d9682518093602060af85019101611f98565b0161227d60f01b60af820152610db682518093602060b185019101611f98565b01605d60f81b60b1820152610dd582518093602060b285019101611f98565b01607d60f81b60b28201520360938101845201826120df565b6126d5565b610e46603d60405180937f646174613a6170706c69636174696f6e2f6a736f6e3b6261736536342c0000006020830152610e368151809260208686019101611f98565b810103601d8101845201826120df565b604051918291602083526020830190611fbb565b6000190190600a906f181899199a1a9b1b9c1cb0b131b232b360811b8282061a835304918215610e8c57919082610c6a565b610c6f565b0182610c54565b606460029104930192610c4d565b6004910493019238610c42565b6008910493019238610c35565b6010910493019238610c26565b6020910493019238610c14565b92505050830482600a60409290610bf8565b925092503d8085843e610eff81846120df565b8201604083820312610f505782516001600160401b0390818111610f4c5782610f29918601612661565b936020810151918211610f4c5791610f4591610bca9301612661565b9390610bb6565b8680fd5b8480fd5b6040513d86823e3d90fd5b50346101d45760203660031901126101d457600435808252600260205260408220546001600160a01b03161561071f578160409160209352600a83522054604051908152f35b50346101d45760403660031901126101d457610fbf611fe0565b610fc7612022565b90610fd061211b565b611014813f92838552600760205260ff60408620541693610ff8821515809615151415612ef7565b85526007602052604085209060ff801983541691151516179055565b60405191825242602083015260018060a01b0316907f782c39691e7343e20d628434c28903c45c4fc7749813fd9d6e7ec17adf32dbe960403392a380f35b50346101d45760803660031901126101d45761106c611fe0565b61107461200c565b90606435906001600160401b0382116110db57366023830112156110db57816004013592846110a285612100565b936110b060405195866120df565b8585523660248783010111610731578561048a96602460209301838801378501015260443591612458565b8380fd5b50346101d45760403660031901126101d4576110f9611fe0565b604061110361200c565b9260018060a01b03809316815260096020522091166000526020526020604060002054604051908152f35b50346101d45760403660031901126101d457611148611fe0565b611150612022565b6001600160a01b03909116903382146111c157338352600560205260408320826000526020526111908160406000209060ff801983541691151516179055565b60405190151581527f17307eab39ab6107e8899845ad3d59bd9653f200f220920489ca2b5937696c3160203392a380f35b60405162461bcd60e51b815260206004820152601960248201527f4552433732313a20617070726f766520746f2063616c6c6572000000000000006044820152606490fd5b50346101d45760203660031901126101d4576004358082526002602052604082205490916001600160a01b039182161561071f5760408160209460029352600a855220015416604051908152f35b50346101d457806003193601126101d45760405190806001805491611278836121e5565b808652928281169081156112f9575060011461129f575b61037d85610e46818703826120df565b92508083527fb10e2d527612073b26eecdfd717e6a320cf44b4afac2b0732d9fcbe2b7fa0cf65b8284106112e1575050508101602001610e468261037d61128f565b805460208587018101919091529093019281016112c6565b86955061037d96935060209250610e4694915060ff191682840152151560051b820101929361128f565b50346101d457602090816003193601126101d4576001600160401b036004358181116114ce57611357903690600401612066565b9161136061211b565b82116114ba576113716008546121e5565b601f811161145c575b508293601f83116001146113dc57509282938293926113d1575b50508160011b916000199060031b1c1916176008555b7fa5d4097edda6d87cb9329af83fb3712ef77eeb13738ffe43cc35a4ce305ad9628180a180f35b013590503880611394565b601f198316947ff3f7a9fe364faab93b216da50a3214154f22a0a2b415b23a84c8169e8b636ee3929185905b87821061144457505083600195961061142a575b505050811b016008556113aa565b0135600019600384901b60f8161c1916905538808061141c565b80600184968294958701358155019501920190611408565b7ff3f7a9fe364faab93b216da50a3214154f22a0a2b415b23a84c8169e8b636ee3601f840160051c8101918685106114b0575b601f0160051c01905b8181106114a5575061137a565b848155600101611498565b909150819061148f565b634e487b7160e01b83526041600452602483fd5b8280fd5b50346101d457806003193601126101d4576006546040516001600160a01b039091168152602090f35b50346101d45760203660031901126101d457600435611518612ed8565b506000818152600260205260409020546001600160a01b039081161561071f57606091600052600a60205260406000209060026040519261155884612093565b80548452826001820154166020850152015416604082015261159c6040518092604090805183528160018060a01b0391826020820151166020860152015116910152565bf35b50346101d457806003193601126101d4576115b761211b565b600680546001600160a01b031981169091556000906001600160a01b03167f8be0079c531659141344cd1fd0a4f28419497f9722a3daafe3b4186f6b6457e08280a380f35b50346101d45760203660031901126101d4576001600160a01b0361161e611fe0565b16801561163b578160409160209352600383522054604051908152f35b60405162461bcd60e51b815260206004820152602960248201527f4552433732313a2061646472657373207a65726f206973206e6f7420612076616044820152683634b21037bbb732b960b91b6064820152608490fd5b50346101d45760203660031901126101d457600435808252600a60205260408220600201546001600160a01b031633036116e2576020600080516020612f6883398151915291604051908152a180f35b60405162461bcd60e51b815260206004820152600a6024820152694e4f545f4d4f44554c4560b01b6044820152606490fd5b50346101d45760203660031901126101d45760206117336004356121bf565b6040516001600160a01b039091168152f35b50346101d45760203660031901126101d45760206101ca6101b5611fe0565b5060803660031901126101d457611779611ff6565b6064356001600160401b0381116114ce57611798903690600401612066565b6004358452600260205260408420549192916001600160a01b03161561071f576117c0612ed8565b506004356000908152600260205260409020546001600160a01b03161561071f57600435600052600a602052604060002090604051916117ff83612093565b8054835260018101546001600160a01b0390811660208501526002909101541660408301818152909490926118356004356121bf565b6040805163747729d160e01b8152336004808301919091526001600160a01b039384166024808401919091528985166044840152356064830181905290356084830152845160a4830152602085810151851660c48401529285015190931660e482015291979195918690610120610104830152818b816118ba61012482018b8b61225d565b03925af19485156119f25788956119be575b506004358852600a602052604088206118e6888254612654565b9055602082015161190b906001600160a01b031687611905888b612654565b91612c46565b60018060a01b03905116875260096020526040872090602060018060a01b0391015116600052602052604060002061194484825461227e565b9055816040519283928337810160008152039020926040519260018060a01b0316835260208301526040820152426060820152600435907fa45d21a235efa64e1d8f22fcecdbc348471bf46c3fd95cb0b3d78bb59ccfdd8e60803392a4600080516020612f6883398151915260206040516004358152a180f35b9094506020813d6020116119ea575b816119da602093836120df565b81010312610707575193386118cc565b3d91506119cd565b6040513d8a823e3d90fd5b50346101d45761048a611a0f36612031565b9060405192611a1d846120c4565b858452612458565b50346101d457611a3436612031565b808452600260205260408420549192916001600160a01b03161561071f57611a9581600080516020612f6883398151915294602094611a9060405187808201526000604082015260408152611a8881612093565b84848461293e565b612347565b604051908152a180f35b50346101d457806003193601126101d4576020600b54604051908152f35b50346101d45760203660031901126101d4576004358082526002602052604082205490916001600160a01b039182161561071f5760408160209460019352600a855220015416604051908152f35b50346101d45760403660031901126101d457611b25611fe0565b611b2d612022565b90611b3661211b565b611b5e813f92838552600760205260ff60408620541693610ff8821515809615151415612ef7565b604080513381524260208201526001600160a01b0392909216917f1bf5ef6ada443138fcac941f79625fe01e92ff514fee9f160bff18363199c7a09190a380f35b50346101d45760403660031901126101d457611bb9611fe0565b6024358083526002602090815260408420546001600160a01b03949391929085161561071f57611be7612ed8565b5080845260028352846040852054161561071f57808452600a8352604084209185600260405194611c1786612093565b805486528260018201541687870152015416806040850152611c38836121bf565b90803b15610f4c5760e48792838a93611ca0856040519889978896631804136b60e11b885233600489015216602487015216998a60448601528960648601526084850190604090805183528160018060a01b0391826020820151166020860152015116910152565b5af18015611e4357611e14575b5084611cb8826121bf565b16808314611dc557803314908115611da4575b5015611d395780849581600080516020612f6883398151915296526004855260408720846001600160601b0360a01b825416179055611d09826121bf565b1692604051937f8c5be1e5ebec7d5bd14f71427d1e84f3dd0314c0f7b2291e5b200ac8c7c3b9258880a48152a180f35b60405162461bcd60e51b815260048101849052603d60248201527f4552433732313a20617070726f76652063616c6c6572206973206e6f7420746f60448201527f6b656e206f776e6572206f7220617070726f76656420666f7220616c6c0000006064820152608490fd5b90508452600583526040842033600052835260ff6040600020541638611ccb565b60405162461bcd60e51b815260048101859052602160248201527f4552433732313a20617070726f76616c20746f2063757272656e74206f776e656044820152603960f91b6064820152608490fd5b6001600160401b038195929511611e2f576040529238611cad565b634e487b7160e01b82526041600452602482fd5b6040513d87823e3d90fd5b50346101d45760203660031901126101d457602061173360043561221f565b50346101d457806003193601126101d45760405190808054611e8e816121e5565b808552916001918083169081156112f95750600114611eb75761037d85610e46818703826120df565b80809450527f290decd9548b62a8d60345a988386fc84ba6bc95484008f6362f93160ef3e5635b828410611ef9575050508101602001610e468261037d61128f565b80546020858701810191909152909301928101611ede565b9050346107315760203660031901126107315760043563ffffffff60e01b81168091036114ce5760209250632483248360e11b8114908115611f55575b5015158152f35b6380ac58cd60e01b811491508115611f87575b8115611f76575b5038611f4e565b6301ffc9a760e01b14905038611f6f565b635b5e139f60e01b81149150611f68565b60005b838110611fab5750506000910152565b8181015183820152602001611f9b565b90602091611fd481518092818552858086019101611f98565b601f01601f1916010190565b600435906001600160a01b038216820361070757565b604435906001600160a01b038216820361070757565b602435906001600160a01b038216820361070757565b60243590811515820361070757565b6060906003190112610707576001600160a01b0390600435828116810361070757916024359081168103610707579060443590565b9181601f84011215610707578235916001600160401b038311610707576020838186019501011161070757565b606081019081106001600160401b038211176120ae57604052565b634e487b7160e01b600052604160045260246000fd5b602081019081106001600160401b038211176120ae57604052565b90601f801991011681019081106001600160401b038211176120ae57604052565b6001600160401b0381116120ae57601f01601f191660200190565b6006546001600160a01b0316330361212f57565b606460405162461bcd60e51b815260206004820152602060248201527f4f776e61626c653a2063616c6c6572206973206e6f7420746865206f776e65726044820152fd5b1561217a57565b60405162461bcd60e51b815260206004820152601860248201527f4552433732313a20696e76616c696420746f6b656e20494400000000000000006044820152606490fd5b6000908152600260205260409020546001600160a01b03166121e2811515612173565b90565b90600182811c92168015612215575b60208310146121ff57565b634e487b7160e01b600052602260045260246000fd5b91607f16916121f4565b600081815260026020526040902054612242906001600160a01b03161515612173565b6000908152600460205260409020546001600160a01b031690565b908060209392818452848401376000828201840152601f01601f1916010190565b9190820180921161228b57565b634e487b7160e01b600052601160045260246000fd5b156122a857565b60405162461bcd60e51b815260206004820152601c60248201527f4552433732313a20746f6b656e20616c7265616479206d696e746564000000006044820152606490fd5b156122f457565b60405162461bcd60e51b815260206004820152602560248201527f4552433732313a207472616e736665722066726f6d20696e636f72726563742060448201526437bbb732b960d91b6064820152608490fd5b9061236f91612355846121bf565b6001600160a01b03939184169284929091831684146122ed565b16918215612407578161238c91612385866121bf565b16146122ed565b7fddf252ad1be2c89b69c2b068fc378daa952ba7f163c4a11628f55a4df523b3ef60008481526004602052604081206001600160601b0360a01b9081815416905583825260036020526040822060001981540190558482526040822060018154019055858252600260205284604083209182541617905580a4565b60405162461bcd60e51b8152602060048201526024808201527f4552433732313a207472616e7366657220746f20746865207a65726f206164646044820152637265737360e01b6064820152608490fd5b90916124999261246b829583838661293e565b60405192602080850152600060408501526040845261248984612093565b612494838383612347565b612559565b156124b9576020600080516020612f6883398151915291604051908152a1565b60405162461bcd60e51b8152806124d2600482016124d6565b0390fd5b60809060208152603260208201527f4552433732313a207472616e7366657220746f206e6f6e20455243373231526560408201527131b2b4bb32b91034b6b83632b6b2b73a32b960711b60608201520190565b3d15612554573d9061253a82612100565b9161254860405193846120df565b82523d6000602084013e565b606090565b919290803b1561264b57604051630a85bd0160e11b8082523360048301526001600160a01b039485166024830152604482019590955260806064820152916020918391829081906125ae906084830190611fbb565b03916000968791165af190829082612603575b50506125f5576125cf612529565b805190816125f05760405162461bcd60e51b8152806124d2600482016124d6565b602001fd5b6001600160e01b0319161490565b909192506020813d8211612643575b8161261f602093836120df565b810103126107315751906001600160e01b0319821682036101d457509038806125c1565b3d9150612612565b50505050600190565b9190820391821161228b57565b81601f8201121561070757805161267781612100565b9261268560405194856120df565b81845260208284010111610707576121e29160208085019101611f98565b906126ad82612100565b6126ba60405191826120df565b82815280926126cb601f1991612100565b0190602036910137565b805115612807576040516126e881612093565b604081527f4142434445464748494a4b4c4d4e4f505152535455565758595a61626364656660208201527f6768696a6b6c6d6e6f707172737475767778797a303132333435363738392b2f6040820152815160029283820180921161228b576003918290046001600160fe1b038116810361228b5761276a908594951b6126a3565b936020850193829183518401925b8381106127b657505050505106806001146127a357600214612798575090565b603d90600019015390565b50603d9081600019820153600119015390565b85600491979293949701918251600190603f9082828260121c16880101518453828282600c1c16880101518385015382828260061c1688010151888501531685010151878201530195929190612778565b50604051612814816120c4565b6000815290565b604051906001600160a01b031661283182612093565b602a825260209081830160403682378351156129285760309053825160019081101561292857607860218501536029905b8082116128b6575050612873575090565b6064906040519062461bcd60e51b825280600483015260248201527f537472696e67733a20686578206c656e67746820696e73756666696369656e746044820152fd5b9091600f81166010811015612913578551841015612913576f181899199a1a9b1b9c1cb0b131b232b360811b901a85840185015360041c9180156128fe576000190190612862565b60246000634e487b7160e01b81526011600452fd5b60246000634e487b7160e01b81526032600452fd5b634e487b7160e01b600052603260045260246000fd5b909291906001600160a01b03612953836121bf565b16803314908115612c21575b508015612c07575b15612bca57825115612ba5575b61297c612ed8565b506000828152600260205260409020546001600160a01b03161561071f5781600052600a6020526040600020926040516129b581612093565b8454815260018501546001600160a01b03908116602083019081526002909601541660408201526129e5846121bf565b60408201516001600160a01b031696909590602090612a038761221f565b6040805163aca2caf360e01b81523360048201526001600160a01b0392831660248201528a8316604482015297821660648901529181166084880181905260a48801899052855160c48901526020860151821660e4890152918501511661010487015297859061014061012483015281600081612a8461014482018a611fbb565b03925af1918215612b9957600092612b45575b7f5e3a637bdcd06ac50d3db8eb3575927de6c71cea82a0ee1f4d65026b7087e2e1945085600052600a6020526040600020612ad3848254612654565b9055604060018060a01b0391015116600052600960205260406000209060018060a01b039051166000526020526040600020612b1082825461227e565b9055612b2e6040519283928352606060208401526060830190611fbb565b4260408301526001600160a01b03909516940390a4565b91506020843d602011612b91575b81612b60602093836120df565b81010312610707577f5e3a637bdcd06ac50d3db8eb3575927de6c71cea82a0ee1f4d65026b7087e2e1935191612a97565b3d9150612b53565b6040513d6000823e3d90fd5b91506040516020808201526000604082015260408152612bc481612093565b91612974565b60405162461bcd60e51b81526020600482015260156024820152742727aa2fa0a8282927ab22a22fa7a92fa7aba722a960591b6044820152606490fd5b50336001600160a01b03612c1a8461221f565b1614612967565b9050600052600560205260406000203360005260205260ff604060002054163861295f565b91909181612c5357505050565b60405163a9059cbb60e01b60208201526001600160a01b03939093166024840152604480840192909252908252612c9e9190612c906064836120df565b6001600160a01b0316612ca0565b565b60018060a01b03169060405160408101908082106001600160401b038311176120ae57612d11916040526020938482527f5361666545524332303a206c6f772d6c6576656c2063616c6c206661696c6564858301526000808587829751910182855af1612d0b612529565b91612d9c565b805180612d1f575b50505050565b8184918101031261073157820151908115918215036101d45750612d4557808080612d19565b6084906040519062461bcd60e51b82526004820152602a60248201527f5361666545524332303a204552433230206f7065726174696f6e20646964206e6044820152691bdd081cdd58d8d9595960b21b6064820152fd5b91929015612dfe5750815115612db0575090565b3b15612db95790565b60405162461bcd60e51b815260206004820152601d60248201527f416464726573733a2063616c6c20746f206e6f6e2d636f6e74726163740000006044820152606490fd5b825190915015612e115750805190602001fd5b60405162461bcd60e51b8152602060048201529081906124d2906024830190611fbb565b93612e40919261227e565b80612e65575b5081612e5157505050565b612c9e9233906001600160a01b0316612e80565b612e7a9030336001600160a01b038716612e80565b38612e46565b6040516323b872dd60e01b60208201526001600160a01b03928316602482015292909116604483015260648083019390935291815260a08101918183106001600160401b038411176120ae57612c9e92604052612ca0565b60405190612ee582612093565b60006040838281528260208201520152565b15612efe57565b60405162461bcd60e51b815260206004820152601360248201527214915115539110539517d5d2125511531254d5606a1b6044820152606490fd5b3f600052600760205260ff604060002054169081612f55575090565b90503f60005260ff604060002054169056fef8e1a15aba9398e019f0b49df1a4fde98ee17ae345cb5f6b5e2c27f5033e8ce7a26469706673582212203506892ca683564de3def695d9d63acddbf27874d4977bd98595969bda47162964736f6c63430008140033",
    "linkReferences": {}
  },
  "methodIdentifiers": {
    "approve(address,uint256)": "095ea7b3",
    "balanceOf(address)": "70a08231",
    "cash(uint256,uint256,address,bytes)": "4e289c06",
    "contractURI()": "e8a3d485",
    "fund(uint256,uint256,uint256,bytes)": "d6122058",
    "getApproved(uint256)": "081812fc",
    "isApprovedForAll(address,address)": "e985e9c5",
    "metadataUpdate(uint256)": "6a1c34fb",
    "moduleRevenue(address,address)": "b1d70e42",
    "moduleWhitelisted(address)": "52f37f56",
    "moduleWithdraw(address,uint256,address)": "d6a4f84c",
    "name()": "06fdde03",
    "notaCurrency(uint256)": "13e94a23",
    "notaEscrowed(uint256)": "c73553da",
    "notaInfo(uint256)": "78f513e8",
    "notaModule(uint256)": "9ba853ef",
    "owner()": "8da5cb5b",
    "ownerOf(uint256)": "6352211e",
    "renounceOwnership()": "715018a6",
    "safeTransferFrom(address,address,uint256)": "42842e0e",
    "safeTransferFrom(address,address,uint256,bytes)": "b88d4fde",
    "setApprovalForAll(address,bool)": "a22cb465",
    "setContractURI(string)": "938e3d7b",
    "supportsInterface(bytes4)": "01ffc9a7",
    "symbol()": "95d89b41",
    "tokenURI(uint256)": "c87b56dd",
    "tokenWhitelisted(address)": "ff8507e8",
    "totalSupply()": "18160ddd",
    "transferFrom(address,address,uint256)": "23b872dd",
    "transferOwnership(address)": "f2fde38b",
    "validWrite(address,address)": "dfd5d811",
    "whitelistModule(address,bool)": "c3f8450b",
    "whitelistToken(address,bool)": "0ffb1d8b",
    "write(address,uint256,uint256,address,address,bytes)": "d0d0bb3f"
  },
  "id": 41
}