{
  "abi": [
    {
      "inputs": [
        {
          "internalType": "address",
          "name": "registrar",
          "type": "address"
        },
        {
          "components": [
            {
              "internalType": "uint256",
              "name": "writeBPS",
              "type": "uint256"
            },
            {
              "internalType": "uint256",
              "name": "transferBPS",
              "type": "uint256"
            },
            {
              "internalType": "uint256",
              "name": "fundBPS",
              "type": "uint256"
            },
            {
              "internalType": "uint256",
              "name": "cashBPS",
              "type": "uint256"
            }
          ],
          "internalType": "struct DataTypes.WTFCFees",
          "name": "_fees",
          "type": "tuple"
        },
        {
          "internalType": "string",
          "name": "__baseURI",
          "type": "string"
        }
      ],
      "stateMutability": "nonpayable",
      "type": "constructor"
    },
    {
      "inputs": [],
      "name": "AddressZero",
      "type": "error"
    },
    {
      "inputs": [],
      "name": "AmountZero",
      "type": "error"
    },
    {
      "inputs": [],
      "name": "Disallowed",
      "type": "error"
    },
    {
      "inputs": [],
      "name": "FeeTooHigh",
      "type": "error"
    },
    {
      "inputs": [],
      "name": "InitParamsInvalid",
      "type": "error"
    },
    {
      "inputs": [],
      "name": "InsufficientPayment",
      "type": "error"
    },
    {
      "inputs": [],
      "name": "InvoiceWithPay",
      "type": "error"
    },
    {
      "inputs": [],
      "name": "NotRegistrar",
      "type": "error"
    },
    {
      "inputs": [],
      "name": "OnlyInspector",
      "type": "error"
    },
    {
      "inputs": [],
      "name": "OnlyOwner",
      "type": "error"
    },
    {
      "inputs": [],
      "name": "OnlyOwnerOrApproved",
      "type": "error"
    },
    {
      "inputs": [],
      "name": "OnlyToDebtorOrOwner",
      "type": "error"
    },
    {
      "inputs": [],
      "name": "REGISTRAR",
      "outputs": [
        {
          "internalType": "address",
          "name": "",
          "type": "address"
        }
      ],
      "stateMutability": "view",
      "type": "function"
    },
    {
      "inputs": [],
      "name": "_URI",
      "outputs": [
        {
          "internalType": "string",
          "name": "",
          "type": "string"
        }
      ],
      "stateMutability": "view",
      "type": "function"
    },
    {
      "inputs": [
        {
          "internalType": "address",
          "name": "",
          "type": "address"
        }
      ],
      "name": "dappOperatorFees",
      "outputs": [
        {
          "internalType": "uint256",
          "name": "writeBPS",
          "type": "uint256"
        },
        {
          "internalType": "uint256",
          "name": "transferBPS",
          "type": "uint256"
        },
        {
          "internalType": "uint256",
          "name": "fundBPS",
          "type": "uint256"
        },
        {
          "internalType": "uint256",
          "name": "cashBPS",
          "type": "uint256"
        }
      ],
      "stateMutability": "view",
      "type": "function"
    },
    {
      "inputs": [
        {
          "internalType": "address",
          "name": "dappOperator",
          "type": "address"
        }
      ],
      "name": "getFees",
      "outputs": [
        {
          "components": [
            {
              "internalType": "uint256",
              "name": "writeBPS",
              "type": "uint256"
            },
            {
              "internalType": "uint256",
              "name": "transferBPS",
              "type": "uint256"
            },
            {
              "internalType": "uint256",
              "name": "fundBPS",
              "type": "uint256"
            },
            {
              "internalType": "uint256",
              "name": "cashBPS",
              "type": "uint256"
            }
          ],
          "internalType": "struct DataTypes.WTFCFees",
          "name": "",
          "type": "tuple"
        }
      ],
      "stateMutability": "view",
      "type": "function"
    },
    {
      "inputs": [
        {
          "internalType": "uint256",
          "name": "",
          "type": "uint256"
        }
      ],
      "name": "payInfo",
      "outputs": [
        {
          "internalType": "address",
          "name": "inspector",
          "type": "address"
        },
        {
          "internalType": "address",
          "name": "creditor",
          "type": "address"
        },
        {
          "internalType": "address",
          "name": "debtor",
          "type": "address"
        },
        {
          "internalType": "uint256",
          "name": "amount",
          "type": "uint256"
        },
        {
          "internalType": "string",
          "name": "memoHash",
          "type": "string"
        },
        {
          "internalType": "string",
          "name": "imageURI",
          "type": "string"
        }
      ],
      "stateMutability": "view",
      "type": "function"
    },
    {
      "inputs": [
        {
          "internalType": "address",
          "name": "caller",
          "type": "address"
        },
        {
          "internalType": "address",
          "name": "owner",
          "type": "address"
        },
        {
          "internalType": "address",
          "name": "",
          "type": "address"
        },
        {
          "internalType": "uint256",
          "name": "",
          "type": "uint256"
        },
        {
          "components": [
            {
              "internalType": "address",
              "name": "currency",
              "type": "address"
            },
            {
              "internalType": "uint256",
              "name": "escrowed",
              "type": "uint256"
            },
            {
              "internalType": "uint256",
              "name": "createdAt",
              "type": "uint256"
            },
            {
              "internalType": "address",
              "name": "module",
              "type": "address"
            }
          ],
          "internalType": "struct DataTypes.Cheq",
          "name": "",
          "type": "tuple"
        },
        {
          "internalType": "bytes",
          "name": "",
          "type": "bytes"
        }
      ],
      "name": "processApproval",
      "outputs": [],
      "stateMutability": "view",
      "type": "function"
    },
    {
      "inputs": [
        {
          "internalType": "address",
          "name": "caller",
          "type": "address"
        },
        {
          "internalType": "address",
          "name": "owner",
          "type": "address"
        },
        {
          "internalType": "address",
          "name": "to",
          "type": "address"
        },
        {
          "internalType": "uint256",
          "name": "amount",
          "type": "uint256"
        },
        {
          "internalType": "uint256",
          "name": "cheqId",
          "type": "uint256"
        },
        {
          "components": [
            {
              "internalType": "address",
              "name": "currency",
              "type": "address"
            },
            {
              "internalType": "uint256",
              "name": "escrowed",
              "type": "uint256"
            },
            {
              "internalType": "uint256",
              "name": "createdAt",
              "type": "uint256"
            },
            {
              "internalType": "address",
              "name": "module",
              "type": "address"
            }
          ],
          "internalType": "struct DataTypes.Cheq",
          "name": "cheq",
          "type": "tuple"
        },
        {
          "internalType": "bytes",
          "name": "initData",
          "type": "bytes"
        }
      ],
      "name": "processCash",
      "outputs": [
        {
          "internalType": "uint256",
          "name": "",
          "type": "uint256"
        }
      ],
      "stateMutability": "nonpayable",
      "type": "function"
    },
    {
      "inputs": [
        {
          "internalType": "address",
          "name": "",
          "type": "address"
        },
        {
          "internalType": "address",
          "name": "owner",
          "type": "address"
        },
        {
          "internalType": "uint256",
          "name": "amount",
          "type": "uint256"
        },
        {
          "internalType": "uint256",
          "name": "instant",
          "type": "uint256"
        },
        {
          "internalType": "uint256",
          "name": "cheqId",
          "type": "uint256"
        },
        {
          "components": [
            {
              "internalType": "address",
              "name": "currency",
              "type": "address"
            },
            {
              "internalType": "uint256",
              "name": "escrowed",
              "type": "uint256"
            },
            {
              "internalType": "uint256",
              "name": "createdAt",
              "type": "uint256"
            },
            {
              "internalType": "address",
              "name": "module",
              "type": "address"
            }
          ],
          "internalType": "struct DataTypes.Cheq",
          "name": "cheq",
          "type": "tuple"
        },
        {
          "internalType": "bytes",
          "name": "initData",
          "type": "bytes"
        }
      ],
      "name": "processFund",
      "outputs": [
        {
          "internalType": "uint256",
          "name": "",
          "type": "uint256"
        }
      ],
      "stateMutability": "nonpayable",
      "type": "function"
    },
    {
      "inputs": [
        {
          "internalType": "uint256",
          "name": "tokenId",
          "type": "uint256"
        }
      ],
      "name": "processTokenURI",
      "outputs": [
        {
          "internalType": "string",
          "name": "",
          "type": "string"
        }
      ],
      "stateMutability": "view",
      "type": "function"
    },
    {
      "inputs": [
        {
          "internalType": "address",
          "name": "caller",
          "type": "address"
        },
        {
          "internalType": "address",
          "name": "approved",
          "type": "address"
        },
        {
          "internalType": "address",
          "name": "owner",
          "type": "address"
        },
        {
          "internalType": "address",
          "name": "",
          "type": "address"
        },
        {
          "internalType": "address",
          "name": "",
          "type": "address"
        },
        {
          "internalType": "uint256",
          "name": "",
          "type": "uint256"
        },
        {
          "internalType": "address",
          "name": "currency",
          "type": "address"
        },
        {
          "internalType": "uint256",
          "name": "escrowed",
          "type": "uint256"
        },
        {
          "internalType": "uint256",
          "name": "",
          "type": "uint256"
        },
        {
          "internalType": "bytes",
          "name": "data",
          "type": "bytes"
        }
      ],
      "name": "processTransfer",
      "outputs": [
        {
          "internalType": "uint256",
          "name": "",
          "type": "uint256"
        }
      ],
      "stateMutability": "nonpayable",
      "type": "function"
    },
    {
      "inputs": [
        {
          "internalType": "address",
          "name": "caller",
          "type": "address"
        },
        {
          "internalType": "address",
          "name": "owner",
          "type": "address"
        },
        {
          "internalType": "uint256",
          "name": "cheqId",
          "type": "uint256"
        },
        {
          "internalType": "address",
          "name": "currency",
          "type": "address"
        },
        {
          "internalType": "uint256",
          "name": "escrowed",
          "type": "uint256"
        },
        {
          "internalType": "uint256",
          "name": "instant",
          "type": "uint256"
        },
        {
          "internalType": "bytes",
          "name": "initData",
          "type": "bytes"
        }
      ],
      "name": "processWrite",
      "outputs": [
        {
          "internalType": "uint256",
          "name": "",
          "type": "uint256"
        }
      ],
      "stateMutability": "nonpayable",
      "type": "function"
    },
    {
      "inputs": [
        {
          "internalType": "address",
          "name": "",
          "type": "address"
        },
        {
          "internalType": "address",
          "name": "",
          "type": "address"
        }
      ],
      "name": "revenue",
      "outputs": [
        {
          "internalType": "uint256",
          "name": "",
          "type": "uint256"
        }
      ],
      "stateMutability": "view",
      "type": "function"
    },
    {
      "inputs": [
        {
          "components": [
            {
              "internalType": "uint256",
              "name": "writeBPS",
              "type": "uint256"
            },
            {
              "internalType": "uint256",
              "name": "transferBPS",
              "type": "uint256"
            },
            {
              "internalType": "uint256",
              "name": "fundBPS",
              "type": "uint256"
            },
            {
              "internalType": "uint256",
              "name": "cashBPS",
              "type": "uint256"
            }
          ],
          "internalType": "struct DataTypes.WTFCFees",
          "name": "_fees",
          "type": "tuple"
        }
      ],
      "name": "setFees",
      "outputs": [],
      "stateMutability": "nonpayable",
      "type": "function"
    },
    {
      "inputs": [
        {
          "internalType": "address",
          "name": "token",
          "type": "address"
        }
      ],
      "name": "withdrawFees",
      "outputs": [],
      "stateMutability": "nonpayable",
      "type": "function"
    }
  ],
  "bytecode": {
    "object": "0x60a06040523480156200001157600080fd5b5060405162001c3c38038062001c3c83398101604081905262000034916200029e565b82826001600160a01b0382166200005e576040516348be0eb360e01b815260040160405180910390fd5b6001600160a01b03821660805280516127101015620000905760405163cd4e616760e01b815260040160405180910390fd5b80602001516127101015620000b85760405163cd4e616760e01b815260040160405180910390fd5b80604001516127101015620000e05760405163cd4e616760e01b815260040160405180910390fd5b80606001516127101015620001085760405163cd4e616760e01b815260040160405180910390fd5b336000908152600160208181526040928390208451815590840151918101919091558183015160028201556060830151600390910155516001600160a01b038316907ff1a1fa6b64aa95186f5a1285e76198d0da80d9c5a88062641d447f1d7c54e56c906200017a9042815260200190565b60405180910390a25060029050620001938282620003d6565b50505050620004a2565b634e487b7160e01b600052604160045260246000fd5b604051608081016001600160401b0381118282101715620001d857620001d86200019d565b60405290565b604051601f8201601f191681016001600160401b03811182821017156200020957620002096200019d565b604052919050565b600082601f8301126200022357600080fd5b81516001600160401b038111156200023f576200023f6200019d565b602062000255601f8301601f19168201620001de565b82815285828487010111156200026a57600080fd5b60005b838110156200028a5785810183015182820184015282016200026d565b506000928101909101919091529392505050565b600080600083850360c0811215620002b557600080fd5b84516001600160a01b0381168114620002cd57600080fd5b93506080601f1982011215620002e257600080fd5b50620002ed620001b3565b602085015181526040850151602082015260608501516040820152608085015160608201528092505060a084015160018060401b038111156200032f57600080fd5b6200033d8682870162000211565b9150509250925092565b600181811c908216806200035c57607f821691505b6020821081036200037d57634e487b7160e01b600052602260045260246000fd5b50919050565b601f821115620003d157600081815260208120601f850160051c81016020861015620003ac5750805b601f850160051c820191505b81811015620003cd57828155600101620003b8565b5050505b505050565b81516001600160401b03811115620003f257620003f26200019d565b6200040a8162000403845462000347565b8462000383565b602080601f831160018114620004425760008415620004295750858301515b600019600386901b1c1916600185901b178555620003cd565b600085815260208120601f198616915b82811015620004735788860151825594840194600190910190840162000452565b5085821015620004925787850151600019600388901b60f8161c191681555b5050505050600190811b01905550565b608051611754620004e8600039600081816102790152818161031a015281816104b80152818161083201528181610af401528181610bc50152610c8f01526117546000f3fe608060405234801561001057600080fd5b50600436106100ea5760003560e01c8063b4e87e8f1161008c578063c0c9572c11610066578063c0c9572c14610261578063cb60907714610274578063e4175968146102b3578063fd77c960146102c657600080fd5b8063b4e87e8f14610233578063b5d701ba1461023b578063be2f3fdd1461024e57600080fd5b80634fe17e1a116100c85780634fe17e1a1461018057806370530dac146101a05780639a0ea37a146101c55780639af608c9146101ed57600080fd5b806306890cd0146100ef5780631385a7b614610115578063164e68de1461016b575b600080fd5b6101026100fd366004610ebd565b61030d565b6040519081526020015b60405180910390f35b61014b610123366004610f5f565b6001602081905260009182526040909120805491810154600282015460039092015490919084565b60408051948552602085019390935291830152606082015260800161010c565b61017e610179366004610f5f565b610420565b005b61019361018e366004610f83565b610555565b60405161010c9190610fec565b6101b36101ae366004610f83565b6105c7565b60405161010c96959493929190610fff565b6101026101d336600461104c565b600060208181529281526040808220909352908152205481565b6102006101fb366004610f5f565b61071f565b60405161010c91908151815260208083015190820152604080830151908201526060918201519181019190915260800190565b610193610797565b610102610249366004611085565b610825565b61010261025c3660046110fd565b610ae7565b61010261026f3660046111fc565b610bb8565b61029b7f000000000000000000000000000000000000000000000000000000000000000081565b6040516001600160a01b03909116815260200161010c565b61017e6102c13660046112c6565b610c84565b61017e6102d4366004611357565b33600090815260016020818152604092839020845181559084015191810191909155908201516002820155606090910151600390910155565b6000336001600160a01b037f0000000000000000000000000000000000000000000000000000000000000000161461035857604051632ad9535160e01b815260040160405180910390fd5b6000858152600360205260409020546001600160a01b038a811691161461039257604051639864fbb360e01b815260040160405180910390fd5b6000858152600360205260409020600201546001600160a01b038881169116148015906103d15750876001600160a01b0316876001600160a01b031614155b156103ef57604051630cf1166760e41b815260040160405180910390fd5b6104136103ff6020860186610f5f565b8761040c85870187610f5f565b6003610cff565b9998505050505050505050565b336000908152602081815260408083206001600160a01b03851684529091529020546001811161048e5760405162461bcd60e51b8152602060048201526014602482015273496e73756666696369656e7420726576656e756560601b60448201526064015b60405180910390fd5b336000908152602081815260408083206001600160a01b03868116855292529091206001908190557f00000000000000000000000000000000000000000000000000000000000000009091169063d6a4f84c9084906104ed90856113d3565b6040516001600160e01b031960e085901b1681526001600160a01b0390921660048301526024820152336044820152606401600060405180830381600087803b15801561053957600080fd5b505af115801561054d573d6000803e3d6000fd5b505050505050565b6060600260036000848152602001908152602001600020600401604051602001610580929190611493565b60408051601f198184030181528282526000858152600360209081529290206105b1939192600590910191016114b0565b6040516020818303038152906040529050919050565b6003602081905260009182526040909120805460018201546002830154938301546004840180546001600160a01b0394851696938516959490931693919261060e906113ec565b80601f016020809104026020016040519081016040528092919081815260200182805461063a906113ec565b80156106875780601f1061065c57610100808354040283529160200191610687565b820191906000526020600020905b81548152906001019060200180831161066a57829003601f168201915b50505050509080600501805461069c906113ec565b80601f01602080910402602001604051908101604052809291908181526020018280546106c8906113ec565b80156107155780601f106106ea57610100808354040283529160200191610715565b820191906000526020600020905b8154815290600101906020018083116106f857829003601f168201915b5050505050905086565b61074a6040518060800160405280600081526020016000815260200160008152602001600081525090565b506001600160a01b03166000908152600160208181526040928390208351608081018552815481529281015491830191909152600281015492820192909252600390910154606082015290565b600280546107a4906113ec565b80601f01602080910402602001604051908101604052809291908181526020018280546107d0906113ec565b801561081d5780601f106107f25761010080835404028352916020019161081d565b820191906000526020600020905b81548152906001019060200180831161080057829003601f168201915b505050505081565b6000336001600160a01b037f0000000000000000000000000000000000000000000000000000000000000000161461087057604051632ad9535160e01b815260040160405180910390fd5b60008080808080610883888a018a61150b565b9550955095509550955095508d6001600160a01b03168f6001600160a01b03160361097e5789156108c7576040516371c2848560e01b815260040160405180910390fd5b826000036108e8576040516365e52d5160e11b815260040160405180910390fd5b8e600360008f815260200190815260200160002060010160006101000a8154816001600160a01b0302191690836001600160a01b0316021790555085600360008f815260200190815260200160002060020160006101000a8154816001600160a01b0302191690836001600160a01b0316021790555082600360008f815260200190815260200160002060030181905550610a6d565b856001600160a01b03168e6001600160a01b031603610a54576001600160a01b038e166109be57604051639fabe1c160e01b815260040160405180910390fd5b85600360008f815260200190815260200160002060010160006101000a8154816001600160a01b0302191690836001600160a01b031602179055508e600360008f815260200190815260200160002060020160006101000a8154816001600160a01b0302191690836001600160a01b0316021790555089600360008f815260200190815260200160002060030181905550610a6d565b604051635a89288760e01b815260040160405180910390fd5b60008d815260036020526040902080546001600160a01b0319166001600160a01b038716178155600401610aa183826115ed565b5060008d8152600360205260409020600501610abd82826115ed565b50610ad48c610acc8c8e6116ad565b866000610cff565b9f9e505050505050505050505050505050565b6000336001600160a01b037f00000000000000000000000000000000000000000000000000000000000000001614610b3257604051632ad9535160e01b815260040160405180910390fd5b6001600160a01b038816610b5957604051639fabe1c160e01b815260040160405180910390fd5b600085815260036020819052604090912001548714610b8b5760405163cd1c886760e01b815260040160405180910390fd5b610413610b9b6020860186610f5f565b610ba5888a6116ad565b610bb185870187610f5f565b6002610cff565b6000336001600160a01b037f00000000000000000000000000000000000000000000000000000000000000001614610c0357604051632ad9535160e01b815260040160405180910390fd5b886001600160a01b03168b6001600160a01b031614158015610c375750896001600160a01b03168b6001600160a01b031614155b15610c5557604051632bce376360e21b815260040160405180910390fd5b610c75858584806020019051810190610c6e91906116c0565b6001610cff565b9b9a5050505050505050505050565b336001600160a01b037f00000000000000000000000000000000000000000000000000000000000000001614610ccd57604051632ad9535160e01b815260040160405180910390fd5b846001600160a01b0316866001600160a01b03161461054d57604051635fc483c560e01b815260040160405180910390fd5b60008160ff16600003610d2b57506001600160a01b038216600090815260016020526040902054610dd5565b8160ff16600103610d5957506001600160a01b03821660009081526001602081905260409091200154610dd5565b8160ff16600203610d8657506001600160a01b038216600090815260016020526040902060020154610dd5565b8160ff16600303610db357506001600160a01b038216600090815260016020526040902060030154610dd5565b60405162461bcd60e51b81526020600482015260006024820152604401610485565b612710610de282866116dd565b610dec91906116fc565b6001600160a01b03808516600090815260208181526040808320938a16835292905290812080549293508392909190610e269084906116ad565b909155509095945050505050565b6001600160a01b0381168114610e4957600080fd5b50565b8035610e5781610e34565b919050565b600060808284031215610e6e57600080fd5b50919050565b60008083601f840112610e8657600080fd5b50813567ffffffffffffffff811115610e9e57600080fd5b602083019150836020828501011115610eb657600080fd5b9250929050565b600080600080600080600080610140898b031215610eda57600080fd5b8835610ee581610e34565b97506020890135610ef581610e34565b96506040890135610f0581610e34565b95506060890135945060808901359350610f228a60a08b01610e5c565b925061012089013567ffffffffffffffff811115610f3f57600080fd5b610f4b8b828c01610e74565b999c989b5096995094979396929594505050565b600060208284031215610f7157600080fd5b8135610f7c81610e34565b9392505050565b600060208284031215610f9557600080fd5b5035919050565b60005b83811015610fb7578181015183820152602001610f9f565b50506000910152565b60008151808452610fd8816020860160208601610f9c565b601f01601f19169290920160200192915050565b602081526000610f7c6020830184610fc0565b6001600160a01b0387811682528681166020830152851660408201526060810184905260c06080820181905260009061103a90830185610fc0565b82810360a08401526104138185610fc0565b6000806040838503121561105f57600080fd5b823561106a81610e34565b9150602083013561107a81610e34565b809150509250929050565b60008060008060008060008060e0898b0312156110a157600080fd5b88356110ac81610e34565b975060208901356110bc81610e34565b96506040890135955060608901356110d381610e34565b94506080890135935060a0890135925060c089013567ffffffffffffffff811115610f3f57600080fd5b600080600080600080600080610140898b03121561111a57600080fd5b883561112581610e34565b9750602089013561113581610e34565b9650604089013595506060890135945060808901359350610f228a60a08b01610e5c565b634e487b7160e01b600052604160045260246000fd5b600082601f83011261118057600080fd5b813567ffffffffffffffff8082111561119b5761119b611159565b604051601f8301601f19908116603f011681019082821181831017156111c3576111c3611159565b816040528381528660208588010111156111dc57600080fd5b836020870160208301376000602085830101528094505050505092915050565b6000806000806000806000806000806101408b8d03121561121c57600080fd5b8a3561122781610e34565b995060208b013561123781610e34565b985060408b013561124781610e34565b975060608b013561125781610e34565b965060808b013561126781610e34565b955060a08b0135945061127c60c08c01610e4c565b935060e08b013592506101008b013591506101208b013567ffffffffffffffff8111156112a857600080fd5b6112b48d828e0161116f565b9150509295989b9194979a5092959850565b60008060008060008061012087890312156112e057600080fd5b86356112eb81610e34565b955060208701356112fb81610e34565b9450604087013561130b81610e34565b9350606087013592506113218860808901610e5c565b915061010087013567ffffffffffffffff81111561133e57600080fd5b61134a89828a0161116f565b9150509295509295509295565b60006080828403121561136957600080fd5b6040516080810181811067ffffffffffffffff8211171561138c5761138c611159565b8060405250823581526020830135602082015260408301356040820152606083013560608201528091505092915050565b634e487b7160e01b600052601160045260246000fd5b818103818111156113e6576113e66113bd565b92915050565b600181811c9082168061140057607f821691505b602082108103610e6e57634e487b7160e01b600052602260045260246000fd5b6000815461142d816113ec565b60018281168015611445576001811461145a57611489565b60ff1984168752821515830287019450611489565b8560005260208060002060005b858110156114805781548a820152908401908201611467565b50505082870194505b5050505092915050565b60006114a86114a28386611420565b84611420565b949350505050565b70161132bc3a32b93730b62fbab936111d1160791b815282516000906114dd816011850160208801610f9c565b6a11161134b6b0b3b2911d1160a91b601191840191820152611502601c820185611420565b95945050505050565b60008060008060008060c0878903121561152457600080fd5b863561152f81610e34565b9550602087013561153f81610e34565b9450604087013561154f81610e34565b935060608701359250608087013567ffffffffffffffff8082111561157357600080fd5b61157f8a838b0161116f565b935060a089013591508082111561159557600080fd5b5061134a89828a0161116f565b601f8211156115e857600081815260208120601f850160051c810160208610156115c95750805b601f850160051c820191505b8181101561054d578281556001016115d5565b505050565b815167ffffffffffffffff81111561160757611607611159565b61161b8161161584546113ec565b846115a2565b602080601f83116001811461165057600084156116385750858301515b600019600386901b1c1916600185901b17855561054d565b600085815260208120601f198616915b8281101561167f57888601518255948401946001909101908401611660565b508582101561169d5787850151600019600388901b60f8161c191681555b5050505050600190811b01905550565b808201808211156113e6576113e66113bd565b6000602082840312156116d257600080fd5b8151610f7c81610e34565b60008160001904831182151516156116f7576116f76113bd565b500290565b60008261171957634e487b7160e01b600052601260045260246000fd5b50049056fea26469706673582212202a189ca93dad6b213065481954b723294a9a8a737f9537f8b4c31708af49fc8664736f6c63430008100033",
    "linkReferences": {}
  },
  "methodIdentifiers": {
    "REGISTRAR()": "cb609077",
    "_URI()": "b4e87e8f",
    "dappOperatorFees(address)": "1385a7b6",
    "getFees(address)": "9af608c9",
    "payInfo(uint256)": "70530dac",
    "processApproval(address,address,address,uint256,(address,uint256,uint256,address),bytes)": "e4175968",
    "processCash(address,address,address,uint256,uint256,(address,uint256,uint256,address),bytes)": "06890cd0",
    "processFund(address,address,uint256,uint256,uint256,(address,uint256,uint256,address),bytes)": "be2f3fdd",
    "processTokenURI(uint256)": "4fe17e1a",
    "processTransfer(address,address,address,address,address,uint256,address,uint256,uint256,bytes)": "c0c9572c",
    "processWrite(address,address,uint256,address,uint256,uint256,bytes)": "b5d701ba",
    "revenue(address,address)": "9a0ea37a",
    "setFees((uint256,uint256,uint256,uint256))": "fd77c960",
    "withdrawFees(address)": "164e68de"
  },
  "id": 56
}