{
  "abi": [
    {
      "inputs": [
        {
          "internalType": "address payable[]",
          "name": "recipients",
          "type": "address[]"
        },
        {
          "internalType": "uint256[]",
          "name": "values",
          "type": "uint256[]"
        }
      ],
      "name": "disperseEther",
      "outputs": [],
      "stateMutability": "payable",
      "type": "function"
    },
    {
      "inputs": [
        {
          "internalType": "address",
          "name": "tokenAddress",
          "type": "address"
        },
        {
          "internalType": "address payable[]",
          "name": "recipients",
          "type": "address[]"
        },
        {
          "internalType": "uint256[]",
          "name": "values",
          "type": "uint256[]"
        }
      ],
      "name": "disperseToken",
      "outputs": [],
      "stateMutability": "nonpayable",
      "type": "function"
    },
    {
      "inputs": [
        {
          "internalType": "address",
          "name": "tokenAddress",
          "type": "address"
        },
        {
          "internalType": "address payable[]",
          "name": "recipients",
          "type": "address[]"
        },
        {
          "internalType": "uint256[]",
          "name": "values",
          "type": "uint256[]"
        }
      ],
      "name": "disperseTokenSimple",
      "outputs": [],
      "stateMutability": "nonpayable",
      "type": "function"
    }
  ],
  "bytecode": {
    "object": "0x608060405234801561001057600080fd5b5061063d806100206000396000f3fe6080604052600436106100345760003560e01c806351ba162c14610039578063c73a2d601461005b578063e63d38ed1461007b575b600080fd5b34801561004557600080fd5b50610059610054366004610474565b61008e565b005b34801561006757600080fd5b50610059610076366004610474565b610187565b6100596100893660046104f7565b61033d565b8460005b8481101561017e57816001600160a01b03166323b872dd338888858181106100bc576100bc610563565b90506020020160208101906100d19190610579565b8787868181106100e3576100e3610563565b6040516001600160e01b031960e088901b1681526001600160a01b039586166004820152949093166024850152506020909102013560448201526064016020604051808303816000875af115801561013f573d6000803e3d6000fd5b505050506040513d601f19601f82011682018060405250810190610163919061059d565b61016c57600080fd5b80610176816105d5565b915050610092565b50505050505050565b846000805b858110156101cc578484828181106101a6576101a6610563565b90506020020135826101b891906105ee565b9150806101c4816105d5565b91505061018c565b506040516323b872dd60e01b8152336004820152306024820152604481018290526001600160a01b038316906323b872dd906064016020604051808303816000875af1158015610220573d6000803e3d6000fd5b505050506040513d601f19601f82011682018060405250810190610244919061059d565b61024d57600080fd5b60005b8581101561033357826001600160a01b031663a9059cbb88888481811061027957610279610563565b905060200201602081019061028e9190610579565b8787858181106102a0576102a0610563565b6040516001600160e01b031960e087901b1681526001600160a01b03909416600485015260200291909101356024830152506044016020604051808303816000875af11580156102f4573d6000803e3d6000fd5b505050506040513d601f19601f82011682018060405250810190610318919061059d565b61032157600080fd5b8061032b816105d5565b915050610250565b5050505050505050565b60005b838110156103d25784848281811061035a5761035a610563565b905060200201602081019061036f9190610579565b6001600160a01b03166108fc84848481811061038d5761038d610563565b905060200201359081150290604051600060405180830381858888f193505050501580156103bf573d6000803e3d6000fd5b50806103ca816105d5565b915050610340565b5047801561040957604051339082156108fc029083906000818181858888f19350505050158015610407573d6000803e3d6000fd5b505b5050505050565b6001600160a01b038116811461042557600080fd5b50565b60008083601f84011261043a57600080fd5b50813567ffffffffffffffff81111561045257600080fd5b6020830191508360208260051b850101111561046d57600080fd5b9250929050565b60008060008060006060868803121561048c57600080fd5b853561049781610410565b9450602086013567ffffffffffffffff808211156104b457600080fd5b6104c089838a01610428565b909650945060408801359150808211156104d957600080fd5b506104e688828901610428565b969995985093965092949392505050565b6000806000806040858703121561050d57600080fd5b843567ffffffffffffffff8082111561052557600080fd5b61053188838901610428565b9096509450602087013591508082111561054a57600080fd5b5061055787828801610428565b95989497509550505050565b634e487b7160e01b600052603260045260246000fd5b60006020828403121561058b57600080fd5b813561059681610410565b9392505050565b6000602082840312156105af57600080fd5b8151801515811461059657600080fd5b634e487b7160e01b600052601160045260246000fd5b6000600182016105e7576105e76105bf565b5060010190565b80820180821115610601576106016105bf565b9291505056fea26469706673582212200a5334916a0299cdde0d30be123ed5760d685c73df56a8c6824ee8141b6a50a264736f6c63430008140033",
    "linkReferences": {}
  },
  "methodIdentifiers": {
    "disperseEther(address[],uint256[])": "e63d38ed",
    "disperseToken(address,address[],uint256[])": "c73a2d60",
    "disperseTokenSimple(address,address[],uint256[])": "51ba162c"
  },
  "id": 21
}