{
  "abi": [
    {
      "inputs": [
        {
          "internalType": "string",
          "name": "name_",
          "type": "string"
        },
        {
          "internalType": "string",
          "name": "symbol_",
          "type": "string"
        }
      ],
      "stateMutability": "nonpayable",
      "type": "constructor"
    },
    {
      "anonymous": false,
      "inputs": [
        {
          "indexed": true,
          "internalType": "address",
          "name": "from",
          "type": "address"
        },
        {
          "indexed": true,
          "internalType": "address",
          "name": "to",
          "type": "address"
        },
        {
          "indexed": true,
          "internalType": "uint256",
          "name": "tokenId",
          "type": "uint256"
        }
      ],
      "name": "Transfer",
      "type": "event"
    },
    {
      "inputs": [
        {
          "internalType": "address",
          "name": "owner",
          "type": "address"
        }
      ],
      "name": "balanceOf",
      "outputs": [
        {
          "internalType": "uint256",
          "name": "",
          "type": "uint256"
        }
      ],
      "stateMutability": "view",
      "type": "function"
    },
    {
      "inputs": [],
      "name": "name",
      "outputs": [
        {
          "internalType": "string",
          "name": "",
          "type": "string"
        }
      ],
      "stateMutability": "view",
      "type": "function"
    },
    {
      "inputs": [
        {
          "internalType": "uint256",
          "name": "tokenId",
          "type": "uint256"
        }
      ],
      "name": "ownerOf",
      "outputs": [
        {
          "internalType": "address",
          "name": "",
          "type": "address"
        }
      ],
      "stateMutability": "view",
      "type": "function"
    },
    {
      "inputs": [
        {
          "internalType": "address",
          "name": "from",
          "type": "address"
        },
        {
          "internalType": "address",
          "name": "to",
          "type": "address"
        },
        {
          "internalType": "uint256",
          "name": "tokenId",
          "type": "uint256"
        }
      ],
      "name": "safeTransferFrom",
      "outputs": [],
      "stateMutability": "payable",
      "type": "function"
    },
    {
      "inputs": [
        {
          "internalType": "address",
          "name": "from",
          "type": "address"
        },
        {
          "internalType": "address",
          "name": "to",
          "type": "address"
        },
        {
          "internalType": "uint256",
          "name": "tokenId",
          "type": "uint256"
        },
        {
          "internalType": "bytes",
          "name": "data",
          "type": "bytes"
        }
      ],
      "name": "safeTransferFrom",
      "outputs": [],
      "stateMutability": "payable",
      "type": "function"
    },
    {
      "inputs": [
        {
          "internalType": "bytes4",
          "name": "interfaceId",
          "type": "bytes4"
        }
      ],
      "name": "supportsInterface",
      "outputs": [
        {
          "internalType": "bool",
          "name": "",
          "type": "bool"
        }
      ],
      "stateMutability": "view",
      "type": "function"
    },
    {
      "inputs": [],
      "name": "symbol",
      "outputs": [
        {
          "internalType": "string",
          "name": "",
          "type": "string"
        }
      ],
      "stateMutability": "view",
      "type": "function"
    },
    {
      "inputs": [
        {
          "internalType": "uint256",
          "name": "tokenId",
          "type": "uint256"
        }
      ],
      "name": "tokenURI",
      "outputs": [
        {
          "internalType": "string",
          "name": "",
          "type": "string"
        }
      ],
      "stateMutability": "view",
      "type": "function"
    },
    {
      "inputs": [
        {
          "internalType": "address",
          "name": "from",
          "type": "address"
        },
        {
          "internalType": "address",
          "name": "to",
          "type": "address"
        },
        {
          "internalType": "uint256",
          "name": "tokenId",
          "type": "uint256"
        }
      ],
      "name": "transferFrom",
      "outputs": [],
      "stateMutability": "payable",
      "type": "function"
    }
  ],
  "bytecode": {
    "object": "0x60806040523480156200001157600080fd5b5060405162000ed738038062000ed783398101604081905262000034916200011f565b600062000042838262000218565b50600162000051828262000218565b505050620002e4565b634e487b7160e01b600052604160045260246000fd5b600082601f8301126200008257600080fd5b81516001600160401b03808211156200009f576200009f6200005a565b604051601f8301601f19908116603f01168101908282118183101715620000ca57620000ca6200005a565b81604052838152602092508683858801011115620000e757600080fd5b600091505b838210156200010b5785820183015181830184015290820190620000ec565b600093810190920192909252949350505050565b600080604083850312156200013357600080fd5b82516001600160401b03808211156200014b57600080fd5b620001598683870162000070565b935060208501519150808211156200017057600080fd5b506200017f8582860162000070565b9150509250929050565b600181811c908216806200019e57607f821691505b602082108103620001bf57634e487b7160e01b600052602260045260246000fd5b50919050565b601f8211156200021357600081815260208120601f850160051c81016020861015620001ee5750805b601f850160051c820191505b818110156200020f57828155600101620001fa565b5050505b505050565b81516001600160401b038111156200023457620002346200005a565b6200024c8162000245845462000189565b84620001c5565b602080601f8311600181146200028457600084156200026b5750858301515b600019600386901b1c1916600185901b1785556200020f565b600085815260208120601f198616915b82811015620002b55788860151825594840194600190910190840162000294565b5085821015620002d45787850151600019600388901b60f8161c191681555b5050505050600190811b01905550565b610be380620002f46000396000f3fe6080604052600436106100865760003560e01c80636352211e116100595780636352211e1461010a57806370a082311461014257806395d89b4114610170578063b88d4fde14610185578063c87b56dd1461019857600080fd5b806301ffc9a71461008b57806306fdde03146100c057806323b872dd146100e257806342842e0e146100f7575b600080fd5b34801561009757600080fd5b506100ab6100a636600461089a565b6101b8565b60405190151581526020015b60405180910390f35b3480156100cc57600080fd5b506100d56101ef565b6040516100b79190610907565b6100f56100f0366004610936565b610281565b005b6100f5610105366004610936565b610291565b34801561011657600080fd5b5061012a610125366004610972565b6102ac565b6040516001600160a01b0390911681526020016100b7565b34801561014e57600080fd5b5061016261015d36600461098b565b610311565b6040519081526020016100b7565b34801561017c57600080fd5b506100d5610397565b6100f56101933660046109bc565b6103a6565b3480156101a457600080fd5b506100d56101b3366004610972565b6103b8565b60006001600160e01b03198216635b5e139f60e01b14806101e957506301ffc9a760e01b6001600160e01b03198316145b92915050565b6060600080546101fe90610a98565b80601f016020809104026020016040519081016040528092919081815260200182805461022a90610a98565b80156102775780601f1061024c57610100808354040283529160200191610277565b820191906000526020600020905b81548152906001019060200180831161025a57829003601f168201915b5050505050905090565b61028c83838361042c565b505050565b61028c838383604051806020016040528060008152506103a6565b6000818152600260205260408120546001600160a01b0316806101e95760405162461bcd60e51b8152602060048201526018602482015277115490cdcc8c4e881a5b9d985b1a59081d1bdad95b88125160421b60448201526064015b60405180910390fd5b60006001600160a01b03821661037b5760405162461bcd60e51b815260206004820152602960248201527f4552433732313a2061646472657373207a65726f206973206e6f7420612076616044820152683634b21037bbb732b960b91b6064820152608401610308565b506001600160a01b031660009081526003602052604090205490565b6060600180546101fe90610a98565b6103b284848484610582565b50505050565b60606103c3826105b5565b60006103da60408051602081019091526000815290565b905060008151116103fa5760405180602001604052806000815250610425565b8061040484610617565b604051602001610415929190610ad2565b6040516020818303038152906040525b9392505050565b826001600160a01b031661043f826102ac565b6001600160a01b0316146104a35760405162461bcd60e51b815260206004820152602560248201527f4552433732313a207472616e736665722066726f6d20696e636f72726563742060448201526437bbb732b960d91b6064820152608401610308565b6001600160a01b0382166105055760405162461bcd60e51b8152602060048201526024808201527f4552433732313a207472616e7366657220746f20746865207a65726f206164646044820152637265737360e01b6064820152608401610308565b6001600160a01b038084166000818152600360209081526040808320805460001901905593861680835284832080546001019055858352600290915283822080546001600160a01b031916821790559251849392917fddf252ad1be2c89b69c2b068fc378daa952ba7f163c4a11628f55a4df523b3ef91a4505050565b61058d84848461042c565b610599848484846106aa565b6103b25760405162461bcd60e51b815260040161030890610b01565b6000818152600260205260409020546001600160a01b03166106145760405162461bcd60e51b8152602060048201526018602482015277115490cdcc8c4e881a5b9d985b1a59081d1bdad95b88125160421b6044820152606401610308565b50565b60606000610624836107ac565b600101905060008167ffffffffffffffff811115610644576106446109a6565b6040519080825280601f01601f19166020018201604052801561066e576020820181803683370190505b5090508181016020015b600019016f181899199a1a9b1b9c1cb0b131b232b360811b600a86061a8153600a850494508461067857509392505050565b60006001600160a01b0384163b156107a057604051630a85bd0160e11b81526001600160a01b0385169063150b7a02906106ee903390899088908890600401610b53565b6020604051808303816000875af1925050508015610729575060408051601f3d908101601f1916820190925261072691810190610b90565b60015b610786573d808015610757576040519150601f19603f3d011682016040523d82523d6000602084013e61075c565b606091505b50805160000361077e5760405162461bcd60e51b815260040161030890610b01565b805181602001fd5b6001600160e01b031916630a85bd0160e11b1490506107a4565b5060015b949350505050565b60008072184f03e93ff9f4daa797ed6e38ed64bf6a1f0160401b83106107eb5772184f03e93ff9f4daa797ed6e38ed64bf6a1f0160401b830492506040015b6d04ee2d6d415b85acef81000000008310610817576d04ee2d6d415b85acef8100000000830492506020015b662386f26fc10000831061083557662386f26fc10000830492506010015b6305f5e100831061084d576305f5e100830492506008015b612710831061086157612710830492506004015b60648310610873576064830492506002015b600a83106101e95760010192915050565b6001600160e01b03198116811461061457600080fd5b6000602082840312156108ac57600080fd5b813561042581610884565b60005b838110156108d25781810151838201526020016108ba565b50506000910152565b600081518084526108f38160208601602086016108b7565b601f01601f19169290920160200192915050565b60208152600061042560208301846108db565b80356001600160a01b038116811461093157600080fd5b919050565b60008060006060848603121561094b57600080fd5b6109548461091a565b92506109626020850161091a565b9150604084013590509250925092565b60006020828403121561098457600080fd5b5035919050565b60006020828403121561099d57600080fd5b6104258261091a565b634e487b7160e01b600052604160045260246000fd5b600080600080608085870312156109d257600080fd5b6109db8561091a565b93506109e96020860161091a565b925060408501359150606085013567ffffffffffffffff80821115610a0d57600080fd5b818701915087601f830112610a2157600080fd5b813581811115610a3357610a336109a6565b604051601f8201601f19908116603f01168101908382118183101715610a5b57610a5b6109a6565b816040528281528a6020848701011115610a7457600080fd5b82602086016020830137600060208483010152809550505050505092959194509250565b600181811c90821680610aac57607f821691505b602082108103610acc57634e487b7160e01b600052602260045260246000fd5b50919050565b60008351610ae48184602088016108b7565b835190830190610af88183602088016108b7565b01949350505050565b60208082526032908201527f4552433732313a207472616e7366657220746f206e6f6e20455243373231526560408201527131b2b4bb32b91034b6b83632b6b2b73a32b960711b606082015260800190565b6001600160a01b0385811682528416602082015260408101839052608060608201819052600090610b86908301846108db565b9695505050505050565b600060208284031215610ba257600080fd5b81516104258161088456fea2646970667358221220f0fa3a0d8de09d495a90ffe3350bd03db06841b8473fafbc5ad439439921cfd864736f6c63430008100033",
    "linkReferences": {}
  },
  "methodIdentifiers": {
    "balanceOf(address)": "70a08231",
    "name()": "06fdde03",
    "ownerOf(uint256)": "6352211e",
    "safeTransferFrom(address,address,uint256)": "42842e0e",
    "safeTransferFrom(address,address,uint256,bytes)": "b88d4fde",
    "supportsInterface(bytes4)": "01ffc9a7",
    "symbol()": "95d89b41",
    "tokenURI(uint256)": "c87b56dd",
    "transferFrom(address,address,uint256)": "23b872dd"
  },
  "id": 33
}