{
  "abi": [
    {
      "inputs": [
        {
          "internalType": "address",
          "name": "registrar",
          "type": "address"
        },
        {
          "internalType": "address",
          "name": "_writeRule",
          "type": "address"
        },
        {
          "internalType": "address",
          "name": "_transferRule",
          "type": "address"
        },
        {
          "internalType": "address",
          "name": "_fundRule",
          "type": "address"
        },
        {
          "internalType": "address",
          "name": "_cashRule",
          "type": "address"
        },
        {
          "internalType": "address",
          "name": "_approveRule",
          "type": "address"
        },
        {
          "components": [
            {
              "internalType": "uint256",
              "name": "writeBPS",
              "type": "uint256"
            },
            {
              "internalType": "uint256",
              "name": "transferBPS",
              "type": "uint256"
            },
            {
              "internalType": "uint256",
              "name": "fundBPS",
              "type": "uint256"
            },
            {
              "internalType": "uint256",
              "name": "cashBPS",
              "type": "uint256"
            }
          ],
          "internalType": "struct DataTypes.WTFCFees",
          "name": "_fees",
          "type": "tuple"
        },
        {
          "internalType": "string",
          "name": "__baseURI",
          "type": "string"
        }
      ],
      "stateMutability": "nonpayable",
      "type": "constructor"
    },
    {
      "inputs": [],
      "name": "InitParamsInvalid",
      "type": "error"
    },
    {
      "inputs": [],
      "name": "NotRegistrar",
      "type": "error"
    },
    {
      "anonymous": false,
      "inputs": [
        {
          "indexed": true,
          "internalType": "uint256",
          "name": "cheqId",
          "type": "uint256"
        },
        {
          "indexed": false,
          "internalType": "bytes32",
          "name": "memoHash",
          "type": "bytes32"
        }
      ],
      "name": "MemoWritten",
      "type": "event"
    },
    {
      "inputs": [],
      "name": "REGISTRAR",
      "outputs": [
        {
          "internalType": "address",
          "name": "",
          "type": "address"
        }
      ],
      "stateMutability": "view",
      "type": "function"
    },
    {
      "inputs": [],
      "name": "_URI",
      "outputs": [
        {
          "internalType": "string",
          "name": "",
          "type": "string"
        }
      ],
      "stateMutability": "view",
      "type": "function"
    },
    {
      "inputs": [],
      "name": "approveRule",
      "outputs": [
        {
          "internalType": "address",
          "name": "",
          "type": "address"
        }
      ],
      "stateMutability": "view",
      "type": "function"
    },
    {
      "inputs": [],
      "name": "cashRule",
      "outputs": [
        {
          "internalType": "address",
          "name": "",
          "type": "address"
        }
      ],
      "stateMutability": "view",
      "type": "function"
    },
    {
      "inputs": [],
      "name": "fees",
      "outputs": [
        {
          "internalType": "uint256",
          "name": "writeBPS",
          "type": "uint256"
        },
        {
          "internalType": "uint256",
          "name": "transferBPS",
          "type": "uint256"
        },
        {
          "internalType": "uint256",
          "name": "fundBPS",
          "type": "uint256"
        },
        {
          "internalType": "uint256",
          "name": "cashBPS",
          "type": "uint256"
        }
      ],
      "stateMutability": "view",
      "type": "function"
    },
    {
      "inputs": [],
      "name": "fundRule",
      "outputs": [
        {
          "internalType": "address",
          "name": "",
          "type": "address"
        }
      ],
      "stateMutability": "view",
      "type": "function"
    },
    {
      "inputs": [],
      "name": "getFees",
      "outputs": [
        {
          "internalType": "uint256",
          "name": "",
          "type": "uint256"
        },
        {
          "internalType": "uint256",
          "name": "",
          "type": "uint256"
        },
        {
          "internalType": "uint256",
          "name": "",
          "type": "uint256"
        },
        {
          "internalType": "uint256",
          "name": "",
          "type": "uint256"
        }
      ],
      "stateMutability": "view",
      "type": "function"
    },
    {
      "inputs": [
        {
          "internalType": "uint256",
          "name": "",
          "type": "uint256"
        }
      ],
      "name": "isCashed",
      "outputs": [
        {
          "internalType": "bool",
          "name": "",
          "type": "bool"
        }
      ],
      "stateMutability": "view",
      "type": "function"
    },
    {
      "inputs": [
        {
          "internalType": "uint256",
          "name": "",
          "type": "uint256"
        }
      ],
      "name": "memo",
      "outputs": [
        {
          "internalType": "bytes32",
          "name": "",
          "type": "bytes32"
        }
      ],
      "stateMutability": "view",
      "type": "function"
    },
    {
      "inputs": [
        {
          "internalType": "address",
          "name": "caller",
          "type": "address"
        },
        {
          "internalType": "address",
          "name": "owner",
          "type": "address"
        },
        {
          "internalType": "address",
          "name": "to",
          "type": "address"
        },
        {
          "internalType": "uint256",
          "name": "cheqId",
          "type": "uint256"
        },
        {
          "components": [
            {
              "internalType": "address",
              "name": "currency",
              "type": "address"
            },
            {
              "internalType": "uint256",
              "name": "amount",
              "type": "uint256"
            },
            {
              "internalType": "uint256",
              "name": "escrowed",
              "type": "uint256"
            },
            {
              "internalType": "address",
              "name": "drawer",
              "type": "address"
            },
            {
              "internalType": "address",
              "name": "recipient",
              "type": "address"
            },
            {
              "internalType": "address",
              "name": "module",
              "type": "address"
            },
            {
              "internalType": "uint256",
              "name": "mintTimestamp",
              "type": "uint256"
            }
          ],
          "internalType": "struct DataTypes.Cheq",
          "name": "cheq",
          "type": "tuple"
        },
        {
          "internalType": "bytes",
          "name": "initData",
          "type": "bytes"
        }
      ],
      "name": "processApproval",
      "outputs": [],
      "stateMutability": "nonpayable",
      "type": "function"
    },
    {
      "inputs": [
        {
          "internalType": "address",
          "name": "caller",
          "type": "address"
        },
        {
          "internalType": "address",
          "name": "owner",
          "type": "address"
        },
        {
          "internalType": "address",
          "name": "to",
          "type": "address"
        },
        {
          "internalType": "uint256",
          "name": "amount",
          "type": "uint256"
        },
        {
          "internalType": "uint256",
          "name": "cheqId",
          "type": "uint256"
        },
        {
          "components": [
            {
              "internalType": "address",
              "name": "currency",
              "type": "address"
            },
            {
              "internalType": "uint256",
              "name": "amount",
              "type": "uint256"
            },
            {
              "internalType": "uint256",
              "name": "escrowed",
              "type": "uint256"
            },
            {
              "internalType": "address",
              "name": "drawer",
              "type": "address"
            },
            {
              "internalType": "address",
              "name": "recipient",
              "type": "address"
            },
            {
              "internalType": "address",
              "name": "module",
              "type": "address"
            },
            {
              "internalType": "uint256",
              "name": "mintTimestamp",
              "type": "uint256"
            }
          ],
          "internalType": "struct DataTypes.Cheq",
          "name": "cheq",
          "type": "tuple"
        },
        {
          "internalType": "bytes",
          "name": "initData",
          "type": "bytes"
        }
      ],
      "name": "processCash",
      "outputs": [
        {
          "internalType": "uint256",
          "name": "",
          "type": "uint256"
        }
      ],
      "stateMutability": "nonpayable",
      "type": "function"
    },
    {
      "inputs": [
        {
          "internalType": "address",
          "name": "caller",
          "type": "address"
        },
        {
          "internalType": "address",
          "name": "owner",
          "type": "address"
        },
        {
          "internalType": "uint256",
          "name": "amount",
          "type": "uint256"
        },
        {
          "internalType": "uint256",
          "name": "directAmount",
          "type": "uint256"
        },
        {
          "internalType": "uint256",
          "name": "cheqId",
          "type": "uint256"
        },
        {
          "components": [
            {
              "internalType": "address",
              "name": "currency",
              "type": "address"
            },
            {
              "internalType": "uint256",
              "name": "amount",
              "type": "uint256"
            },
            {
              "internalType": "uint256",
              "name": "escrowed",
              "type": "uint256"
            },
            {
              "internalType": "address",
              "name": "drawer",
              "type": "address"
            },
            {
              "internalType": "address",
              "name": "recipient",
              "type": "address"
            },
            {
              "internalType": "address",
              "name": "module",
              "type": "address"
            },
            {
              "internalType": "uint256",
              "name": "mintTimestamp",
              "type": "uint256"
            }
          ],
          "internalType": "struct DataTypes.Cheq",
          "name": "cheq",
          "type": "tuple"
        },
        {
          "internalType": "bytes",
          "name": "initData",
          "type": "bytes"
        }
      ],
      "name": "processFund",
      "outputs": [
        {
          "internalType": "uint256",
          "name": "",
          "type": "uint256"
        }
      ],
      "stateMutability": "nonpayable",
      "type": "function"
    },
    {
      "inputs": [
        {
          "internalType": "uint256",
          "name": "tokenId",
          "type": "uint256"
        }
      ],
      "name": "processTokenURI",
      "outputs": [
        {
          "internalType": "string",
          "name": "",
          "type": "string"
        }
      ],
      "stateMutability": "view",
      "type": "function"
    },
    {
      "inputs": [
        {
          "internalType": "address",
          "name": "caller",
          "type": "address"
        },
        {
          "internalType": "bool",
          "name": "isApproved",
          "type": "bool"
        },
        {
          "internalType": "address",
          "name": "owner",
          "type": "address"
        },
        {
          "internalType": "address",
          "name": "from",
          "type": "address"
        },
        {
          "internalType": "address",
          "name": "to",
          "type": "address"
        },
        {
          "internalType": "uint256",
          "name": "cheqId",
          "type": "uint256"
        },
        {
          "components": [
            {
              "internalType": "address",
              "name": "currency",
              "type": "address"
            },
            {
              "internalType": "uint256",
              "name": "amount",
              "type": "uint256"
            },
            {
              "internalType": "uint256",
              "name": "escrowed",
              "type": "uint256"
            },
            {
              "internalType": "address",
              "name": "drawer",
              "type": "address"
            },
            {
              "internalType": "address",
              "name": "recipient",
              "type": "address"
            },
            {
              "internalType": "address",
              "name": "module",
              "type": "address"
            },
            {
              "internalType": "uint256",
              "name": "mintTimestamp",
              "type": "uint256"
            }
          ],
          "internalType": "struct DataTypes.Cheq",
          "name": "cheq",
          "type": "tuple"
        },
        {
          "internalType": "bytes",
          "name": "data",
          "type": "bytes"
        }
      ],
      "name": "processTransfer",
      "outputs": [
        {
          "internalType": "uint256",
          "name": "",
          "type": "uint256"
        }
      ],
      "stateMutability": "nonpayable",
      "type": "function"
    },
    {
      "inputs": [
        {
          "internalType": "address",
          "name": "caller",
          "type": "address"
        },
        {
          "internalType": "address",
          "name": "owner",
          "type": "address"
        },
        {
          "internalType": "uint256",
          "name": "cheqId",
          "type": "uint256"
        },
        {
          "components": [
            {
              "internalType": "address",
              "name": "currency",
              "type": "address"
            },
            {
              "internalType": "uint256",
              "name": "amount",
              "type": "uint256"
            },
            {
              "internalType": "uint256",
              "name": "escrowed",
              "type": "uint256"
            },
            {
              "internalType": "address",
              "name": "drawer",
              "type": "address"
            },
            {
              "internalType": "address",
              "name": "recipient",
              "type": "address"
            },
            {
              "internalType": "address",
              "name": "module",
              "type": "address"
            },
            {
              "internalType": "uint256",
              "name": "mintTimestamp",
              "type": "uint256"
            }
          ],
          "internalType": "struct DataTypes.Cheq",
          "name": "cheq",
          "type": "tuple"
        },
        {
          "internalType": "uint256",
          "name": "directAmount",
          "type": "uint256"
        },
        {
          "internalType": "bytes",
          "name": "initData",
          "type": "bytes"
        }
      ],
      "name": "processWrite",
      "outputs": [
        {
          "internalType": "uint256",
          "name": "",
          "type": "uint256"
        }
      ],
      "stateMutability": "nonpayable",
      "type": "function"
    },
    {
      "inputs": [],
      "name": "transferRule",
      "outputs": [
        {
          "internalType": "address",
          "name": "",
          "type": "address"
        }
      ],
      "stateMutability": "view",
      "type": "function"
    },
    {
      "inputs": [
        {
          "internalType": "address",
          "name": "token",
          "type": "address"
        }
      ],
      "name": "withdrawFees",
      "outputs": [],
      "stateMutability": "nonpayable",
      "type": "function"
    },
    {
      "inputs": [],
      "name": "writeRule",
      "outputs": [
        {
          "internalType": "address",
          "name": "",
          "type": "address"
        }
      ],
      "stateMutability": "view",
      "type": "function"
    }
  ],
  "bytecode": {
    "object": "0x60a06040523480156200001157600080fd5b5060405162001b4a38038062001b4a833981016040819052620000349162000441565b878787878787876001600160a01b03871662000063576040516348be0eb360e01b815260040160405180910390fd5b6001600160a01b038781166080819052604051631fa5b09760e11b81528883166004820152878316602482015286831660448201528583166064820152918416608483015290633f4b612e9060a401602060405180830381865afa158015620000d0573d6000803e3d6000fd5b505050506040513d601f19601f82011682018060405250810190620000f691906200053e565b620001385760405162461bcd60e51b815260206004820152600d60248201526c1495531154d7d2539590531251609a1b60448201526064015b60405180910390fd5b600380546001600160a01b03199081166001600160a01b038981169190911790925560048054821688841617905560058054821687841617905560068054821686841617905560078054909116918416919091179055805161271011620001d15760405162461bcd60e51b8152602060048201526014602482015260008051602062001b2a83398151915260448201526064016200012f565b612710816020015110620002175760405162461bcd60e51b8152602060048201526014602482015260008051602062001b2a83398151915260448201526064016200012f565b6127108160400151106200025d5760405162461bcd60e51b8152602060048201526014602482015260008051602062001b2a83398151915260448201526064016200012f565b612710816060015110620002a35760405162461bcd60e51b8152602060048201526014602482015260008051602062001b2a83398151915260448201526064016200012f565b8051600855602080820151600955604080830151600a556060830151600b55514281526001600160a01b038916917ff1a1fa6b64aa95186f5a1285e76198d0da80d9c5a88062641d447f1d7c54e56c910160405180910390a2505050505050508060009081620003149190620005f8565b505050505050505050620006c4565b80516001600160a01b03811681146200033b57600080fd5b919050565b634e487b7160e01b600052604160045260246000fd5b604051608081016001600160401b03811182821017156200037b576200037b62000340565b60405290565b604051601f8201601f191681016001600160401b0381118282101715620003ac57620003ac62000340565b604052919050565b600082601f830112620003c657600080fd5b81516001600160401b03811115620003e257620003e262000340565b6020620003f8601f8301601f1916820162000381565b82815285828487010111156200040d57600080fd5b60005b838110156200042d57858101830151828201840152820162000410565b506000928101909101919091529392505050565b600080600080600080600080888a036101608112156200046057600080fd5b6200046b8a62000323565b98506200047b60208b0162000323565b97506200048b60408b0162000323565b96506200049b60608b0162000323565b9550620004ab60808b0162000323565b9450620004bb60a08b0162000323565b9350608060bf1982011215620004d057600080fd5b50620004db62000356565b60c08a0151815260e08a015160208201526101008a015160408201526101208a015160608201526101408a01519092506001600160401b038111156200052057600080fd5b6200052e8b828c01620003b4565b9150509295985092959890939650565b6000602082840312156200055157600080fd5b815180151581146200056257600080fd5b9392505050565b600181811c908216806200057e57607f821691505b6020821081036200059f57634e487b7160e01b600052602260045260246000fd5b50919050565b601f821115620005f357600081815260208120601f850160051c81016020861015620005ce5750805b601f850160051c820191505b81811015620005ef57828155600101620005da565b5050505b505050565b81516001600160401b0381111562000614576200061462000340565b6200062c8162000625845462000569565b84620005a5565b602080601f8311600181146200066457600084156200064b5750858301515b600019600386901b1c1916600185901b178555620005ef565b600085815260208120601f198616915b82811015620006955788860151825594840194600190910190840162000674565b5085821015620006b45787850151600019600388901b60f8161c191681555b5050505050600190811b01905550565b6080516114206200070a600039600081816102700152818161039e015281816104480152818161063c015281816106fb015281816108ff0152610a6501526114206000f3fe608060405234801561001057600080fd5b50600436106101165760003560e01c8063aee40bb9116100a2578063d647e1e511610071578063d647e1e5146102a5578063db8d55f1146102b8578063df1cdb46146102c9578063f09b3d9a146102dc578063f3ea001e146102ef57600080fd5b8063aee40bb914610230578063b4e87e8f14610263578063cb6090771461026b578063d4c301da1461029257600080fd5b80634fe17e1a116100e95780634fe17e1a1461019457806384314347146101b457806396eb58f8146101c75780639af1d35a146101e7578063a0663d1b1461021d57600080fd5b80630d02cde71461011b578063164e68de1461014b5780634238a63a14610160578063433d3a7714610181575b600080fd5b60045461012e906001600160a01b031681565b6040516001600160a01b0390911681526020015b60405180910390f35b61015e610159366004610bb9565b610302565b005b61017361016e366004610c3e565b61043b565b604051908152602001610142565b60075461012e906001600160a01b031681565b6101a76101a2366004610ccf565b6105f4565b6040516101429190610d2e565b61015e6101c2366004610de4565b610631565b6101736101d5366004610ccf565b60016020526000908152604090205481565b600854600954600a54600b546101fd9392919084565b604080519485526020850193909352918301526060820152608001610142565b61017361022b366004610e75565b6106ee565b61025361023e366004610ccf565b600c6020526000908152604090205460ff1681565b6040519015158152602001610142565b6101a7610864565b61012e7f000000000000000000000000000000000000000000000000000000000000000081565b60055461012e906001600160a01b031681565b6101736102b3366004610f17565b6108f2565b600854600954600a54600b546101fd565b60035461012e906001600160a01b031681565b6101736102ea366004610f73565b610a58565b60065461012e906001600160a01b031681565b3360009081526002602090815260408083206001600160a01b0385168452909152902054600181116103725760405162461bcd60e51b8152602060048201526014602482015273496e73756666696369656e7420726576656e756560601b60448201526064015b60405180910390fd5b3360009081526002602090815260408083206001600160a01b03868116855292529091206001908190557f00000000000000000000000000000000000000000000000000000000000000009091169063d6a4f84c9084906103d39085611045565b6040516001600160e01b031960e085901b1681526001600160a01b0390921660048301526024820152336044820152606401600060405180830381600087803b15801561041f57600080fd5b505af1158015610433573d6000803e3d6000fd5b505050505050565b6000336001600160a01b037f0000000000000000000000000000000000000000000000000000000000000000161461048657604051632ad9535160e01b815260040160405180910390fd5b600354604051638893ae9d60e01b81526001600160a01b0390911690638893ae9d906104c2908b908b908b908b908b908b908b90600401611101565b600060405180830381600087803b1580156104dc57600080fd5b505af11580156104f0573d6000803e3d6000fd5b5050505060008084848101906105069190611149565b60008a8152600160205260408082208490559294509092509061052d9088908a0135611179565b9050600061271060086000015483610545919061118c565b61054f91906111ab565b6001600160a01b038416600090815260026020908152604082209293508392919061057c908d018d610bb9565b6001600160a01b03166001600160a01b0316815260200190815260200160002060008282546105ab9190611179565b90915550506040518481528a907f07c7861582baf574daa482e764ab9bc4954b9525ee7bd155bcc5a97f739e6df99060200160405180910390a29b9a5050505050505050505050565b6000818152600160209081526040808320549051606093919261061a9291849101611201565b604051602081830303815290604052915050919050565b336001600160a01b037f0000000000000000000000000000000000000000000000000000000000000000161461067a57604051632ad9535160e01b815260040160405180910390fd5b60075460405163275ecee160e01b81526001600160a01b039091169063275ecee1906106b4908990899089908990899089906004016112a3565b600060405180830381600087803b1580156106ce57600080fd5b505af11580156106e2573d6000803e3d6000fd5b50505050505050505050565b6000336001600160a01b037f0000000000000000000000000000000000000000000000000000000000000000161461073957604051632ad9535160e01b815260040160405180910390fd5b6006546040516353ba2df360e01b81526001600160a01b03909116906353ba2df390610777908c908c908c908c908c908c908c908c906004016112f8565b600060405180830381600087803b15801561079157600080fd5b505af11580156107a5573d6000803e3d6000fd5b50600092506107b991505083850185610bb9565b90506000612710600860030154896107d1919061118c565b6107db91906111ab565b6001600160a01b0383166000908152600260209081526040822092935083929190610808908a018a610bb9565b6001600160a01b03166001600160a01b0316815260200190815260200160002060008282546108379190611179565b90915550506000878152600c60205260409020805460ff1916600117905591505098975050505050505050565b60008054610871906111cd565b80601f016020809104026020016040519081016040528092919081815260200182805461089d906111cd565b80156108ea5780601f106108bf576101008083540402835291602001916108ea565b820191906000526020600020905b8154815290600101906020018083116108cd57829003601f168201915b505050505081565b6000336001600160a01b037f0000000000000000000000000000000000000000000000000000000000000000161461093d57604051632ad9535160e01b815260040160405180910390fd5b6005546040516329cc185f60e21b81526001600160a01b039091169063a730617c9061097b908c908c908c908c908c908c908c908c90600401611357565b600060405180830381600087803b15801561099557600080fd5b505af11580156109a9573d6000803e3d6000fd5b50600092506109bd91505083850185610bb9565b600a54909150600090612710906109d48a8c611179565b6109de919061118c565b6109e891906111ab565b6001600160a01b0383166000908152600260209081526040822092935083929190610a15908a018a610bb9565b6001600160a01b03166001600160a01b031681526020019081526020016000206000828254610a449190611179565b90915550909b9a5050505050505050505050565b6000336001600160a01b037f00000000000000000000000000000000000000000000000000000000000000001614610aa357604051632ad9535160e01b815260040160405180910390fd5b600480546040516309b1079760e21b81526001600160a01b03909116916326c41e5c91610ae0918d918d918d918d918d918d918d918d9101611392565b600060405180830381600087803b158015610afa57600080fd5b505af1158015610b0e573d6000803e3d6000fd5b5050506000858152600c602052604090205460ff169050610b715760405162461bcd60e51b815260206004820152601a60248201527f4d6f64756c653a204f6e6c792061667465722063617368696e670000000000006044820152606401610369565b60095460009061271090610b8990604087013561118c565b610b9391906111ab565b9a9950505050505050505050565b6001600160a01b0381168114610bb657600080fd5b50565b600060208284031215610bcb57600080fd5b8135610bd681610ba1565b9392505050565b600060e08284031215610bef57600080fd5b50919050565b60008083601f840112610c0757600080fd5b50813567ffffffffffffffff811115610c1f57600080fd5b602083019150836020828501011115610c3757600080fd5b9250929050565b6000806000806000806000610180888a031215610c5a57600080fd5b8735610c6581610ba1565b96506020880135610c7581610ba1565b955060408801359450610c8b8960608a01610bdd565b9350610140880135925061016088013567ffffffffffffffff811115610cb057600080fd5b610cbc8a828b01610bf5565b989b979a50959850939692959293505050565b600060208284031215610ce157600080fd5b5035919050565b6000815180845260005b81811015610d0e57602081850181015186830182015201610cf2565b506000602082860101526020601f19601f83011685010191505092915050565b602081526000610bd66020830184610ce8565b634e487b7160e01b600052604160045260246000fd5b600082601f830112610d6857600080fd5b813567ffffffffffffffff80821115610d8357610d83610d41565b604051601f8301601f19908116603f01168101908282118183101715610dab57610dab610d41565b81604052838152866020858801011115610dc457600080fd5b836020870160208301376000602085830101528094505050505092915050565b6000806000806000806101808789031215610dfe57600080fd5b8635610e0981610ba1565b95506020870135610e1981610ba1565b94506040870135610e2981610ba1565b935060608701359250610e3f8860808901610bdd565b915061016087013567ffffffffffffffff811115610e5c57600080fd5b610e6889828a01610d57565b9150509295509295509295565b6000806000806000806000806101a0898b031215610e9257600080fd5b8835610e9d81610ba1565b97506020890135610ead81610ba1565b96506040890135610ebd81610ba1565b95506060890135945060808901359350610eda8a60a08b01610bdd565b925061018089013567ffffffffffffffff811115610ef757600080fd5b610f038b828c01610bf5565b999c989b5096995094979396929594505050565b6000806000806000806000806101a0898b031215610f3457600080fd5b8835610f3f81610ba1565b97506020890135610f4f81610ba1565b9650604089013595506060890135945060808901359350610eda8a60a08b01610bdd565b6000806000806000806000806101c0898b031215610f9057600080fd5b8835610f9b81610ba1565b975060208901358015158114610fb057600080fd5b96506040890135610fc081610ba1565b95506060890135610fd081610ba1565b94506080890135610fe081610ba1565b935060a08901359250610ff68a60c08b01610bdd565b91506101a089013567ffffffffffffffff81111561101357600080fd5b61101f8b828c01610d57565b9150509295985092959890939650565b634e487b7160e01b600052601160045260246000fd5b818103818111156110585761105861102f565b92915050565b803561106981610ba1565b6001600160a01b039081168352602082810135908401526040808301359084015260608201359061109982610ba1565b90811660608401526080820135906110b082610ba1565b908116608084015260a0820135906110c782610ba1565b1660a083015260c090810135910152565b81835281816020850137506000828201602090810191909152601f909101601f19169091010190565b6001600160a01b0388811682528716602082015260408101869052600061018061112e606084018861105e565b8561014084015280610160840152610b9381840185876110d8565b6000806040838503121561115c57600080fd5b82359150602083013561116e81610ba1565b809150509250929050565b808201808211156110585761105861102f565b60008160001904831182151516156111a6576111a661102f565b500290565b6000826111c857634e487b7160e01b600052601260045260246000fd5b500490565b600181811c908216806111e157607f821691505b602082108103610bef57634e487b7160e01b600052602260045260246000fd5b600080845481600182811c91508083168061121d57607f831692505b6020808410820361123c57634e487b7160e01b86526022600452602486fd5b818015611250576001811461126557611292565b60ff1986168952841515850289019650611292565b60008b81526020902060005b8681101561128a5781548b820152908501908301611271565b505084890196505b509785525050509301949350505050565b6001600160a01b0387811682528681166020830152851660408201526060810184905260006101806112d8608084018661105e565b806101608401526112eb81840185610ce8565b9998505050505050505050565b6001600160a01b038981168252888116602083015287166040820152606081018690526080810185905260006101a061133460a084018761105e565b8061018084015261134881840185876110d8565b9b9a5050505050505050505050565b6001600160a01b0389811682528816602082015260408101879052606081018690526080810185905260006101a061133460a084018761105e565b6001600160a01b0389811682528815156020830152878116604083015286811660608301528516608082015260a0810184905260006101c06113d760c084018661105e565b806101a084015261134881840185610ce856fea264697066735822122060f7cb1eb3cefd8b3a7c57ffec8a885ecc008eb8c9dc9a49e6acfe406eb864d764736f6c634300081000334d6f64756c653a2046656520746f6f2068696768000000000000000000000000",
    "linkReferences": {}
  },
  "methodIdentifiers": {
    "REGISTRAR()": "cb609077",
    "_URI()": "b4e87e8f",
    "approveRule()": "433d3a77",
    "cashRule()": "f3ea001e",
    "fees()": "9af1d35a",
    "fundRule()": "d4c301da",
    "getFees()": "db8d55f1",
    "isCashed(uint256)": "aee40bb9",
    "memo(uint256)": "96eb58f8",
    "processApproval(address,address,address,uint256,(address,uint256,uint256,address,address,address,uint256),bytes)": "84314347",
    "processCash(address,address,address,uint256,uint256,(address,uint256,uint256,address,address,address,uint256),bytes)": "a0663d1b",
    "processFund(address,address,uint256,uint256,uint256,(address,uint256,uint256,address,address,address,uint256),bytes)": "d647e1e5",
    "processTokenURI(uint256)": "4fe17e1a",
    "processTransfer(address,bool,address,address,address,uint256,(address,uint256,uint256,address,address,address,uint256),bytes)": "f09b3d9a",
    "processWrite(address,address,uint256,(address,uint256,uint256,address,address,address,uint256),uint256,bytes)": "4238a63a",
    "transferRule()": "0d02cde7",
    "withdrawFees(address)": "164e68de",
    "writeRule()": "df1cdb46"
  },
  "id": 47
}