{
  "abi": [
    {
      "inputs": [
        {
          "internalType": "address",
          "name": "flanAddress_",
          "type": "address"
        },
        {
          "internalType": "address",
          "name": "cUSDAddress_",
          "type": "address"
        },
        {
          "internalType": "address",
          "name": "stakingContractAddress_",
          "type": "address"
        }
      ],
      "stateMutability": "nonpayable",
      "type": "constructor"
    },
    {
      "anonymous": false,
      "inputs": [
        {
          "indexed": true,
          "internalType": "address",
          "name": "previousOwner",
          "type": "address"
        },
        {
          "indexed": true,
          "internalType": "address",
          "name": "newOwner",
          "type": "address"
        }
      ],
      "name": "OwnershipTransferred",
      "type": "event"
    },
    {
      "anonymous": false,
      "inputs": [
        {
          "indexed": false,
          "internalType": "uint256",
          "name": "paymentId_",
          "type": "uint256"
        },
        {
          "indexed": true,
          "internalType": "address",
          "name": "senderAddress_",
          "type": "address"
        },
        {
          "indexed": true,
          "internalType": "address",
          "name": "receiptAddress_",
          "type": "address"
        },
        {
          "indexed": false,
          "internalType": "string",
          "name": "projectId_",
          "type": "string"
        },
        {
          "indexed": false,
          "internalType": "string",
          "name": "taskId_",
          "type": "string"
        },
        {
          "indexed": false,
          "internalType": "uint256",
          "name": "taskEstimate_",
          "type": "uint256"
        },
        {
          "indexed": false,
          "internalType": "uint256",
          "name": "feeAmount_",
          "type": "uint256"
        },
        {
          "indexed": false,
          "internalType": "bool",
          "name": "isFLN_",
          "type": "bool"
        },
        {
          "indexed": false,
          "internalType": "uint32",
          "name": "paidTime",
          "type": "uint32"
        }
      ],
      "name": "Paid",
      "type": "event"
    },
    {
      "anonymous": false,
      "inputs": [
        {
          "indexed": false,
          "internalType": "address",
          "name": "contractAddress",
          "type": "address"
        }
      ],
      "name": "SetStakingContract",
      "type": "event"
    },
    {
      "anonymous": false,
      "inputs": [
        {
          "indexed": true,
          "internalType": "address",
          "name": "address_",
          "type": "address"
        },
        {
          "indexed": false,
          "internalType": "uint256",
          "name": "amount_",
          "type": "uint256"
        },
        {
          "indexed": true,
          "internalType": "string",
          "name": "type_",
          "type": "string"
        }
      ],
      "name": "Withdraw",
      "type": "event"
    },
    {
      "inputs": [],
      "name": "_CUSDTaxFeeAmount",
      "outputs": [
        {
          "internalType": "uint256",
          "name": "",
          "type": "uint256"
        }
      ],
      "stateMutability": "view",
      "type": "function"
    },
    {
      "inputs": [],
      "name": "_FLNTaxFeeAmount",
      "outputs": [
        {
          "internalType": "uint256",
          "name": "",
          "type": "uint256"
        }
      ],
      "stateMutability": "view",
      "type": "function"
    },
    {
      "inputs": [],
      "name": "_cusdToken",
      "outputs": [
        {
          "internalType": "contract IERC20",
          "name": "",
          "type": "address"
        }
      ],
      "stateMutability": "view",
      "type": "function"
    },
    {
      "inputs": [],
      "name": "_flanToken",
      "outputs": [
        {
          "internalType": "contract IERC20",
          "name": "",
          "type": "address"
        }
      ],
      "stateMutability": "view",
      "type": "function"
    },
    {
      "inputs": [],
      "name": "_paymentId",
      "outputs": [
        {
          "internalType": "uint256",
          "name": "",
          "type": "uint256"
        }
      ],
      "stateMutability": "view",
      "type": "function"
    },
    {
      "inputs": [],
      "name": "_stakingContractAddress",
      "outputs": [
        {
          "internalType": "address",
          "name": "",
          "type": "address"
        }
      ],
      "stateMutability": "view",
      "type": "function"
    },
    {
      "inputs": [],
      "name": "_totalCUSDFeeAmount",
      "outputs": [
        {
          "internalType": "uint256",
          "name": "",
          "type": "uint256"
        }
      ],
      "stateMutability": "view",
      "type": "function"
    },
    {
      "inputs": [],
      "name": "_totalFLNFeeAmount",
      "outputs": [
        {
          "internalType": "uint256",
          "name": "",
          "type": "uint256"
        }
      ],
      "stateMutability": "view",
      "type": "function"
    },
    {
      "inputs": [
        {
          "internalType": "uint256",
          "name": "paymentId_",
          "type": "uint256"
        }
      ],
      "name": "getPayment",
      "outputs": [
        {
          "internalType": "string",
          "name": "",
          "type": "string"
        },
        {
          "internalType": "string",
          "name": "",
          "type": "string"
        },
        {
          "internalType": "address",
          "name": "",
          "type": "address"
        },
        {
          "internalType": "address",
          "name": "",
          "type": "address"
        },
        {
          "internalType": "uint256",
          "name": "",
          "type": "uint256"
        },
        {
          "internalType": "uint256",
          "name": "",
          "type": "uint256"
        },
        {
          "internalType": "bool",
          "name": "",
          "type": "bool"
        }
      ],
      "stateMutability": "view",
      "type": "function"
    },
    {
      "inputs": [],
      "name": "getPaymentId",
      "outputs": [
        {
          "internalType": "uint256",
          "name": "",
          "type": "uint256"
        }
      ],
      "stateMutability": "view",
      "type": "function"
    },
    {
      "inputs": [],
      "name": "getTotalFee",
      "outputs": [
        {
          "internalType": "uint256",
          "name": "",
          "type": "uint256"
        },
        {
          "internalType": "uint256",
          "name": "",
          "type": "uint256"
        }
      ],
      "stateMutability": "view",
      "type": "function"
    },
    {
      "inputs": [],
      "name": "getTotalTaxFee",
      "outputs": [
        {
          "internalType": "uint256",
          "name": "",
          "type": "uint256"
        },
        {
          "internalType": "uint256",
          "name": "",
          "type": "uint256"
        }
      ],
      "stateMutability": "view",
      "type": "function"
    },
    {
      "inputs": [],
      "name": "owner",
      "outputs": [
        {
          "internalType": "address",
          "name": "",
          "type": "address"
        }
      ],
      "stateMutability": "view",
      "type": "function"
    },
    {
      "inputs": [
        {
          "internalType": "string",
          "name": "projectId",
          "type": "string"
        },
        {
          "internalType": "string",
          "name": "taskId",
          "type": "string"
        },
        {
          "internalType": "address",
          "name": "receiptAddress",
          "type": "address"
        },
        {
          "internalType": "uint256",
          "name": "taskEstimate",
          "type": "uint256"
        },
        {
          "internalType": "bool",
          "name": "isFLN",
          "type": "bool"
        }
      ],
      "name": "pay",
      "outputs": [],
      "stateMutability": "nonpayable",
      "type": "function"
    },
    {
      "inputs": [],
      "name": "renounceOwnership",
      "outputs": [],
      "stateMutability": "nonpayable",
      "type": "function"
    },
    {
      "inputs": [
        {
          "internalType": "address",
          "name": "stakingContractAddress_",
          "type": "address"
        }
      ],
      "name": "setStakingContract",
      "outputs": [],
      "stateMutability": "nonpayable",
      "type": "function"
    },
    {
      "inputs": [
        {
          "internalType": "address",
          "name": "newOwner",
          "type": "address"
        }
      ],
      "name": "transferOwnership",
      "outputs": [],
      "stateMutability": "nonpayable",
      "type": "function"
    },
    {
      "inputs": [],
      "name": "withdrawAllCUSD",
      "outputs": [],
      "stateMutability": "nonpayable",
      "type": "function"
    },
    {
      "inputs": [],
      "name": "withdrawAllFLN",
      "outputs": [],
      "stateMutability": "nonpayable",
      "type": "function"
    },
    {
      "inputs": [],
      "name": "withdrawOnlyTaxFee",
      "outputs": [],
      "stateMutability": "nonpayable",
      "type": "function"
    }
  ],
  "bytecode": {
    "object": "0x6080604052601260045560006006556000600755600060085560006009556000600a553480156200002f57600080fd5b5060405162001de538038062001de5833981016040819052620000529162000517565b6200005d336200014b565b600180556001600160a01b038216620000975760405162461bcd60e51b815260206004820152600060248201526044015b60405180910390fd5b6001600160a01b038316620000c95760405162461bcd60e51b815260206004820152600060248201526044016200008e565b6001600160a01b038116620000fb5760405162461bcd60e51b815260206004820152600060248201526044016200008e565b600280546001600160a01b038086166001600160a01b031992831617909255600380548584169083161790556005805492841692909116919091179055620001426200019b565b5050506200081e565b600080546001600160a01b038381166001600160a01b0319831681178455604051919092169283917f8be0079c531659141344cd1fd0a4f28419497f9722a3daafe3b4186f6b6457e09190a35050565b6040805160c081018252600760808201908152662318102a34b2b960c91b60a08301528152600060208201819052600c9282019290925260066060820152600b80546001810182559252805190916004027f0175b7a638427703f0dbe7bb9bbf987a2551717b34e79f33b5b1008d1fa01db9019081906200021d908262000606565b506020820151816001015560408201518160020155606082015181600301555050600b6040518060800160405280604051806040016040528060078152602001662318902a34b2b960c91b8152508152602001600454600a620002819190620007e7565b6200028e906064620007fc565b8152600c60208083019190915260056040909201919091528254600181018455600093845292208151919260040201908190620002cc908262000606565b506020820151816001015560408201518160020155606082015181600301555050600b6040518060800160405280604051806040016040528060078152602001662319102a34b2b960c91b8152508152602001600454600a620003309190620007e7565b6200033d9060fa620007fc565b8152600c6020808301919091526004604090920182905283546001810185556000948552932082519293909102019081906200037a908262000606565b506020820151816001015560408201518160020155606082015181600301555050600b6040518060800160405280604051806040016040528060078152602001662319902a34b2b960c91b8152508152602001600454600a620003de9190620007e7565b620003ec906101f4620007fc565b8152600a602080830191909152600260409092019190915282546001810184556000938452922081519192600402019081906200042a908262000606565b506020820151816001015560408201518160020155606082015181600301555050600b604051806080016040528060405180604001604052806007815260200166231a102a34b2b960c91b8152508152602001600454600a6200048e9190620007e7565b6200049c906103e8620007fc565b8152600660208083019190915260006040909201829052835460018101855593825290208151919260040201908190620004d7908262000606565b506020820151816001015560408201518160020155606082015181600301555050565b80516001600160a01b03811681146200051257600080fd5b919050565b6000806000606084860312156200052d57600080fd5b6200053884620004fa565b92506200054860208501620004fa565b91506200055860408501620004fa565b90509250925092565b634e487b7160e01b600052604160045260246000fd5b600181811c908216806200058c57607f821691505b602082108103620005ad57634e487b7160e01b600052602260045260246000fd5b50919050565b601f8211156200060157600081815260208120601f850160051c81016020861015620005dc5750805b601f850160051c820191505b81811015620005fd57828155600101620005e8565b5050505b505050565b81516001600160401b0381111562000622576200062262000561565b6200063a8162000633845462000577565b84620005b3565b602080601f831160018114620006725760008415620006595750858301515b600019600386901b1c1916600185901b178555620005fd565b600085815260208120601f198616915b82811015620006a35788860151825594840194600190910190840162000682565b5085821015620006c25787850151600019600388901b60f8161c191681555b5050505050600190811b01905550565b634e487b7160e01b600052601160045260246000fd5b600181815b80851115620007295781600019048211156200070d576200070d620006d2565b808516156200071b57918102915b93841c9390800290620006ed565b509250929050565b6000826200074257506001620007e1565b816200075157506000620007e1565b81600181146200076a5760028114620007755762000795565b6001915050620007e1565b60ff841115620007895762000789620006d2565b50506001821b620007e1565b5060208310610133831016604e8410600b8410161715620007ba575081810a620007e1565b620007c68383620006e8565b8060001904821115620007dd57620007dd620006d2565b0290505b92915050565b6000620007f5838362000731565b9392505050565b6000816000190483118215151615620008195762000819620006d2565b500290565b6115b7806200082e6000396000f3fe608060405234801561001057600080fd5b506004361061012c5760003560e01c80638da5cb5b116100ad578063be23acd811610071578063be23acd81461023d578063bfbf0b7514610245578063eb44bf3c1461024e578063f2fde38b14610261578063f70c62691461027457600080fd5b80638da5cb5b146101ff5780639dd373b914610210578063b55966a714610223578063b9eb3cb41461022c578063ba45c6371461023457600080fd5b80636912207a116100f45780636912207a146101a45780636a68b5be146101cf5780636a9e67dc146101d9578063715018a6146101ec5780637ae316d0146101f457600080fd5b80633280a8361461013157806334e2a9651461016057806353ed7a31146101775780635a65141814610193578063647ddf381461019b575b600080fd5b61014461013f366004611048565b610287565b60405161015797969594939291906110b1565b60405180910390f35b610169600a5481565b604051908152602001610157565b6008546009545b60408051928352602083019190915201610157565b600a54610169565b61016960095481565b6003546101b7906001600160a01b031681565b6040516001600160a01b039091168152602001610157565b6101d76104e9565b005b6005546101b7906001600160a01b031681565b6101d76105d2565b60065460075461017e565b6000546001600160a01b03166101b7565b6101d761021e36600461112b565b6105e6565b61016960085481565b6101d7610672565b61016960075481565b6101d761071f565b61016960065481565b6002546101b7906001600160a01b031681565b6101d761026f36600461112b565b61081a565b6101d76102823660046111fe565b610893565b6060806000806000806000876000036102d85760405162461bcd60e51b815260206004820152600e60248201526d07061796d656e74496420697320360941b60448201526064015b60405180910390fd5b600a548811156103235760405162461bcd60e51b81526020600482015260166024820152751c185e5b595b9d1259081a5cc81c985b99d9481bdd5d60521b60448201526064016102cf565b6000888152600c6020526040808220815160e0810190925280548290829061034a90611291565b80601f016020809104026020016040519081016040528092919081815260200182805461037690611291565b80156103c35780601f10610398576101008083540402835291602001916103c3565b820191906000526020600020905b8154815290600101906020018083116103a657829003601f168201915b505050505081526020016001820180546103dc90611291565b80601f016020809104026020016040519081016040528092919081815260200182805461040890611291565b80156104555780601f1061042a57610100808354040283529160200191610455565b820191906000526020600020905b81548152906001019060200180831161043857829003601f168201915b505050918352505060028201546001600160a01b0390811660208084019190915260038401549091166040808401919091526004840154606080850191909152600585015460808086019190915260069095015460ff16151560a0948501528551928601519186015190860151948601519386015160c090960151929f919e509c50929a5090985091965090945092505050565b6104f1610c1d565b6003546040516370a0823160e01b81523060048201526000916001600160a01b0316906370a0823190602401602060405180830381865afa15801561053a573d6000803e3d6000fd5b505050506040513d601f19601f8201168201806040525081019061055e91906112cb565b600354909150610578906001600160a01b03163383610c77565b600060068190556008556040516318d554d160e21b81526004015b6040519081900381208282529033907f485f1bb6524c663555797e00171a10f341656e59b02d6b557a0a38ba7d5d97519060200160405180910390a350565b6105da610c1d565b6105e46000610cdf565b565b6105ee610c1d565b6001600160a01b03811661061e5760405162461bcd60e51b815260206004820152600060248201526044016102cf565b600580546001600160a01b0319166001600160a01b0383169081179091556040519081527f77da29da4ba6bf0a49e709076c8fc946886ea566b52a1429ac484d59f879be379060200160405180910390a150565b61067a610c1d565b6002546040516370a0823160e01b81523060048201526000916001600160a01b0316906370a0823190602401602060405180830381865afa1580156106c3573d6000803e3d6000fd5b505050506040513d601f19601f820116820180604052508101906106e791906112cb565b600254909150610701906001600160a01b03163383610c77565b600060078190556009556040516223262760e91b8152600301610593565b610727610c1d565b600954600254610744916001600160a01b03909116903390610c77565b600854600354610761916001600160a01b03909116903390610c77565b600060098190556008556040516b464c4e3a205461782046656560a01b8152600c0160405190819003812060095482529033907f485f1bb6524c663555797e00171a10f341656e59b02d6b557a0a38ba7d5d97519060200160405180910390a36040516c635553443a205461782046656560981b8152600d0160405190819003812060085482529033907f485f1bb6524c663555797e00171a10f341656e59b02d6b557a0a38ba7d5d97519060200160405180910390a3565b610822610c1d565b6001600160a01b0381166108875760405162461bcd60e51b815260206004820152602660248201527f4f776e61626c653a206e6577206f776e657220697320746865207a65726f206160448201526564647265737360d01b60648201526084016102cf565b61089081610cdf565b50565b6001600160a01b0383166108c35760405162461bcd60e51b815260206004820152600060248201526044016102cf565b60006108ce84610d2f565b90506000805b600b5481101561091f5782600b82815481106108f2576108f26112e4565b9060005260206000209060040201600101541161090d578091505b8061091781611310565b9150506108d4565b5060006103e8610930866005611329565b61093a9190611348565b9050600084156109fd576064600b8481548110610959576109596112e4565b906000526020600020906004020160030154876109769190611329565b6109809190611348565b60025490915061099b906001600160a01b0316333089610da8565b6109c787836109aa848a61136a565b6109b4919061136a565b6002546001600160a01b03169190610c77565b80600760008282546109d99190611383565b9250508190555081600960008282546109f29190611383565b90915550610ab19050565b6064600b8481548110610a1257610a126112e4565b90600052602060002090600402016002015487610a2f9190611329565b610a399190611348565b600354909150610a54906001600160a01b0316333089610da8565b610a808783610a63848a61136a565b610a6d919061136a565b6003546001600160a01b03169190610c77565b8060066000828254610a929190611383565b925050819055508160086000828254610aab9190611383565b90915550505b60006040518060e001604052808b81526020018a8152602001336001600160a01b03168152602001896001600160a01b031681526020018881526020018484610afa9190611383565b8152871515602090910152600a80549192506000610b1783611310565b9091555050600a546000908152600c6020526040902081518291908190610b3e90826113e4565b5060208201516001820190610b5390826113e4565b5060408201516002820180546001600160a01b03199081166001600160a01b039384161790915560608401516003840180549092169083161790556080830151600483015560a0830151600583015560c0909201516006909101805460ff1916911515919091179055600a549089169033907fae247d4d1624089014f2ec0bfc0ecf0760cf227f4e58732531e9b9e310163f53908d8d8c610bf48a8a611383565b8d42604051610c0997969594939291906114a4565b60405180910390a350505050505050505050565b6000546001600160a01b031633146105e45760405162461bcd60e51b815260206004820181905260248201527f4f776e61626c653a2063616c6c6572206973206e6f7420746865206f776e657260448201526064016102cf565b6040516001600160a01b038316602482015260448101829052610cda90849063a9059cbb60e01b906064015b60408051601f198184030181529190526020810180516001600160e01b03166001600160e01b031990931692909217909152610de6565b505050565b600080546001600160a01b038381166001600160a01b0319831681178455604051919092169283917f8be0079c531659141344cd1fd0a4f28419497f9722a3daafe3b4186f6b6457e09190a35050565b60055460405163aab8eecf60e01b81526001600160a01b038381166004830152600092839291169063aab8eecf906024016040805180830381865afa158015610d7c573d6000803e3d6000fd5b505050506040513d601f19601f82011682018060405250810190610da091906114fc565b509392505050565b6040516001600160a01b0380851660248301528316604482015260648101829052610de09085906323b872dd60e01b90608401610ca3565b50505050565b6000610e3b826040518060400160405280602081526020017f5361666545524332303a206c6f772d6c6576656c2063616c6c206661696c6564815250856001600160a01b0316610eb89092919063ffffffff16565b805190915015610cda5780806020019051810190610e599190611535565b610cda5760405162461bcd60e51b815260206004820152602a60248201527f5361666545524332303a204552433230206f7065726174696f6e20646964206e6044820152691bdd081cdd58d8d9595960b21b60648201526084016102cf565b6060610ec78484600085610ecf565b949350505050565b606082471015610f305760405162461bcd60e51b815260206004820152602660248201527f416464726573733a20696e73756666696369656e742062616c616e636520666f6044820152651c8818d85b1b60d21b60648201526084016102cf565b600080866001600160a01b03168587604051610f4c9190611552565b60006040518083038185875af1925050503d8060008114610f89576040519150601f19603f3d011682016040523d82523d6000602084013e610f8e565b606091505b5091509150610f9f87838387610faa565b979650505050505050565b60608315611019578251600003611012576001600160a01b0385163b6110125760405162461bcd60e51b815260206004820152601d60248201527f416464726573733a2063616c6c20746f206e6f6e2d636f6e747261637400000060448201526064016102cf565b5081610ec7565b610ec7838381511561102e5781518083602001fd5b8060405162461bcd60e51b81526004016102cf919061156e565b60006020828403121561105a57600080fd5b5035919050565b60005b8381101561107c578181015183820152602001611064565b50506000910152565b6000815180845261109d816020860160208601611061565b601f01601f19169290920160200192915050565b60e0815260006110c460e083018a611085565b82810360208401526110d6818a611085565b6001600160a01b03988916604085015296909716606083015250608081019390935260a0830191909152151560c0909101529392505050565b80356001600160a01b038116811461112657600080fd5b919050565b60006020828403121561113d57600080fd5b6111468261110f565b9392505050565b634e487b7160e01b600052604160045260246000fd5b600082601f83011261117457600080fd5b813567ffffffffffffffff8082111561118f5761118f61114d565b604051601f8301601f19908116603f011681019082821181831017156111b7576111b761114d565b816040528381528660208588010111156111d057600080fd5b836020870160208301376000602085830101528094505050505092915050565b801515811461089057600080fd5b600080600080600060a0868803121561121657600080fd5b853567ffffffffffffffff8082111561122e57600080fd5b61123a89838a01611163565b9650602088013591508082111561125057600080fd5b5061125d88828901611163565b94505061126c6040870161110f565b9250606086013591506080860135611283816111f0565b809150509295509295909350565b600181811c908216806112a557607f821691505b6020821081036112c557634e487b7160e01b600052602260045260246000fd5b50919050565b6000602082840312156112dd57600080fd5b5051919050565b634e487b7160e01b600052603260045260246000fd5b634e487b7160e01b600052601160045260246000fd5b600060018201611322576113226112fa565b5060010190565b6000816000190483118215151615611343576113436112fa565b500290565b60008261136557634e487b7160e01b600052601260045260246000fd5b500490565b8181038181111561137d5761137d6112fa565b92915050565b8082018082111561137d5761137d6112fa565b601f821115610cda57600081815260208120601f850160051c810160208610156113bd5750805b601f850160051c820191505b818110156113dc578281556001016113c9565b505050505050565b815167ffffffffffffffff8111156113fe576113fe61114d565b6114128161140c8454611291565b84611396565b602080601f831160018114611447576000841561142f5750858301515b600019600386901b1c1916600185901b1785556113dc565b600085815260208120601f198616915b8281101561147657888601518255948401946001909101908401611457565b50858210156114945787850151600019600388901b60f8161c191681555b5050505050600190811b01905550565b87815260e0602082015260006114bd60e0830189611085565b82810360408401526114cf8189611085565b60608401979097525050608081019390935290151560a083015263ffffffff1660c0909101529392505050565b6000806040838503121561150f57600080fd5b82519150602083015163ffffffff8116811461152a57600080fd5b809150509250929050565b60006020828403121561154757600080fd5b8151611146816111f0565b60008251611564818460208701611061565b9190910192915050565b602081526000611146602083018461108556fea2646970667358221220ce98914e946e9945a4bc20642e5f86c2c637f8d5518b298b7fdac6918c4cd03264736f6c63430008100033",
    "linkReferences": {}
  },
  "methodIdentifiers": {
    "_CUSDTaxFeeAmount()": "b55966a7",
    "_FLNTaxFeeAmount()": "647ddf38",
    "_cusdToken()": "6912207a",
    "_flanToken()": "eb44bf3c",
    "_paymentId()": "34e2a965",
    "_stakingContractAddress()": "6a9e67dc",
    "_totalCUSDFeeAmount()": "bfbf0b75",
    "_totalFLNFeeAmount()": "ba45c637",
    "getPayment(uint256)": "3280a836",
    "getPaymentId()": "5a651418",
    "getTotalFee()": "7ae316d0",
    "getTotalTaxFee()": "53ed7a31",
    "owner()": "8da5cb5b",
    "pay(string,string,address,uint256,bool)": "f70c6269",
    "renounceOwnership()": "715018a6",
    "setStakingContract(address)": "9dd373b9",
    "transferOwnership(address)": "f2fde38b",
    "withdrawAllCUSD()": "6a68b5be",
    "withdrawAllFLN()": "b9eb3cb4",
    "withdrawOnlyTaxFee()": "be23acd8"
  },
  "id": 31
}