{
  "abi": [
    {
      "inputs": [
        {
          "internalType": "address",
          "name": "token_",
          "type": "address"
        }
      ],
      "stateMutability": "nonpayable",
      "type": "constructor"
    },
    {
      "anonymous": false,
      "inputs": [
        {
          "indexed": true,
          "internalType": "address",
          "name": "previousOwner",
          "type": "address"
        },
        {
          "indexed": true,
          "internalType": "address",
          "name": "newOwner",
          "type": "address"
        }
      ],
      "name": "OwnershipTransferred",
      "type": "event"
    },
    {
      "anonymous": false,
      "inputs": [
        {
          "indexed": true,
          "internalType": "address",
          "name": "address_",
          "type": "address"
        },
        {
          "indexed": false,
          "internalType": "uint256",
          "name": "amount_",
          "type": "uint256"
        }
      ],
      "name": "Stake",
      "type": "event"
    },
    {
      "anonymous": false,
      "inputs": [
        {
          "indexed": true,
          "internalType": "address",
          "name": "address_",
          "type": "address"
        },
        {
          "indexed": false,
          "internalType": "uint256",
          "name": "amount_",
          "type": "uint256"
        }
      ],
      "name": "WithdrawAll",
      "type": "event"
    },
    {
      "anonymous": false,
      "inputs": [
        {
          "indexed": true,
          "internalType": "address",
          "name": "address_",
          "type": "address"
        },
        {
          "indexed": false,
          "internalType": "uint256",
          "name": "amount_",
          "type": "uint256"
        }
      ],
      "name": "WithdrawAmount",
      "type": "event"
    },
    {
      "inputs": [
        {
          "internalType": "address",
          "name": "address_",
          "type": "address"
        }
      ],
      "name": "getAddressMinUnlockTime",
      "outputs": [
        {
          "internalType": "uint32",
          "name": "",
          "type": "uint32"
        }
      ],
      "stateMutability": "view",
      "type": "function"
    },
    {
      "inputs": [
        {
          "internalType": "address",
          "name": "address_",
          "type": "address"
        }
      ],
      "name": "getAmountOfMember",
      "outputs": [
        {
          "internalType": "uint256",
          "name": "",
          "type": "uint256"
        },
        {
          "internalType": "uint32",
          "name": "",
          "type": "uint32"
        }
      ],
      "stateMutability": "view",
      "type": "function"
    },
    {
      "inputs": [],
      "name": "getMinLockDay",
      "outputs": [
        {
          "internalType": "uint32",
          "name": "",
          "type": "uint32"
        }
      ],
      "stateMutability": "view",
      "type": "function"
    },
    {
      "inputs": [],
      "name": "getTotalBalance",
      "outputs": [
        {
          "internalType": "uint256",
          "name": "",
          "type": "uint256"
        }
      ],
      "stateMutability": "view",
      "type": "function"
    },
    {
      "inputs": [],
      "name": "getTotalStakedAmount",
      "outputs": [
        {
          "internalType": "uint256",
          "name": "",
          "type": "uint256"
        }
      ],
      "stateMutability": "view",
      "type": "function"
    },
    {
      "inputs": [],
      "name": "owner",
      "outputs": [
        {
          "internalType": "address",
          "name": "",
          "type": "address"
        }
      ],
      "stateMutability": "view",
      "type": "function"
    },
    {
      "inputs": [],
      "name": "renounceOwnership",
      "outputs": [],
      "stateMutability": "nonpayable",
      "type": "function"
    },
    {
      "inputs": [
        {
          "internalType": "uint32",
          "name": "minLockDay_",
          "type": "uint32"
        }
      ],
      "name": "setMinLockDay",
      "outputs": [],
      "stateMutability": "nonpayable",
      "type": "function"
    },
    {
      "inputs": [
        {
          "internalType": "uint256",
          "name": "amount_",
          "type": "uint256"
        }
      ],
      "name": "stake",
      "outputs": [],
      "stateMutability": "payable",
      "type": "function"
    },
    {
      "inputs": [],
      "name": "totalStakedAmount",
      "outputs": [
        {
          "internalType": "uint256",
          "name": "",
          "type": "uint256"
        }
      ],
      "stateMutability": "view",
      "type": "function"
    },
    {
      "inputs": [
        {
          "internalType": "address",
          "name": "newOwner",
          "type": "address"
        }
      ],
      "name": "transferOwnership",
      "outputs": [],
      "stateMutability": "nonpayable",
      "type": "function"
    },
    {
      "inputs": [],
      "name": "withdrawAll",
      "outputs": [],
      "stateMutability": "payable",
      "type": "function"
    },
    {
      "inputs": [
        {
          "internalType": "uint256",
          "name": "amount_",
          "type": "uint256"
        }
      ],
      "name": "withdrawAmount",
      "outputs": [],
      "stateMutability": "payable",
      "type": "function"
    }
  ],
  "bytecode": {
    "object": "0x608060405260126003556004805463ffffffff19166007179055600060055534801561002a57600080fd5b50604051610fa6380380610fa6833981016040819052610049916100de565b6100523361008e565b600180556001600160a01b03811661006957600080fd5b600280546001600160a01b0319166001600160a01b039290921691909117905561010e565b600080546001600160a01b038381166001600160a01b0319831681178455604051919092169283917f8be0079c531659141344cd1fd0a4f28419497f9722a3daafe3b4186f6b6457e09190a35050565b6000602082840312156100f057600080fd5b81516001600160a01b038116811461010757600080fd5b9392505050565b610e898061011d6000396000f3fe6080604052600436106100c25760003560e01c8063853828b61161007f578063aab8eecf11610059578063aab8eecf146101a7578063ba88b3e9146101e1578063c827b3e71461020d578063f2fde38b1461022d57600080fd5b8063853828b6146101645780638da5cb5b1461016c578063a694fc3a1461019457600080fd5b80630562b9f7146100c757806312b58349146100dc57806338adb6f0146101045780633b259ffe14610119578063567e98f914610139578063715018a61461014f575b600080fd5b6100da6100d5366004610caa565b61024d565b005b3480156100e857600080fd5b506100f16102fd565b6040519081526020015b60405180910390f35b34801561011057600080fd5b506005546100f1565b34801561012557600080fd5b506100da610134366004610cc3565b61036f565b34801561014557600080fd5b506100f160055481565b34801561015b57600080fd5b506100da6103e3565b6100da6103f7565b34801561017857600080fd5b506000546040516001600160a01b0390911681526020016100fb565b6100da6101a2366004610caa565b61048b565b3480156101b357600080fd5b506101c76101c2366004610cf0565b6105bf565b6040805192835263ffffffff9091166020830152016100fb565b3480156101ed57600080fd5b5060045463ffffffff165b60405163ffffffff90911681526020016100fb565b34801561021957600080fd5b506101f8610228366004610cf0565b610620565b34801561023957600080fd5b506100da610248366004610cf0565b610661565b3361029f5760405162461bcd60e51b815260206004820152601b60248201527f466c616e205374616b696e673a204e6f6e65206164647265737321000000000060448201526064015b60405180910390fd5b60006102ab33836106da565b905080600560008282546102bf9190610d2f565b909155505060405181815233907f88969340a3d69da408cfcbcad93dfc1d174b772fb92562e7d52e0a7492186ef99060200160405180910390a25050565b6002546040516370a0823160e01b81523060048201526000916001600160a01b0316906370a0823190602401602060405180830381865afa158015610346573d6000803e3d6000fd5b505050506040513d601f19601f8201168201806040525081019061036a9190610d42565b905090565b6103776108b4565b618e948163ffffffff16116103c75760405162461bcd60e51b8152602060048201526016602482015275466c616e205374616b696e673a20546f6f206c6f6e6760501b6044820152606401610296565b6004805463ffffffff191663ffffffff92909216919091179055565b6103eb6108b4565b6103f5600061090e565b565b3361041e5760405162461bcd60e51b81526020600482015260006024820152604401610296565b336000818152600660205260409020549061043990826106da565b9050806005600082825461044d9190610d2f565b909155505060405181815233907fd7a4aa9f3dca5f6606ac15d7e1850920201bbb02c38cd986793779f58ae0dfd3906020015b60405180910390a250565b336104b25760405162461bcd60e51b81526020600482015260006024820152604401610296565b600081116104dc5760405162461bcd60e51b81526020600482015260006024820152604401610296565b3360009081526006602052604081205490036105095733600090815260066020526040902081905561052e565b3360009081526006602052604081208054839290610528908490610d5b565b90915550505b336000818152600660205260409020600101805463ffffffff19164263ffffffff90811691909117909155600254610576926001600160a01b03909116913090859061095e16565b80600560008282546105889190610d5b565b909155505060405181815233907febedb8b3c678666e7f36970bc8f57abf6d8fa2e828c0da91ea5b75bf68ed101a90602001610480565b6000806001600160a01b0383166105f25760405162461bcd60e51b81526020600482015260006024820152604401610296565b50506001600160a01b031660009081526006602052604090208054600190910154909163ffffffff90911690565b60006001600160a01b0382166106525760405162461bcd60e51b81526020600482015260006024820152604401610296565b61065b826109cf565b92915050565b6106696108b4565b6001600160a01b0381166106ce5760405162461bcd60e51b815260206004820152602660248201527f4f776e61626c653a206e6577206f776e657220697320746865207a65726f206160448201526564647265737360d01b6064820152608401610296565b6106d78161090e565b50565b60008082116107375760405162461bcd60e51b815260206004820152602360248201527f466c616e205374616b696e673a2072657175657374656420616d6f756e74203d60448201526203d20360ec1b6064820152608401610296565b6001600160a01b0383166000908152600660205260409020548211156107b05760405162461bcd60e51b815260206004820152602860248201527f466c616e205374616b696e673a2042616c616e6365203c2072657175657374656044820152671908185b5bdd5b9d60c21b6064820152608401610296565b6004546107c59063ffffffff16610e10610d6e565b6001600160a01b0384166000908152600660205260409020600101546107f1919063ffffffff16610d9a565b63ffffffff164263ffffffff16101561084c5760405162461bcd60e51b815260206004820152601960248201527f466c616e205374616b696e673a204c6f636b20506572696f64000000000000006044820152606401610296565b600254610863906001600160a01b03163384610a13565b3360009081526006602052604081208054849290610882908490610d2f565b9091555050336000908152600660205260409020600101805463ffffffff19164263ffffffff16179055508092915050565b6000546001600160a01b031633146103f55760405162461bcd60e51b815260206004820181905260248201527f4f776e61626c653a2063616c6c6572206973206e6f7420746865206f776e65726044820152606401610296565b600080546001600160a01b038381166001600160a01b0319831681178455604051919092169283917f8be0079c531659141344cd1fd0a4f28419497f9722a3daafe3b4186f6b6457e09190a35050565b6040516001600160a01b03808516602483015283166044820152606481018290526109c99085906323b872dd60e01b906084015b60408051601f198184030181529190526020810180516001600160e01b03166001600160e01b031990931692909217909152610a48565b50505050565b6004546000906109e79063ffffffff16610e10610d6e565b6001600160a01b03831660009081526006602052604090206001015461065b919063ffffffff16610d9a565b6040516001600160a01b038316602482015260448101829052610a4390849063a9059cbb60e01b90606401610992565b505050565b6000610a9d826040518060400160405280602081526020017f5361666545524332303a206c6f772d6c6576656c2063616c6c206661696c6564815250856001600160a01b0316610b1a9092919063ffffffff16565b805190915015610a435780806020019051810190610abb9190610dbe565b610a435760405162461bcd60e51b815260206004820152602a60248201527f5361666545524332303a204552433230206f7065726174696f6e20646964206e6044820152691bdd081cdd58d8d9595960b21b6064820152608401610296565b6060610b298484600085610b31565b949350505050565b606082471015610b925760405162461bcd60e51b815260206004820152602660248201527f416464726573733a20696e73756666696369656e742062616c616e636520666f6044820152651c8818d85b1b60d21b6064820152608401610296565b600080866001600160a01b03168587604051610bae9190610e04565b60006040518083038185875af1925050503d8060008114610beb576040519150601f19603f3d011682016040523d82523d6000602084013e610bf0565b606091505b5091509150610c0187838387610c0c565b979650505050505050565b60608315610c7b578251600003610c74576001600160a01b0385163b610c745760405162461bcd60e51b815260206004820152601d60248201527f416464726573733a2063616c6c20746f206e6f6e2d636f6e74726163740000006044820152606401610296565b5081610b29565b610b298383815115610c905781518083602001fd5b8060405162461bcd60e51b81526004016102969190610e20565b600060208284031215610cbc57600080fd5b5035919050565b600060208284031215610cd557600080fd5b813563ffffffff81168114610ce957600080fd5b9392505050565b600060208284031215610d0257600080fd5b81356001600160a01b0381168114610ce957600080fd5b634e487b7160e01b600052601160045260246000fd5b8181038181111561065b5761065b610d19565b600060208284031215610d5457600080fd5b5051919050565b8082018082111561065b5761065b610d19565b600063ffffffff80831681851681830481118215151615610d9157610d91610d19565b02949350505050565b63ffffffff818116838216019080821115610db757610db7610d19565b5092915050565b600060208284031215610dd057600080fd5b81518015158114610ce957600080fd5b60005b83811015610dfb578181015183820152602001610de3565b50506000910152565b60008251610e16818460208701610de0565b9190910192915050565b6020815260008251806020840152610e3f816040850160208701610de0565b601f01601f1916919091016040019291505056fea2646970667358221220dfabf1bd79d1225d0c4887e8ab66e947d792a1dd98ed7769fd65d59189f797f964736f6c63430008100033",
    "linkReferences": {}
  },
  "methodIdentifiers": {
    "getAddressMinUnlockTime(address)": "c827b3e7",
    "getAmountOfMember(address)": "aab8eecf",
    "getMinLockDay()": "ba88b3e9",
    "getTotalBalance()": "12b58349",
    "getTotalStakedAmount()": "38adb6f0",
    "owner()": "8da5cb5b",
    "renounceOwnership()": "715018a6",
    "setMinLockDay(uint32)": "3b259ffe",
    "stake(uint256)": "a694fc3a",
    "totalStakedAmount()": "567e98f9",
    "transferOwnership(address)": "f2fde38b",
    "withdrawAll()": "853828b6",
    "withdrawAmount(uint256)": "0562b9f7"
  },
  "id": 31
}