{
  "abi": [
    {
      "inputs": [
        {
          "internalType": "address",
          "name": "registrar",
          "type": "address"
        },
        {
          "internalType": "address",
          "name": "_writeRule",
          "type": "address"
        },
        {
          "internalType": "address",
          "name": "_transferRule",
          "type": "address"
        },
        {
          "internalType": "address",
          "name": "_fundRule",
          "type": "address"
        },
        {
          "internalType": "address",
          "name": "_cashRule",
          "type": "address"
        },
        {
          "internalType": "address",
          "name": "_approveRule",
          "type": "address"
        },
        {
          "components": [
            {
              "internalType": "uint256",
              "name": "writeBPS",
              "type": "uint256"
            },
            {
              "internalType": "uint256",
              "name": "transferBPS",
              "type": "uint256"
            },
            {
              "internalType": "uint256",
              "name": "fundBPS",
              "type": "uint256"
            },
            {
              "internalType": "uint256",
              "name": "cashBPS",
              "type": "uint256"
            }
          ],
          "internalType": "struct DataTypes.WTFCFees",
          "name": "_fees",
          "type": "tuple"
        },
        {
          "internalType": "string",
          "name": "__baseURI",
          "type": "string"
        }
      ],
      "stateMutability": "nonpayable",
      "type": "constructor"
    },
    {
      "inputs": [],
      "name": "InitParamsInvalid",
      "type": "error"
    },
    {
      "inputs": [],
      "name": "NotRegistrar",
      "type": "error"
    },
    {
      "anonymous": false,
      "inputs": [
        {
          "indexed": true,
          "internalType": "uint256",
          "name": "cheqId",
          "type": "uint256"
        },
        {
          "indexed": false,
          "internalType": "bytes32",
          "name": "memoHash",
          "type": "bytes32"
        }
      ],
      "name": "MemoWritten",
      "type": "event"
    },
    {
      "inputs": [],
      "name": "REGISTRAR",
      "outputs": [
        {
          "internalType": "address",
          "name": "",
          "type": "address"
        }
      ],
      "stateMutability": "view",
      "type": "function"
    },
    {
      "inputs": [],
      "name": "_URI",
      "outputs": [
        {
          "internalType": "string",
          "name": "",
          "type": "string"
        }
      ],
      "stateMutability": "view",
      "type": "function"
    },
    {
      "inputs": [],
      "name": "approveRule",
      "outputs": [
        {
          "internalType": "address",
          "name": "",
          "type": "address"
        }
      ],
      "stateMutability": "view",
      "type": "function"
    },
    {
      "inputs": [],
      "name": "cashRule",
      "outputs": [
        {
          "internalType": "address",
          "name": "",
          "type": "address"
        }
      ],
      "stateMutability": "view",
      "type": "function"
    },
    {
      "inputs": [],
      "name": "fees",
      "outputs": [
        {
          "internalType": "uint256",
          "name": "writeBPS",
          "type": "uint256"
        },
        {
          "internalType": "uint256",
          "name": "transferBPS",
          "type": "uint256"
        },
        {
          "internalType": "uint256",
          "name": "fundBPS",
          "type": "uint256"
        },
        {
          "internalType": "uint256",
          "name": "cashBPS",
          "type": "uint256"
        }
      ],
      "stateMutability": "view",
      "type": "function"
    },
    {
      "inputs": [],
      "name": "fundRule",
      "outputs": [
        {
          "internalType": "address",
          "name": "",
          "type": "address"
        }
      ],
      "stateMutability": "view",
      "type": "function"
    },
    {
      "inputs": [],
      "name": "getFees",
      "outputs": [
        {
          "internalType": "uint256",
          "name": "",
          "type": "uint256"
        },
        {
          "internalType": "uint256",
          "name": "",
          "type": "uint256"
        },
        {
          "internalType": "uint256",
          "name": "",
          "type": "uint256"
        },
        {
          "internalType": "uint256",
          "name": "",
          "type": "uint256"
        }
      ],
      "stateMutability": "view",
      "type": "function"
    },
    {
      "inputs": [
        {
          "internalType": "uint256",
          "name": "",
          "type": "uint256"
        }
      ],
      "name": "inspector",
      "outputs": [
        {
          "internalType": "address",
          "name": "",
          "type": "address"
        }
      ],
      "stateMutability": "view",
      "type": "function"
    },
    {
      "inputs": [
        {
          "internalType": "uint256",
          "name": "",
          "type": "uint256"
        }
      ],
      "name": "isReleased",
      "outputs": [
        {
          "internalType": "bool",
          "name": "",
          "type": "bool"
        }
      ],
      "stateMutability": "view",
      "type": "function"
    },
    {
      "inputs": [
        {
          "internalType": "uint256",
          "name": "",
          "type": "uint256"
        }
      ],
      "name": "memo",
      "outputs": [
        {
          "internalType": "bytes32",
          "name": "",
          "type": "bytes32"
        }
      ],
      "stateMutability": "view",
      "type": "function"
    },
    {
      "inputs": [
        {
          "internalType": "address",
          "name": "caller",
          "type": "address"
        },
        {
          "internalType": "address",
          "name": "owner",
          "type": "address"
        },
        {
          "internalType": "address",
          "name": "to",
          "type": "address"
        },
        {
          "internalType": "uint256",
          "name": "cheqId",
          "type": "uint256"
        },
        {
          "components": [
            {
              "internalType": "address",
              "name": "currency",
              "type": "address"
            },
            {
              "internalType": "uint256",
              "name": "amount",
              "type": "uint256"
            },
            {
              "internalType": "uint256",
              "name": "escrowed",
              "type": "uint256"
            },
            {
              "internalType": "address",
              "name": "drawer",
              "type": "address"
            },
            {
              "internalType": "address",
              "name": "recipient",
              "type": "address"
            },
            {
              "internalType": "address",
              "name": "module",
              "type": "address"
            },
            {
              "internalType": "uint256",
              "name": "mintTimestamp",
              "type": "uint256"
            }
          ],
          "internalType": "struct DataTypes.Cheq",
          "name": "cheq",
          "type": "tuple"
        },
        {
          "internalType": "bytes",
          "name": "initData",
          "type": "bytes"
        }
      ],
      "name": "processApproval",
      "outputs": [],
      "stateMutability": "nonpayable",
      "type": "function"
    },
    {
      "inputs": [
        {
          "internalType": "address",
          "name": "caller",
          "type": "address"
        },
        {
          "internalType": "address",
          "name": "owner",
          "type": "address"
        },
        {
          "internalType": "address",
          "name": "to",
          "type": "address"
        },
        {
          "internalType": "uint256",
          "name": "amount",
          "type": "uint256"
        },
        {
          "internalType": "uint256",
          "name": "cheqId",
          "type": "uint256"
        },
        {
          "components": [
            {
              "internalType": "address",
              "name": "currency",
              "type": "address"
            },
            {
              "internalType": "uint256",
              "name": "amount",
              "type": "uint256"
            },
            {
              "internalType": "uint256",
              "name": "escrowed",
              "type": "uint256"
            },
            {
              "internalType": "address",
              "name": "drawer",
              "type": "address"
            },
            {
              "internalType": "address",
              "name": "recipient",
              "type": "address"
            },
            {
              "internalType": "address",
              "name": "module",
              "type": "address"
            },
            {
              "internalType": "uint256",
              "name": "mintTimestamp",
              "type": "uint256"
            }
          ],
          "internalType": "struct DataTypes.Cheq",
          "name": "cheq",
          "type": "tuple"
        },
        {
          "internalType": "bytes",
          "name": "initData",
          "type": "bytes"
        }
      ],
      "name": "processCash",
      "outputs": [
        {
          "internalType": "uint256",
          "name": "",
          "type": "uint256"
        }
      ],
      "stateMutability": "nonpayable",
      "type": "function"
    },
    {
      "inputs": [
        {
          "internalType": "address",
          "name": "caller",
          "type": "address"
        },
        {
          "internalType": "address",
          "name": "owner",
          "type": "address"
        },
        {
          "internalType": "uint256",
          "name": "amount",
          "type": "uint256"
        },
        {
          "internalType": "uint256",
          "name": "directAmount",
          "type": "uint256"
        },
        {
          "internalType": "uint256",
          "name": "cheqId",
          "type": "uint256"
        },
        {
          "components": [
            {
              "internalType": "address",
              "name": "currency",
              "type": "address"
            },
            {
              "internalType": "uint256",
              "name": "amount",
              "type": "uint256"
            },
            {
              "internalType": "uint256",
              "name": "escrowed",
              "type": "uint256"
            },
            {
              "internalType": "address",
              "name": "drawer",
              "type": "address"
            },
            {
              "internalType": "address",
              "name": "recipient",
              "type": "address"
            },
            {
              "internalType": "address",
              "name": "module",
              "type": "address"
            },
            {
              "internalType": "uint256",
              "name": "mintTimestamp",
              "type": "uint256"
            }
          ],
          "internalType": "struct DataTypes.Cheq",
          "name": "cheq",
          "type": "tuple"
        },
        {
          "internalType": "bytes",
          "name": "initData",
          "type": "bytes"
        }
      ],
      "name": "processFund",
      "outputs": [
        {
          "internalType": "uint256",
          "name": "",
          "type": "uint256"
        }
      ],
      "stateMutability": "nonpayable",
      "type": "function"
    },
    {
      "inputs": [
        {
          "internalType": "uint256",
          "name": "",
          "type": "uint256"
        }
      ],
      "name": "processTokenURI",
      "outputs": [
        {
          "internalType": "string",
          "name": "",
          "type": "string"
        }
      ],
      "stateMutability": "pure",
      "type": "function"
    },
    {
      "inputs": [
        {
          "internalType": "address",
          "name": "caller",
          "type": "address"
        },
        {
          "internalType": "bool",
          "name": "isApproved",
          "type": "bool"
        },
        {
          "internalType": "address",
          "name": "owner",
          "type": "address"
        },
        {
          "internalType": "address",
          "name": "from",
          "type": "address"
        },
        {
          "internalType": "address",
          "name": "to",
          "type": "address"
        },
        {
          "internalType": "uint256",
          "name": "cheqId",
          "type": "uint256"
        },
        {
          "components": [
            {
              "internalType": "address",
              "name": "currency",
              "type": "address"
            },
            {
              "internalType": "uint256",
              "name": "amount",
              "type": "uint256"
            },
            {
              "internalType": "uint256",
              "name": "escrowed",
              "type": "uint256"
            },
            {
              "internalType": "address",
              "name": "drawer",
              "type": "address"
            },
            {
              "internalType": "address",
              "name": "recipient",
              "type": "address"
            },
            {
              "internalType": "address",
              "name": "module",
              "type": "address"
            },
            {
              "internalType": "uint256",
              "name": "mintTimestamp",
              "type": "uint256"
            }
          ],
          "internalType": "struct DataTypes.Cheq",
          "name": "cheq",
          "type": "tuple"
        },
        {
          "internalType": "bytes",
          "name": "data",
          "type": "bytes"
        }
      ],
      "name": "processTransfer",
      "outputs": [
        {
          "internalType": "uint256",
          "name": "",
          "type": "uint256"
        }
      ],
      "stateMutability": "nonpayable",
      "type": "function"
    },
    {
      "inputs": [
        {
          "internalType": "address",
          "name": "caller",
          "type": "address"
        },
        {
          "internalType": "address",
          "name": "owner",
          "type": "address"
        },
        {
          "internalType": "uint256",
          "name": "cheqId",
          "type": "uint256"
        },
        {
          "components": [
            {
              "internalType": "address",
              "name": "currency",
              "type": "address"
            },
            {
              "internalType": "uint256",
              "name": "amount",
              "type": "uint256"
            },
            {
              "internalType": "uint256",
              "name": "escrowed",
              "type": "uint256"
            },
            {
              "internalType": "address",
              "name": "drawer",
              "type": "address"
            },
            {
              "internalType": "address",
              "name": "recipient",
              "type": "address"
            },
            {
              "internalType": "address",
              "name": "module",
              "type": "address"
            },
            {
              "internalType": "uint256",
              "name": "mintTimestamp",
              "type": "uint256"
            }
          ],
          "internalType": "struct DataTypes.Cheq",
          "name": "cheq",
          "type": "tuple"
        },
        {
          "internalType": "uint256",
          "name": "directAmount",
          "type": "uint256"
        },
        {
          "internalType": "bytes",
          "name": "initData",
          "type": "bytes"
        }
      ],
      "name": "processWrite",
      "outputs": [
        {
          "internalType": "uint256",
          "name": "",
          "type": "uint256"
        }
      ],
      "stateMutability": "nonpayable",
      "type": "function"
    },
    {
      "inputs": [],
      "name": "transferRule",
      "outputs": [
        {
          "internalType": "address",
          "name": "",
          "type": "address"
        }
      ],
      "stateMutability": "view",
      "type": "function"
    },
    {
      "inputs": [
        {
          "internalType": "address",
          "name": "token",
          "type": "address"
        }
      ],
      "name": "withdrawFees",
      "outputs": [],
      "stateMutability": "nonpayable",
      "type": "function"
    },
    {
      "inputs": [],
      "name": "writeRule",
      "outputs": [
        {
          "internalType": "address",
          "name": "",
          "type": "address"
        }
      ],
      "stateMutability": "view",
      "type": "function"
    }
  ],
  "bytecode": {
    "object": "0x60a06040523480156200001157600080fd5b506040516200193838038062001938833981016040819052620000349162000441565b878787878787876001600160a01b03871662000063576040516348be0eb360e01b815260040160405180910390fd5b6001600160a01b038781166080819052604051631fa5b09760e11b81528883166004820152878316602482015286831660448201528583166064820152918416608483015290633f4b612e9060a401602060405180830381865afa158015620000d0573d6000803e3d6000fd5b505050506040513d601f19601f82011682018060405250810190620000f691906200053e565b620001385760405162461bcd60e51b815260206004820152600d60248201526c1495531154d7d2539590531251609a1b60448201526064015b60405180910390fd5b600380546001600160a01b03199081166001600160a01b038981169190911790925560048054821688841617905560058054821687841617905560068054821686841617905560078054909116918416919091179055805161271011620001d15760405162461bcd60e51b815260206004820152601460248201526000805160206200191883398151915260448201526064016200012f565b612710816020015110620002175760405162461bcd60e51b815260206004820152601460248201526000805160206200191883398151915260448201526064016200012f565b6127108160400151106200025d5760405162461bcd60e51b815260206004820152601460248201526000805160206200191883398151915260448201526064016200012f565b612710816060015110620002a35760405162461bcd60e51b815260206004820152601460248201526000805160206200191883398151915260448201526064016200012f565b8051600855602080820151600955604080830151600a556060830151600b55514281526001600160a01b038916917ff1a1fa6b64aa95186f5a1285e76198d0da80d9c5a88062641d447f1d7c54e56c910160405180910390a2505050505050508060009081620003149190620005f8565b505050505050505050620006c4565b80516001600160a01b03811681146200033b57600080fd5b919050565b634e487b7160e01b600052604160045260246000fd5b604051608081016001600160401b03811182821017156200037b576200037b62000340565b60405290565b604051601f8201601f191681016001600160401b0381118282101715620003ac57620003ac62000340565b604052919050565b600082601f830112620003c657600080fd5b81516001600160401b03811115620003e257620003e262000340565b6020620003f8601f8301601f1916820162000381565b82815285828487010111156200040d57600080fd5b60005b838110156200042d57858101830151828201840152820162000410565b506000928101909101919091529392505050565b600080600080600080600080888a036101608112156200046057600080fd5b6200046b8a62000323565b98506200047b60208b0162000323565b97506200048b60408b0162000323565b96506200049b60608b0162000323565b9550620004ab60808b0162000323565b9450620004bb60a08b0162000323565b9350608060bf1982011215620004d057600080fd5b50620004db62000356565b60c08a0151815260e08a015160208201526101008a015160408201526101208a015160608201526101408a01519092506001600160401b038111156200052057600080fd5b6200052e8b828c01620003b4565b9150509295985092959890939650565b6000602082840312156200055157600080fd5b815180151581146200056257600080fd5b9392505050565b600181811c908216806200057e57607f821691505b6020821081036200059f57634e487b7160e01b600052602260045260246000fd5b50919050565b601f821115620005f357600081815260208120601f850160051c81016020861015620005ce5750805b601f850160051c820191505b81811015620005ef57828155600101620005da565b5050505b505050565b81516001600160401b0381111562000614576200061462000340565b6200062c8162000625845462000569565b84620005a5565b602080601f8311600181146200066457600084156200064b5750858301515b600019600386901b1c1916600185901b178555620005ef565b600085815260208120601f198616915b82811015620006955788860151825594840194600190910190840162000674565b5085821015620006b45787850151600019600388901b60f8161c191681555b5050505050600190811b01905550565b60805161120e6200070a600039600081816102b2015281816103e00152818161048a0152818161059201528181610651015281816107aa0152610833015261120e6000f3fe608060405234801561001057600080fd5b50600436106101215760003560e01c80639af1d35a116100ad578063d647e1e511610071578063d647e1e5146102e7578063db8d55f1146102fa578063df1cdb461461030b578063f09b3d9a1461031e578063f3ea001e1461033157600080fd5b80639af1d35a1461025c578063a0663d1b14610292578063b4e87e8f146102a5578063cb609077146102ad578063d4c301da146102d457600080fd5b80634fe17e1a116100f45780634fe17e1a1461019f57806357e4561d146101cd57806373962b26146101f6578063843143471461022957806396eb58f81461023c57600080fd5b80630d02cde714610126578063164e68de146101565780634238a63a1461016b578063433d3a771461018c575b600080fd5b600454610139906001600160a01b031681565b6040516001600160a01b0390911681526020015b60405180910390f35b610169610164366004610ac9565b610344565b005b61017e610179366004610b4e565b61047d565b60405190815260200161014d565b600754610139906001600160a01b031681565b6101c06101ad366004610bdf565b5060408051602081019091526000815290565b60405161014d9190610c3e565b6101396101db366004610bdf565b600c602052600090815260409020546001600160a01b031681565b610219610204366004610bdf565b600d6020526000908152604090205460ff1681565b604051901515815260200161014d565b610169610237366004610cf4565b610587565b61017e61024a366004610bdf565b60016020526000908152604090205481565b600854600954600a54600b546102729392919084565b60408051948552602085019390935291830152606082015260800161014d565b61017e6102a0366004610d85565b610644565b6101c061070f565b6101397f000000000000000000000000000000000000000000000000000000000000000081565b600554610139906001600160a01b031681565b61017e6102f5366004610e27565b61079d565b600854600954600a54600b54610272565b600354610139906001600160a01b031681565b61017e61032c366004610e83565b610826565b600654610139906001600160a01b031681565b3360009081526002602090815260408083206001600160a01b0385168452909152902054600181116103b45760405162461bcd60e51b8152602060048201526014602482015273496e73756666696369656e7420726576656e756560601b60448201526064015b60405180910390fd5b3360009081526002602090815260408083206001600160a01b03868116855292529091206001908190557f00000000000000000000000000000000000000000000000000000000000000009091169063d6a4f84c9084906104159085610f3f565b6040516001600160e01b031960e085901b1681526001600160a01b0390921660048301526024820152336044820152606401600060405180830381600087803b15801561046157600080fd5b505af1158015610475573d6000803e3d6000fd5b505050505050565b6000336001600160a01b037f000000000000000000000000000000000000000000000000000000000000000016146104c857604051632ad9535160e01b815260040160405180910390fd5b600354604051638893ae9d60e01b81526001600160a01b0390911690638893ae9d90610504908b908b908b908b908b908b908b90600401611009565b600060405180830381600087803b15801561051e57600080fd5b505af1158015610532573d6000803e3d6000fd5b505050506000808484810190610548919061105f565b506000988952600c602052604090982080546001600160a01b0319166001600160a01b0399909916989098179097555050600854979650505050505050565b336001600160a01b037f000000000000000000000000000000000000000000000000000000000000000016146105d057604051632ad9535160e01b815260040160405180910390fd5b60075460405163275ecee160e01b81526001600160a01b039091169063275ecee19061060a90899089908990899089908990600401611098565b600060405180830381600087803b15801561062457600080fd5b505af1158015610638573d6000803e3d6000fd5b50505050505050505050565b6000336001600160a01b037f0000000000000000000000000000000000000000000000000000000000000000161461068f57604051632ad9535160e01b815260040160405180910390fd5b6006546040516353ba2df360e01b81526001600160a01b03909116906353ba2df3906106cd908c908c908c908c908c908c908c908c906004016110ed565b600060405180830381600087803b1580156106e757600080fd5b505af11580156106fb573d6000803e3d6000fd5b5050600b549b9a5050505050505050505050565b6000805461071c9061114c565b80601f01602080910402602001604051908101604052809291908181526020018280546107489061114c565b80156107955780601f1061076a57610100808354040283529160200191610795565b820191906000526020600020905b81548152906001019060200180831161077857829003601f168201915b505050505081565b6000336001600160a01b037f000000000000000000000000000000000000000000000000000000000000000016146107e857604051632ad9535160e01b815260040160405180910390fd5b60405162461bcd60e51b815260206004820152601360248201527253696d706c6520657363726f7773206f6e6c7960681b60448201526064016103ab565b6000336001600160a01b037f0000000000000000000000000000000000000000000000000000000000000000161461087157604051632ad9535160e01b815260040160405180910390fd5b6000848152600c60205260409020546001600160a01b0390811690878116908916146108d55760405162461bcd60e51b81526020600482015260136024820152722737ba10333937b69027232a103437b63232b960691b60448201526064016103ab565b6000858152600d602052604090205460ff161561092a5760405162461bcd60e51b8152602060048201526013602482015272125cc8185b1c9958591e481c995b19585cd959606a1b60448201526064016103ab565b876001600160a01b03168a6001600160a01b031614806109475750885b806109635750806001600160a01b03168a6001600160a01b0316145b6109af5760405162461bcd60e51b815260206004820152601760248201527f4f6e6c79206f776e6572206f7220696e73706563746f7200000000000000000060448201526064016103ab565b806001600160a01b03168a6001600160a01b031603610a31576109d86080850160608601610ac9565b6001600160a01b0316866001600160a01b031614610a315760405162461bcd60e51b815260206004820152601660248201527527b7363c903932bb32b939b2903a3790323930bbb2b960511b60448201526064016103ab565b600480546040516309b1079760e21b81526001600160a01b03909116916326c41e5c91610a6e918e918e918e918e918e918e918e918e9101611180565b600060405180830381600087803b158015610a8857600080fd5b505af1158015610a9c573d6000803e3d6000fd5b50506009549c9b505050505050505050505050565b6001600160a01b0381168114610ac657600080fd5b50565b600060208284031215610adb57600080fd5b8135610ae681610ab1565b9392505050565b600060e08284031215610aff57600080fd5b50919050565b60008083601f840112610b1757600080fd5b50813567ffffffffffffffff811115610b2f57600080fd5b602083019150836020828501011115610b4757600080fd5b9250929050565b6000806000806000806000610180888a031215610b6a57600080fd5b8735610b7581610ab1565b96506020880135610b8581610ab1565b955060408801359450610b9b8960608a01610aed565b9350610140880135925061016088013567ffffffffffffffff811115610bc057600080fd5b610bcc8a828b01610b05565b989b979a50959850939692959293505050565b600060208284031215610bf157600080fd5b5035919050565b6000815180845260005b81811015610c1e57602081850181015186830182015201610c02565b506000602082860101526020601f19601f83011685010191505092915050565b602081526000610ae66020830184610bf8565b634e487b7160e01b600052604160045260246000fd5b600082601f830112610c7857600080fd5b813567ffffffffffffffff80821115610c9357610c93610c51565b604051601f8301601f19908116603f01168101908282118183101715610cbb57610cbb610c51565b81604052838152866020858801011115610cd457600080fd5b836020870160208301376000602085830101528094505050505092915050565b6000806000806000806101808789031215610d0e57600080fd5b8635610d1981610ab1565b95506020870135610d2981610ab1565b94506040870135610d3981610ab1565b935060608701359250610d4f8860808901610aed565b915061016087013567ffffffffffffffff811115610d6c57600080fd5b610d7889828a01610c67565b9150509295509295509295565b6000806000806000806000806101a0898b031215610da257600080fd5b8835610dad81610ab1565b97506020890135610dbd81610ab1565b96506040890135610dcd81610ab1565b95506060890135945060808901359350610dea8a60a08b01610aed565b925061018089013567ffffffffffffffff811115610e0757600080fd5b610e138b828c01610b05565b999c989b5096995094979396929594505050565b6000806000806000806000806101a0898b031215610e4457600080fd5b8835610e4f81610ab1565b97506020890135610e5f81610ab1565b9650604089013595506060890135945060808901359350610dea8a60a08b01610aed565b6000806000806000806000806101c0898b031215610ea057600080fd5b8835610eab81610ab1565b975060208901358015158114610ec057600080fd5b96506040890135610ed081610ab1565b95506060890135610ee081610ab1565b94506080890135610ef081610ab1565b935060a08901359250610f068a60c08b01610aed565b91506101a089013567ffffffffffffffff811115610f2357600080fd5b610f2f8b828c01610c67565b9150509295985092959890939650565b81810381811115610f6057634e487b7160e01b600052601160045260246000fd5b92915050565b8035610f7181610ab1565b6001600160a01b0390811683526020828101359084015260408083013590840152606082013590610fa182610ab1565b9081166060840152608082013590610fb882610ab1565b908116608084015260a082013590610fcf82610ab1565b1660a083015260c090810135910152565b81835281816020850137506000828201602090810191909152601f909101601f19169091010190565b6001600160a01b038881168252871660208201526040810186905260006101806110366060840188610f66565b85610140840152806101608401526110518184018587610fe0565b9a9950505050505050505050565b6000806040838503121561107257600080fd5b823561107d81610ab1565b9150602083013561108d81610ab1565b809150509250929050565b6001600160a01b0387811682528681166020830152851660408201526060810184905260006101806110cd6080840186610f66565b806101608401526110e081840185610bf8565b9998505050505050505050565b6001600160a01b038981168252888116602083015287166040820152606081018690526080810185905260006101a061112960a0840187610f66565b8061018084015261113d8184018587610fe0565b9b9a5050505050505050505050565b600181811c9082168061116057607f821691505b602082108103610aff57634e487b7160e01b600052602260045260246000fd5b6001600160a01b0389811682528815156020830152878116604083015286811660608301528516608082015260a0810184905260006101c06111c560c0840186610f66565b806101a084015261113d81840185610bf856fea26469706673582212201d018d34500cd1f6f43593a6764e2605c5bd538f4e0993ea049bee54e390cfa264736f6c634300081000334d6f64756c653a2046656520746f6f2068696768000000000000000000000000",
    "linkReferences": {}
  },
  "methodIdentifiers": {
    "REGISTRAR()": "cb609077",
    "_URI()": "b4e87e8f",
    "approveRule()": "433d3a77",
    "cashRule()": "f3ea001e",
    "fees()": "9af1d35a",
    "fundRule()": "d4c301da",
    "getFees()": "db8d55f1",
    "inspector(uint256)": "57e4561d",
    "isReleased(uint256)": "73962b26",
    "memo(uint256)": "96eb58f8",
    "processApproval(address,address,address,uint256,(address,uint256,uint256,address,address,address,uint256),bytes)": "84314347",
    "processCash(address,address,address,uint256,uint256,(address,uint256,uint256,address,address,address,uint256),bytes)": "a0663d1b",
    "processFund(address,address,uint256,uint256,uint256,(address,uint256,uint256,address,address,address,uint256),bytes)": "d647e1e5",
    "processTokenURI(uint256)": "4fe17e1a",
    "processTransfer(address,bool,address,address,address,uint256,(address,uint256,uint256,address,address,address,uint256),bytes)": "f09b3d9a",
    "processWrite(address,address,uint256,(address,uint256,uint256,address,address,address,uint256),uint256,bytes)": "4238a63a",
    "transferRule()": "0d02cde7",
    "withdrawFees(address)": "164e68de",
    "writeRule()": "df1cdb46"
  },
  "id": 39
}