{
  "abi": [
    {
      "inputs": [
        {
          "internalType": "uint256",
          "name": "_tokenId",
          "type": "uint256"
        },
        {
          "internalType": "address",
          "name": "currency",
          "type": "address"
        },
        {
          "internalType": "uint256",
          "name": "amount",
          "type": "uint256"
        },
        {
          "internalType": "uint256",
          "name": "escrowed",
          "type": "uint256"
        },
        {
          "internalType": "address",
          "name": "drawer",
          "type": "address"
        },
        {
          "internalType": "address",
          "name": "recipient",
          "type": "address"
        },
        {
          "internalType": "address",
          "name": "module",
          "type": "address"
        }
      ],
      "name": "buildMetadata",
      "outputs": [
        {
          "internalType": "string",
          "name": "",
          "type": "string"
        }
      ],
      "stateMutability": "pure",
      "type": "function"
    }
  ],
  "bytecode": {
    "object": "0x6106a461003a600b82828239805160001a60731461002d57634e487b7160e01b600052600060045260246000fd5b30600052607381538281f3fe73000000000000000000000000000000000000000030146080604052600436106100355760003560e01c8063639a77b11461003a575b600080fd5b61004d610048366004610234565b610063565b60405161005a91906102c9565b60405180910390f35b6060610099888888888888886040516020016100859796959493929190610309565b6040516020818303038152906040526100c5565b6040516020016100a99190610563565b6040516020818303038152906040529050979650505050505050565b606081516000036100e457505060408051602081019091526000815290565b600060405180606001604052806040815260200161062f604091399050600060038451600261011391906105be565b61011d91906105d7565b6101289060046105f9565b67ffffffffffffffff81111561014057610140610618565b6040519080825280601f01601f19166020018201604052801561016a576020820181803683370190505b509050600182016020820185865187015b808210156101d6576003820191508151603f8160121c168501518453600184019350603f81600c1c168501518453600184019350603f8160061c168501518453600184019350603f811685015184535060018301925061017b565b50506003865106600181146101f257600281146102055761020d565b603d6001830353603d600283035361020d565b603d60018303535b509195945050505050565b80356001600160a01b038116811461022f57600080fd5b919050565b600080600080600080600060e0888a03121561024f57600080fd5b8735965061025f60208901610218565b9550604088013594506060880135935061027b60808901610218565b925061028960a08901610218565b915061029760c08901610218565b905092959891949750929550565b60005b838110156102c05781810151838201526020016102a8565b50506000910152565b60208152600082518060208401526102e88160408501602087016102a5565b601f01601f19169190910160400192915050565b607d60f81b815260010190565b673d913730b6b2911d60c11b815273436865712073657269616c206e756d626572202360601b6008820152601c81018890526f016101130ba3a3934b13aba32b9911d160851b603c820152605b60f81b604c8201527f7b2274726169745f74797065223a2022546f6b656e222c000000000000000000604d82015260006103a2606483015b67113b30b63ab2911d60c11b815260080190565b6103b8818a60601b6001600160601b0319169052565b6103f361038e6103ca601484016102fc565b7f7b2274726169745f74797065223a2022416d6f756e74222c0000000000000000815260180190565b905087815261043361038e61040a602084016102fc565b7f7b2274726169745f74797065223a2022457363726f776564222c0000000000008152601a0190565b905086815261047361038e61044a602084016102fc565b7f7b2274726169745f74797065223a2022447261776572222c0000000000000000815260180190565b905061048b818760601b6001600160601b0319169052565b6104c661038e61049d601484016102fc565b7f7b2274726169745f74797065223a2022526563697069656e74222c00000000008152601b0190565b90506104de818660601b6001600160601b0319169052565b61051961038e6104f0601484016102fc565b7f7b2274726169745f74797065223a20224d6f64756c65222c0000000000000000815260180190565b9050610531818560601b6001600160601b0319169052565b610555610550610543601484016102fc565b605d60f81b815260010190565b6102fc565b9a9950505050505050505050565b7f646174613a6170706c69636174696f6e2f6a736f6e3b6261736536342c00000081526000825161059b81601d8501602087016102a5565b91909101601d0192915050565b634e487b7160e01b600052601160045260246000fd5b808201808211156105d1576105d16105a8565b92915050565b6000826105f457634e487b7160e01b600052601260045260246000fd5b500490565b6000816000190483118215151615610613576106136105a8565b500290565b634e487b7160e01b600052604160045260246000fdfe4142434445464748494a4b4c4d4e4f505152535455565758595a6162636465666768696a6b6c6d6e6f707172737475767778797a303132333435363738392b2fa2646970667358221220157b6767ed1237e14b716339b46f3940c735c1ab4f0bcbeaf57b82795c30d5a464736f6c63430008100033",
    "linkReferences": {}
  },
  "methodIdentifiers": {
    "buildMetadata(uint256,address,uint256,uint256,address,address,address)": "639a77b1"
  },
  "id": 41
}