{
    "abi": [
        {
            "inputs": [
                {
                    "internalType": "address",
                    "name": "gateway_",
                    "type": "address"
                },
                {
                    "internalType": "address",
                    "name": "gasReceiver_",
                    "type": "address"
                }
            ],
            "stateMutability": "nonpayable",
            "type": "constructor"
        },
        {
            "inputs": [],
            "name": "InvalidAddress",
            "type": "error"
        },
        {
            "inputs": [],
            "name": "NotApprovedByGateway",
            "type": "error"
        },
        {
            "inputs": [],
            "name": "SendFailed",
            "type": "error"
        },
        {
            "anonymous": false,
            "inputs": [
                {
                    "indexed": false,
                    "internalType": "string",
                    "name": "memoHash",
                    "type": "string"
                },
                {
                    "indexed": false,
                    "internalType": "uint256",
                    "name": "amount",
                    "type": "uint256"
                },
                {
                    "indexed": false,
                    "internalType": "uint256",
                    "name": "timestamp",
                    "type": "uint256"
                },
                {
                    "indexed": false,
                    "internalType": "address",
                    "name": "creditor",
                    "type": "address"
                },
                {
                    "indexed": false,
                    "internalType": "address",
                    "name": "debtor",
                    "type": "address"
                },
                {
                    "indexed": false,
                    "internalType": "uint256",
                    "name": "chainId",
                    "type": "uint256"
                },
                {
                    "indexed": false,
                    "internalType": "string",
                    "name": "destinationChain",
                    "type": "string"
                }
            ],
            "name": "PaymentCreated",
            "type": "event"
        },
        {
            "inputs": [
                {
                    "internalType": "address",
                    "name": "token",
                    "type": "address"
                },
                {
                    "internalType": "uint256",
                    "name": "amount",
                    "type": "uint256"
                },
                {
                    "internalType": "address",
                    "name": "owner",
                    "type": "address"
                },
                {
                    "internalType": "string",
                    "name": "memoURI_",
                    "type": "string"
                },
                {
                    "internalType": "string",
                    "name": "imageURI_",
                    "type": "string"
                },
                {
                    "internalType": "string",
                    "name": "destinationChain",
                    "type": "string"
                },
                {
                    "internalType": "string",
                    "name": "destinationAddress",
                    "type": "string"
                }
            ],
            "name": "createRemoteNota",
            "outputs": [],
            "stateMutability": "payable",
            "type": "function"
        },
        {
            "inputs": [
                {
                    "internalType": "bytes32",
                    "name": "commandId",
                    "type": "bytes32"
                },
                {
                    "internalType": "string",
                    "name": "sourceChain",
                    "type": "string"
                },
                {
                    "internalType": "string",
                    "name": "sourceAddress",
                    "type": "string"
                },
                {
                    "internalType": "bytes",
                    "name": "payload",
                    "type": "bytes"
                }
            ],
            "name": "execute",
            "outputs": [],
            "stateMutability": "nonpayable",
            "type": "function"
        },
        {
            "inputs": [
                {
                    "internalType": "bytes32",
                    "name": "commandId",
                    "type": "bytes32"
                },
                {
                    "internalType": "string",
                    "name": "sourceChain",
                    "type": "string"
                },
                {
                    "internalType": "string",
                    "name": "sourceAddress",
                    "type": "string"
                },
                {
                    "internalType": "bytes",
                    "name": "payload",
                    "type": "bytes"
                },
                {
                    "internalType": "string",
                    "name": "tokenSymbol",
                    "type": "string"
                },
                {
                    "internalType": "uint256",
                    "name": "amount",
                    "type": "uint256"
                }
            ],
            "name": "executeWithToken",
            "outputs": [],
            "stateMutability": "nonpayable",
            "type": "function"
        },
        {
            "inputs": [],
            "name": "gasReceiver",
            "outputs": [
                {
                    "internalType": "contract IAxelarGasService",
                    "name": "",
                    "type": "address"
                }
            ],
            "stateMutability": "view",
            "type": "function"
        },
        {
            "inputs": [],
            "name": "gateway",
            "outputs": [
                {
                    "internalType": "contract IAxelarGateway",
                    "name": "",
                    "type": "address"
                }
            ],
            "stateMutability": "view",
            "type": "function"
        }
    ],
    "bytecode": {
        "object": "0x60c060405234801561001057600080fd5b50604051610ced380380610ced83398101604081905261002f9161008b565b816001600160a01b0381166100575760405163e6c4247b60e01b815260040160405180910390fd5b6001600160a01b039081166080521660a052506100be565b80516001600160a01b038116811461008657600080fd5b919050565b6000806040838503121561009e57600080fd5b6100a78361006f565b91506100b56020840161006f565b90509250929050565b60805160a051610bef6100fe6000396000818161010601526103d00152600081816061015281816101590152818161047201526105670152610bef6000f3fe60806040526004361061004a5760003560e01c8063116191b61461004f5780631a98b2e01461009f5780632108c44d146100c157806349160658146100d457806380d14b4a146100f4575b600080fd5b34801561005b57600080fd5b506100837f000000000000000000000000000000000000000000000000000000000000000081565b6040516001600160a01b03909116815260200160405180910390f35b3480156100ab57600080fd5b506100bf6100ba366004610659565b610128565b005b6100bf6100cf36600461074f565b61020b565b3480156100e057600080fd5b506100bf6100ef366004610845565b610536565b34801561010057600080fd5b506100837f000000000000000000000000000000000000000000000000000000000000000081565b6000858560405161013a9291906108e9565b604051908190038120631876eed960e01b825291506001600160a01b037f00000000000000000000000000000000000000000000000000000000000000001690631876eed99061019e908e908e908e908e908e9089908d908d908d90600401610922565b6020604051808303816000875af11580156101bd573d6000803e3d6000fd5b505050506040513d601f19601f820116820180604052508101906101e19190610981565b6101fe57604051631403112d60e21b815260040160405180910390fd5b5050505050505050505050565b6001600160a01b038b166102da57893410156102605760405162461bcd60e51b815260206004820152600f60248201526e496e636f72726563742076616c756560881b60448201526064015b60405180910390fd5b6000896001600160a01b03168b60405160006040518083038185875af1925050503d80600081146102ad576040519150601f19603f3d011682016040523d82523d6000602084013e6102b2565b606091505b50509050806102d4576040516381063e5160e01b815260040160405180910390fd5b5061038b565b60405163a9059cbb60e01b81526001600160a01b038a81166004830152602482018c90528c169063a9059cbb906044016020604051808303816000875af1158015610329573d6000803e3d6000fd5b505050506040513d601f19601f8201168201806040525081019061034d9190610981565b61038b5760405162461bcd60e51b815260206004820152600f60248201526e151c985b9cd9995c8819985a5b1959608a1b6044820152606401610257565b6000468b8d8c338b8b8f8f6040516020016103ae999897969594939291906109aa565b60408051601f198184030181529190529050341561045b576001600160a01b037f000000000000000000000000000000000000000000000000000000000000000016630c93e3bb6103ff8d34610a0f565b308888888888336040518963ffffffff1660e01b81526004016104289796959493929190610a7c565b6000604051808303818588803b15801561044157600080fd5b505af1158015610455573d6000803e3d6000fd5b50505050505b604051631c92115f60e01b81526001600160a01b037f00000000000000000000000000000000000000000000000000000000000000001690631c92115f906104af9088908890889088908890600401610ade565b600060405180830381600087803b1580156104c957600080fd5b505af11580156104dd573d6000803e3d6000fd5b505050507fa0273ad0f997c2496dbb5620ccbdb29609b276a14afeecc24d8fe2cdad2a0f4b89898d428e33468c8c60405161052099989796959493929190610b25565b60405180910390a1505050505050505050505050565b600082826040516105489291906108e9565b604051908190038120635f6970c360e01b825291506001600160a01b037f00000000000000000000000000000000000000000000000000000000000000001690635f6970c3906105a6908b908b908b908b908b908990600401610b78565b6020604051808303816000875af11580156105c5573d6000803e3d6000fd5b505050506040513d601f19601f820116820180604052508101906105e99190610981565b61060657604051631403112d60e21b815260040160405180910390fd5b5050505050505050565b60008083601f84011261062257600080fd5b50813567ffffffffffffffff81111561063a57600080fd5b60208301915083602082850101111561065257600080fd5b9250929050565b60008060008060008060008060008060c08b8d03121561067857600080fd5b8a35995060208b013567ffffffffffffffff8082111561069757600080fd5b6106a38e838f01610610565b909b50995060408d01359150808211156106bc57600080fd5b6106c88e838f01610610565b909950975060608d01359150808211156106e157600080fd5b6106ed8e838f01610610565b909750955060808d013591508082111561070657600080fd5b506107138d828e01610610565b9150809450508092505060a08b013590509295989b9194979a5092959850565b80356001600160a01b038116811461074a57600080fd5b919050565b600080600080600080600080600080600060e08c8e03121561077057600080fd5b6107798c610733565b9a5060208c0135995061078e60408d01610733565b985067ffffffffffffffff8060608e013511156107aa57600080fd5b6107ba8e60608f01358f01610610565b909950975060808d01358110156107d057600080fd5b6107e08e60808f01358f01610610565b909750955060a08d01358110156107f657600080fd5b6108068e60a08f01358f01610610565b909550935060c08d013581101561081c57600080fd5b5061082d8d60c08e01358e01610610565b81935080925050509295989b509295989b9093969950565b60008060008060008060006080888a03121561086057600080fd5b87359650602088013567ffffffffffffffff8082111561087f57600080fd5b61088b8b838c01610610565b909850965060408a01359150808211156108a457600080fd5b6108b08b838c01610610565b909650945060608a01359150808211156108c957600080fd5b506108d68a828b01610610565b989b979a50959850939692959293505050565b8183823760009101908152919050565b81835281816020850137506000828201602090810191909152601f909101601f19169091010190565b89815260c06020820152600061093c60c083018a8c6108f9565b828103604084015261094f81898b6108f9565b9050866060840152828103608084015261096a8186886108f9565b9150508260a08301529a9950505050505050505050565b60006020828403121561099357600080fd5b815180151581146109a357600080fd5b9392505050565b898152602081018990526001600160a01b03888116604083015287811660608301528616608082015260e060a082018190526000906109ec90830186886108f9565b82810360c08401526109ff8185876108f9565b9c9b505050505050505050505050565b81810381811115610a3057634e487b7160e01b600052601160045260246000fd5b92915050565b6000815180845260005b81811015610a5c57602081850181015186830182015201610a40565b506000602082860101526020601f19601f83011685010191505092915050565b600060018060a01b03808a16835260a06020840152610a9f60a08401898b6108f9565b8381036040850152610ab281888a6108f9565b90508381036060850152610ac68187610a36565b92505080841660808401525098975050505050505050565b606081526000610af26060830187896108f9565b8281036020840152610b058186886108f9565b90508281036040840152610b198185610a36565b98975050505050505050565b60e081526000610b3960e083018b8d6108f9565b602083018a9052604083018990526001600160a01b0388811660608501528716608084015260a0830186905282810360c08401526109ff8185876108f9565b868152608060208201526000610b926080830187896108f9565b8281036040840152610ba58186886108f9565b91505082606083015297965050505050505056fea2646970667358221220d0afeb8406a9cee893f2b1fb459848739ea971a9d8362c6490249a8d38ab51b264736f6c63430008100033",
        "linkReferences": {}
    },
    "methodIdentifiers": {
        "createRemoteNota(address,uint256,address,string,string,string,string)": "2108c44d",
        "execute(bytes32,string,string,bytes)": "49160658",
        "executeWithToken(bytes32,string,string,bytes,string,uint256)": "1a98b2e0",
        "gasReceiver()": "80d14b4a",
        "gateway()": "116191b6"
    },
    "id": 22
}