{
  "abi": [
    {
      "inputs": [
        {
          "internalType": "address",
          "name": "registrar",
          "type": "address"
        },
        {
          "components": [
            {
              "internalType": "uint256",
              "name": "writeBPS",
              "type": "uint256"
            },
            {
              "internalType": "uint256",
              "name": "transferBPS",
              "type": "uint256"
            },
            {
              "internalType": "uint256",
              "name": "fundBPS",
              "type": "uint256"
            },
            {
              "internalType": "uint256",
              "name": "cashBPS",
              "type": "uint256"
            }
          ],
          "internalType": "struct DataTypes.WTFCFees",
          "name": "_fees",
          "type": "tuple"
        },
        {
          "internalType": "string",
          "name": "__baseURI",
          "type": "string"
        }
      ],
      "stateMutability": "nonpayable",
      "type": "constructor"
    },
    {
      "inputs": [],
      "name": "AddressZero",
      "type": "error"
    },
    {
      "inputs": [],
      "name": "AmountZero",
      "type": "error"
    },
    {
      "inputs": [],
      "name": "Disallowed",
      "type": "error"
    },
    {
      "inputs": [],
      "name": "FeeTooHigh",
      "type": "error"
    },
    {
      "inputs": [],
      "name": "InitParamsInvalid",
      "type": "error"
    },
    {
      "inputs": [],
      "name": "InsufficientPayment",
      "type": "error"
    },
    {
      "inputs": [],
      "name": "InvoiceWithPay",
      "type": "error"
    },
    {
      "inputs": [],
      "name": "NotRegistrar",
      "type": "error"
    },
    {
      "inputs": [],
      "name": "OnlyInspector",
      "type": "error"
    },
    {
      "inputs": [],
      "name": "OnlyOwner",
      "type": "error"
    },
    {
      "inputs": [],
      "name": "OnlyOwnerOrApproved",
      "type": "error"
    },
    {
      "inputs": [],
      "name": "OnlyToDebtorOrOwner",
      "type": "error"
    },
    {
      "anonymous": false,
      "inputs": [
        {
          "indexed": false,
          "internalType": "uint256",
          "name": "notaId",
          "type": "uint256"
        },
        {
          "indexed": false,
          "internalType": "string",
          "name": "memoHash",
          "type": "string"
        },
        {
          "indexed": false,
          "internalType": "uint256",
          "name": "amount",
          "type": "uint256"
        },
        {
          "indexed": false,
          "internalType": "uint256",
          "name": "timestamp",
          "type": "uint256"
        },
        {
          "indexed": false,
          "internalType": "address",
          "name": "referer",
          "type": "address"
        },
        {
          "indexed": false,
          "internalType": "address",
          "name": "creditor",
          "type": "address"
        },
        {
          "indexed": false,
          "internalType": "address",
          "name": "debtor",
          "type": "address"
        },
        {
          "indexed": false,
          "internalType": "address",
          "name": "inspector",
          "type": "address"
        }
      ],
      "name": "PaymentCreated",
      "type": "event"
    },
    {
      "inputs": [],
      "name": "REGISTRAR",
      "outputs": [
        {
          "internalType": "address",
          "name": "",
          "type": "address"
        }
      ],
      "stateMutability": "view",
      "type": "function"
    },
    {
      "inputs": [],
      "name": "_URI",
      "outputs": [
        {
          "internalType": "string",
          "name": "",
          "type": "string"
        }
      ],
      "stateMutability": "view",
      "type": "function"
    },
    {
      "inputs": [
        {
          "internalType": "address",
          "name": "",
          "type": "address"
        }
      ],
      "name": "dappOperatorFees",
      "outputs": [
        {
          "internalType": "uint256",
          "name": "writeBPS",
          "type": "uint256"
        },
        {
          "internalType": "uint256",
          "name": "transferBPS",
          "type": "uint256"
        },
        {
          "internalType": "uint256",
          "name": "fundBPS",
          "type": "uint256"
        },
        {
          "internalType": "uint256",
          "name": "cashBPS",
          "type": "uint256"
        }
      ],
      "stateMutability": "view",
      "type": "function"
    },
    {
      "inputs": [
        {
          "internalType": "address",
          "name": "dappOperator",
          "type": "address"
        }
      ],
      "name": "getFees",
      "outputs": [
        {
          "components": [
            {
              "internalType": "uint256",
              "name": "writeBPS",
              "type": "uint256"
            },
            {
              "internalType": "uint256",
              "name": "transferBPS",
              "type": "uint256"
            },
            {
              "internalType": "uint256",
              "name": "fundBPS",
              "type": "uint256"
            },
            {
              "internalType": "uint256",
              "name": "cashBPS",
              "type": "uint256"
            }
          ],
          "internalType": "struct DataTypes.WTFCFees",
          "name": "",
          "type": "tuple"
        }
      ],
      "stateMutability": "view",
      "type": "function"
    },
    {
      "inputs": [
        {
          "internalType": "uint256",
          "name": "",
          "type": "uint256"
        }
      ],
      "name": "payInfo",
      "outputs": [
        {
          "internalType": "address",
          "name": "inspector",
          "type": "address"
        },
        {
          "internalType": "address",
          "name": "creditor",
          "type": "address"
        },
        {
          "internalType": "address",
          "name": "debtor",
          "type": "address"
        },
        {
          "internalType": "uint256",
          "name": "amount",
          "type": "uint256"
        },
        {
          "internalType": "string",
          "name": "memoHash",
          "type": "string"
        },
        {
          "internalType": "string",
          "name": "imageURI",
          "type": "string"
        }
      ],
      "stateMutability": "view",
      "type": "function"
    },
    {
      "inputs": [
        {
          "internalType": "address",
          "name": "caller",
          "type": "address"
        },
        {
          "internalType": "address",
          "name": "owner",
          "type": "address"
        },
        {
          "internalType": "address",
          "name": "",
          "type": "address"
        },
        {
          "internalType": "uint256",
          "name": "",
          "type": "uint256"
        },
        {
          "components": [
            {
              "internalType": "address",
              "name": "currency",
              "type": "address"
            },
            {
              "internalType": "uint256",
              "name": "escrowed",
              "type": "uint256"
            },
            {
              "internalType": "uint256",
              "name": "createdAt",
              "type": "uint256"
            },
            {
              "internalType": "address",
              "name": "module",
              "type": "address"
            }
          ],
          "internalType": "struct DataTypes.Nota",
          "name": "",
          "type": "tuple"
        },
        {
          "internalType": "bytes",
          "name": "",
          "type": "bytes"
        }
      ],
      "name": "processApproval",
      "outputs": [],
      "stateMutability": "view",
      "type": "function"
    },
    {
      "inputs": [
        {
          "internalType": "address",
          "name": "caller",
          "type": "address"
        },
        {
          "internalType": "address",
          "name": "owner",
          "type": "address"
        },
        {
          "internalType": "address",
          "name": "to",
          "type": "address"
        },
        {
          "internalType": "uint256",
          "name": "amount",
          "type": "uint256"
        },
        {
          "internalType": "uint256",
          "name": "notaId",
          "type": "uint256"
        },
        {
          "components": [
            {
              "internalType": "address",
              "name": "currency",
              "type": "address"
            },
            {
              "internalType": "uint256",
              "name": "escrowed",
              "type": "uint256"
            },
            {
              "internalType": "uint256",
              "name": "createdAt",
              "type": "uint256"
            },
            {
              "internalType": "address",
              "name": "module",
              "type": "address"
            }
          ],
          "internalType": "struct DataTypes.Nota",
          "name": "nota",
          "type": "tuple"
        },
        {
          "internalType": "bytes",
          "name": "initData",
          "type": "bytes"
        }
      ],
      "name": "processCash",
      "outputs": [
        {
          "internalType": "uint256",
          "name": "",
          "type": "uint256"
        }
      ],
      "stateMutability": "nonpayable",
      "type": "function"
    },
    {
      "inputs": [
        {
          "internalType": "address",
          "name": "",
          "type": "address"
        },
        {
          "internalType": "address",
          "name": "owner",
          "type": "address"
        },
        {
          "internalType": "uint256",
          "name": "amount",
          "type": "uint256"
        },
        {
          "internalType": "uint256",
          "name": "instant",
          "type": "uint256"
        },
        {
          "internalType": "uint256",
          "name": "notaId",
          "type": "uint256"
        },
        {
          "components": [
            {
              "internalType": "address",
              "name": "currency",
              "type": "address"
            },
            {
              "internalType": "uint256",
              "name": "escrowed",
              "type": "uint256"
            },
            {
              "internalType": "uint256",
              "name": "createdAt",
              "type": "uint256"
            },
            {
              "internalType": "address",
              "name": "module",
              "type": "address"
            }
          ],
          "internalType": "struct DataTypes.Nota",
          "name": "nota",
          "type": "tuple"
        },
        {
          "internalType": "bytes",
          "name": "initData",
          "type": "bytes"
        }
      ],
      "name": "processFund",
      "outputs": [
        {
          "internalType": "uint256",
          "name": "",
          "type": "uint256"
        }
      ],
      "stateMutability": "nonpayable",
      "type": "function"
    },
    {
      "inputs": [
        {
          "internalType": "uint256",
          "name": "tokenId",
          "type": "uint256"
        }
      ],
      "name": "processTokenURI",
      "outputs": [
        {
          "internalType": "string",
          "name": "",
          "type": "string"
        }
      ],
      "stateMutability": "view",
      "type": "function"
    },
    {
      "inputs": [
        {
          "internalType": "address",
          "name": "caller",
          "type": "address"
        },
        {
          "internalType": "address",
          "name": "approved",
          "type": "address"
        },
        {
          "internalType": "address",
          "name": "owner",
          "type": "address"
        },
        {
          "internalType": "address",
          "name": "",
          "type": "address"
        },
        {
          "internalType": "address",
          "name": "",
          "type": "address"
        },
        {
          "internalType": "uint256",
          "name": "",
          "type": "uint256"
        },
        {
          "internalType": "address",
          "name": "currency",
          "type": "address"
        },
        {
          "internalType": "uint256",
          "name": "escrowed",
          "type": "uint256"
        },
        {
          "internalType": "uint256",
          "name": "",
          "type": "uint256"
        },
        {
          "internalType": "bytes",
          "name": "data",
          "type": "bytes"
        }
      ],
      "name": "processTransfer",
      "outputs": [
        {
          "internalType": "uint256",
          "name": "",
          "type": "uint256"
        }
      ],
      "stateMutability": "nonpayable",
      "type": "function"
    },
    {
      "inputs": [
        {
          "internalType": "address",
          "name": "caller",
          "type": "address"
        },
        {
          "internalType": "address",
          "name": "owner",
          "type": "address"
        },
        {
          "internalType": "uint256",
          "name": "notaId",
          "type": "uint256"
        },
        {
          "internalType": "address",
          "name": "currency",
          "type": "address"
        },
        {
          "internalType": "uint256",
          "name": "escrowed",
          "type": "uint256"
        },
        {
          "internalType": "uint256",
          "name": "instant",
          "type": "uint256"
        },
        {
          "internalType": "bytes",
          "name": "initData",
          "type": "bytes"
        }
      ],
      "name": "processWrite",
      "outputs": [
        {
          "internalType": "uint256",
          "name": "",
          "type": "uint256"
        }
      ],
      "stateMutability": "nonpayable",
      "type": "function"
    },
    {
      "inputs": [
        {
          "internalType": "address",
          "name": "",
          "type": "address"
        },
        {
          "internalType": "address",
          "name": "",
          "type": "address"
        }
      ],
      "name": "revenue",
      "outputs": [
        {
          "internalType": "uint256",
          "name": "",
          "type": "uint256"
        }
      ],
      "stateMutability": "view",
      "type": "function"
    },
    {
      "inputs": [
        {
          "components": [
            {
              "internalType": "uint256",
              "name": "writeBPS",
              "type": "uint256"
            },
            {
              "internalType": "uint256",
              "name": "transferBPS",
              "type": "uint256"
            },
            {
              "internalType": "uint256",
              "name": "fundBPS",
              "type": "uint256"
            },
            {
              "internalType": "uint256",
              "name": "cashBPS",
              "type": "uint256"
            }
          ],
          "internalType": "struct DataTypes.WTFCFees",
          "name": "_fees",
          "type": "tuple"
        }
      ],
      "name": "setFees",
      "outputs": [],
      "stateMutability": "nonpayable",
      "type": "function"
    },
    {
      "inputs": [
        {
          "internalType": "address",
          "name": "token",
          "type": "address"
        }
      ],
      "name": "withdrawFees",
      "outputs": [],
      "stateMutability": "nonpayable",
      "type": "function"
    }
  ],
  "bytecode": {
    "object": "0x60a06040523480156200001157600080fd5b5060405162001da438038062001da483398101604081905262000034916200029e565b82826001600160a01b0382166200005e576040516348be0eb360e01b815260040160405180910390fd5b6001600160a01b03821660805280516127101015620000905760405163cd4e616760e01b815260040160405180910390fd5b80602001516127101015620000b85760405163cd4e616760e01b815260040160405180910390fd5b80604001516127101015620000e05760405163cd4e616760e01b815260040160405180910390fd5b80606001516127101015620001085760405163cd4e616760e01b815260040160405180910390fd5b336000908152600160208181526040928390208451815590840151918101919091558183015160028201556060830151600390910155516001600160a01b038316907ff1a1fa6b64aa95186f5a1285e76198d0da80d9c5a88062641d447f1d7c54e56c906200017a9042815260200190565b60405180910390a25060029050620001938282620003d6565b50505050620004a2565b634e487b7160e01b600052604160045260246000fd5b604051608081016001600160401b0381118282101715620001d857620001d86200019d565b60405290565b604051601f8201601f191681016001600160401b03811182821017156200020957620002096200019d565b604052919050565b600082601f8301126200022357600080fd5b81516001600160401b038111156200023f576200023f6200019d565b602062000255601f8301601f19168201620001de565b82815285828487010111156200026a57600080fd5b60005b838110156200028a5785810183015182820184015282016200026d565b506000928101909101919091529392505050565b600080600083850360c0811215620002b557600080fd5b84516001600160a01b0381168114620002cd57600080fd5b93506080601f1982011215620002e257600080fd5b50620002ed620001b3565b602085015181526040850151602082015260608501516040820152608085015160608201528092505060a084015160018060401b038111156200032f57600080fd5b6200033d8682870162000211565b9150509250925092565b600181811c908216806200035c57607f821691505b6020821081036200037d57634e487b7160e01b600052602260045260246000fd5b50919050565b601f821115620003d157600081815260208120601f850160051c81016020861015620003ac5750805b601f850160051c820191505b81811015620003cd57828155600101620003b8565b5050505b505050565b81516001600160401b03811115620003f257620003f26200019d565b6200040a8162000403845462000347565b8462000383565b602080601f831160018114620004425760008415620004295750858301515b600019600386901b1c1916600185901b178555620003cd565b600085815260208120601f198616915b82811015620004735788860151825594840194600190910190840162000452565b5085821015620004925787850151600019600388901b60f8161c191681555b5050505050600190811b01905550565b6080516118bc620004e8600039600081816102790152818161031a015281816104b80152818161083201528181610afe01528181610bcf0152610c9901526118bc6000f3fe608060405234801561001057600080fd5b50600436106100ea5760003560e01c8063b4e87e8f1161008c578063c0c9572c11610066578063c0c9572c14610261578063cb60907714610274578063e4175968146102b3578063fd77c960146102c657600080fd5b8063b4e87e8f14610233578063b5d701ba1461023b578063be2f3fdd1461024e57600080fd5b80634fe17e1a116100c85780634fe17e1a1461018057806370530dac146101a05780639a0ea37a146101c55780639af608c9146101ed57600080fd5b806306890cd0146100ef5780631385a7b614610115578063164e68de1461016b575b600080fd5b6101026100fd366004610f42565b61030d565b6040519081526020015b60405180910390f35b61014b610123366004610fe4565b6001602081905260009182526040909120805491810154600282015460039092015490919084565b60408051948552602085019390935291830152606082015260800161010c565b61017e610179366004610fe4565b610420565b005b61019361018e366004611008565b610555565b60405161010c9190611071565b6101b36101ae366004611008565b6105c7565b60405161010c96959493929190611084565b6101026101d33660046110d1565b600060208181529281526040808220909352908152205481565b6102006101fb366004610fe4565b61071f565b60405161010c91908151815260208083015190820152604080830151908201526060918201519181019190915260800190565b610193610797565b61010261024936600461110a565b610825565b61010261025c366004611182565b610af1565b61010261026f366004611281565b610bc2565b61029b7f000000000000000000000000000000000000000000000000000000000000000081565b6040516001600160a01b03909116815260200161010c565b61017e6102c136600461134b565b610c8e565b61017e6102d43660046113dc565b33600090815260016020818152604092839020845181559084015191810191909155908201516002820155606090910151600390910155565b6000336001600160a01b037f0000000000000000000000000000000000000000000000000000000000000000161461035857604051632ad9535160e01b815260040160405180910390fd5b6000858152600360205260409020546001600160a01b038a811691161461039257604051639864fbb360e01b815260040160405180910390fd5b6000858152600360205260409020600201546001600160a01b038881169116148015906103d15750876001600160a01b0316876001600160a01b031614155b156103ef57604051630cf1166760e41b815260040160405180910390fd5b6104136103ff6020860186610fe4565b8761040c85870187610fe4565b6003610d09565b9998505050505050505050565b336000908152602081815260408083206001600160a01b03851684529091529020546001811161048e5760405162461bcd60e51b8152602060048201526014602482015273496e73756666696369656e7420726576656e756560601b60448201526064015b60405180910390fd5b336000908152602081815260408083206001600160a01b03868116855292529091206001908190557f00000000000000000000000000000000000000000000000000000000000000009091169063d6a4f84c9084906104ed9085611458565b6040516001600160e01b031960e085901b1681526001600160a01b0390921660048301526024820152336044820152606401600060405180830381600087803b15801561053957600080fd5b505af115801561054d573d6000803e3d6000fd5b505050505050565b6060600260036000848152602001908152602001600020600401604051602001610580929190611518565b60408051601f198184030181528282526000858152600360209081529290206105b193919260059091019101611535565b6040516020818303038152906040529050919050565b6003602081905260009182526040909120805460018201546002830154938301546004840180546001600160a01b0394851696938516959490931693919261060e90611471565b80601f016020809104026020016040519081016040528092919081815260200182805461063a90611471565b80156106875780601f1061065c57610100808354040283529160200191610687565b820191906000526020600020905b81548152906001019060200180831161066a57829003601f168201915b50505050509080600501805461069c90611471565b80601f01602080910402602001604051908101604052809291908181526020018280546106c890611471565b80156107155780601f106106ea57610100808354040283529160200191610715565b820191906000526020600020905b8154815290600101906020018083116106f857829003601f168201915b5050505050905086565b61074a6040518060800160405280600081526020016000815260200160008152602001600081525090565b506001600160a01b03166000908152600160208181526040928390208351608081018552815481529281015491830191909152600281015492820192909252600390910154606082015290565b600280546107a490611471565b80601f01602080910402602001604051908101604052809291908181526020018280546107d090611471565b801561081d5780601f106107f25761010080835404028352916020019161081d565b820191906000526020600020905b81548152906001019060200180831161080057829003601f168201915b505050505081565b6000336001600160a01b037f0000000000000000000000000000000000000000000000000000000000000000161461087057604051632ad9535160e01b815260040160405180910390fd5b60008080808080610883888a018a611590565b9550955095509550955095508d6001600160a01b03168f6001600160a01b03160361097e5789156108c7576040516371c2848560e01b815260040160405180910390fd5b826000036108e8576040516365e52d5160e11b815260040160405180910390fd5b8e600360008f815260200190815260200160002060010160006101000a8154816001600160a01b0302191690836001600160a01b0316021790555085600360008f815260200190815260200160002060020160006101000a8154816001600160a01b0302191690836001600160a01b0316021790555082600360008f815260200190815260200160002060030181905550610a6d565b856001600160a01b03168e6001600160a01b031603610a54576001600160a01b038e166109be57604051639fabe1c160e01b815260040160405180910390fd5b85600360008f815260200190815260200160002060010160006101000a8154816001600160a01b0302191690836001600160a01b031602179055508e600360008f815260200190815260200160002060020160006101000a8154816001600160a01b0302191690836001600160a01b0316021790555089600360008f815260200190815260200160002060030181905550610a6d565b604051635a89288760e01b815260040160405180910390fd5b60008d815260036020526040902080546001600160a01b0319166001600160a01b038716178155600401610aa18382611672565b5060008d8152600360205260409020600501610abd8282611672565b50610ac88d85610e3e565b610ade8c610ad68c8e611732565b866000610d09565b9f9e505050505050505050505050505050565b6000336001600160a01b037f00000000000000000000000000000000000000000000000000000000000000001614610b3c57604051632ad9535160e01b815260040160405180910390fd5b6001600160a01b038816610b6357604051639fabe1c160e01b815260040160405180910390fd5b600085815260036020819052604090912001548714610b955760405163cd1c886760e01b815260040160405180910390fd5b610413610ba56020860186610fe4565b610baf888a611732565b610bbb85870187610fe4565b6002610d09565b6000336001600160a01b037f00000000000000000000000000000000000000000000000000000000000000001614610c0d57604051632ad9535160e01b815260040160405180910390fd5b886001600160a01b03168b6001600160a01b031614158015610c415750896001600160a01b03168b6001600160a01b031614155b15610c5f57604051632bce376360e21b815260040160405180910390fd5b610c7f858584806020019051810190610c789190611745565b6001610d09565b9b9a5050505050505050505050565b336001600160a01b037f00000000000000000000000000000000000000000000000000000000000000001614610cd757604051632ad9535160e01b815260040160405180910390fd5b846001600160a01b0316866001600160a01b03161461054d57604051635fc483c560e01b815260040160405180910390fd5b60008160ff16600003610d3557506001600160a01b038216600090815260016020526040902054610ddf565b8160ff16600103610d6357506001600160a01b03821660009081526001602081905260409091200154610ddf565b8160ff16600203610d9057506001600160a01b038216600090815260016020526040902060020154610ddf565b8160ff16600303610dbd57506001600160a01b038216600090815260016020526040902060030154610ddf565b60405162461bcd60e51b81526020600482015260006024820152604401610485565b612710610dec8286611762565b610df69190611781565b6001600160a01b03808516600090815260208181526040808320938a16835292905290812080549293508392909190610e30908490611732565b909155509095945050505050565b6000828152600360208190526040918290209081015460018201546002830154835494517fe223134b37fb346feb6335d8db1c0f572a9c157c3419e63f2d9cee1ef24ed0b395610ead958995600490910194909342938a936001600160a01b03938416939283169216906117a3565b60405180910390a15050565b6001600160a01b0381168114610ece57600080fd5b50565b8035610edc81610eb9565b919050565b600060808284031215610ef357600080fd5b50919050565b60008083601f840112610f0b57600080fd5b50813567ffffffffffffffff811115610f2357600080fd5b602083019150836020828501011115610f3b57600080fd5b9250929050565b600080600080600080600080610140898b031215610f5f57600080fd5b8835610f6a81610eb9565b97506020890135610f7a81610eb9565b96506040890135610f8a81610eb9565b95506060890135945060808901359350610fa78a60a08b01610ee1565b925061012089013567ffffffffffffffff811115610fc457600080fd5b610fd08b828c01610ef9565b999c989b5096995094979396929594505050565b600060208284031215610ff657600080fd5b813561100181610eb9565b9392505050565b60006020828403121561101a57600080fd5b5035919050565b60005b8381101561103c578181015183820152602001611024565b50506000910152565b6000815180845261105d816020860160208601611021565b601f01601f19169290920160200192915050565b6020815260006110016020830184611045565b6001600160a01b0387811682528681166020830152851660408201526060810184905260c0608082018190526000906110bf90830185611045565b82810360a08401526104138185611045565b600080604083850312156110e457600080fd5b82356110ef81610eb9565b915060208301356110ff81610eb9565b809150509250929050565b60008060008060008060008060e0898b03121561112657600080fd5b883561113181610eb9565b9750602089013561114181610eb9565b965060408901359550606089013561115881610eb9565b94506080890135935060a0890135925060c089013567ffffffffffffffff811115610fc457600080fd5b600080600080600080600080610140898b03121561119f57600080fd5b88356111aa81610eb9565b975060208901356111ba81610eb9565b9650604089013595506060890135945060808901359350610fa78a60a08b01610ee1565b634e487b7160e01b600052604160045260246000fd5b600082601f83011261120557600080fd5b813567ffffffffffffffff80821115611220576112206111de565b604051601f8301601f19908116603f01168101908282118183101715611248576112486111de565b8160405283815286602085880101111561126157600080fd5b836020870160208301376000602085830101528094505050505092915050565b6000806000806000806000806000806101408b8d0312156112a157600080fd5b8a356112ac81610eb9565b995060208b01356112bc81610eb9565b985060408b01356112cc81610eb9565b975060608b01356112dc81610eb9565b965060808b01356112ec81610eb9565b955060a08b0135945061130160c08c01610ed1565b935060e08b013592506101008b013591506101208b013567ffffffffffffffff81111561132d57600080fd5b6113398d828e016111f4565b9150509295989b9194979a5092959850565b600080600080600080610120878903121561136557600080fd5b863561137081610eb9565b9550602087013561138081610eb9565b9450604087013561139081610eb9565b9350606087013592506113a68860808901610ee1565b915061010087013567ffffffffffffffff8111156113c357600080fd5b6113cf89828a016111f4565b9150509295509295509295565b6000608082840312156113ee57600080fd5b6040516080810181811067ffffffffffffffff82111715611411576114116111de565b8060405250823581526020830135602082015260408301356040820152606083013560608201528091505092915050565b634e487b7160e01b600052601160045260246000fd5b8181038181111561146b5761146b611442565b92915050565b600181811c9082168061148557607f821691505b602082108103610ef357634e487b7160e01b600052602260045260246000fd5b600081546114b281611471565b600182811680156114ca57600181146114df5761150e565b60ff198416875282151583028701945061150e565b8560005260208060002060005b858110156115055781548a8201529084019082016114ec565b50505082870194505b5050505092915050565b600061152d61152783866114a5565b846114a5565b949350505050565b70161132bc3a32b93730b62fbab936111d1160791b81528251600090611562816011850160208801611021565b6a11161134b6b0b3b2911d1160a91b601191840191820152611587601c8201856114a5565b95945050505050565b60008060008060008060c087890312156115a957600080fd5b86356115b481610eb9565b955060208701356115c481610eb9565b945060408701356115d481610eb9565b935060608701359250608087013567ffffffffffffffff808211156115f857600080fd5b6116048a838b016111f4565b935060a089013591508082111561161a57600080fd5b506113cf89828a016111f4565b601f82111561166d57600081815260208120601f850160051c8101602086101561164e5750805b601f850160051c820191505b8181101561054d5782815560010161165a565b505050565b815167ffffffffffffffff81111561168c5761168c6111de565b6116a08161169a8454611471565b84611627565b602080601f8311600181146116d557600084156116bd5750858301515b600019600386901b1c1916600185901b17855561054d565b600085815260208120601f198616915b82811015611704578886015182559484019460019091019084016116e5565b50858210156117225787850151600019600388901b60f8161c191681555b5050505050600190811b01905550565b8082018082111561146b5761146b611442565b60006020828403121561175757600080fd5b815161100181610eb9565b600081600019048311821515161561177c5761177c611442565b500290565b60008261179e57634e487b7160e01b600052601260045260246000fd5b500490565b60006101008a83526020818185015260008b546117bf81611471565b93860184905261012093600182811680156117e157600181146117fb57611829565b60ff1984168988015282151560051b890187019450611829565b8f6000528560002060005b848110156118215781548b82018a0152908301908701611806565b8a0188019550505b5050505080935050505087604083015286606083015261185460808301876001600160a01b03169052565b6001600160a01b03851660a08301526001600160a01b03841660c08301526001600160a01b03831660e083015261041356fea2646970667358221220149ef1fd7ff1a869c26d099a1d38a54f7852cc4a2276d131a17dbed7fbdd21ba64736f6c63430008100033",
    "linkReferences": {}
  },
  "methodIdentifiers": {
    "REGISTRAR()": "cb609077",
    "_URI()": "b4e87e8f",
    "dappOperatorFees(address)": "1385a7b6",
    "getFees(address)": "9af608c9",
    "payInfo(uint256)": "70530dac",
    "processApproval(address,address,address,uint256,(address,uint256,uint256,address),bytes)": "e4175968",
    "processCash(address,address,address,uint256,uint256,(address,uint256,uint256,address),bytes)": "06890cd0",
    "processFund(address,address,uint256,uint256,uint256,(address,uint256,uint256,address),bytes)": "be2f3fdd",
    "processTokenURI(uint256)": "4fe17e1a",
    "processTransfer(address,address,address,address,address,uint256,address,uint256,uint256,bytes)": "c0c9572c",
    "processWrite(address,address,uint256,address,uint256,uint256,bytes)": "b5d701ba",
    "revenue(address,address)": "9a0ea37a",
    "setFees((uint256,uint256,uint256,uint256))": "fd77c960",
    "withdrawFees(address)": "164e68de"
  },
  "id": 43
}