{
  "abi": [
    {
      "inputs": [
        {
          "internalType": "address",
          "name": "registrar",
          "type": "address"
        },
        {
          "internalType": "address",
          "name": "_writeRule",
          "type": "address"
        },
        {
          "internalType": "address",
          "name": "_transferRule",
          "type": "address"
        },
        {
          "internalType": "address",
          "name": "_fundRule",
          "type": "address"
        },
        {
          "internalType": "address",
          "name": "_cashRule",
          "type": "address"
        },
        {
          "internalType": "address",
          "name": "_approveRule",
          "type": "address"
        },
        {
          "components": [
            {
              "internalType": "uint256",
              "name": "writeBPS",
              "type": "uint256"
            },
            {
              "internalType": "uint256",
              "name": "transferBPS",
              "type": "uint256"
            },
            {
              "internalType": "uint256",
              "name": "fundBPS",
              "type": "uint256"
            },
            {
              "internalType": "uint256",
              "name": "cashBPS",
              "type": "uint256"
            }
          ],
          "internalType": "struct DataTypes.WTFCFees",
          "name": "_fees",
          "type": "tuple"
        },
        {
          "internalType": "string",
          "name": "__baseURI",
          "type": "string"
        }
      ],
      "stateMutability": "nonpayable",
      "type": "constructor"
    },
    {
      "inputs": [],
      "name": "InitParamsInvalid",
      "type": "error"
    },
    {
      "inputs": [],
      "name": "NotRegistrar",
      "type": "error"
    },
    {
      "anonymous": false,
      "inputs": [
        {
          "indexed": true,
          "internalType": "address",
          "name": "previousOwner",
          "type": "address"
        },
        {
          "indexed": true,
          "internalType": "address",
          "name": "newOwner",
          "type": "address"
        }
      ],
      "name": "OwnershipTransferred",
      "type": "event"
    },
    {
      "inputs": [],
      "name": "REGISTRAR",
      "outputs": [
        {
          "internalType": "address",
          "name": "",
          "type": "address"
        }
      ],
      "stateMutability": "view",
      "type": "function"
    },
    {
      "inputs": [],
      "name": "_baseURI",
      "outputs": [
        {
          "internalType": "string",
          "name": "",
          "type": "string"
        }
      ],
      "stateMutability": "view",
      "type": "function"
    },
    {
      "inputs": [],
      "name": "approveRule",
      "outputs": [
        {
          "internalType": "address",
          "name": "",
          "type": "address"
        }
      ],
      "stateMutability": "view",
      "type": "function"
    },
    {
      "inputs": [],
      "name": "cashRule",
      "outputs": [
        {
          "internalType": "address",
          "name": "",
          "type": "address"
        }
      ],
      "stateMutability": "view",
      "type": "function"
    },
    {
      "inputs": [],
      "name": "fees",
      "outputs": [
        {
          "internalType": "uint256",
          "name": "writeBPS",
          "type": "uint256"
        },
        {
          "internalType": "uint256",
          "name": "transferBPS",
          "type": "uint256"
        },
        {
          "internalType": "uint256",
          "name": "fundBPS",
          "type": "uint256"
        },
        {
          "internalType": "uint256",
          "name": "cashBPS",
          "type": "uint256"
        }
      ],
      "stateMutability": "view",
      "type": "function"
    },
    {
      "inputs": [],
      "name": "fundRule",
      "outputs": [
        {
          "internalType": "address",
          "name": "",
          "type": "address"
        }
      ],
      "stateMutability": "view",
      "type": "function"
    },
    {
      "inputs": [],
      "name": "getFees",
      "outputs": [
        {
          "internalType": "uint256",
          "name": "",
          "type": "uint256"
        },
        {
          "internalType": "uint256",
          "name": "",
          "type": "uint256"
        },
        {
          "internalType": "uint256",
          "name": "",
          "type": "uint256"
        },
        {
          "internalType": "uint256",
          "name": "",
          "type": "uint256"
        }
      ],
      "stateMutability": "view",
      "type": "function"
    },
    {
      "inputs": [
        {
          "internalType": "uint256",
          "name": "",
          "type": "uint256"
        }
      ],
      "name": "inspectionPeriod",
      "outputs": [
        {
          "internalType": "uint256",
          "name": "",
          "type": "uint256"
        }
      ],
      "stateMutability": "view",
      "type": "function"
    },
    {
      "inputs": [
        {
          "internalType": "uint256",
          "name": "",
          "type": "uint256"
        }
      ],
      "name": "inspector",
      "outputs": [
        {
          "internalType": "address",
          "name": "",
          "type": "address"
        }
      ],
      "stateMutability": "view",
      "type": "function"
    },
    {
      "inputs": [
        {
          "internalType": "uint256",
          "name": "",
          "type": "uint256"
        }
      ],
      "name": "isCashed",
      "outputs": [
        {
          "internalType": "bool",
          "name": "",
          "type": "bool"
        }
      ],
      "stateMutability": "view",
      "type": "function"
    },
    {
      "inputs": [],
      "name": "owner",
      "outputs": [
        {
          "internalType": "address",
          "name": "",
          "type": "address"
        }
      ],
      "stateMutability": "view",
      "type": "function"
    },
    {
      "inputs": [
        {
          "internalType": "address",
          "name": "caller",
          "type": "address"
        },
        {
          "internalType": "address",
          "name": "owner",
          "type": "address"
        },
        {
          "internalType": "address",
          "name": "to",
          "type": "address"
        },
        {
          "internalType": "uint256",
          "name": "cheqId",
          "type": "uint256"
        },
        {
          "components": [
            {
              "internalType": "address",
              "name": "currency",
              "type": "address"
            },
            {
              "internalType": "uint256",
              "name": "amount",
              "type": "uint256"
            },
            {
              "internalType": "uint256",
              "name": "escrowed",
              "type": "uint256"
            },
            {
              "internalType": "address",
              "name": "drawer",
              "type": "address"
            },
            {
              "internalType": "address",
              "name": "recipient",
              "type": "address"
            },
            {
              "internalType": "address",
              "name": "module",
              "type": "address"
            },
            {
              "internalType": "uint256",
              "name": "mintTimestamp",
              "type": "uint256"
            }
          ],
          "internalType": "struct DataTypes.Cheq",
          "name": "cheq",
          "type": "tuple"
        },
        {
          "internalType": "bytes",
          "name": "initData",
          "type": "bytes"
        }
      ],
      "name": "processApproval",
      "outputs": [],
      "stateMutability": "nonpayable",
      "type": "function"
    },
    {
      "inputs": [
        {
          "internalType": "address",
          "name": "caller",
          "type": "address"
        },
        {
          "internalType": "address",
          "name": "owner",
          "type": "address"
        },
        {
          "internalType": "address",
          "name": "to",
          "type": "address"
        },
        {
          "internalType": "uint256",
          "name": "amount",
          "type": "uint256"
        },
        {
          "internalType": "uint256",
          "name": "cheqId",
          "type": "uint256"
        },
        {
          "components": [
            {
              "internalType": "address",
              "name": "currency",
              "type": "address"
            },
            {
              "internalType": "uint256",
              "name": "amount",
              "type": "uint256"
            },
            {
              "internalType": "uint256",
              "name": "escrowed",
              "type": "uint256"
            },
            {
              "internalType": "address",
              "name": "drawer",
              "type": "address"
            },
            {
              "internalType": "address",
              "name": "recipient",
              "type": "address"
            },
            {
              "internalType": "address",
              "name": "module",
              "type": "address"
            },
            {
              "internalType": "uint256",
              "name": "mintTimestamp",
              "type": "uint256"
            }
          ],
          "internalType": "struct DataTypes.Cheq",
          "name": "cheq",
          "type": "tuple"
        },
        {
          "internalType": "bytes",
          "name": "initData",
          "type": "bytes"
        }
      ],
      "name": "processCash",
      "outputs": [
        {
          "internalType": "uint256",
          "name": "",
          "type": "uint256"
        }
      ],
      "stateMutability": "nonpayable",
      "type": "function"
    },
    {
      "inputs": [
        {
          "internalType": "address",
          "name": "caller",
          "type": "address"
        },
        {
          "internalType": "address",
          "name": "owner",
          "type": "address"
        },
        {
          "internalType": "uint256",
          "name": "amount",
          "type": "uint256"
        },
        {
          "internalType": "bool",
          "name": "isDirectPay",
          "type": "bool"
        },
        {
          "internalType": "uint256",
          "name": "cheqId",
          "type": "uint256"
        },
        {
          "components": [
            {
              "internalType": "address",
              "name": "currency",
              "type": "address"
            },
            {
              "internalType": "uint256",
              "name": "amount",
              "type": "uint256"
            },
            {
              "internalType": "uint256",
              "name": "escrowed",
              "type": "uint256"
            },
            {
              "internalType": "address",
              "name": "drawer",
              "type": "address"
            },
            {
              "internalType": "address",
              "name": "recipient",
              "type": "address"
            },
            {
              "internalType": "address",
              "name": "module",
              "type": "address"
            },
            {
              "internalType": "uint256",
              "name": "mintTimestamp",
              "type": "uint256"
            }
          ],
          "internalType": "struct DataTypes.Cheq",
          "name": "cheq",
          "type": "tuple"
        },
        {
          "internalType": "bytes",
          "name": "initData",
          "type": "bytes"
        }
      ],
      "name": "processFund",
      "outputs": [
        {
          "internalType": "uint256",
          "name": "",
          "type": "uint256"
        }
      ],
      "stateMutability": "nonpayable",
      "type": "function"
    },
    {
      "inputs": [
        {
          "internalType": "uint256",
          "name": "",
          "type": "uint256"
        }
      ],
      "name": "processTokenURI",
      "outputs": [
        {
          "internalType": "string",
          "name": "",
          "type": "string"
        }
      ],
      "stateMutability": "pure",
      "type": "function"
    },
    {
      "inputs": [
        {
          "internalType": "address",
          "name": "caller",
          "type": "address"
        },
        {
          "internalType": "bool",
          "name": "isApproved",
          "type": "bool"
        },
        {
          "internalType": "address",
          "name": "owner",
          "type": "address"
        },
        {
          "internalType": "address",
          "name": "from",
          "type": "address"
        },
        {
          "internalType": "address",
          "name": "to",
          "type": "address"
        },
        {
          "internalType": "uint256",
          "name": "cheqId",
          "type": "uint256"
        },
        {
          "components": [
            {
              "internalType": "address",
              "name": "currency",
              "type": "address"
            },
            {
              "internalType": "uint256",
              "name": "amount",
              "type": "uint256"
            },
            {
              "internalType": "uint256",
              "name": "escrowed",
              "type": "uint256"
            },
            {
              "internalType": "address",
              "name": "drawer",
              "type": "address"
            },
            {
              "internalType": "address",
              "name": "recipient",
              "type": "address"
            },
            {
              "internalType": "address",
              "name": "module",
              "type": "address"
            },
            {
              "internalType": "uint256",
              "name": "mintTimestamp",
              "type": "uint256"
            }
          ],
          "internalType": "struct DataTypes.Cheq",
          "name": "cheq",
          "type": "tuple"
        },
        {
          "internalType": "bytes",
          "name": "data",
          "type": "bytes"
        }
      ],
      "name": "processTransfer",
      "outputs": [
        {
          "internalType": "uint256",
          "name": "",
          "type": "uint256"
        }
      ],
      "stateMutability": "nonpayable",
      "type": "function"
    },
    {
      "inputs": [
        {
          "internalType": "address",
          "name": "caller",
          "type": "address"
        },
        {
          "internalType": "address",
          "name": "owner",
          "type": "address"
        },
        {
          "internalType": "uint256",
          "name": "cheqId",
          "type": "uint256"
        },
        {
          "components": [
            {
              "internalType": "address",
              "name": "currency",
              "type": "address"
            },
            {
              "internalType": "uint256",
              "name": "amount",
              "type": "uint256"
            },
            {
              "internalType": "uint256",
              "name": "escrowed",
              "type": "uint256"
            },
            {
              "internalType": "address",
              "name": "drawer",
              "type": "address"
            },
            {
              "internalType": "address",
              "name": "recipient",
              "type": "address"
            },
            {
              "internalType": "address",
              "name": "module",
              "type": "address"
            },
            {
              "internalType": "uint256",
              "name": "mintTimestamp",
              "type": "uint256"
            }
          ],
          "internalType": "struct DataTypes.Cheq",
          "name": "cheq",
          "type": "tuple"
        },
        {
          "internalType": "bool",
          "name": "isInstant",
          "type": "bool"
        },
        {
          "internalType": "bytes",
          "name": "initData",
          "type": "bytes"
        }
      ],
      "name": "processWrite",
      "outputs": [
        {
          "internalType": "uint256",
          "name": "",
          "type": "uint256"
        }
      ],
      "stateMutability": "nonpayable",
      "type": "function"
    },
    {
      "inputs": [],
      "name": "renounceOwnership",
      "outputs": [],
      "stateMutability": "nonpayable",
      "type": "function"
    },
    {
      "inputs": [
        {
          "internalType": "address",
          "name": "newOwner",
          "type": "address"
        }
      ],
      "name": "transferOwnership",
      "outputs": [],
      "stateMutability": "nonpayable",
      "type": "function"
    },
    {
      "inputs": [],
      "name": "transferRule",
      "outputs": [
        {
          "internalType": "address",
          "name": "",
          "type": "address"
        }
      ],
      "stateMutability": "view",
      "type": "function"
    },
    {
      "inputs": [
        {
          "internalType": "address",
          "name": "token",
          "type": "address"
        }
      ],
      "name": "withdrawFees",
      "outputs": [],
      "stateMutability": "nonpayable",
      "type": "function"
    },
    {
      "inputs": [],
      "name": "writeRule",
      "outputs": [
        {
          "internalType": "address",
          "name": "",
          "type": "address"
        }
      ],
      "stateMutability": "view",
      "type": "function"
    }
  ],
  "bytecode": {
    "object": "0x60a06040523480156200001157600080fd5b5060405162001912380380620019128339810160408190526200003491620003db565b8787878787878762000046336200026d565b6001600160a01b0387166200006e576040516348be0eb360e01b815260040160405180910390fd5b6001600160a01b038781166080819052604051631fa5b09760e11b81528883166004820152878316602482015286831660448201528583166064820152918416608483015290633f4b612e9060a401602060405180830381865afa158015620000db573d6000803e3d6000fd5b505050506040513d601f19601f82011682018060405250810190620001019190620004d8565b620001435760405162461bcd60e51b815260206004820152600d60248201526c1495531154d7d2539590531251609a1b60448201526064015b60405180910390fd5b600280546001600160a01b03199081166001600160a01b038981169190911790925560038054821688841617905560048054821687841617905560058054821686841617905560068054909116918416919091179055805161271011620001ed5760405162461bcd60e51b815260206004820152601460248201527f4d6f64756c653a2046656520746f6f206869676800000000000000000000000060448201526064016200013a565b80516007556020808201516008556040808301516009556060830151600a55514281526001600160a01b038916917ff1a1fa6b64aa95186f5a1285e76198d0da80d9c5a88062641d447f1d7c54e56c910160405180910390a25050505050505080600e90816200025e919062000592565b5050505050505050506200065e565b600080546001600160a01b038381166001600160a01b0319831681178455604051919092169283917f8be0079c531659141344cd1fd0a4f28419497f9722a3daafe3b4186f6b6457e09190a35050565b80516001600160a01b0381168114620002d557600080fd5b919050565b634e487b7160e01b600052604160045260246000fd5b604051608081016001600160401b0381118282101715620003155762000315620002da565b60405290565b604051601f8201601f191681016001600160401b0381118282101715620003465762000346620002da565b604052919050565b600082601f8301126200036057600080fd5b81516001600160401b038111156200037c576200037c620002da565b602062000392601f8301601f191682016200031b565b8281528582848701011115620003a757600080fd5b60005b83811015620003c7578581018301518282018401528201620003aa565b506000928101909101919091529392505050565b600080600080600080600080888a03610160811215620003fa57600080fd5b620004058a620002bd565b98506200041560208b01620002bd565b97506200042560408b01620002bd565b96506200043560608b01620002bd565b95506200044560808b01620002bd565b94506200045560a08b01620002bd565b9350608060bf19820112156200046a57600080fd5b5062000475620002f0565b60c08a0151815260e08a015160208201526101008a015160408201526101208a015160608201526101408a01519092506001600160401b03811115620004ba57600080fd5b620004c88b828c016200034e565b9150509295985092959890939650565b600060208284031215620004eb57600080fd5b81518015158114620004fc57600080fd5b9392505050565b600181811c908216806200051857607f821691505b6020821081036200053957634e487b7160e01b600052602260045260246000fd5b50919050565b601f8211156200058d57600081815260208120601f850160051c81016020861015620005685750805b601f850160051c820191505b81811015620005895782815560010162000574565b5050505b505050565b81516001600160401b03811115620005ae57620005ae620002da565b620005c681620005bf845462000503565b846200053f565b602080601f831160018114620005fe5760008415620005e55750858301515b600019600386901b1c1916600185901b17855562000589565b600085815260208120601f198616915b828110156200062f578886015182559484019460019091019084016200060e565b50858210156200064e5787850151600019600388901b60f8161c191681555b5050505050600190811b01905550565b60805161126e620006a4600039600081816102ec0152818161042a015281816104da0152818161064401528181610703015281816107ce01526108e2015261126e6000f3fe608060405234801561001057600080fd5b50600436106101425760003560e01c8063a0663d1b116100b8578063d4c301da1161007c578063d4c301da14610321578063db8d55f114610334578063df1cdb4614610345578063f09b3d9a14610358578063f2fde38b1461036b578063f3ea001e1461037e57600080fd5b8063a0663d1b14610281578063aee40bb914610294578063c03f9446146102c7578063cb609077146102e7578063ccd165681461030e57600080fd5b806357e4561d1161010a57806357e4561d146101ee578063715018a614610217578063743976a01461021f57806384314347146102275780638da5cb5b1461023a5780639af1d35a1461024b57600080fd5b80630d02cde714610147578063164e68de14610177578063433d3a771461018c5780634fe17e1a1461019f57806353f7b842146101cd575b600080fd5b60035461015a906001600160a01b031681565b6040516001600160a01b0390911681526020015b60405180910390f35b61018a610185366004610ad8565b610391565b005b60065461015a906001600160a01b031681565b6101c06101ad366004610afc565b5060408051602081019091526000815290565b60405161016e9190610b5b565b6101e06101db366004610be4565b6104cd565b60405190815260200161016e565b61015a6101fc366004610afc565b600c602052600090815260409020546001600160a01b031681565b61018a610597565b6101c06105ab565b61018a610235366004610d27565b610639565b6000546001600160a01b031661015a565b600754600854600954600a546102619392919084565b60408051948552602085019390935291830152606082015260800161016e565b6101e061028f366004610db8565b6106f6565b6102b76102a2366004610afc565b600d6020526000908152604090205460ff1681565b604051901515815260200161016e565b6101e06102d5366004610afc565b600b6020526000908152604090205481565b61015a7f000000000000000000000000000000000000000000000000000000000000000081565b6101e061031c366004610e1d565b6107c1565b60045461015a906001600160a01b031681565b600754600854600954600a54610261565b60025461015a906001600160a01b031681565b6101e0610366366004610eb5565b6108d5565b61018a610379366004610ad8565b6109a0565b60055461015a906001600160a01b031681565b3360009081526001602081815260408084206001600160a01b0386168552909152909120549081116104015760405162461bcd60e51b8152602060048201526014602482015273496e73756666696369656e7420726576656e756560601b60448201526064015b60405180910390fd5b3360009081526001602081815260408084206001600160a01b03878116865292529092208190557f00000000000000000000000000000000000000000000000000000000000000009091169063d6a4f84c90849061045f9085610f6a565b3360405160e085901b6001600160e01b03191681526001600160a01b03938416600482015260248101929092529091166044820152606401600060405180830381600087803b1580156104b157600080fd5b505af11580156104c5573d6000803e3d6000fd5b505050505050565b6000336001600160a01b037f0000000000000000000000000000000000000000000000000000000000000000161461051857604051632ad9535160e01b815260040160405180910390fd5b6004805460405163da1e1b8760e01b81526001600160a01b039091169163da1e1b8791610555918d918d918d918d918d918d918d918d9101611034565b600060405180830381600087803b15801561056f57600080fd5b505af1158015610583573d6000803e3d6000fd5b50506009549b9a5050505050505050505050565b61059f610a19565b6105a96000610a73565b565b600e80546105b890611093565b80601f01602080910402602001604051908101604052809291908181526020018280546105e490611093565b80156106315780601f1061060657610100808354040283529160200191610631565b820191906000526020600020905b81548152906001019060200180831161061457829003601f168201915b505050505081565b336001600160a01b037f0000000000000000000000000000000000000000000000000000000000000000161461068257604051632ad9535160e01b815260040160405180910390fd5b60065460405163275ecee160e01b81526001600160a01b039091169063275ecee1906106bc908990899089908990899089906004016110c7565b600060405180830381600087803b1580156106d657600080fd5b505af11580156106ea573d6000803e3d6000fd5b50505050505050505050565b6000336001600160a01b037f0000000000000000000000000000000000000000000000000000000000000000161461074157604051632ad9535160e01b815260040160405180910390fd5b6005546040516353ba2df360e01b81526001600160a01b03909116906353ba2df39061077f908c908c908c908c908c908c908c908c9060040161111c565b600060405180830381600087803b15801561079957600080fd5b505af11580156107ad573d6000803e3d6000fd5b5050600a549b9a5050505050505050505050565b6000336001600160a01b037f0000000000000000000000000000000000000000000000000000000000000000161461080c57604051632ad9535160e01b815260040160405180910390fd5b6002546040516302d46e8f60e31b81526001600160a01b03909116906316a3747890610848908b908b908b908b908b908b908b90600401611158565b600060405180830381600087803b15801561086257600080fd5b505af1158015610876573d6000803e3d6000fd5b50505050600080848481019061088c91906111b0565b6000998a52600b60209081526040808c2093909355600c9052982080546001600160a01b0319166001600160a01b03909916989098179097555050600754979650505050505050565b6000336001600160a01b037f0000000000000000000000000000000000000000000000000000000000000000161461092057604051632ad9535160e01b815260040160405180910390fd5b6003546040516309b1079760e21b81526001600160a01b03909116906326c41e5c9061095e908c908c908c908c908c908c908c908c906004016111e0565b600060405180830381600087803b15801561097857600080fd5b505af115801561098c573d6000803e3d6000fd5b50506008549b9a5050505050505050505050565b6109a8610a19565b6001600160a01b038116610a0d5760405162461bcd60e51b815260206004820152602660248201527f4f776e61626c653a206e6577206f776e657220697320746865207a65726f206160448201526564647265737360d01b60648201526084016103f8565b610a1681610a73565b50565b6000546001600160a01b031633146105a95760405162461bcd60e51b815260206004820181905260248201527f4f776e61626c653a2063616c6c6572206973206e6f7420746865206f776e657260448201526064016103f8565b600080546001600160a01b038381166001600160a01b0319831681178455604051919092169283917f8be0079c531659141344cd1fd0a4f28419497f9722a3daafe3b4186f6b6457e09190a35050565b6001600160a01b0381168114610a1657600080fd5b600060208284031215610aea57600080fd5b8135610af581610ac3565b9392505050565b600060208284031215610b0e57600080fd5b5035919050565b6000815180845260005b81811015610b3b57602081850181015186830182015201610b1f565b506000602082860101526020601f19601f83011685010191505092915050565b602081526000610af56020830184610b15565b80358015158114610b7e57600080fd5b919050565b600060e08284031215610b9557600080fd5b50919050565b60008083601f840112610bad57600080fd5b50813567ffffffffffffffff811115610bc557600080fd5b602083019150836020828501011115610bdd57600080fd5b9250929050565b6000806000806000806000806101a0898b031215610c0157600080fd5b8835610c0c81610ac3565b97506020890135610c1c81610ac3565b965060408901359550610c3160608a01610b6e565b945060808901359350610c478a60a08b01610b83565b925061018089013567ffffffffffffffff811115610c6457600080fd5b610c708b828c01610b9b565b999c989b5096995094979396929594505050565b634e487b7160e01b600052604160045260246000fd5b600082601f830112610cab57600080fd5b813567ffffffffffffffff80821115610cc657610cc6610c84565b604051601f8301601f19908116603f01168101908282118183101715610cee57610cee610c84565b81604052838152866020858801011115610d0757600080fd5b836020870160208301376000602085830101528094505050505092915050565b6000806000806000806101808789031215610d4157600080fd5b8635610d4c81610ac3565b95506020870135610d5c81610ac3565b94506040870135610d6c81610ac3565b935060608701359250610d828860808901610b83565b915061016087013567ffffffffffffffff811115610d9f57600080fd5b610dab89828a01610c9a565b9150509295509295509295565b6000806000806000806000806101a0898b031215610dd557600080fd5b8835610de081610ac3565b97506020890135610df081610ac3565b96506040890135610e0081610ac3565b95506060890135945060808901359350610c478a60a08b01610b83565b6000806000806000806000610180888a031215610e3957600080fd5b8735610e4481610ac3565b96506020880135610e5481610ac3565b955060408801359450610e6a8960608a01610b83565b9350610e796101408901610b6e565b925061016088013567ffffffffffffffff811115610e9657600080fd5b610ea28a828b01610b9b565b989b979a50959850939692959293505050565b6000806000806000806000806101c0898b031215610ed257600080fd5b8835610edd81610ac3565b9750610eeb60208a01610b6e565b96506040890135610efb81610ac3565b95506060890135610f0b81610ac3565b94506080890135610f1b81610ac3565b935060a08901359250610f318a60c08b01610b83565b91506101a089013567ffffffffffffffff811115610f4e57600080fd5b610f5a8b828c01610c9a565b9150509295985092959890939650565b81810381811115610f8b57634e487b7160e01b600052601160045260246000fd5b92915050565b8035610f9c81610ac3565b6001600160a01b0390811683526020828101359084015260408083013590840152606082013590610fcc82610ac3565b9081166060840152608082013590610fe382610ac3565b908116608084015260a082013590610ffa82610ac3565b1660a083015260c090810135910152565b81835281816020850137506000828201602090810191909152601f909101601f19169091010190565b6001600160a01b038981168252881660208201526040810187905285151560608201526080810185905260006101a061107060a0840187610f91565b80610180840152611084818401858761100b565b9b9a5050505050505050505050565b600181811c908216806110a757607f821691505b602082108103610b9557634e487b7160e01b600052602260045260246000fd5b6001600160a01b0387811682528681166020830152851660408201526060810184905260006101806110fc6080840186610f91565b8061016084015261110f81840185610b15565b9998505050505050505050565b6001600160a01b038981168252888116602083015287166040820152606081018690526080810185905260006101a061107060a0840187610f91565b6001600160a01b038881168252871660208201526040810186905260006101806111856060840188610f91565b851515610140840152806101608401526111a2818401858761100b565b9a9950505050505050505050565b600080604083850312156111c357600080fd5b8235915060208301356111d581610ac3565b809150509250929050565b6001600160a01b0389811682528815156020830152878116604083015286811660608301528516608082015260a0810184905260006101c061122560c0840186610f91565b806101a084015261108481840185610b1556fea2646970667358221220299bd43854e59d292721ba23cbc63a6ecd9dd4a62f855671d44c3b577348d24c64736f6c63430008100033",
    "linkReferences": {}
  },
  "methodIdentifiers": {
    "REGISTRAR()": "cb609077",
    "_baseURI()": "743976a0",
    "approveRule()": "433d3a77",
    "cashRule()": "f3ea001e",
    "fees()": "9af1d35a",
    "fundRule()": "d4c301da",
    "getFees()": "db8d55f1",
    "inspectionPeriod(uint256)": "c03f9446",
    "inspector(uint256)": "57e4561d",
    "isCashed(uint256)": "aee40bb9",
    "owner()": "8da5cb5b",
    "processApproval(address,address,address,uint256,(address,uint256,uint256,address,address,address,uint256),bytes)": "84314347",
    "processCash(address,address,address,uint256,uint256,(address,uint256,uint256,address,address,address,uint256),bytes)": "a0663d1b",
    "processFund(address,address,uint256,bool,uint256,(address,uint256,uint256,address,address,address,uint256),bytes)": "53f7b842",
    "processTokenURI(uint256)": "4fe17e1a",
    "processTransfer(address,bool,address,address,address,uint256,(address,uint256,uint256,address,address,address,uint256),bytes)": "f09b3d9a",
    "processWrite(address,address,uint256,(address,uint256,uint256,address,address,address,uint256),bool,bytes)": "ccd16568",
    "renounceOwnership()": "715018a6",
    "transferOwnership(address)": "f2fde38b",
    "transferRule()": "0d02cde7",
    "withdrawFees(address)": "164e68de",
    "writeRule()": "df1cdb46"
  },
  "id": 48
}