{
  "abi": [
    {
      "inputs": [
        {
          "internalType": "address",
          "name": "registrar",
          "type": "address"
        },
        {
          "internalType": "address",
          "name": "_writeRule",
          "type": "address"
        },
        {
          "internalType": "address",
          "name": "_transferRule",
          "type": "address"
        },
        {
          "internalType": "address",
          "name": "_fundRule",
          "type": "address"
        },
        {
          "internalType": "address",
          "name": "_cashRule",
          "type": "address"
        },
        {
          "internalType": "address",
          "name": "_approveRule",
          "type": "address"
        },
        {
          "components": [
            {
              "internalType": "uint256",
              "name": "writeBPS",
              "type": "uint256"
            },
            {
              "internalType": "uint256",
              "name": "transferBPS",
              "type": "uint256"
            },
            {
              "internalType": "uint256",
              "name": "fundBPS",
              "type": "uint256"
            },
            {
              "internalType": "uint256",
              "name": "cashBPS",
              "type": "uint256"
            }
          ],
          "internalType": "struct DataTypes.WTFCFees",
          "name": "_fees",
          "type": "tuple"
        },
        {
          "internalType": "string",
          "name": "__baseURI",
          "type": "string"
        }
      ],
      "stateMutability": "nonpayable",
      "type": "constructor"
    },
    {
      "inputs": [],
      "name": "InitParamsInvalid",
      "type": "error"
    },
    {
      "inputs": [],
      "name": "NotRegistrar",
      "type": "error"
    },
    {
      "anonymous": false,
      "inputs": [
        {
          "indexed": true,
          "internalType": "uint256",
          "name": "cheqId",
          "type": "uint256"
        },
        {
          "indexed": false,
          "internalType": "bytes32",
          "name": "memoHash",
          "type": "bytes32"
        }
      ],
      "name": "MemoWritten",
      "type": "event"
    },
    {
      "inputs": [],
      "name": "REGISTRAR",
      "outputs": [
        {
          "internalType": "address",
          "name": "",
          "type": "address"
        }
      ],
      "stateMutability": "view",
      "type": "function"
    },
    {
      "inputs": [],
      "name": "_URI",
      "outputs": [
        {
          "internalType": "string",
          "name": "",
          "type": "string"
        }
      ],
      "stateMutability": "view",
      "type": "function"
    },
    {
      "inputs": [],
      "name": "approveRule",
      "outputs": [
        {
          "internalType": "address",
          "name": "",
          "type": "address"
        }
      ],
      "stateMutability": "view",
      "type": "function"
    },
    {
      "inputs": [],
      "name": "cashRule",
      "outputs": [
        {
          "internalType": "address",
          "name": "",
          "type": "address"
        }
      ],
      "stateMutability": "view",
      "type": "function"
    },
    {
      "inputs": [],
      "name": "fees",
      "outputs": [
        {
          "internalType": "uint256",
          "name": "writeBPS",
          "type": "uint256"
        },
        {
          "internalType": "uint256",
          "name": "transferBPS",
          "type": "uint256"
        },
        {
          "internalType": "uint256",
          "name": "fundBPS",
          "type": "uint256"
        },
        {
          "internalType": "uint256",
          "name": "cashBPS",
          "type": "uint256"
        }
      ],
      "stateMutability": "view",
      "type": "function"
    },
    {
      "inputs": [],
      "name": "fundRule",
      "outputs": [
        {
          "internalType": "address",
          "name": "",
          "type": "address"
        }
      ],
      "stateMutability": "view",
      "type": "function"
    },
    {
      "inputs": [],
      "name": "getFees",
      "outputs": [
        {
          "internalType": "uint256",
          "name": "",
          "type": "uint256"
        },
        {
          "internalType": "uint256",
          "name": "",
          "type": "uint256"
        },
        {
          "internalType": "uint256",
          "name": "",
          "type": "uint256"
        },
        {
          "internalType": "uint256",
          "name": "",
          "type": "uint256"
        }
      ],
      "stateMutability": "view",
      "type": "function"
    },
    {
      "inputs": [
        {
          "internalType": "uint256",
          "name": "",
          "type": "uint256"
        }
      ],
      "name": "memo",
      "outputs": [
        {
          "internalType": "bytes32",
          "name": "",
          "type": "bytes32"
        }
      ],
      "stateMutability": "view",
      "type": "function"
    },
    {
      "inputs": [
        {
          "internalType": "address",
          "name": "caller",
          "type": "address"
        },
        {
          "internalType": "address",
          "name": "owner",
          "type": "address"
        },
        {
          "internalType": "address",
          "name": "to",
          "type": "address"
        },
        {
          "internalType": "uint256",
          "name": "cheqId",
          "type": "uint256"
        },
        {
          "components": [
            {
              "internalType": "address",
              "name": "currency",
              "type": "address"
            },
            {
              "internalType": "uint256",
              "name": "amount",
              "type": "uint256"
            },
            {
              "internalType": "uint256",
              "name": "escrowed",
              "type": "uint256"
            },
            {
              "internalType": "address",
              "name": "drawer",
              "type": "address"
            },
            {
              "internalType": "address",
              "name": "recipient",
              "type": "address"
            },
            {
              "internalType": "address",
              "name": "module",
              "type": "address"
            },
            {
              "internalType": "uint256",
              "name": "mintTimestamp",
              "type": "uint256"
            }
          ],
          "internalType": "struct DataTypes.Cheq",
          "name": "cheq",
          "type": "tuple"
        },
        {
          "internalType": "bytes",
          "name": "initData",
          "type": "bytes"
        }
      ],
      "name": "processApproval",
      "outputs": [],
      "stateMutability": "nonpayable",
      "type": "function"
    },
    {
      "inputs": [
        {
          "internalType": "address",
          "name": "caller",
          "type": "address"
        },
        {
          "internalType": "address",
          "name": "owner",
          "type": "address"
        },
        {
          "internalType": "address",
          "name": "to",
          "type": "address"
        },
        {
          "internalType": "uint256",
          "name": "amount",
          "type": "uint256"
        },
        {
          "internalType": "uint256",
          "name": "cheqId",
          "type": "uint256"
        },
        {
          "components": [
            {
              "internalType": "address",
              "name": "currency",
              "type": "address"
            },
            {
              "internalType": "uint256",
              "name": "amount",
              "type": "uint256"
            },
            {
              "internalType": "uint256",
              "name": "escrowed",
              "type": "uint256"
            },
            {
              "internalType": "address",
              "name": "drawer",
              "type": "address"
            },
            {
              "internalType": "address",
              "name": "recipient",
              "type": "address"
            },
            {
              "internalType": "address",
              "name": "module",
              "type": "address"
            },
            {
              "internalType": "uint256",
              "name": "mintTimestamp",
              "type": "uint256"
            }
          ],
          "internalType": "struct DataTypes.Cheq",
          "name": "cheq",
          "type": "tuple"
        },
        {
          "internalType": "bytes",
          "name": "initData",
          "type": "bytes"
        }
      ],
      "name": "processCash",
      "outputs": [
        {
          "internalType": "uint256",
          "name": "",
          "type": "uint256"
        }
      ],
      "stateMutability": "nonpayable",
      "type": "function"
    },
    {
      "inputs": [
        {
          "internalType": "address",
          "name": "caller",
          "type": "address"
        },
        {
          "internalType": "address",
          "name": "owner",
          "type": "address"
        },
        {
          "internalType": "uint256",
          "name": "amount",
          "type": "uint256"
        },
        {
          "internalType": "uint256",
          "name": "directAmount",
          "type": "uint256"
        },
        {
          "internalType": "uint256",
          "name": "cheqId",
          "type": "uint256"
        },
        {
          "components": [
            {
              "internalType": "address",
              "name": "currency",
              "type": "address"
            },
            {
              "internalType": "uint256",
              "name": "amount",
              "type": "uint256"
            },
            {
              "internalType": "uint256",
              "name": "escrowed",
              "type": "uint256"
            },
            {
              "internalType": "address",
              "name": "drawer",
              "type": "address"
            },
            {
              "internalType": "address",
              "name": "recipient",
              "type": "address"
            },
            {
              "internalType": "address",
              "name": "module",
              "type": "address"
            },
            {
              "internalType": "uint256",
              "name": "mintTimestamp",
              "type": "uint256"
            }
          ],
          "internalType": "struct DataTypes.Cheq",
          "name": "cheq",
          "type": "tuple"
        },
        {
          "internalType": "bytes",
          "name": "initData",
          "type": "bytes"
        }
      ],
      "name": "processFund",
      "outputs": [
        {
          "internalType": "uint256",
          "name": "",
          "type": "uint256"
        }
      ],
      "stateMutability": "nonpayable",
      "type": "function"
    },
    {
      "inputs": [
        {
          "internalType": "uint256",
          "name": "tokenId",
          "type": "uint256"
        }
      ],
      "name": "processTokenURI",
      "outputs": [
        {
          "internalType": "string",
          "name": "",
          "type": "string"
        }
      ],
      "stateMutability": "view",
      "type": "function"
    },
    {
      "inputs": [
        {
          "internalType": "address",
          "name": "caller",
          "type": "address"
        },
        {
          "internalType": "bool",
          "name": "isApproved",
          "type": "bool"
        },
        {
          "internalType": "address",
          "name": "owner",
          "type": "address"
        },
        {
          "internalType": "address",
          "name": "from",
          "type": "address"
        },
        {
          "internalType": "address",
          "name": "to",
          "type": "address"
        },
        {
          "internalType": "uint256",
          "name": "cheqId",
          "type": "uint256"
        },
        {
          "components": [
            {
              "internalType": "address",
              "name": "currency",
              "type": "address"
            },
            {
              "internalType": "uint256",
              "name": "amount",
              "type": "uint256"
            },
            {
              "internalType": "uint256",
              "name": "escrowed",
              "type": "uint256"
            },
            {
              "internalType": "address",
              "name": "drawer",
              "type": "address"
            },
            {
              "internalType": "address",
              "name": "recipient",
              "type": "address"
            },
            {
              "internalType": "address",
              "name": "module",
              "type": "address"
            },
            {
              "internalType": "uint256",
              "name": "mintTimestamp",
              "type": "uint256"
            }
          ],
          "internalType": "struct DataTypes.Cheq",
          "name": "cheq",
          "type": "tuple"
        },
        {
          "internalType": "bytes",
          "name": "data",
          "type": "bytes"
        }
      ],
      "name": "processTransfer",
      "outputs": [
        {
          "internalType": "uint256",
          "name": "",
          "type": "uint256"
        }
      ],
      "stateMutability": "nonpayable",
      "type": "function"
    },
    {
      "inputs": [
        {
          "internalType": "address",
          "name": "caller",
          "type": "address"
        },
        {
          "internalType": "address",
          "name": "owner",
          "type": "address"
        },
        {
          "internalType": "uint256",
          "name": "cheqId",
          "type": "uint256"
        },
        {
          "components": [
            {
              "internalType": "address",
              "name": "currency",
              "type": "address"
            },
            {
              "internalType": "uint256",
              "name": "amount",
              "type": "uint256"
            },
            {
              "internalType": "uint256",
              "name": "escrowed",
              "type": "uint256"
            },
            {
              "internalType": "address",
              "name": "drawer",
              "type": "address"
            },
            {
              "internalType": "address",
              "name": "recipient",
              "type": "address"
            },
            {
              "internalType": "address",
              "name": "module",
              "type": "address"
            },
            {
              "internalType": "uint256",
              "name": "mintTimestamp",
              "type": "uint256"
            }
          ],
          "internalType": "struct DataTypes.Cheq",
          "name": "cheq",
          "type": "tuple"
        },
        {
          "internalType": "uint256",
          "name": "directAmount",
          "type": "uint256"
        },
        {
          "internalType": "bytes",
          "name": "initData",
          "type": "bytes"
        }
      ],
      "name": "processWrite",
      "outputs": [
        {
          "internalType": "uint256",
          "name": "",
          "type": "uint256"
        }
      ],
      "stateMutability": "nonpayable",
      "type": "function"
    },
    {
      "inputs": [],
      "name": "transferRule",
      "outputs": [
        {
          "internalType": "address",
          "name": "",
          "type": "address"
        }
      ],
      "stateMutability": "view",
      "type": "function"
    },
    {
      "inputs": [
        {
          "internalType": "address",
          "name": "token",
          "type": "address"
        }
      ],
      "name": "withdrawFees",
      "outputs": [],
      "stateMutability": "nonpayable",
      "type": "function"
    },
    {
      "inputs": [],
      "name": "writeRule",
      "outputs": [
        {
          "internalType": "address",
          "name": "",
          "type": "address"
        }
      ],
      "stateMutability": "view",
      "type": "function"
    }
  ],
  "bytecode": {
    "object": "0x60a06040523480156200001157600080fd5b5060405162001a0538038062001a05833981016040819052620000349162000441565b878787878787876001600160a01b03871662000063576040516348be0eb360e01b815260040160405180910390fd5b6001600160a01b038781166080819052604051631fa5b09760e11b81528883166004820152878316602482015286831660448201528583166064820152918416608483015290633f4b612e9060a401602060405180830381865afa158015620000d0573d6000803e3d6000fd5b505050506040513d601f19601f82011682018060405250810190620000f691906200053e565b620001385760405162461bcd60e51b815260206004820152600d60248201526c1495531154d7d2539590531251609a1b60448201526064015b60405180910390fd5b600380546001600160a01b03199081166001600160a01b038981169190911790925560048054821688841617905560058054821687841617905560068054821686841617905560078054909116918416919091179055805161271011620001d15760405162461bcd60e51b81526020600482015260146024820152600080516020620019e583398151915260448201526064016200012f565b612710816020015110620002175760405162461bcd60e51b81526020600482015260146024820152600080516020620019e583398151915260448201526064016200012f565b6127108160400151106200025d5760405162461bcd60e51b81526020600482015260146024820152600080516020620019e583398151915260448201526064016200012f565b612710816060015110620002a35760405162461bcd60e51b81526020600482015260146024820152600080516020620019e583398151915260448201526064016200012f565b8051600855602080820151600955604080830151600a556060830151600b55514281526001600160a01b038916917ff1a1fa6b64aa95186f5a1285e76198d0da80d9c5a88062641d447f1d7c54e56c910160405180910390a2505050505050508060009081620003149190620005f8565b505050505050505050620006c4565b80516001600160a01b03811681146200033b57600080fd5b919050565b634e487b7160e01b600052604160045260246000fd5b604051608081016001600160401b03811182821017156200037b576200037b62000340565b60405290565b604051601f8201601f191681016001600160401b0381118282101715620003ac57620003ac62000340565b604052919050565b600082601f830112620003c657600080fd5b81516001600160401b03811115620003e257620003e262000340565b6020620003f8601f8301601f1916820162000381565b82815285828487010111156200040d57600080fd5b60005b838110156200042d57858101830151828201840152820162000410565b506000928101909101919091529392505050565b600080600080600080600080888a036101608112156200046057600080fd5b6200046b8a62000323565b98506200047b60208b0162000323565b97506200048b60408b0162000323565b96506200049b60608b0162000323565b9550620004ab60808b0162000323565b9450620004bb60a08b0162000323565b9350608060bf1982011215620004d057600080fd5b50620004db62000356565b60c08a0151815260e08a015160208201526101008a015160408201526101208a015160608201526101408a01519092506001600160401b038111156200052057600080fd5b6200052e8b828c01620003b4565b9150509295985092959890939650565b6000602082840312156200055157600080fd5b815180151581146200056257600080fd5b9392505050565b600181811c908216806200057e57607f821691505b6020821081036200059f57634e487b7160e01b600052602260045260246000fd5b50919050565b601f821115620005f357600081815260208120601f850160051c81016020861015620005ce5750805b601f850160051c820191505b81811015620005ef57828155600101620005da565b5050505b505050565b81516001600160401b0381111562000614576200061462000340565b6200062c8162000625845462000569565b84620005a5565b602080601f8311600181146200066457600084156200064b5750858301515b600019600386901b1c1916600185901b178555620005ef565b600085815260208120601f198616915b82811015620006955788860151825594840194600190910190840162000674565b5085821015620006b45787850151600019600388901b60f8161c191681555b5050505050600190811b01905550565b6080516112db6200070a600039600081816102320152818161035f01528181610409015281816105fd015281816106bc01528181610831015261099701526112db6000f3fe608060405234801561001057600080fd5b506004361061010b5760003560e01c8063a0663d1b116100a2578063d647e1e511610071578063d647e1e514610267578063db8d55f11461027a578063df1cdb461461028b578063f09b3d9a1461029e578063f3ea001e146102b157600080fd5b8063a0663d1b14610212578063b4e87e8f14610225578063cb6090771461022d578063d4c301da1461025457600080fd5b80634fe17e1a116100de5780634fe17e1a1461018957806384314347146101a957806396eb58f8146101bc5780639af1d35a146101dc57600080fd5b80630d02cde714610110578063164e68de146101405780634238a63a14610155578063433d3a7714610176575b600080fd5b600454610123906001600160a01b031681565b6040516001600160a01b0390911681526020015b60405180910390f35b61015361014e366004610a74565b6102c4565b005b610168610163366004610af9565b6103fc565b604051908152602001610137565b600754610123906001600160a01b031681565b61019c610197366004610b8a565b6105b5565b6040516101379190610be9565b6101536101b7366004610c9f565b6105f2565b6101686101ca366004610b8a565b60016020526000908152604090205481565b600854600954600a54600b546101f29392919084565b604080519485526020850193909352918301526060820152608001610137565b610168610220366004610d30565b6106af565b61019c610796565b6101237f000000000000000000000000000000000000000000000000000000000000000081565b600554610123906001600160a01b031681565b610168610275366004610dd2565b610824565b600854600954600a54600b546101f2565b600354610123906001600160a01b031681565b6101686102ac366004610e2e565b61098a565b600654610123906001600160a01b031681565b3360009081526002602090815260408083206001600160a01b0385168452909152902054600181116103335760405162461bcd60e51b8152602060048201526014602482015273496e73756666696369656e7420726576656e756560601b604482015260640160405180910390fd5b3360009081526002602090815260408083206001600160a01b03868116855292529091206001908190557f00000000000000000000000000000000000000000000000000000000000000009091169063d6a4f84c9084906103949085610f00565b6040516001600160e01b031960e085901b1681526001600160a01b0390921660048301526024820152336044820152606401600060405180830381600087803b1580156103e057600080fd5b505af11580156103f4573d6000803e3d6000fd5b505050505050565b6000336001600160a01b037f0000000000000000000000000000000000000000000000000000000000000000161461044757604051632ad9535160e01b815260040160405180910390fd5b600354604051638893ae9d60e01b81526001600160a01b0390911690638893ae9d90610483908b908b908b908b908b908b908b90600401610fbc565b600060405180830381600087803b15801561049d57600080fd5b505af11580156104b1573d6000803e3d6000fd5b5050505060008084848101906104c79190611004565b60008a815260016020526040808220849055929450909250906104ee9088908a0135611034565b90506000612710600860000154836105069190611047565b6105109190611066565b6001600160a01b038416600090815260026020908152604082209293508392919061053d908d018d610a74565b6001600160a01b03166001600160a01b03168152602001908152602001600020600082825461056c9190611034565b90915550506040518481528a907f07c7861582baf574daa482e764ab9bc4954b9525ee7bd155bcc5a97f739e6df99060200160405180910390a29b9a5050505050505050505050565b600081815260016020908152604080832054905160609391926105db92918491016110bc565b604051602081830303815290604052915050919050565b336001600160a01b037f0000000000000000000000000000000000000000000000000000000000000000161461063b57604051632ad9535160e01b815260040160405180910390fd5b60075460405163275ecee160e01b81526001600160a01b039091169063275ecee1906106759089908990899089908990899060040161115e565b600060405180830381600087803b15801561068f57600080fd5b505af11580156106a3573d6000803e3d6000fd5b50505050505050505050565b6000336001600160a01b037f000000000000000000000000000000000000000000000000000000000000000016146106fa57604051632ad9535160e01b815260040160405180910390fd5b6006546040516353ba2df360e01b81526001600160a01b03909116906353ba2df390610738908c908c908c908c908c908c908c908c906004016111b3565b600060405180830381600087803b15801561075257600080fd5b505af1158015610766573d6000803e3d6000fd5b5050600b5460009250612710915061077e9089611047565b6107889190611066565b9a9950505050505050505050565b600080546107a390611088565b80601f01602080910402602001604051908101604052809291908181526020018280546107cf90611088565b801561081c5780601f106107f15761010080835404028352916020019161081c565b820191906000526020600020905b8154815290600101906020018083116107ff57829003601f168201915b505050505081565b6000336001600160a01b037f0000000000000000000000000000000000000000000000000000000000000000161461086f57604051632ad9535160e01b815260040160405180910390fd5b6005546040516329cc185f60e21b81526001600160a01b039091169063a730617c906108ad908c908c908c908c908c908c908c908c90600401611212565b600060405180830381600087803b1580156108c757600080fd5b505af11580156108db573d6000803e3d6000fd5b50600092506108ef91505083850185610a74565b600a54909150600090612710906109068a8c611034565b6109109190611047565b61091a9190611066565b6001600160a01b0383166000908152600260209081526040822092935083929190610947908a018a610a74565b6001600160a01b03166001600160a01b0316815260200190815260200160002060008282546109769190611034565b90915550909b9a5050505050505050505050565b6000336001600160a01b037f000000000000000000000000000000000000000000000000000000000000000016146109d557604051632ad9535160e01b815260040160405180910390fd5b600480546040516309b1079760e21b81526001600160a01b03909116916326c41e5c91610a12918d918d918d918d918d918d918d918d910161124d565b600060405180830381600087803b158015610a2c57600080fd5b505af1158015610a40573d6000803e3d6000fd5b505060095460009250612710915061077e906040870135611047565b6001600160a01b0381168114610a7157600080fd5b50565b600060208284031215610a8657600080fd5b8135610a9181610a5c565b9392505050565b600060e08284031215610aaa57600080fd5b50919050565b60008083601f840112610ac257600080fd5b50813567ffffffffffffffff811115610ada57600080fd5b602083019150836020828501011115610af257600080fd5b9250929050565b6000806000806000806000610180888a031215610b1557600080fd5b8735610b2081610a5c565b96506020880135610b3081610a5c565b955060408801359450610b468960608a01610a98565b9350610140880135925061016088013567ffffffffffffffff811115610b6b57600080fd5b610b778a828b01610ab0565b989b979a50959850939692959293505050565b600060208284031215610b9c57600080fd5b5035919050565b6000815180845260005b81811015610bc957602081850181015186830182015201610bad565b506000602082860101526020601f19601f83011685010191505092915050565b602081526000610a916020830184610ba3565b634e487b7160e01b600052604160045260246000fd5b600082601f830112610c2357600080fd5b813567ffffffffffffffff80821115610c3e57610c3e610bfc565b604051601f8301601f19908116603f01168101908282118183101715610c6657610c66610bfc565b81604052838152866020858801011115610c7f57600080fd5b836020870160208301376000602085830101528094505050505092915050565b6000806000806000806101808789031215610cb957600080fd5b8635610cc481610a5c565b95506020870135610cd481610a5c565b94506040870135610ce481610a5c565b935060608701359250610cfa8860808901610a98565b915061016087013567ffffffffffffffff811115610d1757600080fd5b610d2389828a01610c12565b9150509295509295509295565b6000806000806000806000806101a0898b031215610d4d57600080fd5b8835610d5881610a5c565b97506020890135610d6881610a5c565b96506040890135610d7881610a5c565b95506060890135945060808901359350610d958a60a08b01610a98565b925061018089013567ffffffffffffffff811115610db257600080fd5b610dbe8b828c01610ab0565b999c989b5096995094979396929594505050565b6000806000806000806000806101a0898b031215610def57600080fd5b8835610dfa81610a5c565b97506020890135610e0a81610a5c565b9650604089013595506060890135945060808901359350610d958a60a08b01610a98565b6000806000806000806000806101c0898b031215610e4b57600080fd5b8835610e5681610a5c565b975060208901358015158114610e6b57600080fd5b96506040890135610e7b81610a5c565b95506060890135610e8b81610a5c565b94506080890135610e9b81610a5c565b935060a08901359250610eb18a60c08b01610a98565b91506101a089013567ffffffffffffffff811115610ece57600080fd5b610eda8b828c01610c12565b9150509295985092959890939650565b634e487b7160e01b600052601160045260246000fd5b81810381811115610f1357610f13610eea565b92915050565b8035610f2481610a5c565b6001600160a01b0390811683526020828101359084015260408083013590840152606082013590610f5482610a5c565b9081166060840152608082013590610f6b82610a5c565b908116608084015260a082013590610f8282610a5c565b1660a083015260c090810135910152565b81835281816020850137506000828201602090810191909152601f909101601f19169091010190565b6001600160a01b03888116825287166020820152604081018690526000610180610fe96060840188610f19565b85610140840152806101608401526107888184018587610f93565b6000806040838503121561101757600080fd5b82359150602083013561102981610a5c565b809150509250929050565b80820180821115610f1357610f13610eea565b600081600019048311821515161561106157611061610eea565b500290565b60008261108357634e487b7160e01b600052601260045260246000fd5b500490565b600181811c9082168061109c57607f821691505b602082108103610aaa57634e487b7160e01b600052602260045260246000fd5b600080845481600182811c9150808316806110d857607f831692505b602080841082036110f757634e487b7160e01b86526022600452602486fd5b81801561110b57600181146111205761114d565b60ff198616895284151585028901965061114d565b60008b81526020902060005b868110156111455781548b82015290850190830161112c565b505084890196505b509785525050509301949350505050565b6001600160a01b0387811682528681166020830152851660408201526060810184905260006101806111936080840186610f19565b806101608401526111a681840185610ba3565b9998505050505050505050565b6001600160a01b038981168252888116602083015287166040820152606081018690526080810185905260006101a06111ef60a0840187610f19565b806101808401526112038184018587610f93565b9b9a5050505050505050505050565b6001600160a01b0389811682528816602082015260408101879052606081018690526080810185905260006101a06111ef60a0840187610f19565b6001600160a01b0389811682528815156020830152878116604083015286811660608301528516608082015260a0810184905260006101c061129260c0840186610f19565b806101a084015261120381840185610ba356fea26469706673582212208e3e4d2421b645c423023f08943c0678437708dbca78aec6810a6585c1cac9e564736f6c634300081000334d6f64756c653a2046656520746f6f2068696768000000000000000000000000",
    "linkReferences": {}
  },
  "methodIdentifiers": {
    "REGISTRAR()": "cb609077",
    "_URI()": "b4e87e8f",
    "approveRule()": "433d3a77",
    "cashRule()": "f3ea001e",
    "fees()": "9af1d35a",
    "fundRule()": "d4c301da",
    "getFees()": "db8d55f1",
    "memo(uint256)": "96eb58f8",
    "processApproval(address,address,address,uint256,(address,uint256,uint256,address,address,address,uint256),bytes)": "84314347",
    "processCash(address,address,address,uint256,uint256,(address,uint256,uint256,address,address,address,uint256),bytes)": "a0663d1b",
    "processFund(address,address,uint256,uint256,uint256,(address,uint256,uint256,address,address,address,uint256),bytes)": "d647e1e5",
    "processTokenURI(uint256)": "4fe17e1a",
    "processTransfer(address,bool,address,address,address,uint256,(address,uint256,uint256,address,address,address,uint256),bytes)": "f09b3d9a",
    "processWrite(address,address,uint256,(address,uint256,uint256,address,address,address,uint256),uint256,bytes)": "4238a63a",
    "transferRule()": "0d02cde7",
    "withdrawFees(address)": "164e68de",
    "writeRule()": "df1cdb46"
  },
  "id": 36
}