{"abi":[{"type":"constructor","inputs":[{"name":"registrar","type":"address","internalType":"address"}],"stateMutability":"nonpayable"},{"type":"function","name":"REGISTRAR","inputs":[],"outputs":[{"name":"","type":"address","internalType":"address"}],"stateMutability":"view"},{"type":"function","name":"payments","inputs":[{"name":"notaId","type":"uint256","internalType":"uint256"}],"outputs":[{"name":"cashBy","type":"uint256","internalType":"uint256"},{"name":"sender","type":"address","internalType":"address"},{"name":"external_url","type":"string","internalType":"string"},{"name":"imageURI","type":"string","internalType":"string"}],"stateMutability":"view"},{"type":"function","name":"processApproval","inputs":[{"name":"caller","type":"address","internalType":"address"},{"name":"owner","type":"address","internalType":"address"},{"name":"to","type":"address","internalType":"address"},{"name":"notaId","type":"uint256","internalType":"uint256"},{"name":"nota","type":"tuple","internalType":"struct Nota","components":[{"name":"escrowed","type":"uint256","internalType":"uint256"},{"name":"currency","type":"address","internalType":"address"},{"name":"module","type":"address","internalType":"contract INotaModule"}]}],"outputs":[],"stateMutability":"nonpayable"},{"type":"function","name":"processCash","inputs":[{"name":"","type":"address","internalType":"address"},{"name":"owner","type":"address","internalType":"address"},{"name":"to","type":"address","internalType":"address"},{"name":"","type":"uint256","internalType":"uint256"},{"name":"notaId","type":"uint256","internalType":"uint256"},{"name":"","type":"tuple","internalType":"struct Nota","components":[{"name":"escrowed","type":"uint256","internalType":"uint256"},{"name":"currency","type":"address","internalType":"address"},{"name":"module","type":"address","internalType":"contract INotaModule"}]},{"name":"","type":"bytes","internalType":"bytes"}],"outputs":[{"name":"","type":"uint256","internalType":"uint256"}],"stateMutability":"nonpayable"},{"type":"function","name":"processFund","inputs":[{"name":"","type":"address","internalType":"address"},{"name":"","type":"address","internalType":"address"},{"name":"","type":"uint256","internalType":"uint256"},{"name":"","type":"uint256","internalType":"uint256"},{"name":"","type":"uint256","internalType":"uint256"},{"name":"","type":"tuple","internalType":"struct Nota","components":[{"name":"escrowed","type":"uint256","internalType":"uint256"},{"name":"currency","type":"address","internalType":"address"},{"name":"module","type":"address","internalType":"contract INotaModule"}]},{"name":"","type":"bytes","internalType":"bytes"}],"outputs":[{"name":"","type":"uint256","internalType":"uint256"}],"stateMutability":"nonpayable"},{"type":"function","name":"processTokenURI","inputs":[{"name":"tokenId","type":"uint256","internalType":"uint256"}],"outputs":[{"name":"","type":"string","internalType":"string"},{"name":"","type":"string","internalType":"string"}],"stateMutability":"view"},{"type":"function","name":"processTransfer","inputs":[{"name":"","type":"address","internalType":"address"},{"name":"","type":"address","internalType":"address"},{"name":"","type":"address","internalType":"address"},{"name":"","type":"address","internalType":"address"},{"name":"","type":"address","internalType":"address"},{"name":"","type":"uint256","internalType":"uint256"},{"name":"","type":"tuple","internalType":"struct Nota","components":[{"name":"escrowed","type":"uint256","internalType":"uint256"},{"name":"currency","type":"address","internalType":"address"},{"name":"module","type":"address","internalType":"contract INotaModule"}]},{"name":"","type":"bytes","internalType":"bytes"}],"outputs":[{"name":"","type":"uint256","internalType":"uint256"}],"stateMutability":"nonpayable"},{"type":"function","name":"processWrite","inputs":[{"name":"caller","type":"address","internalType":"address"},{"name":"","type":"address","internalType":"address"},{"name":"notaId","type":"uint256","internalType":"uint256"},{"name":"","type":"address","internalType":"address"},{"name":"","type":"uint256","internalType":"uint256"},{"name":"","type":"uint256","internalType":"uint256"},{"name":"writeData","type":"bytes","internalType":"bytes"}],"outputs":[{"name":"","type":"uint256","internalType":"uint256"}],"stateMutability":"nonpayable"},{"type":"event","name":"ModuleBaseConstructed","inputs":[{"name":"registrar","type":"address","indexed":true,"internalType":"address"},{"name":"timestamp","type":"uint256","indexed":false,"internalType":"uint256"}],"anonymous":false},{"type":"event","name":"PaymentCreated","inputs":[{"name":"notaId","type":"uint256","indexed":true,"internalType":"uint256"},{"name":"sender","type":"address","indexed":true,"internalType":"address"},{"name":"cashBy","type":"uint256","indexed":false,"internalType":"uint256"},{"name":"external_url","type":"string","indexed":false,"internalType":"string"},{"name":"imageURI","type":"string","indexed":false,"internalType":"string"}],"anonymous":false},{"type":"error","name":"Disallowed","inputs":[]},{"type":"error","name":"InitParamsInvalid","inputs":[]},{"type":"error","name":"NotRegistrar","inputs":[]}],"bytecode":{"object":"0x60a0346100d057601f61184838819003918201601f19168301916001600160401b038311848410176100d5578084926020946040528339810103126100d057516001600160a01b038116908181036100d05781156100be576080527ff1a1fa6b64aa95186f5a1285e76198d0da80d9c5a88062641d447f1d7c54e56c6020604051428152a260405161175c90816100ec823960805181818160c20152818161016f015281816106ea0152818161087701528181610a7b01526113af0152f35b6040516348be0eb360e01b8152600490fd5b600080fd5b634e487b7160e01b600052604160045260246000fdfe608080604052600436101561001357600080fd5b60003560e01c908163300826d614611324575080634fe17e1a14610acb57806367f9f4f5146109d5578063747729d1146107c757806387d817891461071b578063aca2caf314610627578063b5d701ba146100eb5763cb6090771461007757600080fd5b346100e65760007ffffffffffffffffffffffffffffffffffffffffffffffffffffffffffffffffc3601126100e657602060405173ffffffffffffffffffffffffffffffffffffffff7f0000000000000000000000000000000000000000000000000000000000000000168152f35b600080fd5b346100e65760e07ffffffffffffffffffffffffffffffffffffffffffffffffffffffffffffffffc3601126100e6576101226113ff565b61012a611422565b50610133611468565b5060c43567ffffffffffffffff81116100e6576101549036906004016114f1565b919073ffffffffffffffffffffffffffffffffffffffff92837f00000000000000000000000000000000000000000000000000000000000000001633036105fd5781016060828203126100e657602082013567ffffffffffffffff81116100e657816101c19184016116ce565b9060408301359067ffffffffffffffff82116100e6576101e29184016116ce565b91604051946101f086611572565b8135865260208601958186168752604081018481528560608301526044356000526000602052604060002097825189558360018a019151167fffffffffffffffffffffffff00000000000000000000000000000000000000008254161790555180519067ffffffffffffffff82116104cf5761026f60028a015461151f565b601f81116105b6575b50602090601f8311600114610509576060939291600091836104fe575b50507fffffffffffffffffffffffffffffffffffffffffffffffffffffffffffffffff8260011b9260031b1c19161760028901555b015195865167ffffffffffffffff81116104cf576102eb600383015461151f565b601f8111610484575b506020601f82116001146103b4578161039b9493926003927fb857196cdec4ad8a8c745f08192836aed93a353d2524a9128cd5175d572a8cf9999a9b6000926103a9575b50507fffffffffffffffffffffffffffffffffffffffffffffffffffffffffffffffff8260011b92841b1c1916179101555b6103876040519485943585526060602086015260608501906114ae565b9683880360408501521695604435956114ae565b0390a3602060405160008152f35b015190508b80610338565b7fffffffffffffffffffffffffffffffffffffffffffffffffffffffffffffffe08216986003840160005260206000209960005b81811061046c5750927fb857196cdec4ad8a8c745f08192836aed93a353d2524a9128cd5175d572a8cf998999a6003936001938361039b99989710610436575b505050811b0191015561036a565b01517fffffffffffffffffffffffffffffffffffffffffffffffffffffffffffffffff60f884871b161c191690558b8080610428565b838301518c556001909b019a602093840193016103e8565b600383016000526020600020601f830160051c810191602084106104c5575b601f0160051c01905b8181106104b957506102f4565b600081556001016104ac565b90915081906104a3565b7f4e487b7100000000000000000000000000000000000000000000000000000000600052604160045260246000fd5b015190508a80610295565b907fffffffffffffffffffffffffffffffffffffffffffffffffffffffffffffffe083169160028b0160005260206000209260005b81811061059e5750916001939185606097969410610567575b505050811b0160028901556102ca565b01517fffffffffffffffffffffffffffffffffffffffffffffffffffffffffffffffff60f88460031b161c191690558a8080610557565b9293602060018192878601518155019501930161053e565b60028a016000526020600020601f840160051c8101602085106105f6575b601f830160051c820181106105ea575050610278565b600081556001016105d4565b50806105d4565b60046040517f2ad95351000000000000000000000000000000000000000000000000000000008152fd5b346100e6576101407ffffffffffffffffffffffffffffffffffffffffffffffffffffffffffffffffc3601126100e65761065f6113ff565b50610668611422565b50610671611445565b5061067a611468565b5073ffffffffffffffffffffffffffffffffffffffff608435818116036100e65760607fffffffffffffffffffffffffffffffffffffffffffffffffffffffffffffff3c3601126100e6576101243567ffffffffffffffff81116100e6576106e69036906004016114f1565b50507f00000000000000000000000000000000000000000000000000000000000000001633036105fd57602060405160008152f35b346100e65760207ffffffffffffffffffffffffffffffffffffffffffffffffffffffffffffffffc3601126100e6576004356000526000602052604060002080546107c373ffffffffffffffffffffffffffffffffffffffff600184015416926107b5610796600361078f600285016115cf565b93016115cf565b91604051958695865260208601526080604086015260808501906114ae565b9083820360608501526114ae565b0390f35b346100e6576101207ffffffffffffffffffffffffffffffffffffffffffffffffffffffffffffffffc3601126100e6576107ff6113ff565b50610808611422565b610810611445565b9060607fffffffffffffffffffffffffffffffffffffffffffffffffffffffffffffff5c3601126100e6576101043567ffffffffffffffff81116100e65761085c9036906004016114f1565b505073ffffffffffffffffffffffffffffffffffffffff90817f00000000000000000000000000000000000000000000000000000000000000001633036105fd57819060843560005260006020526040600020906040516108bc81611572565b825481526108eb60038560018601541694602084019586526108e0600282016115cf565b6040850152016115cf565b60608201525142111561096c5750511691160361090e575b602060405160008152f35b60646040517f08c379a000000000000000000000000000000000000000000000000000000000815260206004820152600c60248201527f4f6e6c79546f53656e64657200000000000000000000000000000000000000006044820152fd5b905016911603156109035760646040517f08c379a000000000000000000000000000000000000000000000000000000000815260206004820152600b60248201527f4f6e6c79546f4f776e65720000000000000000000000000000000000000000006044820152fd5b346100e6576101207ffffffffffffffffffffffffffffffffffffffffffffffffffffffffffffffffc3601126100e657610a0d6113ff565b50610a16611422565b5060607fffffffffffffffffffffffffffffffffffffffffffffffffffffffffffffff5c3601126100e6576101043567ffffffffffffffff81116100e657610a629036906004016114f1565b505073ffffffffffffffffffffffffffffffffffffffff7f00000000000000000000000000000000000000000000000000000000000000001633036105fd5760046040517f5a892887000000000000000000000000000000000000000000000000000000008152fd5b346100e6576020807ffffffffffffffffffffffffffffffffffffffffffffffffffffffffffffffffc3601126100e6576004358060005260008252604060002060405191610b1883611572565b8154835273ffffffffffffffffffffffffffffffffffffffff60019281848201541691868601928352610b606003610b52600285016115cf565b9360408901948552016115cf565b9260608701938452511691604051956060870187811067ffffffffffffffff8211176104cf57604052602a875287870193604036863787511561113457603085538751871015611134576078602189015360295b8781116112b7575061125a578790519384906000987a184f03e93ff9f4daa797ed6e38ed64bf6a1f0100000000000000008088101561124c575b506d04ee2d6d415b85acef81000000008084101561123e575b50662386f26fc100008084101561122f575b506305f5e10080841015611220575b5061271080841015611211575b506064831015611201575b600a809310156111f8575b888a0192610c71610c5b85611694565b94610c69604051968761158e565b808652611694565b978a60218787019d8e7fffffffffffffffffffffffffffffffffffffffffffffffffffffffffffffffe0809d0190369037870101905b611199575b50505098606c92610d78610dad9593610d1c7f2c7b2274726169745f74797065223a2253656e646572222c2276616c7565223a9d6040519e8f978801527f22000000000000000000000000000000000000000000000000000000000000006040880152518092604188019061148b565b8401917f227d2c7b2274726169745f74797065223a22436173682042792044617465222c60418401527f2276616c7565223a2200000000000000000000000000000000000000000000006061840152518093606a84019061148b565b017f227d000000000000000000000000000000000000000000000000000000000000606a82015203604c81018952018761158e565b5193839060008560801c8061118d575b508260401c80611182575b5082891c80611177575b5081908160109480861c8061116a575b5060081c611163575b5001949185821b957f7fffffffffffffffffffffffffffffffffffffffffffffffffffffffffffffff81160361110557600286019586811161110557610e49610e3388611694565b97610e41604051998a61158e565b808952611694565b878b0196013687378651156111345760308653865183101561113457607860218801538281018091116111055791905b818311611095575050506110385760d46107c39461102b9794610f36946110179451916040519687947f2c22696d616765223a22000000000000000000000000000000000000000000008a870152610eda815180928c602a8a01910161148b565b8501917f222c226e616d65223a2243617368204265666f72652044617465204e6f746120602a8401527f2300000000000000000000000000000000000000000000000000000000000000604a840152518093604b84019061148b565b017f222c2265787465726e616c5f75726c223a220000000000000000000000000000604b820152610f708251809389605d8501910161148b565b017f222c226465736372697074696f6e223a22416c6c6f777320746865206f776e65605d8201527f7220746f20636c61696d2074686520746f6b656e73206265666f726520746865607d8201527f2065787069727920646174652c206f7468657277697365207468652073656e64609d8201527f65722063616e2074616b65207468656d206261636b2e2200000000000000000060bd8201520360b481018452018261158e565b6040519485946040865260408601906114ae565b91848303908501526114ae565b606486604051907f08c379a000000000000000000000000000000000000000000000000000000000825280600483015260248201527f537472696e67733a20686578206c656e67746820696e73756666696369656e746044820152fd5b909192600f811682811015611134577f3031323334353637383961626364656600000000000000000000000000000000901a6110d18589611715565b5360041c928015611105577fffffffffffffffffffffffffffffffffffffffffffffffffffffffffffffffff019190610e79565b7f4e487b7100000000000000000000000000000000000000000000000000000000600052601160045260246000fd5b7f4e487b7100000000000000000000000000000000000000000000000000000000600052603260045260246000fd5b0181610deb565b600291509201918c610de2565b925060040181610dd2565b925060080189610dc8565b92506010905089610dbd565b7fffffffffffffffffffffffffffffffffffffffffffffffffffffffffffffffff839101917f30313233343536373839616263646566000000000000000000000000000000008282061a8353049081156111f3578b610ca7565b610cac565b98880198610c4b565b9891606460029104920198610c40565b6004919a93049201988b610c35565b6008919a93049201988b610c28565b6010919a93049201988b610c19565b84919a93049201988b610c07565b60409a50870492508b610bee565b606488604051907f08c379a000000000000000000000000000000000000000000000000000000000825280600483015260248201527f537472696e67733a20686578206c656e67746820696e73756666696369656e746044820152fd5b90600f81166010811015611134577f3031323334353637383961626364656600000000000000000000000000000000901a6112f2838b611715565b5360041c908015611105577fffffffffffffffffffffffffffffffffffffffffffffffffffffffffffffffff01610bb4565b346100e65760e07ffffffffffffffffffffffffffffffffffffffffffffffffffffffffffffffffc3601126100e65761135b6113ff565b50611364611422565b5061136d611445565b5060607fffffffffffffffffffffffffffffffffffffffffffffffffffffffffffffff7c3601126100e65773ffffffffffffffffffffffffffffffffffffffff7f00000000000000000000000000000000000000000000000000000000000000001633036113d757005b807f2ad953510000000000000000000000000000000000000000000000000000000060049252fd5b6004359073ffffffffffffffffffffffffffffffffffffffff821682036100e657565b6024359073ffffffffffffffffffffffffffffffffffffffff821682036100e657565b6044359073ffffffffffffffffffffffffffffffffffffffff821682036100e657565b6064359073ffffffffffffffffffffffffffffffffffffffff821682036100e657565b60005b83811061149e5750506000910152565b818101518382015260200161148e565b907fffffffffffffffffffffffffffffffffffffffffffffffffffffffffffffffe0601f6020936114ea8151809281875287808801910161148b565b0116010190565b9181601f840112156100e65782359167ffffffffffffffff83116100e657602083818601950101116100e657565b90600182811c92168015611568575b602083101461153957565b7f4e487b7100000000000000000000000000000000000000000000000000000000600052602260045260246000fd5b91607f169161152e565b6080810190811067ffffffffffffffff8211176104cf57604052565b90601f7fffffffffffffffffffffffffffffffffffffffffffffffffffffffffffffffe0910116810190811067ffffffffffffffff8211176104cf57604052565b90604051918260008254926115e38461151f565b908184526001948581169081600014611652575060011461160f575b505061160d9250038361158e565b565b9093915060005260209081600020936000915b81831061163a57505061160d935082010138806115ff565b85548884018501529485019487945091830191611622565b905061160d9550602093507fffffffffffffffffffffffffffffffffffffffffffffffffffffffffffffff0091501682840152151560051b82010138806115ff565b67ffffffffffffffff81116104cf57601f017fffffffffffffffffffffffffffffffffffffffffffffffffffffffffffffffe01660200190565b81601f820112156100e6578035906116e582611694565b926116f3604051948561158e565b828452602083830101116100e657816000926020809301838601378301015290565b90815181101561113457016020019056fea264697066735822122012ace7c34e002467e32f9c08778e21bcc537a6b1306cdb4ce85b45e2c0cfea9a64736f6c63430008140033","linkReferences":{}},"methodIdentifiers":{"REGISTRAR()":"cb609077","payments(uint256)":"87d81789","processApproval(address,address,address,uint256,(uint256,address,address))":"300826d6","processCash(address,address,address,uint256,uint256,(uint256,address,address),bytes)":"747729d1","processFund(address,address,uint256,uint256,uint256,(uint256,address,address),bytes)":"67f9f4f5","processTokenURI(uint256)":"4fe17e1a","processTransfer(address,address,address,address,address,uint256,(uint256,address,address),bytes)":"aca2caf3","processWrite(address,address,uint256,address,uint256,uint256,bytes)":"b5d701ba"},"id":45}